:020000040800F2
:1000000020050020ED01000853170008770F0008B5
:100010005117000825030008E92F00080000000020
:100020000000000000000000000000000D1B0008A0
:10003000270300080000000055170008C11D000834
:10004000070200080702000807020008070200086C
:10005000070200080702000807020008070200085C
:10006000070200080702000807020008070200084C
:10007000070200080702000807020008070200083C
:10008000070200080000000007020008070200083D
:10009000070200080702000807020008070200081C
:1000A000070200080702000807020008070200080C
:1000B00007020008070200080702000807020008FC
:1000C00007020008070200080702000807020008EC
:1000D00007020008DD2F00080702000807020008D9
:1000E00007020008070200080702000807020008CC
:1000F00007020008070200080702000800000000CD
:1001000000000000070200080000000007020008CD
:1001100007020008000000000702000807020008AC
:10012000070200080702000807020008070200088B
:10013000070200080000000000000000070200089D
:10014000070200080702000800000000000000008D
:10015000000000000000000000000000000000009F
:10016000000000000000000000000000070200087E
:10017000070200080000000000000000000000006E
:10018000000000000702000800000000000000005E
:10019000000000000000000000000000000000005F
:1001A000000000000000000007020008070200082D
:1001B000070200080702000807020008000000000C
:1001C000000000000702000800000000000000001E
:1001D0000702000807020008DFF80CD000F090F8D2
:1001E00000480047A131000820050020064880474C
:1001F00006480047FEE7FEE7FEE7FEE7FEE7FEE70C
:10020000FEE7FEE7FEE7FEE7C51D0008D90100088E
:100210002DE9F05F0546002092469B46884606463B
:10022000814640241BE0284641464746224600F0CE
:1002300057F853465A46C01A914110D311461846F2
:10024000224600F03EF82D1A67EB01084F46224681
:100250000120002100F035F817EB00094E41201E67
:10026000A4F10104DFDC484631462A464346BDE896
:10027000F09FD2B201E000F8012B491EFBD270477B
:100280000022F6E710B513460A4604461946FFF762
:10029000F0FF204610BD30B50B460146002020225D
:1002A000012409E021FA02F59D4205D303FA02F583
:1002B000491B04FA02F52844151EA2F10102F1DCE3
:1002C00030BD202A04DB203A00FA02F100207047FA
:1002D0009140C2F1200320FA03F319439040704784
:1002E000202A04DB203A21FA02F00021704721FA8B
:1002F00002F3D040C2F120029140084319467047F2
:10030000064C074D06E0E06840F0010394E8070062
:1003100098471034AC42F6D3FFF762FF2C45000833
:100320004C450008FEE77047002240F6B83306E06F
:100330000021491C89B29942FBD3521C92B28242DD
:10034000F6D3704710B5044600F092FEA02000F0EE
:1003500050FE00F0C3FE204600F04BFE00F0BEFE53
:1003600000F0A1FE00F084FEA12000F042FE00F0AB
:10037000B5FE00F017FE044600F062FE00F0AEFE8F
:1003800000F091FE204610BD70B50D46044600F009
:100390006FFEA02000F02DFE00F0A0FE204600F031
:1003A00028FE00F09BFE284600F023FE00F096FE9B
:1003B00000F079FEBDE87040052000F04BB87047B2
:1003C00010B5002490F8251000230122022907D03F
:1003D0000421C16380F8252080F82430012437E00F
:1003E0000168D1F800C02CF00E0CC1F800C0016803
:1003F000D1F800C02CF0010CC1F800C0816CD1F81C
:1004000000C02CF4807CC1F800C090F84410D0F8F3
:1004100040C001F01F0102FA01F1CCF80410D0F83D
:100420004CC0016DCCF80410416D51B1D1F800C041
:100430002CF4807CC1F800C0D0F858C0C16DCCF855
:10044000041080F8252080F82430816B01B18847A2
:10045000204610BD70B5044600F03EF90546B4F1E3
:10046000FF3F02D004484068044400F035F9401BC7
:10047000A042FAD370BD00001C0000202DE9F84F07
:1004800000220B68002B7CD00324874E874F0F255A
:100490000123D1F800C003FA02F80CEA0803002B8C
:1004A00070D0D1F804C0BCF1010F08D0BCF1020F2C
:1004B00005D0BCF1110F02D0BCF1120F1DD1D0F844
:1004C00008904FEA420C04FA0CFA29EA0A09D1F81A
:1004D0000CA00AFA0CFC4CEA090CC0F808C0D0F8D1
:1004E00004C02CEA080C91F80480C8F3001808FA3C
:1004F00002F848EA0C0CC0F804C0D0F80C804FEAAF
:10050000420C04FA0CFA28EA0A08D1F8089009FA11
:100510000CF949EA0808C0F80C80D1F80480B8F159
:10052000020F02D0B8F1120F15D14FEAD20800EB3A
:100530008808D8F820B04FEA42794FEAD96905FA1D
:1005400009FE2BEA0E0BD1F810E00EFA09F949EA80
:100550000B09C8F82090D0F8008028EA0A0891F822
:10056000049009F0030909FA0CFC4CEA080CC0F8E5
:1005700000C0D1F804C01CF0805F7CD0D6F860C009
:1005800001E07DE077E04CF0010CC6F860C0D6F8E1
:1005900060C00CF0010CCDF800C022F0030C0CF18F
:1005A000804909F58039D9F808C04FEA82784FEAC6
:1005B000187805FA08FA2CEA0A0AB0F1904F64D0CC
:1005C000A0F1904CBCF5806C5CD0A0F1904CBCF5D7
:1005D000006C5DD0A0F1904CBCF5406C5BD0A0F1FC
:1005E000904CBCF5805C59D0A0F1904CBCF5A05C5F
:1005F00057D04FF0060C0CFA08FC4CEA0A0CC9F86C
:1006000008C0D7F800C02CEA030CD1F8048018F415
:10061000803F01D04CEA030CC7F800C0DFF890809F
:10062000D8F800C02CEA030CD1F8049019F4003F6C
:1006300001D04CEA030CC8F800C0DFF87880D8F885
:1006400000C02CEA030CD1F8049019F4801F01D0EB
:100650004CEA030CC8F800C0DFF85C80D8F800C092
:100660002CEA030CD1F8049019F4001F01D04CEAD5
:10067000030CC8F800C0521C0B68D3407FF408AFCD
:10068000BDE8F88F4FF0010CB5E74FF0000CB2E772
:100690004FF0020CAFE74FF0030CACE74FF0040C47
:1006A000A9E74FF0050CA6E7001002400004014046
:1006B00004040140080401400C04014000690842A0
:1006C00001D00120704700207047002A01D08161CD
:1006D00070478162704700000148806870470000E1
:1006E0001C00002002488168426811448160704704
:1006F0001C00002010B50024032000F08FF800201B
:1007000000F008F808B1012401E000F029F82046C3
:1007100010BD000070B5054600240F4E706800281B
:1007200017D04FF47A71B1FBF0F00C490968B1FBB6
:10073000F0F000F0EBF808B101240BE0102D06D228
:1007400000222946501E00F035F8356002E00124F1
:1007500000E00124204670BD1C000020180000208D
:100760000B4808B5016E41F001010166016E01F010
:1007700001010091816D41F080518165806D00F033
:10078000805000900348816841F48041816008BD39
:10079000001002400070004000280ADB00F01F013A
:1007A000012202FA01F14009800000F1E020C0F8C6
:1007B0000011704710B4184B1B68C3F30223C3F138
:1007C000070CBCF1040F01D94FF0040C1C1D072CC1
:1007D00001D2002300E0DB1E012404FA0CFCACF182
:1007E000010C0CEA0101994004FA03F35B1E1A4064
:1007F0001143002806DB00F1E020090180F8001415
:1008000010BC704700F00F0000F1E020090180F8F3
:10081000141D10BC704700000CED00E000F0070054
:10082000064A11684FF6FF03194041EA002040F0E4
:10083000FD7040F080601060704700000CED00E03B
:1008400001480068704700001800002000B5FFF75D
:10085000F7FF05498968054AC1F30221515C01F09F
:100860001F01C84000BD00000010024024450008E0
:1008700000B5FFF7E5FF05498968054AC1F3C221C4
:10088000515C01F01F01C84000BD00000010024093
:10089000244500081A4A9068DFF868C000F00C0090
:1008A00004280CD0906800F00C011748082905D0E6
:1008B00091680C2333EA010103D0002070476046A1
:1008C0007047D16801F00303D168C1F30311491CDB
:1008D000032B0DD0BCFBF1F0D168C1F306214843D6
:1008E000D168C1F34161491C4900B0FBF1F0704788
:1008F000B0FBF1F0D168C1F306214843F0E70000F6
:10090000001002400024F40000366E01401EB0F1D9
:10091000807F01D3012070474FF0E0214861044AF5
:10092000F0201070002088610720086100207047C7
:1009300023ED00E0F0B490F83C20012A3ED00124E1
:1009400080F83C40022280F83D2003685A68D3F8C2
:1009500008C01C4D1C4EAB4201D0B34203D122F45F
:1009600070024F683A4322F0700222F000720F6862
:100970003A435A600268AA4213D0B2F1804F10D0B5
:10098000A2F18043B3F580630BD0A2F18043B3F5AD
:10099000006306D0B24204D0A2F18043B3F5A03385
:1009A00004D12CF0800389681943916080F83D40A0
:1009B000002180F83C10F0BC00207047F0BC022001
:1009C00070470000002C01400034014010B586B093
:1009D000044614216846FFF753FC2068B0F1804FAD
:1009E00015D10C48C16C41F00101C164C06C69466D
:1009F00000F001000590022000900190002002907C
:100A00000390012004904FF09040FFF737FD06B0AF
:100A100010BD00000010024070B504460D4694F869
:100A20003C0001280BD0012084F83C000C2A4AD05D
:100A300007DC5AB1042A1DD0082A43D12FE0022036
:100A400070BD102A54D0142A7AD165E02946206856
:100A500001F01EFA2068816941F008018161206877
:100A6000816921F004018161206881692A6911434B
:100A7000816165E02946206801F05EFA206881699D
:100A800041F4006181612068816921F480618161A4
:100A9000206881692A6941EA0221816150E0294682
:100AA000206801F097FA2068C16941F00801C1612E
:100AB0002068C16921F00401C1612068C1692A6907
:100AC0001143C1613CE02946206801F0D1FA206859
:100AD000C16941F40061C1612068C16921F480618C
:100AE000C1612068C1692A6941EA0221C16127E028
:100AF0002946206801F00AFB2068016D41F00801D9
:100B000001652068016D21F0040101652068016D17
:100B10002A691143016513E02946206801F030FB82
:100B20002068016D41F4006101652068016D21F4C8
:100B3000806101652068016D2A6941EA0221016531
:100B4000002084F83C0070BD10B50446002C03D092
:100B500094F83D0010B107E0012010BD002084F89A
:100B60003C00204600F022F8022084F83D00211DC0
:100B7000206801F035F9012084F8480084F83E002F
:100B800084F83F0084F8400084F8410084F8420073
:100B900084F8430084F8440084F8450084F8460053
:100BA00084F8470084F83D00002010BD08B50068B7
:100BB000B0F1804F08D10548816D41F00101816598
:100BC000806D00F00100009008BD000000100240A0
:100BD00090F87C10012918D0012180F87C10242184
:100BE000C0F8801001680A680B6823F001030B60ED
:100BF00022F0005100224266036819602021C0F8EB
:100C0000801080F87C2000207047022070477047D9
:100C100070B5044694F87C0001281DD0012084F8AA
:100C20007C002420C4F8800020680568026822F057
:100C3000010202602068826822F0606211438160D4
:100C4000204601F0D9FA206805602020C4F8800011
:100C5000002084F87C0070BD022070BD70B5044691
:100C600094F87C0001281DD0012084F87C00242009
:100C7000C4F8800020680568026822F00102026062
:100C80002068826822F0604211438160204601F0B2
:100C9000B3FA206805602020C4F88000002084F8A2
:100CA0007C0070BD022070BD704770477047000027
:100CB00070B504462368D86919689A6800F00F0C6B
:100CC000BCF1000F0FD110F0200F0CD001F0200567
:100CD00002F08056354306D0E16E00297ED02046D2
:100CE000BDE870400847BCF1000F78D0DFF898C12C
:100CF00001F4907502EA0C0C5CEA05056FD010F067
:100D0000010F0AD011F4807F07D001251D62D4F8AD
:100D1000883043F00103C4F8883010F0020F0BD084
:100D200012F0010F08D0256802232B62D4F8883016
:100D300043F00403C4F8883010F0040F0BD012F015
:100D4000010F08D0256804232B62D4F8883043F0C3
:100D50000203C4F8883010F0080F0FD001F0200310
:100D600053EA0C030AD0D4F800C00823CCF8203092
:100D7000D4F8883043F00803C4F88830D4F88830B9
:100D8000002B36D010F0200F09D001F0200002F027
:100D90008051084303D0E16E09B120468847D4F85A
:100DA00088002168896811F0400F02D110F0080F07
:100DB00024D0204601F005FB2068816811F0400F27
:100DC00018D0816821F040018160A06F70B12F4977
:100DD0008163A06FFFF7F4FA002801E009E014E056
:100DE00007D0A06F816BBDE8704008472046FFF731
:100DF0005DFF70BD2046FFF759FF70BD2046FFF72D
:100E000055FF0020C4F8880070BD10F4801F0AD080
:100E100012F4800F07D04FF4801018622046BDE80E
:100E20007040FFF742BF10F0800F0CD001F080033C
:100E300002F400021A4306D0216F0029E4D02046B4
:100E4000BDE87040084710F0400F07D011F0400F88
:100E500004D02046BDE8704001F0C5BA10F4000F80
:100E600007D011F0804F04D02046BDE87040FFF756
:100E70001BBF10F0807FC7D011F0004FC4D02046B8
:100E8000BDE87040FFF7C3BE01000010AF230008AB
:100E900010B50446002C03D0D4F8800010B107E050
:100EA000012010BD002084F87C00204600F028F8C6
:100EB0002420C4F880002068016821F0010101604D
:100EC000204601F09FFA012818D0A06A10B12046F0
:100ED00001F0CEF92068416821F49041416020681A
:100EE000816821F02A0181602068016841F00101D8
:100EF00001602046BDE8104001F026BA012010BD77
:100F000010B586B0044614216846FFF7B9F91749B1
:100F10002068884227D11648016E41F4804101665D
:100F2000016E01F480410591C16C41F00101C16481
:100F3000C06C694600F0010005904FF4C06000905D
:100F400002200190002002900390072004904FF0AF
:100F50009040FFF793FA002211462520FFF72AFC64
:100F60002520FFF719FC06B010BD00000038014035
:100F7000001002407047FEE700B585B014216846B6
:100F8000FFF77EF9C020009001200190029002201E
:100F9000039069460248FFF771FA05B000BD0000F2
:100FA0000004004870B50824002500F077FD13E028
:100FB0006806050E002000F059FD142002F0E9F843
:100FC000142002F0E6F8012000F050FD142002F099
:100FD000E0F800F057FD0543641EE4B2E8D20020BB
:100FE00000F044FD142002F0D4F800F079FD28460A
:100FF00070BD70B50446082516E000F037FD1420DA
:1010000002F0C7F804F0800000F05EFD142002F04A
:10101000C0F86006040E142002F0BBF8012000F0B6
:1010200025FD142002F0B5F86D1EEDB24FF0000062
:10103000E3D200F01BFDBDE87040142002F0A9B817
:1010400010B5012000F040FD142002F0A2F8142099
:1010500002F09FF8012000F009FD142002F099F839
:10106000002000F003FDBDE81040142002F091B80C
:1010700010B5012000F028FD142002F08AF80120AC
:1010800000F0F4FC142002F084F8002000F01CFDB5
:10109000142002F07EF8002000F0E8FCBDE81040CB
:1010A000142002F076B810B5002000F0DFFC142008
:1010B00002F06FF8002000F007FD142002F069F83C
:1010C000012000F0D3FC142002F063F8012000F0AE
:1010D000FBFCBDE81040142002F05BB810B50524FD
:1010E00000F0DCFC142002F054F8012000F0BEFCFB
:1010F000142002F04EF805E0641EA4B2142002F0A1
:1011000048F86CB100F0BEFC0028F5D100F0E8FC16
:10111000002000F0ABFC142002F03BF8002010BDD2
:1011200000F0DEFCFFF7BFFF012010BD00B585B069
:1011300014216846FFF7A4F84FF6FF7000900020D6
:101140000321CDE90201019069460248FFF796F9B3
:1011500005B000BD0008004800B585B01421684600
:10116000FFF78EF84FF6FF700090012001900320EA
:1011700003900020029069460248FFF77FF905B00E
:1011800000BD00000008004870B500240646214656
:10119000204600F003F900F041F94FF4963530464F
:1011A00000F010F9641CAC42F9D370BD30B587B0C3
:1011B00014216846FFF764F81E48C16C41F0040131
:1011C000C164C16C01F004010591C16C41F00101E1
:1011D000C164C16C01F001010591C16C41F00201D3
:1011E000C164C06C012500F0020005904FF4487006
:1011F000CDE9000500240394694602940E48FFF7E8
:101200003DF9280203940090CDE901544FF0904439
:1012100069462046FFF732F9FFF79EFFA06940F4C8
:101220008070A06104481830016841F408710160C1
:1012300007B030BD0010024000040048203AD2B28E
:10124000034B02EB420203EB021200F019B800005C
:1012500054330008F0B50E460746002540F23F140F
:1012600007E021463846FFF7E9FF103C6D1CA4B2A9
:10127000761C3278002A01D0142DF2D3F0BD000084
:101280002DE9F04791468A460026044600F086F88C
:10129000DFF84080012700BF00F0C0F85FF00005D4
:1012A00039F8160007FA05F10842404601D1408896
:1012B00000E0008800F086F86D1C102DF0D3641C4F
:1012C000E4B25146204600F069F8761C182EE3D3AC
:1012D000BDE8F0870000002010B5FFF767FF002091
:1012E00000F014F8084CA080A088A0F50241303925
:1012F00006D000F0B9FA002000F008F8A08010BD78
:1013000000F029FAF7E700000000002070B51D4941
:101310000A6842F400720A600A6842F480720A6045
:10132000184C103C226842F020022260164A1060DD
:10133000086840F02000086000BF00BF00BF2068C0
:1013400040F020002060206840F480702060FFF7AB
:10135000EDFE4FF09041886A40F48070886200BFD3
:1013600000BF00BF0848001F006885B2886940F4CC
:1013700080708861FFF7F0FE206840F40070206004
:10138000284670BD280400481408004801B5BDF87F
:1013900000000149488008BD0000002010B50C463F
:1013A0000146202000F068F82146BDE810402120C9
:1013B00000F062B801B5BDF800000149088008BD21
:1013C00000000020134A116841F4007111601149B6
:1013D00010390B6843F480730B600B6843F02003F3
:1013E0000B600D4B1860106840F02000106000BFCB
:1013F00000BF00BF086840F020000860086840F4A3
:101400008070086000BF00BF00BF086840F4007033
:101410000860704728040048140800481449086808
:1014200040F400700860086840F48070086010485C
:101430001038026842F0200202600E4B22221A602D
:101440000A6842F020020A6000BF00BF00BF0168C6
:1014500041F020010160016841F48071016000BF2A
:1014600000BF00BF016841F40071016070470000D7
:101470002804004814080048184B10B51A6842F4B4
:1014800000721A601A6842F480721A60134A103AA5
:10149000146844F020041460114C2060186840F077
:1014A0002000186000BF00BF00BF106840F020009F
:1014B0001060106840F4807010602160186840F07F
:1014C0002000186000BF00BF00BF106840F020007F
:1014D0001060106840F48070106010BD280400484F
:1014E0001408004810B501224FF6FF710748FFF7B6
:1014F000ECF8074C012204212046FFF7E6F82046CD
:101500000022BDE810400421FFF7DFB800080048C2
:10151000000C004810B50E4B0E4C012812D00228CA
:1015200014D1002201021846FFF7CFF8012204214E
:101530002046FFF7CAF820460022BDE810400421EB
:10154000FFF7C3B800224FF48071ECE710BD000034
:1015500000080048000C00482DE9F04F87B0142126
:101560006846FEF78DFE3F48C16C41F00401C1643E
:10157000C16C01F004010591C16C41F02001C1640E
:10158000C16C01F020010591C16C41F00101C16401
:10159000C16C01F001010591C16C41F00201C1640F
:1015A000C16C01F002010591C16C41F00801C164F8
:1015B000C06CDFF8B48000F008004FF6FF740590AF
:1015C000002221464046FFF780F84FF480764FF026
:1015D0009049002231464846FFF777F8DFF88CA0A3
:1015E000002204215046FFF770F8DFF884B04FF472
:1015F0004877002239465846FFF767F80125CDE9BC
:10160000004500240294694640460394FEF736FFE5
:10161000CDE90054694648460295FEF72FFF0720A2
:101620008DE8310069465846FEF728FF0096CDE95F
:101630000154694648460394FEF720FF04200090B9
:10164000CDE90154694650460394FEF717FF009711
:10165000CDE90154694658460394FEF70FFF07B0E1
:10166000BDE8F08F0010024000080048000C004860
:101670000004004810B58AB00024079408941C2187
:1016800068460994FEF7FCFD16484FF08041016062
:101690004F21C0E9011440F2E731C0E9031484612D
:1016A000FFF752FA08B1FEF78AFE079407A90D4822
:1016B0000994FFF73FF908B1FEF781FE6020009022
:1016C0001920CDE901040422694606480494FFF775
:1016D000A3F908B1FEF773FE0248FFF777F90AB0E5
:1016E00010BD000048000020184810B516490160E0
:1016F0004FF416514160002181600C22C160C0E9A5
:1017000004128161C161016241628162FFF7C0FB25
:1017100008B1FEF754FE00210C48FFF79FFA08B10C
:10172000FEF74DFE00210948FFF772FA08B1FEF7F7
:1017300046FE0648FFF74CFA002803D0BDE81040EB
:10174000FEF73DBE10BD00000038014094000020AF
:10175000FEE77047704730B501210020FFF78CFE8F
:101760004FF47A70FEF7E0FD00210120FFF784FEC0
:1017700041F290711020FFF77FFE4FF41C51602062
:10178000FFF77AFE01216120FFF776FE0221462055
:10179000FFF772FE48F210011320FFF76DFE48F2CA
:1017A000FE011220FFF768FE4FF4A0610220FFF750
:1017B00063FE41F230010320FFF75EFE40F2033486
:1017C00021463020FFF758FE21463120FFF754FE16
:1017D00021463220FFF750FEE51E29463320FFF751
:1017E0004BFE03213420FFF747FE21463520FFF74B
:1017F00043FE14213620FFF73FFE21463720FFF736
:101800003BFE21463820FFF737FE21463920FFF7FF
:1018100033FE29463A20FFF72FFE03213B20FFF736
:101820002BFE21463C20FFF727FE4FF4A0513D2020
:10183000FFF722FE4FF400719220FFF71DFE2146B4
:101840009320FFF719FE40F60D019020FFF714FEDC
:1018500041F218010320FFF70FFEBDE8304040F2CF
:1018600073110720FFF708BE10B543F20801E3200B
:10187000FFF702FE1221E720FFF7FEFD41F23121C2
:10188000EF20FFF7F9FD00210120FFF7F5FD4FF4F0
:10189000E0610220FFF7F0FD41F230010320FFF785
:1018A000EBFD00210420FFF7E7FD40F207210820AF
:1018B000FFF7E2FD00210920FFF7DEFD00210A20ED
:1018C000FFF7DAFD00210C20FFF7D6FD00210D20E7
:1018D000FFF7D2FD00210F20FFF7CEFD00211020E1
:1018E000FFF7CAFD07211120FFF7C6FD00211220D6
:1018F000FFF7C2FD00211320FFF7BEFDC820FEF751
:10190000A9FD41F290611020FFF7B6FD40F22721BA
:101910001120FFF7B1FD3220FEF79CFD1D211220A2
:10192000FFF7AAFD3220FEF795FD4FF4006113206A
:10193000FFF7A2FD14212920FFF79EFD0B212B208C
:10194000FFF79AFD3220FEF785FD00212020FFF7EA
:1019500093FD00212120FFF78FFD07213020FFF7A5
:101960008BFD40F207713120FFF786FD0621322002
:10197000FFF782FD40F204713520FFF77DFD41F64F
:1019800004713620FFF778FD04213720FFF774FD3E
:1019900000213820FFF770FD40F206713920FFF773
:1019A0006BFD40F201713C20FFF766FD0F213D20E9
:1019B000FFF762FD00215020FFF75EFDEF2151206F
:1019C000FFF75AFD00215220FFF756FD40F23F116C
:1019D0005320FFF751FD4FF41C516020FFF74CFDE1
:1019E00001216120FFF748FD00216A20FFF744FD37
:1019F00000218020FFF740FD00218120FFF73CFD02
:101A000000218220FFF738FD00218320FFF734FDFD
:101A100000218420FFF730FD00218520FFF72CFDF9
:101A200010219020FFF728FD00219220FFF724FDD0
:101A300003219320FFF720FD4FF488719520FFF7D5
:101A40001BFD00219720FFF717FD00219820FFF7CD
:101A500013FD41F218010320FFF70EFDBDE8104011
:101A600040F273110720FFF707BD000008B10448DA
:101A700001E003481030016841F040010160704707
:101A80001804004810B580210348FEF717FE01280E
:101A900000D0002010BD00000004004800B585B053
:101AA00014216846FEF7ECFB802000900020019096
:101AB000012002900220039069460248FEF7DEFCF6
:101AC00005B000BD0004004808B1044801E0034827
:101AD0001030016841F0800101607047180400482F
:101AE00000B585B014216846FEF7CAFB802000903F
:101AF00011200190002002900220039069460248C4
:101B0000FEF7BCFC05B000BD0004004870470000B3
:101B10002DE9F041504D01212846FEF7CFFD012669
:101B20004E4C0A27A0B91420FEF794FC0121284648
:101B3000FEF7C4FD0028F9D01420FEF78BFC2078B6
:101B4000401CC0B2B0FBF7F107FB11002070E6703B
:101B500002212846FEF7B2FDA0B91420FEF77AFC58
:101B600002212846FEF7AAFD0028F9D01420FEF72E
:101B700071FC6078401CC0B2B0FBF7F107FB1100AC
:101B80006070E67004212846FEF798FD18B1E078F1
:101B9000002844D014E01420FEF75CFC0421284601
:101BA000FEF78CFD0028F9D01420FEF753FCA07836
:101BB000401CC0B2B0FBF7F107FB1100A070E6704B
:101BC0002278FF2A07D026A1294801F00FFA2849D8
:101BD0004820FFF73FFB6278FF2A07D025A1244861
:101BE00001F004FA22496020FFF734FBA278FF2AB3
:101BF00007D024A11E4801F0F9F91D497820FFF70C
:101C000029FB2078642110FB01F0617801EB810150
:101C100000EB4100A1780844E060BDE8F0811DA11F
:101C2000134801F0E3F912491820FFF713FB1FA135
:101C30000F4801F0DBF90E494820FFF70BFB21A10B
:101C40000B4801F0D3F90A496020FFF703FB23A1F9
:101C5000074801F0CBF9D0E7000400480800002055
:101C60002020202042313A2564202020202000001E
:101C7000280000202020202042323A256420202005
:101C8000202000002020202042333A2564202020FC
:101C900020200000202020202020205053442020FD
:101CA0002020202020202020200000002020202094
:101CB00042313A40202020202020202020202020B7
:101CC000200000002020202042323A402020202006
:101CD0002020202020202020200000002020202064
:101CE00042333A4020202020202020202020202085
:101CF0002000000010B51FA1244801F077F9234906
:101D00001820FFF7A7FA22A1204801F06FF91F4918
:101D10004820FFF79FFA22A11C4801F067F91B49F0
:101D20006020FFF797FA21A1184801F05FF91749E1
:101D30007820FFF78FFA4FF0904401212046FEF7FC
:101D4000BDFC002814D11420FEF784FB012120469D
:101D5000FEF7B4FC0028F9D01420FEF77BFB1748EF
:101D60000021C170FF21017041708170012101715A
:101D700010BD00002020202020202053545220207D
:101D800020202020202020202000000028000020EB
:101D900020202020463A32303030487A00000000BF
:101DA00020202020443A313025250000202020200A
:101DB00020202020202020200000000008000020FB
:101DC000FEF790BC0548016841F4700101600349C9
:101DD0004FF00060803908607047000088ED00E037
:101DE0002DE9F0010268234C234BDFF89080DFF8E7
:101DF00090C0A04208D0B0F1804F05D0984203D0E7
:101E0000404501D0604503D122F070024D682A435D
:101E10001C4D1D4E1D4FA0420ED0B0F1804F0BD077
:101E2000984209D0404507D0604505D0A84203D06C
:101E3000B04201D0B84203D122F44072CB681A43B9
:101E40004B6922F080021A4302608A68C2620A6803
:101E50008262A04207D0604505D0A84203D0B042BC
:101E600001D0B84201D10969016301214161BDE896
:101E7000F0017047002C01400004004000080040C1
:101E8000003401400040014000440140004801404E
:101E90002DE9F003026A22F001020262026A43683D
:101EA000D0F818C02CF0700C2CF4803C2CF0030CF3
:101EB0000C6844EA0C0C22F002028C682243194C94
:101EC000194D1A4E1A4FDFF86C80A04207D0A84275
:101ED00005D0B04203D0B84201D0404507D122F02E
:101EE0000802D1F80C9049EA020222F00402A04252
:101EF00007D0A84205D0B04203D0B84201D0404537
:101F000007D123F4807323F400734C6923438C6955
:101F100023434360C0F818C0496841630262BDE8CA
:101F2000F0037047002C01400034014000400140A4
:101F3000004401400048014070B4026A22F01002DF
:101F40000262036A4268D0F818C02CF4E04C2CF00E
:101F5000807C2CF4407C0C684CEA042C23F0200399
:101F60008C6843EA0413194C194DA04201D0A842D1
:101F700006D123F08003CE6843EA061323F0400322
:101F8000A04210D0A8420ED0A0F18044B4F5A034F5
:101F900009D0A0F18044B4F5A23404D0A0F180446B
:101FA000B4F5A43409D122F4806222F400624C69B1
:101FB00042EA84028C6942EA84024260C0F818C096
:101FC00049688163036270BC70470000002C0140C7
:101FD0000034014070B4026A22F480720262036A23
:101FE0004268D0F81CC02CF0700C2CF4803C2CF013
:101FF000030C0C6844EA0C0C23F400738C6843EA6D
:102000000423194C194DA04201D0A84206D123F453
:102010000063CE6843EA062323F48063A04210D015
:10202000A8420ED0A0F18044B4F5A03409D0A0F1AC
:102030008044B4F5A23404D0A0F18044B4F5A434B3
:1020400009D122F4805222F400524C6942EA04126F
:102050008C6942EA04124260C0F81CC04968C1633E
:10206000036270BC70470000002C01400034014046
:1020700070B4026A22F480520262036A4268D0F8A5
:102080001CC02CF4E04C2CF0807C2CF4407C0C68C0
:102090004CEA042C23F400538C6843EA0433194CB3
:1020A000194DA04201D0A84206D123F40043CE68C6
:1020B00043EA063323F48043A04210D0A8420ED056
:1020C000A0F18044B4F5A03409D0A0F18044B4F567
:1020D000A23404D0A0F18044B4F5A43409D122F490
:1020E000804222F400424C6942EA84128C6942EA3E
:1020F00084124260C0F81CC049680164036270BC6D
:1021000070470000002C01400034014010B4026A06
:1021100022F480320262D0F820C04268036D23F0BE
:10212000700323F480330C6823432CF4003C0C89A7
:102130004CEA044CA0F18044B4F5963413D0A0F1DD
:102140008044B4F59A340ED0A0F18044B4F5A034A4
:1021500009D0A0F18044B4F5A23404D0A0F18044A9
:10216000B4F5A43404D122F480324C6942EA04224A
:102170004260036549688164C0F820C010BC7047A4
:1021800010B4026A22F480120262D0F820C04268C1
:10219000036D23F4E04323F080730C6843EA0423C7
:1021A0002CF4001C0C894CEA045CA0F18044B4F5CA
:1021B000963413D0A0F18044B4F59A340ED0A0F137
:1021C0008044B4F5A03409D0A0F18044B4F5A23421
:1021D00004D0A0F18044B4F5A43404D122F48022C8
:1021E0004C6942EA8422426003654968C164C0F8D0
:1021F00020C010BC7047000010B485B018A14A6818
:1022000009680392029118A14A6809680192009135
:10221000416E00291CD002689168C1F34261926846
:10222000520F02AB13F802C01DF802204FEACC0493
:10223000B4FBF2F2EC46A0F86A205A5C1CF80110DC
:10224000D200B2FBF1F1A0F8681005B010BC7047E5
:102250000121A0F86A10A0F8681005B010BC704702
:102260000101010307010000080402040801010143
:1022700090F8281011F0010F06D001684A68C36A6F
:1022800022F400321A434A6090F8281011F0020F2D
:1022900006D001684A68036B22F480321A434A6010
:1022A00090F8281011F0040F06D001684A68436BBB
:1022B00022F480221A434A6090F8281011F0080F87
:1022C00006D001684A68836B22F400421A434A60D0
:1022D00090F8281011F0100F06D001688A68C36BBF
:1022E00022F480521A438A6090F8281011F0200FCF
:1022F00006D001688A68036C22F400521A438A608F
:1023000090F8281011F0400F11D001684A68436C12
:1023100022F480121A434A60416CB1F5801F06D145
:1023200001684A68836C22F4C0021A434A6090F83C
:10233000281011F0800F06D001684A68C06C22F4A2
:102340000022104348607047F8B504460026C4F8E0
:102350008860FEF7C1F90746206800686FF07E4587
:1023600010F0080F0AD03B4600224FF4001120461F
:10237000009500F0F7FD08B10320F8BD2068006863
:1023800010F0040F0AD03B4600224FF48001204693
:10239000009500F0E7FD08B10320F8BD2020C4F847
:1023A0008000C4F8840084F87C600020F8BD10B57B
:1023B000806A0021A0F85E10A0F85610FEF776FCA7
:1023C00010BD01680A6822F490720A6001688A6888
:1023D00022F0010222F080528A602021C0F884108D
:1023E0000021C166704710B501680A6822F04002FA
:1023F0000A602021C0F8801000210167FEF7BAFDB5
:1024000010BD00002DE9F0470446002600270020FB
:10241000FE4B2168D4F810C0A268E56942EA0C02BC
:10242000D4F814C04CEA050C42EA0C02D4F864C09B
:102430004CEA0202D1F800C0F54D0CEA050C4CEA5A
:1024400002020A6021684A68D4F80CC022F44052A3
:1024500042EA0C024A60A16922689A4203D0D4F889
:1024600020C04CEA0101D2F808C02CF4306C2CF0EA
:102470006E4C4CEA010191602168CA6AD4F824C00C
:1024800022F00F0242EA0C02CA622268E149A2F17C
:10249000804CBCF59C3C20D0A2F1804CBCF5884C13
:1024A00030D0A2F1804CBCF5904C40D0A2F1804CD1
:1024B000BCF5984C50D09A426BD1D1F8881011F4E9
:1024C00040615ED0B1F5806F5FD0B1F5006F5AD03A
:1024D000B1F5406F5BD010255CE0D1F8881011F0A9
:1024E000030107D0012909D0022905D0032907D00B
:1024F00010254FE001254DE002254BE0042549E081
:10250000082547E0D1F8881011F00C0107D0042904
:1025100009D0082905D00C2907D010253AE000255C
:1025200038E0022536E0042534E0082532E0D1F811
:10253000881011F0300107D0102909D0202905D0CA
:10254000302907D0102525E0002523E0022521E0D1
:1025500004251FE008251DE0D1F8881011F0C00106
:1025600007D0402909D0802905D0C02907D01025DF
:1025700010E000250EE002250CE004250AE0082505
:1025800008E0002506E0022504E0042502E0082515
:1025900000E01025DFF880A24FF400414FF0000862
:1025A0009A4240F03582ADB1022D4BD0042D6FD050
:1025B000082D6ED00127002800F0C884D4F80490BC
:1025C00009EB4901814202D8B0EB093F71D90127DB
:1025D00000F0BCBCFEF73AF90146606AC8B10128B8
:1025E00019D0022819D0032819D0042819D0052899
:1025F00019D0062819D0072819D0082819D0092879
:1026000019D00A2819D00B2819D00120B1FBF0F0FD
:10261000D1E70120FAE70220F8E70420F6E70620D8
:10262000F4E70820F2E70A20F0E70C20EEE710209C
:10263000ECE72020EAE74020E8E78020E6E74FF4D7
:102640008070E3E7606AC8B1012819D0022819D068
:10265000032819D0042819D005281BD006281BD020
:1026600007281BD008281BD009281BD00A281BD0FC
:102670000B281BD00120BAFBF0F09CE70120FAE701
:102680000220F8E70420F6E70620F4E70820F2E746
:1026900010E047E00A20EEE70C20ECE71020EAE724
:1026A0002020E8E74020E6E78020E4E74FF4807050
:1026B000E1E76CE0FEF7EEF80146606AC8B1012878
:1026C00019D0022819D0032819D0042819D00528B8
:1026D00019D0062819D0072819D0082819D0092898
:1026E00019D00A2819D00B2819D00120B1FBF0F01D
:1026F00061E70120FAE70220F8E70420F6E7062068
:10270000F4E70820F2E70A20F0E70C20EEE71020BB
:10271000ECE72020EAE74020E8E78020E6E74FF4F6
:102720008070E3E7606AC8B1012819D0022819D087
:10273000032819D0042819D0052819D0062819D043
:10274000072819D0082819D0092819D00A2819D023
:102750000B2819D00120B1FBF0F02CE70120FAE79B
:102760000220F8E70420F6E70620F4E70820F2E765
:102770000A20F0E70C20EEE71020ECE72020EAE743
:102780004020E8E78020E6E74FF48070E3E77DB182
:10279000022D61D0042D7CD0082D7BD001271F494C
:1027A000A6F54070884276D82068C66000F0CEBB9F
:1027B000FEF74CF80146606A90B3012835D0022834
:1027C00035D0032835D0042835D0052835D0062843
:1027D00035D0072835D0082835D0092835D00A2823
:1027E00035D00B2835D00122002308461946FDF7C5
:1027F0000FFD0902626841EA1061030250081818CF
:1028000041EB08010023FDF703FD0AE000800040D2
:10281000F369FFCF001002400024F400FFFC0F001A
:1028200001E00646BBE70122DEE70222DCE70422E4
:10283000DAE70622D8E70822D6E70A22D4E70C22F4
:10284000D2E71022D0E72022CEE74022CCE7802238
:10285000CAE74FF48072C7E7606A70B301282FD0CF
:1028600002282FD003282FD004282FD005282FD0BE
:1028700006282FD007282FD008282FD009282FD09E
:102880000A282FD00B282FD00122002350461946AA
:1028900002E02CE073E0B9E0FDF7BAFC090241EA7E
:1028A000106102024FEA5900101841EB08014A4634
:1028B0000023FDF7ADFC064671E7FFE70122E4E7E0
:1028C0000222E2E70422E0E70622DEE70822DCE754
:1028D0000A22DAE70C22D8E71022D6E72022D4E732
:1028E0004022D2E78022D0E74FF48072CDE7FDF797
:1028F000D1FF0146606A48B3012829D0022829D0B7
:10290000032829D0042829D0052829D0062829D031
:10291000072829D0082829D0092829D00A2829D011
:102920000B2829D00122002308461946FDF770FC28
:102930000902626841EA106103025008181841EB6D
:1029400008010023FDF764FC064628E70122EAE7B8
:102950000222E8E70422E6E70622E4E70822E2E7AB
:102960000A22E0E70C22DEE71022DCE72022DAE789
:102970004022D8E78022D6E74FF48072D3E7606A1E
:1029800058B301282BD002282BD003282BD00428A1
:102990002BD005282BD006282BD007282BD0082891
:1029A0002BD009282BD00A282BD00B282BD0012282
:1029B00000234FF400401946FDF72AFC090241EAC2
:1029C000106102024FEA5900101841EB08014A4613
:1029D0000023FDF71DFC0646E1E60122E8E702229E
:1029E000E6E70422E4E70622E2E70822E0E70A221B
:1029F000DEE70C22DCE71022DAE72022D8E74022CB
:102A0000D6E78022D4E74FF48072D1E701279DE218
:102A1000E0694FF6EF79B0F5004F08D0092D74D278
:102A2000DFE805F0F4F3F273F1737373F000092D2E
:102A30006CD2DFE805F00544856BC16B6B6BEC0075
:102A4000FDF704FF0146606A00B3012820D0022888
:102A500020D0032820D0042820D0052820D0062804
:102A600020D0072820D0082820D0092820D00A28E4
:102A700020D00B2820D00120B1FBF0F0410060688D
:102A800001EB5001B1FBF0F086B217E10120F3E752
:102A90000220F1E70420EFE70620EDE70820EBE74E
:102AA0000A20E9E70C20E7E71020E5E72020E3E72C
:102AB0004020E1E78020DFE74FF48070DCE7FDF79E
:102AC000D7FE0146606A10B3012822D0022822D026
:102AD000032822D0042822D0052822D0062822D07C
:102AE000072822D0082822D0092822D00A2822D05C
:102AF0000B2822D00120B1FBF0F04100606801EB0F
:102B00005001B1FBF0F086B2D8E016E2D5E001202A
:102B1000F1E70220EFE70420EDE70620EBE70820CD
:102B2000E9E70A20E7E70C20E5E71020E3E72020AB
:102B3000E1E74020DFE78020DDE74FF48070DAE74F
:102B4000606A00B3012820D0022820D0032820D0BA
:102B5000042820D0052820D0062820D0072820D0FF
:102B6000082820D0092820D00A2820D00B2820D0DF
:102B70000120BAFBF0F04100606801EB5001B1FBAD
:102B8000F0F086B29AE00120F3E70220F1E704209A
:102B9000EFE70620EDE70820EBE70A20E9E70C2045
:102BA000E7E71020E5E72020E3E74020E1E7802089
:102BB000DFE74FF48070DCE7FDF76CFE0146606AEA
:102BC00030B3012826D0022826D0032826D0042896
:102BD00026D0052826D0062826D0072826D0082863
:102BE00026D0092826D00A2826D00B2826D0012056
:102BF000B1FBF0F04100606801EB5001B1FBF0F077
:102C000086B25BE05EE11FE1E3E0A4E065E018E08E
:102C10000120EDE70220EBE70420E9E70620E7E7E3
:102C20000820E5E70A20E3E70C20E1E71020DFE7D2
:102C30002020DDE74020DBE78020D9E74FF48070DB
:102C4000D6E7606A00B3012820D0022820D00328EC
:102C500020D0042820D0052820D0062820D00728FE
:102C600020D0082820D0092820D00A2820D00B28DE
:102C700020D00120B1FBF0F04100606801EB500171
:102C8000B1FBF0F086B219E00120F3E70220F1E792
:102C90000420EFE70620EDE70820EBE70A20E9E74C
:102CA0000C20E7E71020E5E72020E3E74020E1E7FC
:102CB0008020DFE74FF48070DCE70127A6F11000E9
:102CC000484508D84FF6F0703040C6F3420108433B
:102CD0002168C8603AE1012738E1FDF7B7FD0146F8
:102CE000606AF8B101281FD002281FD003281FD026
:102CF00004281FD005281FD006281FD007281FD062
:102D000008281FD009281FD00A281FD00B281FD041
:102D10000120B1FBF0F1606801EB5001B1FBF0F074
:102D200086B20BE10120F4E70220F2E70420F0E78D
:102D30000620EEE70820ECE70A20EAE70C20E8E7A7
:102D40001020E6E72020E4E74020E2E78020E0E7EB
:102D50004FF48070DDE7FDF78BFD0146606AF8B146
:102D600001281FD002281FD003281FD004281FD0FD
:102D700005281FD006281FD007281FD008281FD0DD
:102D800009281FD00A281FD00B281FD00120B1FB13
:102D9000F0F1606801EB5001B1FBF0F086B2CDE0DC
:102DA0000120F4E70220F2E70420F0E70620EEE736
:102DB0000820ECE70A20EAE70C20E8E71020E6E725
:102DC0002020E4E74020E2E78020E0E74FF4807035
:102DD000DDE7606AF8B101281FD002281FD0032860
:102DE0001FD004281FD005281FD006281FD0072871
:102DF0001FD008281FD009281FD00A281FD00B2851
:102E00001FD00120BAFBF0F1606801EB5001B1FB6B
:102E1000F0F086B292E00120F4E70220F2E704200D
:102E2000F0E70620EEE70820ECE70A20EAE70C20AE
:102E3000E8E71020E6E72020E4E74020E2E78020F2
:102E4000E0E74FF48070DDE7FDF724FD0146606A9E
:102E5000F8B101281FD002281FD003281FD0042852
:102E60001FD005281FD006281FD007281FD00828EC
:102E70001FD009281FD00A281FD00B281FD00120DF
:102E8000B1FBF0F1606801EB5001B1FBF0F086B2EC
:102E900054E00120F4E70220F2E70420F0E70620E6
:102EA000EEE70820ECE70A20EAE70C20E8E710202C
:102EB000E6E72020E4E74020E2E78020E0E74FF467
:102EC0008070DDE7606AF8B101281FD002281FD0AA
:102ED00003281FD004281FD005281FD006281FD084
:102EE00007281FD008281FD009281FD00A281FD064
:102EF0000B281FD00120B1FBF0F1606801EB5001FD
:102F0000B1FBF0F086B219E00120F4E70220F2E70D
:102F10000420F0E70620EEE70820ECE70A20EAE7C5
:102F20000C20E8E71020E6E72020E4E74020E2E775
:102F30008020E0E74FF48070DDE70127A6F1100064
:102F4000484502D82068C66000E001270120A4F8A7
:102F50006A00A4F86800C4F86C80C4F87080384631
:102F6000BDE8F0872DE9F0410446069D88461746E6
:102F70001E462068C06938EA000016D00020B8421A
:102F800010D1B5F1FF3F05D0FDF7A6FB801BA8428D
:102F90000DD865B12068C06938EA00001CD0002057
:102FA000B842EED00020BDE8F0810120E7E72068BC
:102FB000016821F4D07101602068816821F001016D
:102FC00081602020C4F88000C4F88400002084F8C8
:102FD0007C000320BDE8F0810120E1E70148FDF716
:102FE00067BE000094000020FEE700000FB4084B0D
:102FF00010B504A902AA039800F01CF8044602A91F
:10300000002000F0C1F8204610BC5DF814FB000061
:103010008931000802E008C8121F08C1002AFAD14D
:1030200070477047002001E001C1121F002AFBD148
:10303000704700002DE9FF4F89B09B4604460025EC
:1030400006E025280BD05A460B999047641C6D1C4E
:1030500020780028F5D10DB02846BDE8F08F002774
:10306000B8460122474900E0074314F8013F203BDE
:1030700002FA03F00842F7D120782E2819D114F86B
:10308000010F47F004072A280ED06FF02F02207896
:10309000A0F1300109290CD808EB880102EB4101AD
:1030A00000EB0108641CF2E70A98641C50F8048BDA
:1030B0000A9020780028CED0642808D0692806D04D
:1030C00075281ED05A460B9990476D1C58E00A99F6
:1030D0004FF00A0901C90A91002802DA40422D2165
:1030E00002E0390504D52B218DF82010012103E0E1
:1030F000F90704D02021F7E78A4608AE0DE0002149
:10310000FAE70A994FF00A0901C90A91F7E7494617
:10311000FDF7C1F8303106F8011D0028F7D1ADEBFD
:10312000060000F12009780701D44FF00108C845D6
:1031300002DDA8EB090000E000208046002706E041
:1031400008A85A46C05D0B9990476D1C7F1C5745D7
:10315000F6DB04E030205A460B9990476D1CB8F11D
:103160000001A8F10108F5DC05E016F8010B5A464C
:103170000B9990476D1CB9F10001A9F10109F4DC2C
:10318000641C65E7092801000A68531C0B60107075
:103190007047002100E0491C8142FCD370470000C9
:1031A000FDF7A8FAFEF7D8F9FEF764FAFEF79CFAE5
:1031B000FEF792F8FEF796F9FDF7DEFE0020FDF728
:1031C000E3FF0020FEF7E2F84FF6FF70FEF7F2F89B
:1031D0000A27564C4FF0904800264FF0FF092079FF
:1031E00001281BD1FEF794FC607903280FD3FEF76A
:1031F00079F90220FEF78EF96420FDF72BF9FEF72E
:1032000071F96420FDF726F9A079401CA071A0791E
:10321000192803D1A6716079401E6071E068B0FB87
:10322000F7F0C1B20120FDF7AFF8E068B0FBF7F1AD
:1032300007FB11010220FDF7A7F80120FDF782F836
:103240000220FDF77FF80220FDF77CF805460120FB
:10325000FDF778F800EB800005EB400234A1384818
:10326000FFF7C4FE3649D820FDF7F4FF35A13448F6
:10327000E268FFF7BBFE3249A820FDF7EBFF012112
:1032800045464046FDF71AFAB8B92079022814D10C
:103290001420FDF7DFF801212846FDF70FFA00287A
:1032A000F9D01420FDF7D6F801202071E67084F8DB
:1032B000009084F8019084F8029001212846FDF7DF
:1032C000FDF900288BD12079012888D11420FDF741
:1032D000C1F801212846FDF7F1F90028F9D01420A2
:1032E000FDF7B8F8D4E90201814203D166710220EA
:1032F00020710CE0E67084F8009084F8019084F866
:1033000002906079401C607120790228DAD1FEF7C2
:10331000F1FCFEF7E7F80120FEF7FCF841F28830F7
:10332000FDF798F8FEF7DEF859E7000008000020E6
:10333000454550524F4D3A25642020202020200042
:10334000280000202020202020202564202020206C
:10335000202020000000000000000000000000000D
:10336000000000000000000000000000000000005D
:10337000000000000000000000000000000000004D
:1033800000000000000080018001800180018001B8
:103390008001800180018001800180018001800125
:1033A000000000008001800100000000000000001B
:1033B0000000000000000000CC00CC00CC00CC00DD
:1033C000CC00CC0000000000000000000000000065
:1033D00000000000000000000000000000000000ED
:1033E00000000000000000000000000000000000DD
:1033F000600C600C600C30063006FE1FFE1F3006AD
:1034000038071803FE1FFE1F180318038C018C01D8
:103410008C01000000008000E003F80F9C0E8C1C63
:103420008C188C009800F801E007800E801C8C1826
:103430008C189C18B80CF00FE0038000800000008E
:10344000000000000000000000000E181B0C110C12
:1034500011061106110311039B018E01C038C06CC7
:1034600060446044304430441844186C0C38000008
:10347000000000000000E001F003380718061806FD
:103480003003F001F000F8009C310E33061E061CDC
:10349000061C063FFC73F021000000000000000045
:1034A00000000000000000000C000C000C000C00EC
:1034B0000C000C00000000000000000000000000F4
:1034C00000000000000000000000000000000000FC
:1034D000000000000000000200038001C000C000E6
:1034E00060006000300030003000300030003000FC
:1034F0003000300060006000C000C00080010003A8
:1035000000020000000020006000C0008001800177
:103510000003000300060006000600060006000681
:10352000000600060003000380018001C000600067
:10353000200000000000000000000000000000006B
:10354000C000C000D806F807E001300338070000CB
:10355000000000000000000000000000000000006B
:10356000000000000000000000000000000000005B
:1035700080018001800180018001FC3FFC3F8001CF
:103580008001800180018001000000000000000037
:10359000000000000000000000000000000000002B
:1035A000000000000000000000000000000000001B
:1035B0000000000000008001800100010001800087
:1035C00000000000000000000000000000000000FB
:1035D000000000000000000000000000E007E0071D
:1035E00000000000000000000000000000000000DB
:1035F00000000000000000000000000000000000CB
:1036000000000000000000000000000000000000BA
:10361000000000000000C000C0000000000000002A
:10362000000000000000000C000C00060006000670
:103630000003000300038003800180018001C000BB
:10364000C000C0006000600000000000000000003A
:10365000000000000000E003F007380E180C0C1802
:103660000C180C180C180C180C180C180C180C183A
:10367000180C380EF007E003000000000000000006
:1036800000000000000000018001C001F00198016D
:10369000880180018001800180018001800180011A
:1036A0008001800180018001000000000000000016
:1036B000000000000000E003F80F180C0C180C18B4
:1036C00000180018000C000600038001C000600014
:1036D00030001800FC1FFC1F00000000000000006C
:1036E000000000000000E001F807180E0C0C0C0CA4
:1036F000000C0006C003C007000C001800180C18CE
:103700000C18180CF807E00300000000000000008F
:10371000000000000000000C000E000F000F800DE4
:10372000C00C600C600C300C180C0C0CFC3FFC3F07
:10373000000C000C000C000C000000000000000059
:10374000000000000000F80FF80F180018000C002F
:10375000EC03FC071C0E001C0018001800180C18C5
:103760001C0C180EF807E003000000000000000029
:10377000000000000000C007F00F381C18181800E7
:103780000C00CC03EC0F3C0E1C1C0C180C180C1875
:10379000181C380EF007E0030000000000000000D5
:1037A000000000000000FC1FFC1F000C00060006CB
:1037B000000380038001C001C000E00060006000E1
:1037C00070003000300030000000000000000000F9
:1037D000000000000000E003F007380E180C180C81
:1037E000180C3806F007F007180C0C180C180C18F9
:1037F0000C18380CF80FE003000000000000000077
:10380000000000000000E003F007380E1C0C0C184C
:103810000C180C181C1C381EF81BE0190018000CA2
:10382000000C1C0EF807F001000000000000000072
:103830000000000000000000000000000000000088
:103840008001800100000000000000000000000076
:103850000000000080018001000000000000000066
:103860000000000000000000000000000000000058
:103870008001800100000000000000000000000046
:1038800000000000800180010001000180000000B4
:103890000000000000000000000000000000000028
:1038A000000000000010001C800FE003F80018006A
:1038B000F800E003800F001C001000000000000072
:1038C00000000000000000000000000000000000F8
:1038D00000000000F81F000000000000F81F0000BA
:1038E00000000000000000000000000000000000D8
:1038F00000000000000000000000000000000000C8
:103900000000000008003800F001C007001F001888
:10391000001FC007F0013800080000000000000090
:10392000000000000000E003F80F180C0C180C1841
:103930000018000C000600038001C000C000C00099
:1039400000000000C000C0000000000000000000F7
:103950000000000000000000E00718180420C22941
:10396000224A114409440944094409221113E20C72
:10397000024004201818E0070000000000000000CA
:1039800000000000000080038003C006C006C006DF
:10399000600C600C301830183018F83FF83F1C707D
:1039A0000C600C6006C006C00000000000000000B3
:1039B000000000000000FC03FC0F0C0C0C180C189D
:1039C0000C180C0CFC07FC0F0C180C300C300C30D5
:1039D0000C300C18FC1FFC07000000000000000069
:1039E000000000000000C007F01F38381C300C70C9
:1039F00006600600060006000600060006000660D7
:103A00000C701C30F01FE0070000000000000000F8
:103A1000000000000000FE03FE0F060E0618061848
:103A200006300630063006300630063006300618FE
:103A30000618060EFE0FFE03000000000000000046
:103A4000000000000000FC3FFC3F0C000C000C00DC
:103A50000C000C00FC1FFC1F0C000C000C000C00E8
:103A60000C000C00FC3FFC3F0000000000000000C8
:103A7000000000000000F83FF83F18001800180090
:103A800018001800F81FF81F180018001800180078
:103A900018001800180018000000000000000000C6
:103AA000000000000000E00FF83F3C780E6006E0E8
:103AB00007C00300030003FE03FE03C007C006C0E7
:103AC0000EC03CF0F83FE00F0000000000000000D6
:103AD0000000000000000C300C300C300C300C30BA
:103AE0000C300C30FC3FFC3F0C300C300C300C30F8
:103AF0000C300C300C300C300000000000000000D6
:103B00000000000000008001800180018001800130
:103B1000800180018001800180018001800180019D
:103B20008001800180018001000000000000000091
:103B30000000000000000006000600060006000667
:103B4000000600060006000600060006000618062D
:103B500018063807F003E001000000000000000034
:103B600000000000000006300618060C06060603DA
:103B70008601C60066007600DE008E01060306069A
:103B8000060C061806300660000000000000000069
:103B900000000000000018001800180018001800AD
:103BA0001800180018001800180018001800180055
:103BB00018001800F81FF81F0000000000000000A7
:103BC0000000000000000EE01EF01EF01EF036D8CF
:103BD00036D836D836D866CC66CC66CCC6C6C6C60D
:103BE000C6C6C6C686C386C300000000000000002B
:103BF0000000000000000C301C303C303C306C30C9
:103C00006C30CC30CC308C310C330C330C360C3661
:103C10000C3C0C3C0C380C30000000000000000094
:103C2000000000000000E007F81F1C380E7006605E
:103C300003C003C003C003C003C003C003C00660C9
:103C40000E701C38F81FE0070000000000000000A4
:103C5000000000000000FC0FFC1F0C380C300C3082
:103C60000C300C300C18FC1FFC070C000C000C0076
:103C70000C000C000C000C00000000000000000014
:103C8000000000000000E007F81F1C380E700660FE
:103C900003E003C003C003C003C003C007E0066322
:103CA0000E3F1C3CF83FE0F700C0000000000000A1
:103CB000000000000000FE0FFE1F06380630063030
:103CC00006300638FE1FFE0706030606060C061819
:103CD00006180630063006600000000000000000F4
:103CE000000000000000E003F80F1C0C0C180C187A
:103CF0000C001C00F803E00F001E003806300630F0
:103D00000E301C1CF80FE00700000000000000004F
:103D1000000000000000FE7FFE7F80018001800126
:103D2000800180018001800180018001800180018B
:103D3000800180018001800100000000000000007F
:103D40000000000000000C300C300C300C300C3047
:103D50000C300C300C300C300C300C300C300C3083
:103D60000C301818F81FE0070000000000000000E9
:103D700000000000000003600630063006300C181A
:103D80000C180C18180C180C380E3006300670077A
:103D900060036003C001C0010000000000000000DB
:103DA0000000000000000360C361C361C3616633AB
:103DB000663366336633663366336C1B6C1B6C1B71
:103DC0002C1A3C1E380E380E0000000000000000C7
:103DD0000000000000000FE00C7018303018700C6C
:103DE000600EC00780038003C003E006700C301C27
:103DF00018180C300E6007E0000000000000000002
:103E000000000000000003C006600C301C383818A9
:103E1000300C6006E007C003800180018001800152
:103E2000800180018001800100000000000000008E
:103E3000000000000000FC7FFC7F006000300018E4
:103E4000000C000600038001C00060003000180074
:103E50000C000600FE7FFE7F000000000000000056
:103E6000000000000000E003E0036000600060006C
:103E70006000600060006000600060006000600042
:103E80006000600060006000600060006000E003AF
:103E9000E0030000000030003000600060006000BF
:103EA000C000C000C000C00180018001800100038B
:103EB00000030003000600060000000000000000F0
:103EC000000000000000E003E00300030003000323
:103ED00000030003000300030003000300030003CA
:103EE0000003000300030003000300030003E003DA
:103EF000E003000000000000C001C0016003600397
:103F0000600330063006180C180C0000000000009A
:103F100000000000000000000000000000000000A1
:103F20000000000000000000000000000000000091
:103F30000000000000000000000000000000000081
:103F4000000000000000FFFFFFFF00000000000075
:103F50000000000000000C000C000C000C000C0025
:103F60000C00000000000000000000000000000045
:103F70000000000000000000000000000000000041
:103F80000000000000000000000000000000000031
:103F9000F003F8071C0C0C0C000FF00FF80C0C0CC5
:103FA0000C0C1C0FF80FF0180000000000000000BF
:103FB0000000000000001800180018001800180089
:103FC000D803F80F380C18181818181818181818DB
:103FD0001818380CF80FD80300000000000000008B
:103FE00000000000000000000000000000000000D1
:103FF000C003F007300E180C180018001800180045
:10400000180C300EF007C003000000000000000094
:104010000000000000000018001800180018001828
:10402000C01BF01F301C181818181818181818186A
:104030001818301CF01FC01B00000000000000001A
:104040000000000000000000000000000000000070
:10405000C003F00F300C1818F81FF81F18001800D4
:104060003818301CF00FC0070000000000000000EE
:10407000000000000000800FC00FC000C000C000A2
:10408000F007F007C000C000C000C000C000C000C2
:10409000C000C000C000C000000000000000000020
:1040A0000000000000000000000000000000000010
:1040B000E00DF80F180E0C0C0C0C0C0C0C0C0C0C6E
:1040C0000C0C180EF80FE00D000C0C0C1C06F80779
:1040D000F001000000001800180018001800180077
:1040E000D807F80F381C18181818181818181818A6
:1040F0001818181818181818000000000000000000
:10410000000000000000C000C0000000000000002F
:10411000C000C000C000C000C000C000C000C0009F
:10412000C000C000C000C00000000000000000008F
:10413000000000000000C000C000000000000000FF
:10414000C000C000C000C000C000C000C000C0006F
:10415000C000C000C000C000C000C000C000F80027
:104160007800000000000C000C000C000C000C009B
:104170000C0C0C060C038C01CC006C00FC009C01A8
:104180008C030C030C060C0C000000000000000067
:10419000000000000000C000C000C000C000C0005F
:1041A000C000C000C000C000C000C000C000C0000F
:1041B000C000C000C000C0000000000000000000FF
:1041C00000000000000000000000000000000000EF
:1041D0007C3CFF7EC7E383C183C183C183C183C1AC
:1041E00083C183C183C183C10000000000000000BF
:1041F00000000000000000000000000000000000BF
:104200009807F80F381C18181818181818181818C4
:1042100018181818181818180000000000000000DE
:10422000000000000000000000000000000000008E
:10423000C003F00F300C1818181818181818181890
:104240001818300CF00FC003000000000000000040
:10425000000000000000000000000000000000005E
:10426000D803F80F380C1818181818181818181838
:104270001818380CF80FD803180018001800180088
:104280001800000000000000000000000000000016
:10429000C01BF01F301C18181818181818181818F8
:1042A0001818301CF01FC01B001800180018001848
:1042B00000180000000000000000000000000000E6
:1042C000B007F003700030003000300030003000E4
:1042D000300030003000300000000000000000001E
:1042E00000000000000000000000000000000000CE
:1042F000E003F003380E180C3800F003C007000C80
:10430000180C380EF007E003000000000000000069
:1043100000000000000000008000C000C000C000DD
:10432000F007F007C000C000C000C000C000C0001F
:10433000C000C000C00780070000000000000000AF
:10434000000000000000000000000000000000006D
:1043500018181818181818181818181818181818DD
:104360001818381CF01FE0190000000000000000C1
:10437000000000000000000000000000000000003D
:104380000C18180C180C180C300630063006600398
:1043900060036003C001C0010000000000000000D5
:1043A000000000000000000000000000000000000D
:1043B000C141C141C36163636363636336363636AB
:1043C00036361C1C1C1C1C1C0000000000000000D9
:1043D00000000000000000000000000000000000DD
:1043E0001C38381C300C60066003600360036003F7
:1043F0006006300C381C1C38000000000000000073
:1044000000000000000000000000000000000000AC
:104410001830301830187018600C600CE00CC006B2
:10442000C00680038003800380018001C001F0008A
:10443000700000000000000000000000000000000C
:10444000FC1FFC1F000C000600038001C000600080
:1044500030001800FC1FFC1F0000000000000000DE
:1044600000000000000000038001C000C000C00088
:10447000C000C000C000600060003000600040006C
:10448000C000C000C000C000C000C0008001000328
:104490000000000000008001800180018001800197
:1044A0008001800180018001800180018001800104
:1044B00080018001800180018001800180018001F4
:1044C0008001000000006000C000C0018001800188
:1044D0008001800180010003000300060003000149
:1044E000800180018001800180018001C0006000A6
:1044F00000000000000000000000000000000000BC
:1045000000000000F010F81F080F0000000000007D
:10451000000000000000000000000000000000009B
:104520000000000000000000010203044C450008E8
:104530000000002028000000143000087445000826
:1045400028000020F8040000243000080000FFFFCD
:1045500000000000FFFFFF00010000007B000000E2
:10456000000000000024F400100000000100000022
:044570000000000047
:04000005080001D915
:00000001FF
