:020000040800F2
:1000000028050020ED010008672600088B1E000867
:100010006526000841080008C142000800000000F1
:10002000000000000000000000000000712A00082D
:10003000430800080000000069260008892E000817
:10004000070200080702000807020008070200086C
:10005000070200080702000807020008070200085C
:10006000070200080702000807020008070200084C
:10007000070200080702000807020008070200083C
:10008000070200080000000007020008070200083D
:10009000070200080702000807020008070200081C
:1000A000070200080702000807020008070200080C
:1000B00007020008070200080702000807020008FC
:1000C00007020008070200080702000807020008EC
:1000D00007020008070200080702000807020008DC
:1000E00007020008070200080702000807020008CC
:1000F00007020008070200080702000800000000CD
:1001000000000000070200080000000007020008CD
:1001100007020008000000000702000807020008AC
:10012000070200080702000807020008070200088B
:10013000070200080000000000000000070200089D
:10014000070200080702000800000000000000008D
:10015000000000000000000000000000000000009F
:10016000000000000000000000000000070200087E
:10017000070200080000000000000000000000006E
:10018000000000000702000800000000000000005E
:10019000000000000000000000000000000000005F
:1001A000000000000000000007020008070200082D
:1001B000070200080702000807020008000000000C
:1001C000000000000702000800000000000000001E
:1001D0000702000807020008DFF80CD000F01EFB41
:1001E000004800470D4C00082805002006488047BD
:1001F00006480047FEE7FEE7FEE7FEE7FEE7FEE70C
:10020000FEE7FEE7FEE7FEE7F92E0008D901000849
:100210002DE9F05F0546002092469B46884606463B
:10022000814640241BE0284641464746224600F0CE
:100230002DF953465A46C01A914110D3114618461B
:10024000224600F014F92D1A67EB01084F462246AA
:100250000120002100F00BF917EB00094E41201E90
:10026000A4F10104DFDC484631462A464346BDE896
:10027000F09FD2B201E000F8012B491EFBD270477B
:100280000022F6E710B513460A4604461946FFF762
:10029000F0FF204610BD2DE9FE4F804681EA0300A5
:1002A000C00F0C46009021F0004123F00045B8EB50
:1002B0000200A94105D24046214690461C460B4605
:1002C000024623F00040104347D0270DC7F30A0031
:1002D000C3F30A510290401A019040286BDAC3F32D
:1002E000130040F4801B0098924620B10023D2EB0B
:1002F000030A63EB0B0B01985946C0F140025046CC
:1003000000F0B5F806460D4650465946019A00F0F1
:10031000CDF810EB08006141002487EA115284EA0D
:10032000E7731A4340D0009A62B3019A012A4FEA58
:10033000075215DC001B61EB02014FF0004202EA9C
:100340000752CDE90042001C41F5801132462B4690
:1003500000F004F903B0BDE8F08F40462146F9E70C
:10036000001B61EB0201001C41F5801300185B418A
:100370002018A2F5001747EB030140EAD570B61923
:100380006D4111E06D084FEA360645EAC0754FEA47
:100390000752001B61EB0201001C41F58011490866
:1003A0004FEA30000019514132462B4603B0BDE8F8
:1003B000F04F00F0C4B80098012240000023D0EBB9
:1003C000020263EBE073009821464FEAE074B8EB59
:1003D000000061EB0401E9E783F000435BE781F093
:1003E000004158E700F0004230F000400AD0C10D53
:1003F00001F56071C0F3160042EA0151C2084007DE
:100400001143704700200146704701F0004330B4AB
:1004100021F0004150EA010206D00A0DA2F56072F7
:10042000C1F31301002A02DC30BC00207047440FE6
:1004300044EAC104C100E01830BC00EBC25000F037
:1004400047B830B50B46014600202022012409E0C0
:1004500021FA02F59D4205D303FA02F5491B04FA7D
:1004600002F52844151EA2F10102F1DC30BD202A5C
:1004700004DB203A00FA02F1002070479140C2F1FB
:10048000200320FA03F3194390407047202A04DB2D
:10049000203A21FA02F00021704721FA02F3D040FD
:1004A000C2F120029140084319467047202A06DB1A
:1004B000CB17203A41FA02F043EAE07306E041FA32
:1004C00002F3D040C2F12002914008431946704720
:1004D0000029A8BF7047401C490008BF20F0010058
:1004E000704710B4B0FA80FC00FA0CF050EA010436
:1004F00004BF10BC704749B1CCF1200421FA04F4C8
:1005000011FA0CF118BF012121430843A3EB0C01A0
:10051000CB1D4FEA00614FEA102042BF002010BC03
:10052000704700EBC35010440029A4BF10BC7047B3
:10053000401C490008BF20F0010010BC704710B5F6
:10054000141E73F1000408DA401C41F100019218F6
:100550005B411A4301D120F0010010BD2DE9F04D9F
:1005600092469B4611B1B1FA81F202E0B0FA80F2F4
:1005700020329046FFF77BFF04460F4640EA0A0010
:1005800041EA0B0153465A46084313D0114653EA39
:10059000010019D0C8F140025046FFF777FF054629
:1005A0000E46504659464246FFF761FF084305D0C4
:1005B000012004E020463946BDE8F08D00200543C7
:1005C00046EAE0762C4337430A986305E40AA0EB39
:1005D00008000022FD0A44EA47540A3002D50020F0
:1005E0000146E9E7010510196941DDE908450019EF
:1005F0006941BDE8F04DA2E72DE9FE4F81EA030411
:1006000004F0004421F0004100944FF0000B23F06F
:10061000004350EA01045ED052EA03045BD0C3F306
:100620000A54C1F30A552C44A4F2F3340194A0FBFC
:100630000254C1F3130141F48011C3F3130343F4D3
:10064000801301FB024400FB034E840A970A44EA2C
:10065000815447EA8357A4FB076802958D0A05FB7E
:1006600007854FEA932C04FB0C542705029D4FEAA3
:10067000065847EA1637B5EB08056EEB070C870EF0
:10068000920E47EA811742EA8312A7FB0201B6EBFA
:100690000B0164EB00042B0D43EA0C335E1844EBB2
:1006A0001C50DA465146E7FB0201C5F313044FEA3A
:1006B0000B3343EA14534FEA0432019C43EA060326
:1006C000A4F10C040294009CCDE900B4FFF746FFAE
:1006D00003B0BDE8F08F00200146F9E72DE9F04DA9
:1006E00081EA030404F0004B21F0004514464FF06A
:1006F000000A23F0004150EA050220D054EA01022A
:100700001DD0C5F30A570246C5F31303C1F3130006
:10071000C1F30A5640F4801543F48013A7EB060892
:10072000101BD64608F2FD3873EB050002D308F122
:10073000010801E092185B41B8F1000F03DA0020D4
:100740000146BDE8F08D00204FF480110646844636
:100750000EE0171B73EB050705D3121B63EB0503B4
:1007600006434CEA010C49084FEA300092185B41FD
:1007700050EA0107EDD152EA030012D082EA0400E8
:1007800083EA0501084305D0101BAB4106D20122C4
:10079000002306E000224FF0004302E06FF0010268
:1007A00053101AEB06004CEB085110EB0A0041EB1A
:1007B0000B01BDE8F04DFFF7C2BEC1F30A52C1F311
:1007C000130140F2FF3341F480119A4202DA002013
:1007D0000146704740F233439A42A2F2334202DCB0
:1007E0005242FFF753BEFFF742BE000030B5041E71
:1007F00071F1000404DB4FF00044404264EB01015E
:10080000141E73F1000405DB1C464FF000435242F6
:1008100063EB0403994208BF904230BD064C074D7C
:1008200006E0E06840F0010394E8070098471034C0
:10083000AC42F6D3FFF7D4FCF45F00081460000864
:10084000FEE77047002240F6B83306E00021491C5D
:1008500089B29942FBD3521C92B28242F6D37047BE
:1008600010B5044601F08EFBA02001F04CFB01F016
:10087000BFFB204601F047FB01F0BAFB01F082FB11
:10088000A12001F040FB01F0B3FB01F015FB044691
:1008900001F060FB01F091FB204610BD70B50D46E4
:1008A000044601F06FFBA02001F02DFB01F0A0FB3E
:1008B000204601F028FB01F09BFB284601F023FBBA
:1008C00001F096FB01F079FBBDE87040052000F0D7
:1008D00001B8704770B5044600F03EF90546B4F122
:1008E000FF3F02D004484068044400F035F9401B43
:1008F000A042FAD370BD0000280000202DE9F84F77
:1009000000220B68002B7CD00324874E874F0F25D5
:100910000123D1F800C003FA02F80CEA0803002B07
:1009200070D0D1F804C0BCF1010F08D0BCF1020FA7
:1009300005D0BCF1110F02D0BCF1120F1DD1D0F8BF
:1009400008904FEA420C04FA0CFA29EA0A09D1F895
:100950000CA00AFA0CFC4CEA090CC0F808C0D0F84C
:1009600004C02CEA080C91F80480C8F3001808FAB7
:1009700002F848EA0C0CC0F804C0D0F80C804FEA2A
:10098000420C04FA0CFA28EA0A08D1F8089009FA8D
:100990000CF949EA0808C0F80C80D1F80480B8F1D5
:1009A000020F02D0B8F1120F15D14FEAD20800EBB6
:1009B0008808D8F820B04FEA42794FEAD96905FA99
:1009C00009FE2BEA0E0BD1F810E00EFA09F949EAFC
:1009D0000B09C8F82090D0F8008028EA0A0891F89E
:1009E000049009F0030909FA0CFC4CEA080CC0F861
:1009F00000C0D1F804C01CF0805F7CD0D6F860C085
:100A000001E07DE077E04CF0010CC6F860C0D6F85C
:100A100060C00CF0010CCDF800C022F0030C0CF10A
:100A2000804909F58039D9F808C04FEA82784FEA41
:100A3000187805FA08FA2CEA0A0AB0F1904F64D047
:100A4000A0F1904CBCF5806C5CD0A0F1904CBCF552
:100A5000006C5DD0A0F1904CBCF5406C5BD0A0F177
:100A6000904CBCF5805C59D0A0F1904CBCF5A05CDA
:100A700057D04FF0060C0CFA08FC4CEA0A0CC9F8E7
:100A800008C0D7F800C02CEA030CD1F8048018F491
:100A9000803F01D04CEA030CC7F800C0DFF890801B
:100AA000D8F800C02CEA030CD1F8049019F4003FE8
:100AB00001D04CEA030CC8F800C0DFF87880D8F801
:100AC00000C02CEA030CD1F8049019F4801F01D067
:100AD0004CEA030CC8F800C0DFF85C80D8F800C00E
:100AE0002CEA030CD1F8049019F4001F01D04CEA51
:100AF000030CC8F800C0521C0B68D3407FF408AF49
:100B0000BDE8F88F4FF0010CB5E74FF0000CB2E7ED
:100B10004FF0020CAFE74FF0030CACE74FF0040CC2
:100B2000A9E74FF0050CA6E70010024000040140C1
:100B300004040140080401400C040140006908421B
:100B400001D00120704700207047002A01D0816148
:100B5000704781627047000001488068704700005C
:100B60002800002002488168426811448160704773
:100B70002800002070B5054600240F4E706800283C
:100B800017D04FF47A71B1FBF0F00C490968B1FB52
:100B9000F0F000F01DFE08B101240BE0102D06D28C
:100BA00000222946501E00F00BF8356002E00124B7
:100BB00000E00124204670BD280000202400002011
:100BC00010B4184B1B68C3F30223C3F1070CBCF12C
:100BD000040F01D94FF0040C1C1D072C01D2002377
:100BE00000E0DB1E012404FA0CFCACF1010C0CEA61
:100BF0000101994004FA03F35B1E1A4011430028D7
:100C000006DB00F1E020090180F8001410BC7047F9
:100C100000F00F0000F1E020090180F8141D10BC65
:100C2000704700000CED00E033493222334B096875
:100C30004A43334900280AD0B0F5007F31D0086814
:100C400020F4C06040F480600860002070470868AD
:100C500000F4C060B0F5806F06D0D1F8800020F4B9
:100C60008070C1F88000F0E7D1F8800020F4807037
:100C7000C1F88000086820F4C06040F4007008608B
:100C8000B2FBF3F0401C00E0401E4A6912F4806F92
:100C900001D00028F8D1486910F4806FD5D0032026
:100CA0007047086800F4C060B0F5806F06D0D1F8D6
:100CB000800040F48070C1F88000C6E7D1F8800061
:100CC00040F48070C1F88000086820F4C06040F4EF
:100CD00000700860B2FBF3F0401C00E0401E4A695F
:100CE00012F4806F01D00028F8D1486910F4806FA9
:100CF000ABD00320704700002400002040420F00CA
:100D0000007000402DE9F84F0446002500272068B8
:100D1000B04E10F4002F76D0A846B06D10F0805F72
:100D200009D1B06D40F08050B065B06D00F08050DA
:100D300000904FF00108DFF8A0A2DAF8000040F4BC
:100D40008070CAF80000FFF707FF8146DAF800005C
:100D500010F4807F0CD1FFF7FFFEA0EB0900022802
:100D600001D9032504E0DAF8000010F4807FF2D006
:100D700025B12F46B8F1010F41D044E0D6F89000DC
:100D800000F44070A0B1216C814211D0D6F89000DF
:100D900020F44070D6F8901041F48031C6F89010DD
:100DA000D6F8901021F48031C6F89010C6F8900063
:100DB00010F0010F16D0FFF7CFFE8146D6F8900055
:100DC00010F0020F0ED141F2883AFFF7C5FEA0EBFA
:100DD0000900504501D9032504E0D6F8900010F031
:100DE000020FF2D00DB12F46C4E7D6F89000216C67
:100DF00020F440700843C6F89000BBE703E0B06DF4
:100E000020F08050B065207810F0010F07D0D6F8A0
:100E10008800616820F003000843C6F88800207845
:100E200010F0020F07D0D6F88800A16820F00C005F
:100E30000843C6F88800207810F0040F07D0D6F8D1
:100E40008800E16820F030000843C6F88800207868
:100E500010F0080F07D0D6F88800216920F0C000F4
:100E60000843C6F88800207810F0200F07D0D6F885
:100E70008800616920F440600843C6F88800207843
:100E800010F0400F07D0D6F88800A16920F4405038
:100E90000843C6F88800207810F0800F07D0D6F8F5
:100EA0008800E16920F440400843C6F888002088A3
:100EB00010F4807F07D0D6F88800216A20F44030F3
:100EC0000843C6F88800208810F4007F07D0D6F8C1
:100ED0008800616A20F440200843C6F88800208812
:100EE00010F4806F0FD0D6F88800A16A20F440106B
:100EF0000843C6F88800A06AB0F5801F03D1F068E7
:100F000040F48010F060208810F4006F0FD0D6F805
:100F10008800E16A20F440000843C6F88800E06ACF
:100F2000B0F5800F03D1F06840F48010F0602088A5
:100F300010F4805F0FD0D6F88800216B20F040704D
:100F40000843C6F88800206BB0F1807F03D1F068B9
:100F500040F48010F060208810F4005F0FD0D6F8C5
:100F60008800616B20F040600843C6F88800606B21
:100F7000B0F1006F03D1F06840F48010F060208879
:100F800010F4804F0FD0D6F88800A16B20F040609D
:100F90000843C6F88800A06BB0F1006F03D1F06879
:100FA00040F48010F060208810F4004F0FD0D6F885
:100FB0008800E16B20F040500843C6F88800E06BE1
:100FC000B0F1805F03D1F06840F48030F0603846C3
:100FD000BDE8F88F00100240007000402DE9F04796
:100FE00004460D460027002C17D0DFF8DC91D9F815
:100FF000000000F00F00A84212D2D9F8000020F043
:101000000F002843C9F80000D9F8000000F00F00D5
:10101000A84205D00120BDE8F0870120BDE8F08797
:1010200020786A4E10F0010F41F2883A5ED0606875
:10103000DFF89C81032806D0022822D0306810F403
:10104000806F49D021E0306810F0007F0ED001F0B1
:101050000DFB404524D9B06810F0F00F09D020787E
:1010600010F0020F1CD0A06818B119E00120BDE8F3
:10107000F087B06820F0F00040F08000B06080277A
:101080000EE0306810F4003F23D000F0D3F8404564
:1010900006D9B06820F0F00040F08000B0608027F2
:1010A000B068616820F003000843B060FFF754FDAA
:1010B0008046B068616800F00C00B0EB810F15D07D
:1010C000FFF74AFDA0EB0800504508D90320BDE812
:1010D000F0870120BDE8F0870120BDE8F087B06807
:1010E000616800F00C00B0EB810FE9D1206810F0CE
:1010F000020F17D010F0040F03D0B06840F4E06086
:10110000B060207810F0080F05D0B06820F460506F
:1011100040F4E060B060B068A16820F0F0000843DF
:10112000B06005E0802F03D1B06820F0F000B0601F
:10113000D9F8000000F00F00A8421DD9D9F800002E
:1011400020F00F002843C9F80000FFF705FD07460F
:10115000D9F8000000F00F00A8420DD0FFF7FCFC0A
:10116000C01B504502D90320BDE8F087D9F8000024
:1011700000F00F00A842F1D1207810F0040F05D044
:10118000B068E16820F4E0600843B060207810F0B7
:10119000080F06D0B068216920F4605040EAC10011
:1011A000B06000F047F8B1680A4AC1F30311515C1E
:1011B00001F01F01C8400849086008480068BDE800
:1011C000F047FFF7D7BC00000020024000100240AB
:1011D00000B4C404DC5F00082400002028000020C4
:1011E00001480068704700002400002000B5FFF7A8
:1011F000F7FF05498968054AC1F30221515C01F0F6
:101200001F01C84000BD000000100240EC5F000854
:1012100000B5FFF7E5FF05498968054AC1F3C2211A
:10122000515C01F01F01C84000BD000000100240E9
:10123000EC5F00081A4A9068DFF868C000F00C0004
:1012400004280CD0906800F00C011748082905D03C
:1012500091680C2333EA010103D0002070476046F7
:101260007047D16801F00303D168C1F30311491C31
:10127000032B0DD0BCFBF1F0D168C1F3062148432C
:10128000D168C1F34161491C4900B0FBF1F07047DE
:10129000B0FBF1F0D168C1F306214843F0E700004C
:1012A000001002400024F40000366E012DE9F843DE
:1012B0000446002C0ED02078FD4F10F0010F60D0B6
:1012C000B8683D4600F00C00E96801F003010C2805
:1012D00003D004E00120BDE8F88303291AD00828D0
:1012E00018D06068B0F5803F1DD0B0F5A02F1FD09A
:1012F000286820F480302860286820F48020286046
:10130000606858B3FFF728FC0646286810F4003FD1
:1013100017D036E0286810F4003F32D0606880BBF8
:101320000120BDE8F883286840F480302860E7E7B2
:10133000286840F480202860286840F480302860C5
:10134000DEE7FFF709FC801B642802D90320BDE813
:10135000F883286810F4003FF3D012E0FFF7FCFB9D
:101360000646286810F4003F0BD0FFF7F5FB801B02
:10137000642802D90320BDE8F883286810F4003FF0
:10138000F3D1207810F0020F5ED0B8683D4600F02F
:101390000C00E96801F003010C2801D102290FD0EB
:1013A00004280DD0E068B8B3286840F48070286045
:1013B000FFF7D2FB0646286810F4806F18D023E0B0
:1013C000286810F4806F01D0E06870B16868217CF3
:1013D00020F0FE4040EA01606860B6480068FFF710
:1013E000C9FB88B30120BDE8F8830120BDE8F8837C
:1013F000FFF7B2FB801B022802D90320BDE8F88367
:10140000286810F4806FF3D06868217C20F0FE40DB
:1014100040EA0160686017E0FFE7286820F4807008
:101420002860FFF799FB0646286810F4806F0BD000
:10143000FFF792FB801B022802D90320BDE8F88346
:10144000286810F4806FF3D1207810F0080F3AD09C
:101450006069E0B1D7F894003D4640F00100C7F85C
:101460009400FFF779FB0646D5F8940010F0020FC0
:1014700029D1FFF771FB801B022802D90320BDE8A8
:10148000F883D5F8940010F0020FF2D01BE0D7F8E3
:1014900094003D4620F00100C7F89400FFF75CFB84
:1014A0000646D5F8940010F0020F0CD0FFF754FB5D
:1014B000801B022802D90320BDE8F883D5F89400E8
:1014C00010F0020FF2D1207810F0040F7BD04FF013
:1014D0000008B86D10F0805F09D1B86D40F0805001
:1014E000B865B86D00F0805000904FF00108724D63
:1014F000286810F4807F16D1286840F48070286036
:10150000FFF72AFB0646286810F4807F0BD1FFF70F
:1015100023FB801B022802D90320BDE8F88328683A
:1015200010F4807FF3D0A06801281AD005281FD0BE
:10153000D7F8900020F00100C7F89000D7F890008D
:1015400020F00400C7F89000A06841F2883650B33C
:10155000FFF702FB0546D7F8900010F0020F14D0F9
:1015600037E0D7F8900040F00100C7F89000EBE7B3
:10157000D7F8900040F00400C7F89000D7F890002A
:1015800040F00100C7F89000DEE7FFF7E5FA401BE6
:10159000B04202D90320BDE8F883D7F8900010F0DC
:1015A000020FF2D015E0FFF7D7FA0546D7F8900002
:1015B00010F0020F0DD0FFF7CFFA401BB04203D955
:1015C0000320BDE8F8830BE0D7F8900010F0020F7D
:1015D000F1D1B8F1010F03D1B86D20F08050B8659A
:1015E000207810F0200F3AD0A069E0B1D7F8980029
:1015F0003D4640F00100C7F89800FFF7ADFA0646F7
:10160000D5F8980010F0020F29D1FFF7A5FA801B3A
:10161000022802D90320BDE8F883D5F8980010F01D
:10162000020FF2D01BE0D7F898003D4620F00100F1
:10163000C7F89800FFF790FA0646D5F8980010F022
:10164000020F0CD0FFF788FA801B022802D9032072
:10165000BDE8F883D5F8980010F0020FF2D1E069E8
:1016600060B3B9683D460C2232EA01014FF0FF3801
:1016700078D0022823D0286820F080702860E8689D
:1016800020F00300E860E86820F4881020F0807003
:10169000E860FFF761FA0446286810F0007F0DD07B
:1016A000FFF75AFA001B022857D90320BDE8F88338
:1016B00000100240280000200070004083E02868ED
:1016C00020F080702860FFF747FA0646286810F07F
:1016D000007F0AD0FFF740FA801B022801D90320BF
:1016E000E4E7286810F0007FF4D1616A206A491E9F
:1016F00040EA0110A16A228E090208EB520241EA77
:101700004251084394F8341008EB510140EA41601B
:1017100094F82C1040EAC160E9682C4A1140084353
:10172000E860286840F080702860E86840F08070C9
:10173000E860FFF711FA0446286810F0007F42D1F4
:10174000FFF70AFA001B022801D90320AEE7286838
:1017500010F0007FF4D036E004E0286810F0007F3D
:101760009ED130E001282CD0E868226A00F0030105
:10177000914224D1626A00F0F001521EB1EB021FC7
:101780001DD1A26A00F4FE41B1EB022F17D194F8EB
:101790002C1000F07842B2EBC16F10D1228E00F411
:1017A000C00108EB5202B1EB425F08D194F834104B
:1017B00000F0C06008EB5101B0EB416F03D0012095
:1017C00074E7012072E7002070E700000C809F01A1
:1017D000401EB0F1807F01D3012070474FF0E0211F
:1017E0004861044AF02010700020886107200861D9
:1017F0000020704723ED00E0F0B490F83C20012A6F
:101800003ED0012480F83C40022280F83D2003684D
:101810005A68D3F808C01C4D1C4EAB4201D0B342ED
:1018200003D122F470024F683A4322F0700222F092
:1018300000720F683A435A600268AA4213D0B2F1AC
:10184000804F10D0A2F18043B3F580630BD0A2F19A
:101850008043B3F5006306D0B24204D0A2F18043C6
:10186000B3F5A03304D12CF080038968194391604B
:1018700080F83D40002180F83C10F0BC002070470B
:10188000F0BC022070470000002C014000340140F1
:1018900010B586B0044614216846FEF7F1FC2068B6
:1018A000B0F1804F15D10C48C16C41F00101C16409
:1018B000C06C694600F00100059002200090019084
:1018C000002002900390012004904FF09040FFF719
:1018D00015F806B010BD00000010024070B50446B7
:1018E0000D4694F83C0001280BD0012084F83C0000
:1018F0000C2A4AD007DC5AB1042A1DD0082A43D149
:101900002FE0022070BD102A54D0142A7AD165E04D
:101910002946206801F056FB2068816941F00801E2
:1019200081612068816921F00401816120688169F9
:101930002A691143816165E02946206801F096FB20
:101940002068816941F4006181612068816921F426
:1019500080618161206881692A6941EA022181618F
:1019600050E02946206801F0CFFB2068C16941F0B2
:101970000801C1612068C16921F00401C1612068CA
:10198000C1692A691143C1613CE02946206801F020
:1019900009FC2068C16941F40061C1612068C16926
:1019A00021F48061C1612068C1692A6941EA02218C
:1019B000C16127E02946206801F042FC2068016DE2
:1019C00041F0080101652068016D21F00401016505
:1019D0002068016D2A691143016513E029462068DA
:1019E00001F068FC2068016D41F400610165206828
:1019F000016D21F4806101652068016D2A6941EA69
:101A000002210165002084F83C0070BD10B5044639
:101A1000002C03D094F83D0010B107E0012010BD68
:101A2000002084F83C00204600F022F8022084F8D0
:101A30003D00211D206801F06DFA012084F8480066
:101A400084F83E0084F83F0084F8400084F84100A8
:101A500084F8420084F8430084F8440084F8450088
:101A600084F8460084F8470084F83D00002010BD4B
:101A700008B50068B0F1804F08D10548816D41F08C
:101A800001018165806D00F00100009008BD00003B
:101A90000010024090F87C10012918D0012180F834
:101AA0007C102421C0F8801001680A680B6823F0BC
:101AB00001030B6022F000510022426603681960A6
:101AC0002021C0F8801080F87C2000207047022080
:101AD000704770B5044694F87C0001281DD00120A1
:101AE00084F87C002420C4F880002068056802681F
:101AF00022F0010202602068826822F060621143D5
:101B00008160204601F012FC206805602020C4F8A6
:101B10008000002084F87C0070BD022070BD70B58C
:101B2000044694F87C0001281DD0012084F87C0034
:101B30002420C4F8800020680568026822F00102B1
:101B400002602068826822F0604211438160204672
:101B500001F0ECFB206805602020C4F88000002024
:101B600084F87C0070BD022070BD10B50446002CC6
:101B700003D0D4F8800010B107E0012010BD002090
:101B800084F87C00204600F029F82420C4F8800066
:101B90002068016821F001010160204601F0A4FDE8
:101BA000012818D0A06A10B1204601F0FBFB206884
:101BB000416821F4904141602068816821F02A0148
:101BC00081602068016841F0010101602046BDE8A4
:101BD000104001F053BC012010BD000010B586B0CC
:101BE000044614216846FEF74BFB134920688842DF
:101BF0001FD11248016E41F480410166016E01F46B
:101C000080410591C16C41F00101C164C06C69461D
:101C100000F0010005904FF4C06000900220019098
:101C2000002002900390072004904FF09040FEF7B0
:101C300065FE06B010BD00000038014000100240F3
:101C400010B4D0F88430202B02D010BC0220704792
:101C500061B35AB390F87C30012B2AD0012380F86D
:101C60007C308165A0F85C20A0F85E200023C3666C
:101C700081684FF0FF0CB1F5805F1DD07F2429B340
:101C8000B1F1805F2AD0A0F86030C0F888302221FE
:101C9000C0F884100168D1F808C04CF0010CC1F8FC
:101CA00008C0416EB1F1005F21D03CE010BC0120C2
:101CB000704710BC02207047016911B1A0F860C0E4
:101CC000E3E740F2FF11A0F86010DEE7016911B10F
:101CD000A0F86040D9E7A0F860C0D6E7016919B163
:101CE0003F21A0F86010D0E7A0F86040CDE7B0F841
:101CF0006810914217D88168B1F5805F01D1016900
:101D000071B11349C16680F87C3001680A6842F4F9
:101D100080720A600068816841F08051816011E042
:101D20000C49C166EFE78168B1F5805F01D10169B7
:101D300059B10949C16680F87C300068016841F4F6
:101D40009071016010BC002070470449C166F2E741
:101D5000413600083D350008E5350008E334000849
:101D60007CB501220D490E48FFF76AFF0B493F2859
:101D7000087011D14C1F6069FEF734FB05460E4612
:101D80002069FEF72FFB41EC100BCDE9005653EC18
:101D9000102B04A002F096FA7CBD00000D0000207C
:101DA00098000020583A252E31662C593A252E31BC
:101DB000660000002DE9F84304460E4615461F460E
:101DC000D4F88000202802D00220BDE8F883D6B1E4
:101DD000CDB194F87C00012818D0012084F87C0053
:101DE0004FF00008C4F888802120C4F88000FEF776
:101DF000B3FE8146A4F85450A4F85650A068B0F53C
:101E0000805F06D007E00120BDE8F8830220BDE82E
:101E1000F883206978B135460026B4F85600D0B171
:101E20004B46002280212046009702F00DFA20B197
:101E30000320BDE8F8830025EFE7BDB121682878CD
:101E400088626D1CB4F85600401EA4F85600B4F821
:101E500056000028E4D14B4600224021204600973E
:101E600002F0F2F948B10320BDE8F8833088216818
:101E7000C0F308008862B61CE4E72020C4F88000A4
:101E800084F87C800020BDE8F883FEE700B585B0CB
:101E900014216846FEF7F4F9C0200090012001905B
:101EA00002900220039069460248FEF727FD05B024
:101EB00000BD00000004004870B50824002500F0B3
:101EC0009FFD13E06806050E002000F081FD142040
:101ED00002F08AFE142002F087FE012000F078FD57
:101EE000142002F081FE00F07FFD0543641EE4B281
:101EF000E8D2002000F06CFD142002F075FE00F026
:101F0000A1FD284670BD70B50446082516E000F016
:101F10005FFD142002F068FE04F0800000F086FDF2
:101F2000142002F061FE6006040E142002F05CFE34
:101F3000012000F04DFD142002F056FE6D1EEDB2A2
:101F40004FF00000E3D200F043FDBDE870401420E4
:101F500002F04ABE10B5012000F068FD142002F026
:101F600043FE142002F040FE012000F031FD142059
:101F700002F03AFE002000F02BFDBDE810401420D6
:101F800002F032BE10B5012000F050FD142002F026
:101F90002BFE012000F01CFD142002F025FE002085
:101FA00000F044FD142002F01FFE002000F010FDA0
:101FB000BDE81040142002F017BE10B5002000F05C
:101FC00007FD142002F010FE002000F02FFD142069
:101FD00002F00AFE012000F0FBFC142002F004FED7
:101FE000012000F023FDBDE81040142002F0FCBDEC
:101FF00010B5052400F004FD142002F0F5FD0120C9
:1020000000F0E6FC142002F0EFFD05E0641EA4B22F
:10201000142002F0E9FD6CB100F0E6FC0028F5D1D7
:1020200000F010FD002000F0D3FC142002F0DCFDD5
:10203000002010BD00F006FDFFF7BFFF012010BD1E
:1020400000B585B014216846FEF71AF94FF6FF7007
:10205000009000200321CDE9020101906946024869
:10206000FEF74CFC05B000BD0008004800B585B087
:1020700014216846FEF704F94FF6FF700090012026
:102080000190032003900020029069460248FEF769
:1020900035FC05B000BD00000008004870B5002404
:1020A00006462146204600F003F900F041F94FF4BE
:1020B0009635304600F010F9641CAC42F9D370BD7F
:1020C00030B587B014216846FEF7DAF81E48C16CB7
:1020D00041F00401C164C16C01F004010591C16CBF
:1020E00041F00101C164C16C01F001010591C16CB5
:1020F00041F00201C164C06C012500F002000590AE
:102100004FF44870CDE90005002403946946029419
:102110000E48FEF7F3FB280203940090CDE901542A
:102120004FF0904469462046FEF7E8FBFFF79EFF1C
:10213000A06940F48070A06104481830016841F43F
:102140000871016007B030BD001002400004004873
:10215000203AD2B2034B02EB420203EB021200F030
:1021600019B800000C4E0008F0B50E4607460025D1
:1021700040F23F1407E021463846FFF7E9FF103CE4
:102180006D1CA4B2761C3278002A01D0142DF2D333
:10219000F0BD00002DE9F04791468A46002604462E
:1021A00000F086F8DFF84080012700BF00F0C0F89B
:1021B0005FF0000539F8160007FA05F108424046BD
:1021C00001D1408800E0008800F086F86D1C102DD9
:1021D000F0D3641CE4B25146204600F069F8761C46
:1021E000182EE3D3BDE8F0870000002010B5FFF7FC
:1021F00067FF002000F014F8084CA080A088A0F52C
:102200000241303906D000F0E2FA002000F008F870
:10221000A08010BD00F052FAF7E700000000002097
:1022200070B51D490A6842F400720A600A6842F4F7
:1022300080720A60184C103C226842F02002226032
:10224000164A1060086840F02000086000BF00BF18
:1022500000BF206840F020002060206840F48070BB
:102260002060FFF7EDFE4FF09041886A40F48070E7
:10227000886200BF00BF00BF0848001F006885B229
:10228000886940F480708861FFF7F0FE206840F4B0
:1022900000702060284670BD2804004814080048DB
:1022A00001B5BDF800000149488008BD00000020CC
:1022B00010B50C460146202000F068F82146BDE824
:1022C0001040212000F062B801B5BDF800000149BE
:1022D000088008BD00000020134A116841F4007115
:1022E0001160114910390B6843F480730B600B685F
:1022F00043F020030B600D4B1860106840F0200085
:10230000106000BF00BF00BF086840F020000860F8
:10231000086840F48070086000BF00BF00BF086814
:1023200040F4007008607047280400481408004812
:102330001449086840F400700860086840F4807030
:10234000086010481038026842F0200202600E4B0C
:1023500022221A600A6842F020020A6000BF00BF11
:1023600000BF016841F020010160016841F4807103
:10237000016000BF00BF00BF016841F4007101604F
:10238000704700002804004814080048184B10B596
:102390001A6842F400721A601A6842F480721A6075
:1023A000134A103A146844F020041460114C206061
:1023B000186840F02000186000BF00BF00BF106820
:1023C00040F020001060106840F4807010602160C0
:1023D000186840F02000186000BF00BF00BF106800
:1023E00040F020001060106840F48070106010BD54
:1023F000280400481408004810B501224FF6FF7168
:102400000748FEF7A2FB074C012204212046FEF7F5
:102410009CFB20460022BDE810400421FEF795BB3E
:1024200000080048000C004810B50E4B0E4C012867
:1024300012D0022814D1002201021846FEF785FBB3
:10244000012204212046FEF780FB20460022BDE841
:1024500010400421FEF779BB00224FF48071ECE7B5
:1024600010BD000000080048000C00482DE9F04FA6
:1024700087B014216846FDF703FF3F48C16C41F067
:102480000401C164C16C01F004010591C16C41F00B
:102490002001C164C16C01F020010591C16C41F0C3
:1024A0000101C164C16C01F001010591C16C41F0F1
:1024B0000201C164C16C01F002010591C16C41F0DF
:1024C0000801C164C06CDFF8B48000F008004FF66A
:1024D000FF740590002221464046FEF736FB4FF47C
:1024E00080764FF09049002231464846FEF72DFB9A
:1024F000DFF88CA0002204215046FEF726FBDFF80F
:1025000084B04FF44877002239465846FEF71DFB49
:102510000125CDE900450024029469464046039414
:10252000FEF7ECF9CDE90054694648460295FEF7FE
:10253000E5F907208DE8310069465846FEF7DEF9D7
:102540000096CDE90154694648460394FEF7D6F952
:1025500004200090CDE90154694650460394FEF7EB
:10256000CDF90097CDE90154694658460394FEF72A
:10257000C5F907B0BDE8F08F001002400008004820
:10258000000C00480004004810B58AB000240794ED
:1025900008941C2168460994FDF772FE16484FF016
:1025A000804101604F21C0E9011440F2F311C0E9FC
:1025B00003148461FFF72AFA08B1FEF78AF9079439
:1025C00007A90D480994FFF717F908B1FEF781F93B
:1025D000602000901920CDE90104042269460648D4
:1025E0000494FFF77BF908B1FEF773F90248FFF78F
:1025F0004FF90AB010BD00004C000020184810B57B
:10260000164901604FF416514160002181600C228F
:10261000C160C0E904128161C161016241628162ED
:10262000FFF7A3FA08B1FEF754F900210C48FFF7B1
:1026300076FA08B1FEF74DF900210948FFF749FA8B
:1026400008B1FEF746F90648FFF724FA002803D040
:10265000BDE81040FEF73DB910BD00000038014054
:1026600098000020FEE77047704700001049C868D6
:1026700000F00302C868C0F30310401C032A0ED008
:102680000C4AB2FBF0F0CA68C2F306225043C96894
:10269000C1F34161491C4900B0FBF1F07047064AA3
:1026A000B2FBF0F0CA68C2F306225043EFE7000025
:1026B000001002400024F40000366E0130B5012104
:1026C0000020FFF763FE4FF47A70FEF7BBF800219D
:1026D0000120FFF75BFE41F290711020FFF756FEDC
:1026E0004FF41C516020FFF751FE01216120FFF7DC
:1026F0004DFE02214620FFF749FE48F2100113204B
:10270000FFF744FE48F2FE011220FFF73FFE4FF4B0
:10271000A0610220FFF73AFE41F230010320FFF7EB
:1027200035FE40F2033421463020FFF72FFE2146CC
:102730003120FFF72BFE21463220FFF727FEE51E52
:1027400029463320FFF722FE03213420FFF71EFE27
:1027500021463520FFF71AFE14213620FFF716FE1A
:1027600021463720FFF712FE21463820FFF70EFEE4
:1027700021463920FFF70AFE29463A20FFF706FED8
:1027800003213B20FFF702FE21463C20FFF7FEFD20
:102790004FF4A0513D20FFF7F9FD4FF40071922056
:1027A000FFF7F4FD21469320FFF7F0FD40F60D0101
:1027B0009020FFF7EBFD41F218010320FFF7E6FD43
:1027C000BDE8304040F273110720FFF7DFBD10B5C0
:1027D00043F20801E320FFF7D9FD1221E720FFF7BC
:1027E000D5FD41F23121EF20FFF7D0FD002101207E
:1027F000FFF7CCFD4FF4E0610220FFF7C7FD41F287
:1028000030010320FFF7C2FD00210420FFF7BEFDC9
:1028100040F207210820FFF7B9FD00210920FFF74A
:10282000B5FD00210A20FFF7B1FD00210C20FFF7C4
:10283000ADFD00210D20FFF7A9FD00210F20FFF7BE
:10284000A5FD00211020FFF7A1FD07211120FFF7B2
:102850009DFD00211220FFF799FD00211320FFF7B5
:1028600095FDC820FEF736F841F290611020FFF781
:102870008DFD40F227211120FFF788FD3220FEF761
:1028800029F81D211220FFF781FD3220FEF722F8E2
:102890004FF400611320FFF779FD14212920FFF781
:1028A00075FD0B212B20FFF771FD3220FEF712F88A
:1028B00000212020FFF76AFD00212120FFF766FD9F
:1028C00007213020FFF762FD40F207713120FFF74A
:1028D0005DFD06213220FFF759FD40F204713520DD
:1028E000FFF754FD41F604713620FFF74FFD042138
:1028F0003720FFF74BFD00213820FFF747FD40F25E
:1029000006713920FFF742FD40F201713C20FFF7CC
:102910003DFD0F213D20FFF739FD00215020FFF73D
:1029200035FDEF215120FFF731FD00215220FFF747
:102930002DFD40F23F115320FFF728FD4FF41C51AD
:102940006020FFF723FD01216120FFF71FFD00211B
:102950006A20FFF71BFD00218020FFF717FD0021F3
:102960008120FFF713FD00218220FFF70FFD0021DA
:102970008320FFF70BFD00218420FFF707FD0021D6
:102980008520FFF703FD10219020FFF7FFFC0021B9
:102990009220FFF7FBFC03219320FFF7F7FC4FF495
:1029A00088719520FFF7F2FC00219720FFF7EEFCDD
:1029B00000219820FFF7EAFC41F218010320FFF7FD
:1029C000E5FCBDE8104040F273110720FFF7DEBCC4
:1029D00008B1044801E003481030016841F04001AB
:1029E000016070471804004810B580210348FEF7C5
:1029F000A5F8012800D0002010BD00000004004808
:102A000000B585B014216846FDF73AFC802000909F
:102A100000200190012002900220039069460248A4
:102A2000FDF76CFF05B000BD0004004808B1044884
:102A300001E003481030016841F0800101607047F7
:102A40001804004800B585B014216846FDF718FC4D
:102A5000802000901120019000200290022003901D
:102A600069460248FDF74AFF05B000BD0004004872
:102A7000704700002DE9F0432DED028B85B059A180
:102A80005D4801F02FFC5C491820FFF76DFB5B4CA3
:102A90005BA15948A26801F025FC57494820FFF77F
:102AA00063FB5CA15448E26801F01CFC52496020C1
:102AB000FFF75AFB5C4D02212846FEF73FF84FF026
:102AC0000009A0B91420FDF705FF02212846FEF7F2
:102AD00035F80028F9D01420FDF7FCFEA068401C52
:102AE000A0606178491C884201D1C4F80890042193
:102AF0002846FEF723F8A0B91420FDF7EBFE0421C9
:102B00002846FEF71BF80028F9D01420FDF7E2FE56
:102B1000E068401CE060A178491C884201D1C4F8FB
:102B20000C90E07801280CD184F80390FFF764FC46
:102B30000120FFF779FC41F28830FDF7CBFEFFF76B
:102B40005BFC4FF0904501212846FDF7F7FF002878
:102B500042D11420FDF7BEFE01212846FDF7EEFF0D
:102B60000028F9D01420FDF7B5FEA068617800EECA
:102B7000100A091A6170E168A278B8EE400A521A88
:102B8000A270D4ED048A00EE901A94ED058A28EE26
:102B9000800AF8EE600A08EE200A10EE100AFDF72F
:102BA00021FC0746884618EE100AFDF71BFC054677
:102BB0000E4618EE900AFDF715FC8DE8E00141EC99
:102BC000100B1AA053EC102B01F07CFBC4F80890FA
:102BD0000120C4F80C90E07005B0BDEC028BBDE89C
:102BE000F0830000202020202020202053484F5038
:102BF0002020202020200000380000200800002095
:102C00002020202020583A25642020202020202029
:102C1000202000002020202020593A256420202058
:102C2000202020202020000000040048583A252EB3
:102C300031662C593A252E31662C5A3A252E3166AA
:102C40000000000070B52DED028B32A1364801F076
:102C500049FB35491820FFF787FA344C2069FDF706
:102C6000C1FB41EC100B32A153EC102B2E4801F0AC
:102C700039FB2D494820FFF777FA6069FDF7B2FB71
:102C800041EC100B30A153EC102B274801F02AFB2C
:102C900025496020FFF768FA314D02212846FDF7EB
:102CA0004DFF9FED308BA8B91420FDF713FE0221D4
:102CB0002846FDF743FF0028F9D01420FDF70AFE4F
:102CC0002069FDF78FFB53EC182BFDF7E4FAFDF7B5
:102CD0009CFB206104212846FDF730FF002815D118
:102CE0001420FDF7F7FD04212846FDF727FF0028F3
:102CF000F9D01420FDF7EEFD6069FDF773FB53EC8E
:102D0000182BFDF7C8FAFDF780FB6061BDEC028B64
:102D100070BD000020202020202020205052494358
:102D2000452020202020200038000020080000201E
:102D30002020202020583A252E31662020202020D7
:102D400020202020000000002020202020593A25AB
:102D50002E3166202020202020202020000000008E
:102D6000000400489A9999999999B93F70B523A19F
:102D7000274801F0B7FA26491820FFF7F5F9254C46
:102D800025A12348627801F0ADFA21494820FFF7D8
:102D9000EBF9A27825A11E4801F0A4FA1C49602095
:102DA000FFF7E2F9264D02212846FDF7C7FE70B96C
:102DB0001420FDF78FFD02212846FDF7BFFE0028F5
:102DC000F9D01420FDF786FD6078401C6070042166
:102DD0002846FDF7B3FE00280ED11420FDF77AFD3A
:102DE00004212846FDF7AAFE0028F9D01420FDF79B
:102DF00071FDA078401CA07070BD00002020202034
:102E0000202020205245502020202020200000009B
:102E100038000020080000202020202020583A25DB
:102E200064202020202020202000000020202020BE
:102E300020593A2564202020202020202020000036
:102E40000004004810B50E4C01212046FDF776FE27
:102E5000002814D11420FDF73DFD01212046FDF787
:102E60006DFE0028F9D01420FDF734FD05480178E7
:102E7000491CC9B20170032901D90121017010BD9B
:102E80000004004808000020FDF76CBE30B5A5B076
:102E900038216846FDF7F4F914211FA8FDF7F0F971
:102EA00044210EA8FDF7ECF94FF40070FDF7BCFECD
:102EB00001252804CDE9005002200324CDE90704B0
:102EC0001421CDE90A100C900D9009946846FEF784
:102ED000EDF90F20CDE91F04002421942294032151
:102EE0001FA82394FEF77AF8CDE90E540EA8FDF73B
:102EF00009FF25B030BD00000548016841F47001AC
:102F0000016003494FF0006080390860704700009D
:102F100088ED00E02DE9F0010268234C234BDFF837
:102F20009080DFF890C0A04208D0B0F1804F05D06B
:102F3000984203D0404501D0604503D122F0700291
:102F40004D682A431C4D1D4E1D4FA0420ED0B0F1BE
:102F5000804F0BD0984209D0404507D0604505D03E
:102F6000A84203D0B04201D0B84203D122F440724B
:102F7000CB681A434B6922F080021A4302608A68C8
:102F8000C2620A688262A04207D0604505D0A842AA
:102F900003D0B04201D0B84201D1096901630121D7
:102FA0004161BDE8F0017047002C01400004004081
:102FB000000800400034014000400140004401404E
:102FC000004801402DE9F003026A22F0010202628A
:102FD000026A4368D0F818C02CF0700C2CF4803CC6
:102FE0002CF0030C0C6844EA0C0C22F002028C68F2
:102FF0002243194C194D1A4E1A4FDFF86C80A0422B
:1030000007D0A84205D0B04203D0B84201D0404515
:1030100007D122F00802D1F80C9049EA020222F00E
:103020000402A04207D0A84205D0B04203D0B84263
:1030300001D0404507D123F4807323F400734C6919
:1030400023438C6923434360C0F818C04968416337
:103050000262BDE8F0037047002C014000340140DB
:1030600000400140004401400048014070B4026A41
:1030700022F010020262036A4268D0F818C02CF4F1
:10308000E04C2CF0807C2CF4407C0C684CEA042C46
:1030900023F020038C6843EA0413194C194DA04215
:1030A00001D0A84206D123F08003CE6843EA06137C
:1030B00023F04003A04210D0A8420ED0A0F18044DB
:1030C000B4F5A03409D0A0F18044B4F5A23404D002
:1030D000A0F18044B4F5A43409D122F4806222F432
:1030E00000624C6942EA84028C6942EA84024260CE
:1030F000C0F818C049688163036270BC7047000063
:10310000002C01400034014070B4026A22F4807245
:103110000262036A4268D0F81CC02CF0700C2CF4D8
:10312000803C2CF0030C0C6844EA0C0C23F4007374
:103130008C6843EA0423194C194DA04201D0A842DF
:1031400006D123F40063CE6843EA062323F48063A8
:10315000A04210D0A8420ED0A0F18044B4F5A03413
:1031600009D0A0F18044B4F5A23404D0A0F1804489
:10317000B4F5A43409D122F4805222F400524C69EF
:1031800042EA04128C6942EA04124260C0F81CC090
:103190004968C163036270BC70470000002C0140A5
:1031A0000034014070B4026A22F480520262036A61
:1031B0004268D0F81CC02CF4E04C2CF0807C2CF43D
:1031C000407C0C684CEA042C23F400538C6843EADE
:1031D0000433194C194DA04201D0A84206D123F462
:1031E0000043CE6843EA063323F48043A04210D064
:1031F000A8420ED0A0F18044B4F5A03409D0A0F1CB
:103200008044B4F5A23404D0A0F18044B4F5A434D1
:1032100009D122F4804222F400424C6942EA84122D
:103220008C6942EA84124260C0F81CC0496801649B
:10323000036270BC70470000002C01400034014064
:1032400010B4026A22F480320262D0F820C04268D0
:10325000036D23F0700323F480330C6823432CF4B4
:10326000003C0C894CEA044CA0F18044B4F596343F
:1032700013D0A0F18044B4F59A340ED0A0F180446C
:10328000B4F5A03409D0A0F18044B4F5A23404D040
:10329000A0F18044B4F5A43404D122F480324C6906
:1032A00042EA04224260036549688164C0F820C094
:1032B00010BC704710B4026A22F480120262D0F887
:1032C00020C04268036D23F4E04323F080730C6850
:1032D00043EA04232CF4001C0C894CEA045CA0F1A2
:1032E0008044B4F5963413D0A0F18044B4F59A34F8
:1032F0000ED0A0F18044B4F5A03409D0A0F18044F0
:10330000B4F5A23404D0A0F18044B4F5A43404D1BF
:1033100022F480224C6942EA8422426003654968B3
:10332000C164C0F820C010BC7047000010B485B064
:1033300018A14A6809680392029118A14A680968AD
:1033400001920091416E00291CD002689168C1F37E
:1033500042619268520F02AB13F802C01DF80220BE
:103360004FEACC04B4FBF2F2EC46A0F86A205A5CB7
:103370001CF80110D200B2FBF1F1A0F8681005B002
:1033800010BC70470121A0F86A10A0F8681005B0C1
:1033900010BC70470101010307010000080402048A
:1033A0000801010190F8281011F0010F06D0016802
:1033B0004A68C36A22F400321A434A6090F828101F
:1033C00011F0020F06D001684A68036B22F48032C4
:1033D0001A434A6090F8281011F0040F06D00168D3
:1033E0004A68436B22F480221A434A6090F82810FE
:1033F00011F0080F06D001684A68836B22F400427E
:103400001A434A6090F8281011F0100F06D0016896
:103410008A68C36B22F480521A438A6090F828109D
:1034200011F0200F06D001688A68036C22F4005264
:103430001A438A6090F8281011F0400F11D00168EB
:103440004A68436C22F480121A434A60416CB1F519
:10345000801F06D101684A68836C22F4C0021A43B7
:103460004A6090F8281011F0800F06D001684A6871
:10347000C06C22F40022104348607047F8B504463F
:103480000026C4F88860FDF767FB074620680068DF
:103490006FF07E4510F0080F0AD03B4600224FF433
:1034A00000112046009500F0CFFE08B10320F8BDC2
:1034B0002068006810F0040F0AD03B4600224FF449
:1034C00080012046009500F0BFFE08B10320F8BD42
:1034D0002020C4F88000C4F8840084F87C600020B8
:1034E000F8BDB0F86020D0F884300168222B04D0F9
:1034F000886940F0080088617047496A836D11400F
:103500001980816D891C8165B0F85E10491EA0F894
:103510005E10B0F85E100029EED101680A6822F44E
:1035200090720A6001688A6822F001028A60202194
:10353000C0F884100021C166FEF712BC2DE9F041ED
:103540000446B4F86060D4F88400222806D02068CD
:10355000816941F008018161BDE8F081B4F86850EB
:1035600045B300274FF020082068406AA16D304025
:103570000880A06D801CA065B4F85E00401EA4F811
:103580005E00B4F85E0088B92068016821F480719B
:1035900001602068816821F0010121F08051816083
:1035A000C4F88480E7662046FEF7DAFB681E85B221
:1035B000002DD9D1B4F85E000028CDD0B4F8681041
:1035C0008142C9D92068816821F080518160044816
:1035D000E0662068016841F020010160BDE8F081EB
:1035E000E3340008B0F86020D0F884300168222B62
:1035F00004D0886940F0080088617047496A11402A
:10360000826D1170816D491C8165B0F85E10491E94
:10361000A0F85E10B0F85E100029EED101680A68CB
:1036200022F490720A6001688A6822F001028A60BE
:103630002021C0F884100021C166FEF791BB000074
:103640002DE9F0410446B4F86060D4F884002228E3
:1036500006D02068816941F008018161BDE8F081F0
:10366000B4F8685045B300274FF020082068406A3E
:10367000A16D30400870A06D401CA065B4F85E00DC
:10368000401EA4F85E00B4F85E0088B920680168A6
:1036900021F4807101602068816821F0010121F02E
:1036A00080518160C4F88480E7662046FEF758FBAD
:1036B000681E85B2002DD9D1B4F85E000028CDD0A7
:1036C000B4F868108142C9D92068816821F080511E
:1036D00081600448E0662068016841F020010160D3
:1036E000BDE8F081E53500082DE9F04704460026E5
:1036F00000270020FE4B2168D4F810C0A268E569BD
:1037000042EA0C02D4F814C04CEA050C42EA0C025E
:10371000D4F864C04CEA0202D1F800C0F54D0CEABE
:10372000050C4CEA02020A6021684A68D4F80CC011
:1037300022F4405242EA0C024A60A16922689A428D
:1037400003D0D4F820C04CEA0101D2F808C02CF410
:10375000306C2CF06E4C4CEA010191602168CA6A11
:10376000D4F824C022F00F0242EA0C02CA62226896
:10377000E149A2F1804CBCF59C3C20D0A2F1804CE8
:10378000BCF5884C30D0A2F1804CBCF5904C40D0B8
:10379000A2F1804CBCF5984C50D09A426BD1D1F834
:1037A000881011F440615ED0B1F5806F5FD0B1F543
:1037B000006F5AD0B1F5406F5BD010255CE0D1F8B6
:1037C000881011F0030107D0012909D0022905D082
:1037D000032907D010254FE001254DE002254BE0DD
:1037E000042549E0082547E0D1F8881011F00C01C4
:1037F00007D0042909D0082905D00C2907D01025A5
:103800003AE0002538E0022536E0042534E00825BA
:1038100032E0D1F8881011F0300107D0102909D01A
:10382000202905D0302907D0102525E0002523E0E8
:10383000022521E004251FE008251DE0D1F88810AD
:1038400011F0C00107D0402909D0802905D0C02936
:1038500007D0102510E000250EE002250CE004251D
:103860000AE0082508E0002506E0022504E004251A
:1038700002E0082500E01025DFF880A24FF40041A7
:103880004FF000089A4240F03582ADB1022D4BD086
:10389000042D6FD0082D6ED00127002800F0C884B9
:1038A000D4F8049009EB4901814202D8B0EB093FFA
:1038B00071D9012700F0BCBCFDF798FC0146606A95
:1038C000C8B1012819D0022819D0032819D004281A
:1038D00019D0052819D0062819D0072819D008288A
:1038E00019D0092819D00A2819D00B2819D001207D
:1038F000B1FBF0F0D1E70120FAE70220F8E704205D
:10390000F6E70620F4E70820F2E70A20F0E70C20AB
:10391000EEE71020ECE72020EAE74020E8E78020EF
:10392000E6E74FF48070E3E7606AC8B1012819D078
:10393000022819D0032819D0042819D005281BD033
:1039400006281BD007281BD008281BD009281BD00D
:103950000A281BD00B281BD00120BAFBF0F09CE7F3
:103960000120FAE70220F8E70420F6E70620F4E752
:103970000820F2E710E047E00A20EEE70C20ECE731
:103980001020EAE72020E8E74020E6E78020E4E78F
:103990004FF48070E1E76CE0FDF74CFC0146606A93
:1039A000C8B1012819D0022819D0032819D0042839
:1039B00019D0052819D0062819D0072819D00828A9
:1039C00019D0092819D00A2819D00B2819D001209C
:1039D000B1FBF0F061E70120FAE70220F8E70420EC
:1039E000F6E70620F4E70820F2E70A20F0E70C20CB
:1039F000EEE71020ECE72020EAE74020E8E780200F
:103A0000E6E74FF48070E3E7606AC8B1012819D097
:103A1000022819D0032819D0042819D0052819D054
:103A2000062819D0072819D0082819D0092819D034
:103A30000A2819D00B2819D00120B1FBF0F02CE78F
:103A40000120FAE70220F8E70420F6E70620F4E771
:103A50000820F2E70A20F0E70C20EEE71020ECE760
:103A60002020EAE74020E8E78020E6E74FF4807076
:103A7000E3E77DB1022D61D0042D7CD0082D7BD0F1
:103A800001271F49A6F54070884276D82068C66095
:103A900000F0CEBBFDF7AAFB0146606A90B3012897
:103AA00035D0022835D0032835D0042835D0052854
:103AB00035D0062835D0072835D0082835D0092834
:103AC00035D00A2835D00B2835D0012200230846EE
:103AD0001946FCF79DFB0902626841EA1061030286
:103AE0005008181841EB08010023FCF791FB0AE08D
:103AF00000800040F369FFCF001002400024F40072
:103B0000FFFC0F0001E00646BBE70122DEE70222D0
:103B1000DCE70422DAE70622D8E70822D6E70A2201
:103B2000D4E70C22D2E71022D0E72022CEE74022B1
:103B3000CCE78022CAE74FF48072C7E7606A70B3AF
:103B400001282FD002282FD003282FD004282FD0CF
:103B500005282FD006282FD007282FD008282FD0AF
:103B600009282FD00A282FD00B282FD0012200237C
:103B70005046194602E02CE073E0B9E0FCF748FB40
:103B8000090241EA106102024FEA5900101841EBA4
:103B900008014A460023FCF73BFB064671E7FFE7B6
:103BA0000122E4E70222E2E70422E0E70622DEE760
:103BB0000822DCE70A22DAE70C22D8E71022D6E74F
:103BC0002022D4E74022D2E78022D0E74FF480724F
:103BD000CDE7FDF72FFB0146606A48B3012829D0E5
:103BE000022829D0032829D0042829D0052829D043
:103BF000062829D0072829D0082829D0092829D023
:103C00000A2829D00B2829D001220023084619466A
:103C1000FCF7FEFA0902626841EA106103025008EB
:103C2000181841EB08010023FCF7F2FA064628E7D2
:103C30000122EAE70222E8E70422E6E70622E4E7B7
:103C40000822E2E70A22E0E70C22DEE71022DCE7A6
:103C50002022DAE74022D8E78022D6E74FF48072AC
:103C6000D3E7606A58B301282BD002282BD0032851
:103C70002BD004282BD005282BD006282BD00728A2
:103C80002BD008282BD009282BD00A282BD00B2882
:103C90002BD0012200234FF400401946FCF7B8FA5C
:103CA000090241EA106102024FEA5900101841EB83
:103CB00008014A460023FCF7ABFA0646E1E601227A
:103CC000E8E70222E6E70422E4E70622E2E7082228
:103CD000E0E70A22DEE70C22DCE71022DAE7202206
:103CE000D8E74022D6E78022D4E74FF48072D1E7AC
:103CF00001279DE2E0694FF6EF79B0F5004F08D05B
:103D0000092D74D2DFE805F0F4F3F273F1737373E5
:103D1000F000092D6CD2DFE805F00544856BC16B1E
:103D20006B6BEC00FDF762FA0146606A00B3012894
:103D300020D0022820D0032820D0042820D0052815
:103D400020D0062820D0072820D0082820D00928F5
:103D500020D00A2820D00B2820D00120B1FBF0F081
:103D60004100606801EB5001B1FBF0F086B217E151
:103D70000120F3E70220F1E70420EFE70620EDE75A
:103D80000820EBE70A20E9E70C20E7E71020E5E749
:103D90002020E3E74020E1E78020DFE74FF4807058
:103DA000DCE7FDF735FA0146606A10B3012822D03E
:103DB000022822D0032822D0042822D0052822D08D
:103DC000062822D0072822D0082822D0092822D06D
:103DD0000A2822D00B2822D00120B1FBF0F04100AC
:103DE000606801EB5001B1FBF0F086B2D8E016E25A
:103DF000D5E00120F1E70220EFE70420EDE70620FF
:103E0000EBE70820E9E70A20E7E70C20E5E71020C8
:103E1000E3E72020E1E74020DFE78020DDE74FF403
:103E20008070DAE7606A00B3012820D0022820D031
:103E3000032820D0042820D0052820D0062820D010
:103E4000072820D0082820D0092820D00A2820D0F0
:103E50000B2820D00120BAFBF0F04100606801EB94
:103E60005001B1FBF0F086B29AE00120F3E70220A6
:103E7000F1E70420EFE70620EDE70820EBE70A2052
:103E8000E9E70C20E7E71020E5E72020E3E7402002
:103E9000E1E78020DFE74FF48070DCE7FDF7CAF947
:103EA0000146606A30B3012826D0022826D00328B4
:103EB00026D0042826D0052826D0062826D0072874
:103EC00026D0082826D0092826D00A2826D00B2854
:103ED00026D00120B1FBF0F04100606801EB5001F9
:103EE000B1FBF0F086B25BE05EE11FE1E3E0A4E04D
:103EF00065E018E00120EDE70220EBE70420E9E7A8
:103F00000620E7E70820E5E70A20E3E70C20E1E7E1
:103F10001020DFE72020DDE74020DBE78020D9E725
:103F20004FF48070D6E7606A00B3012820D00228E1
:103F300020D0032820D0042820D0052820D006280F
:103F400020D0072820D0082820D0092820D00A28EF
:103F500020D00B2820D00120B1FBF0F04100606898
:103F600001EB5001B1FBF0F086B219E00120F3E75C
:103F70000220F1E70420EFE70620EDE70820EBE759
:103F80000A20E9E70C20E7E71020E5E72020E3E737
:103F90004020E1E78020DFE74FF48070DCE7012775
:103FA000A6F11000484508D84FF6F0703040C6F32F
:103FB000420108432168C8603AE1012738E1FDF772
:103FC00015F90146606AF8B101281FD002281FD0F8
:103FD00003281FD004281FD005281FD006281FD073
:103FE00007281FD008281FD009281FD00A281FD053
:103FF0000B281FD00120B1FBF0F1606801EB5001EC
:10400000B1FBF0F086B20BE10120F4E70220F2E709
:104010000420F0E70620EEE70820ECE70A20EAE7B4
:104020000C20E8E71020E6E72020E4E74020E2E764
:104030008020E0E74FF48070DDE7FDF7E9F8014606
:10404000606AF8B101281FD002281FD003281FD0B2
:1040500004281FD005281FD006281FD007281FD0EE
:1040600008281FD009281FD00A281FD00B281FD0CE
:104070000120B1FBF0F1606801EB5001B1FBF0F001
:1040800086B2CDE00120F4E70220F2E70420F0E759
:104090000620EEE70820ECE70A20EAE70C20E8E734
:1040A0001020E6E72020E4E74020E2E78020E0E778
:1040B0004FF48070DDE7606AF8B101281FD0022854
:1040C0001FD003281FD004281FD005281FD0062882
:1040D0001FD007281FD008281FD009281FD00A2862
:1040E0001FD00B281FD00120BAFBF0F1606801EB54
:1040F0005001B1FBF0F086B292E00120F4E702201B
:10410000F2E70420F0E70620EEE70820ECE70A20BB
:10411000EAE70C20E8E71020E6E72020E4E740206B
:10412000E2E78020E0E74FF48070DDE7FDF782F8FA
:104130000146606AF8B101281FD002281FD0032869
:104140001FD004281FD005281FD006281FD00728FD
:104150001FD008281FD009281FD00A281FD00B28DD
:104160001FD00120B1FBF0F1606801EB5001B1FB01
:10417000F0F086B254E00120F4E70220F2E70420D8
:10418000F0E70620EEE70820ECE70A20EAE70C203B
:10419000E8E71020E6E72020E4E74020E2E780207F
:1041A000E0E74FF48070DDE7606AF8B101281FD0C6
:1041B00002281FD003281FD004281FD005281FD095
:1041C00006281FD007281FD008281FD009281FD075
:1041D0000A281FD00B281FD00120B1FBF0F1606826
:1041E00001EB5001B1FBF0F086B219E00120F4E7D9
:1041F0000220F2E70420F0E70620EEE70820ECE7D3
:104200000A20EAE70C20E8E71020E6E72020E4E7B0
:104210004020E2E78020E0E74FF48070DDE70127EF
:10422000A6F11000484502D82068C66000E00127CA
:104230000120A4F86A00A4F86800C4F86C80C4F8EF
:1042400070803846BDE8F0872DE9F0410446069DB0
:10425000884617461E462068C06938EA000016D016
:104260000020B84210D1B5F1FF3F05D0FCF774FC37
:10427000801BA8420DD865B12068C06938EA0000EB
:104280001CD00020B842EED00020BDE8F081012013
:10429000E7E72068016821F4D07101602068816837
:1042A00021F0010181602020C4F88000C4F884005E
:1042B000002084F87C000320BDE8F0810120E1E7C4
:1042C000FEE700000FB4054B10B503A9044A02989D
:1042D00000F0EEF810BC5DF814FB0000F54B000890
:1042E000340000200FB4084B10B504A902AA0398AB
:1042F00000F0DEF8044602A9002000F070FC204621
:1043000010BC5DF814FB0000DF4B000802E008C899
:10431000121F08C1002AFAD170477047002001E03F
:1043200001C1121F002AFBD1704700002DE9FF5F79
:1043300082B00021DDE90430020DDDF840B0034316
:1043400018D044F61050A2F2FF32424315141198CF
:1043500001281FD0A5EB0B00401C5FEA000A4FF0BC
:1043600000064E4FDFF83891B046504615D5CAF1D9
:10437000000413E0119801244AA3012801D16FEA37
:104380000B010298119AC0E90031C0E9024206B05F
:10439000BDE8F09FCBF10000DFE704460021404A72
:1043A000491842EB0450CDE9001012E0E00707D0B5
:1043B00032463B4640464946FCF71EF98046894650
:1043C00032463B4610461946FCF716F906460F469C
:1043D0006410002CEAD1DDE90401DDE90023BAF123
:1043E000000F06DAFCF708F942464B46FCF704F9E1
:1043F00005E0FCF773F942464B46FCF76FF90446BB
:104400000E460022284BFCF7F1F903D84FF0FF309D
:10441000014607E00022254B20463146FBF73BFFD3
:10442000FCF7CBF9102409E0002C0ADB0A22002358
:10443000FBF7EEFE039B30321A55641E50EA010270
:10444000F2D1641C039AC4F111031444119A012A95
:1044500003D0012208430DD10AE0084304D0002014
:104460004FF0110B119072E7A3EB0B056D1E0DE0E1
:104470005B4504DD4FF0000205F1010504E003DABD
:104480004FF00002A5F10105002AECD00298119925
:10449000C0E90231C0E9004579E70000000014409E
:1044A0000000F03F300000000000F0430000E03F5B
:1044B0002DE9FF4F95B09B468946064600250FE241
:1044C000252877D100242746F84A0121059400E0E9
:1044D000044316F8013F203B01FA03F01042F7D1E4
:1044E00030782A2811D06FF02F033078A0F13002F5
:1044F000092A16D8059A44F0020402EB820203EB63
:1045000042021044761C0590EFE759F8042B0592FF
:10451000002A03DA504244F40054059044F00204A7
:10452000761C30782E2816D116F8010F44F00404BA
:104530002A280DD06FF02F023078A0F13003092B1C
:1045400009D807EB870302EB4303C718761CF3E790
:1045500059F8047B761C30786C280FD006DC4C2888
:1045600017D068280DD06A2814D104E0742810D020
:104570007A280FD10DE044F400140AE044F48014CA
:1045800001E044F440147278824202D104F58014B0
:10459000761C761C307866280BD013DC582877D030
:1045A00009DC002875D04528F6D04628F4D04728E5
:1045B0001AD19DE118E0632835D0642879D06528A8
:1045C00012D195E1702873D008DC6728F1D06928F2
:1045D0006FD06E280DD06F2806D1B5E073282CD08F
:1045E000752875D0782874D05A46179990476D1C55
:1045F00075E1C4F30250022809D003280DD0D9F880
:10460000001004280DD00D6009F1040967E1D9F804
:104610000010EA17C1E90052F6E7D9F800100D8042
:10462000F2E70D70F0E719F8041B8DF80010002078
:104630008DF80100EA46012003E059F804AB4FF081
:10464000FF3061074FF0000102D40DE008F10101D5
:104650008846B9420FDA8045F8DB1AF808100029BD
:10466000F4D108E008F1010188468142FADB1AF82A
:1046700008100029F6D105985B46A0EB08072146F3
:104680003846179A00F094FA284400EB080507E032
:104690004DE029E10DE01AF8010B5A4617999047B1
:1046A000B8F10108F7D25B4621463846179A13E164
:1046B00042E00A220092C4F302524FF0000A022A9A
:1046C00008D059F804CB032A4FEAEC710AD00DE068
:1046D00029E02AE009F1070121F00702F2E802C10E
:1046E000914609E00FFA8CFC4FEAEC71042A03D1E1
:1046F0004FFA8CFC4FEAEC71002907DA0A460021D8
:10470000DCF1000C61EB02012D2202E0220504D550
:104710002B228DF80420012203E0E20701D02022A1
:10472000F7E7904659E00A2102E010220DE010213F
:104730004FF0000A00910BE010224FF0000A44F005
:1047400004040827009203E008224FF0000A0092B8
:10475000C4F30252022A05D059F804CB0021032ADF
:1047600008D009E009F1070121F00702F2E802C1CF
:10477000914605E01FFA8CFC042A01D10CF0FF0CD5
:104780004FF00008220728D5702806D0009B83F040
:10479000100353EA0A0305D00EE040228DF80420EE
:1047A000012208E05CEA010206D030228DF80420E4
:1047B0008DF8050002229046009B83F0080353EA1F
:1047C0000A030AD15CEA010201D1620705D5302251
:1047D0008DF804204FF001087F1E582804D034A023
:1047E00003900EA802900DE036A0F9E7534660460C
:1047F000009AFBF70DFD84460398825C0298401EE8
:10480000029002705CEA0100F0D1029806A9081A31
:1048100000F1200A600702D524F4803400E001276B
:10482000574502DDA7EB0A0000E0002000EB0A017B
:10483000009005984144401A0590E00306D45B4679
:104840002146179A059800F0B3F90544002706E0C1
:1048500001A85A46C05D179990476D1C7F1C4745BB
:10486000F6DBE0030CD55B462146179A059800F06D
:104870009FF9054404E030205A46179990476D1C73
:104880000099481E00900029F5DC08E00298029982
:104890005A460078491C0291179990476D1CBAF14D
:1048A0000001AAF1010AF1DC65E10000092801001C
:1048B0003031323334353637383961626364656696
:1048C0000000000030313233343536373839414258
:1048D000434445460000000000F058F90544761CAA
:1048E000307800287FF4ECAD19B02846BDE8F08F91
:1048F000620700D4062709F1070222F0070CFCE842
:104900000223E14603F000485FEA080C02D00FF2F0
:10491000702C0DE05FEA045C02D50FF2682C07E012
:104920005FEAC47C02D00FF2602C01E0AFF2700CA1
:104930004FF0FF3823F00043CDF850C065280CD06D
:1049400006DC452809D046281DD047283DD13DE04A
:10495000662818D067287ED138E00021112F01DBAE
:10496000112000E0781CCDE9000106A90EA8FFF790
:10497000DDFCDDE90F010E9A03910021009207F1A1
:10498000010A04914DE04FF000400097CDE901107D
:1049900006A90EA8FFF7CAFCDDE90F0203920E9BE1
:1049A00011990022DDF80CA00093049211B9791C32
:1049B00000EB010AB7EB0A0004D4C0F1FF3007F1A5
:1049C000010A0490AAEB0700019044E0012F00DAED
:1049D00001270021112F01DD112000E03846CDE92B
:1049E000000106A90EA8FFF7A1FCDDE90F010E9A50
:1049F0000391002104910092BA4621070CD4039937
:104A0000514500DA8A46BAF1010F05DD009AAAF194
:104A10000101515C302908D0B84202DA10F1040FCC
:104A200006DA0121CDE9011015E0AAF10101E9E75B
:104A3000002805DC049901440491AAEB000102E07E
:104A4000411C514500DD8A460499401A401C0190E2
:104A50004FF000400290200704D40198504501DB3C
:104A6000CDF8048000208DF84F0002980DF14F071B
:104A7000B0F1004F25D02B200E9002984FF0020885
:104A800000280CDA404202902D200E9007E00A2107
:104A90000298FBF7D6FC3031029007F8011DB8F1FF
:104AA0000001A8F10108F2DC02980028EFD1791E7C
:104AB0000E980870307800F0200040F0450007F8AC
:104AC000020D12A8C01B00F107081498007800B16D
:104AD000012000EB0A01019801EBE07105984144C7
:104AE000401A401E0590E00306D45B462146179A03
:104AF000059800F05DF805441498007818B15A46FE
:104B0000179990476D1CE00324D55B462146179A00
:104B1000059800F04DF805441CE00498002807DBD8
:104B2000DDE90301884203DD0098405C179901E04C
:104B3000179930205A469047049805F10105401C0A
:104B400004900198401E019004D12E205A461799D6
:104B500090476D1CBAF10001AAF1010ADDDC05E005
:104B600017F8010B5A46179990476D1CB8F10001D0
:104B7000A8F10108F4DC5B462146179A0598ABE6DC
:104B80002D0000002B000000200000002DE9F04166
:104B9000044600251E461746880404D405E039461D
:104BA0002020B0476D1C641EF9D52846BDE8F08171
:104BB0002DE9F041044600251E469046C80301D564
:104BC000302700E02027880404D505E04146384618
:104BD000B0476D1C641EF9D52846BDE8F0810A680F
:104BE000531C0B6010707047002100E0491C81428B
:104BF000FCD3704713B53223012269460248FDF702
:104C0000D9F800981CBD0000980000202DED028B03
:104C100082B0FDF72BFCFEF739F9FDF7B5FCFDF787
:104C2000EDFCFDF7E3FA012263496448FDF708F85B
:104C3000FDF72CF9FDF7E0FB0020FDF72FFA00202F
:104C4000FDF72EFB4FF6FF70FDF73EFB5A4C641F3D
:104C50006069FBF7C7FB05460E462069FBF7C2FB00
:104C600041EC100BCDE9005653EC102B54A0FFF78C
:104C700029FBB2EE048A00BFFEF7E4F82078012891
:104C800001D1FDF7F7FE2078022801D1FDF7DAFF08
:104C90002078032801D1FEF769F86078A1780843ED
:104CA0000CD1FDF7A9FB0220FDF7BEFB6420FBF74A
:104CB00011FEFDF7A1FB6420FBF70CFE61780120DB
:104CC000FBF7ECFD0120FBF7CBFD0120FBF7C8FD56
:104CD000207102463EA14148FFF704FB3F49902066
:104CE000FDF742FAA1780220FBF7D8FD0220FBF77E
:104CF000B7FD0220FBF7B4FD2071024638A137480A
:104D0000FFF7F0FA3549A820FDF72EFA94ED040AD2
:104D100020EE080ABCEEC00A10EE100AC1B2032051
:104D2000FBF7BCFD0320FBF79BFD0320FBF798FD81
:104D300000EE100AF8EE400A80EE880A84ED060ABA
:104D400010EE100AFBF74EFB41EC100B27A153ECC1
:104D5000102B2248FFF7C6FA2049C020FDF704FABD
:104D600094ED050A20EE080ABCEEC00A10EE100A07
:104D7000C1B20420FBF792FD0420FBF771FD042073
:104D8000FBF76EFD00EE100AF8EE400A80EE880A8E
:104D900084ED060A10EE100AFBF724FB41EC100B21
:104DA00016A153EC102B0D48FFF79CFA0B49D820A5
:104DB000FDF7DAF960E700000D0000209800002000
:104DC000583A252E31662C593A252E3166000000BE
:104DD000785F7265703A256420202000380000203A
:104DE000795F7265703A256420202000785F7072C8
:104DF0006963653A252E316620202000795F707244
:104E00006963653A252E31662020200000000000ED
:104E10000000000000000000000000000000000092
:104E20000000000000000000000000000000000082
:104E300000000000000000000000000000008001F1
:104E4000800180018001800180018001800180015A
:104E5000800180018001800100000000800180014C
:104E60000000000000000000000000000000000042
:104E7000CC00CC00CC00CC00CC00CC00000000006A
:104E80000000000000000000000000000000000022
:104E90000000000000000000000000000000000012
:104EA0000000000000000000600C600C600C300688
:104EB0003006FE1FFE1F300638071803FE1FFE1FB8
:104EC000180318038C018C018C0100000000800085
:104ED000E003F80F9C0E8C1C8C188C009800F801D5
:104EE000E007800E801C8C188C189C18B80CF00FF2
:104EF000E0038000800000000000000000000000CF
:104F000000000E181B0C110C1106110611031103E1
:104F10009B018E01C038C06C604460443044304412
:104F20001844186C0C380000000000000000E0017C
:104F3000F0033807180618063003F001F000F800F7
:104F40009C310E33061E061C061C063FFC73F02126
:104F50000000000000000000000000000000000051
:104F60000C000C000C000C000C000C0000000000F9
:104F70000000000000000000000000000000000031
:104F8000000000000000000000000000000000021F
:104F900000038001C000C0006000600030003000ED
:104FA0003000300030003000300030006000600021
:104FB000C000C000800100030002000000002000CB
:104FC0006000C000800180010003000300060006AD
:104FD00000060006000600060006000600030003A7
:104FE00080018001C000600020000000000000007F
:104FF0000000000000000000C000C000D806F80754
:10500000E00130033807000000000000000000004D
:105010000000000000000000000000000000000090
:10502000000000000000000080018001800180017C
:105030008001FC3FFC3F80018001800180018001F4
:105040000000000000000000000000000000000060
:105050000000000000000000000000000000000050
:1050600000000000000000000000000000008001BF
:10507000800100010001800000000000000000002D
:105080000000000000000000000000000000000020
:1050900000000000E007E007000000000000000042
:1050A0000000000000000000000000000000000000
:1050B00000000000000000000000000000000000F0
:1050C0000000000000000000000000000000C00020
:1050D000C000000000000000000000000000000C04
:1050E000000C000600060006000300030003800316
:1050F000800180018001C000C000C000600060002D
:105100000000000000000000000000000000E003BC
:10511000F007380E180C0C180C180C180C180C187A
:105120000C180C180C180C18180C380EF007E003AB
:10513000000000000000000000000000000000016E
:105140008001C001F0019801880180018001800187
:105150008001800180018001800180018001800147
:105160000000000000000000000000000000E0035C
:10517000F80F180C0C180C1800180018000C00067A
:1051800000038001C000600030001800FC1FFC1FFD
:105190000000000000000000000000000000E0012E
:1051A000F807180E0C0C0C0C000C0006C003C0070E
:1051B000000C001800180C180C18180CF807E00365
:1051C0000000000000000000000000000000000CD3
:1051D000000E000F000F800DC00C600C600C300C36
:1051E000180C0C0CFC3FFC3F000C000C000C000CDD
:1051F0000000000000000000000000000000F80FA8
:10520000F80F180018000C00EC03FC071C0E001C23
:105210000018001800180C181C0C180EF807E003F2
:105220000000000000000000000000000000C007B7
:10523000F00F381C181818000C00CC03EC0F3C0EB3
:105240001C1C0C180C180C18181C380EF007E00366
:105250000000000000000000000000000000FC1F33
:10526000FC1F000C00060006000380038001C00143
:10527000C000E000600060007000300030003000CE
:105280000000000000000000000000000000E0033B
:10529000F007380E180C180C180C3806F007F00739
:1052A000180C0C180C180C180C18380CF80FE0031C
:1052B0000000000000000000000000000000E0030B
:1052C000F007380E1C0C0C180C180C181C1C381E7F
:1052D000F81BE0190018000C000C1C0EF807F00178
:1052E00000000000000000000000000000000000BE
:1052F00000000000000000008001800100000000AC
:10530000000000000000000000000000800180019B
:10531000000000000000000000000000000000008D
:10532000000000000000000080018001000000007B
:10533000000000000000000000000000800180016B
:1053400000010001800000000000000000000000DB
:105350000000000000000000000000000010001C21
:10536000800FE003F8001800F800E003800F001C35
:10537000001000000000000000000000000000001D
:10538000000000000000000000000000F81F000006
:1053900000000000F81F00000000000000000000F6
:1053A00000000000000000000000000000000000FD
:1053B00000000000000000000000000008003800AD
:1053C000F001C007001F0018001FC007F0013800DF
:1053D0000800000000000000000000000000E003E2
:1053E000F80F180C0C180C180018000C000600031D
:1053F0008001C000C000C00000000000C000C0006C
:10540000000000000000000000000000000000009C
:10541000E00718180420C229224A1144094409440B
:10542000094409221113E20C024004201818E00775
:1054300000000000000000000000000000008003E9
:105440008003C006C006C006600C600C301830181F
:105450003018F83FF83F1C700C600C6006C006C0A6
:105460000000000000000000000000000000FC033D
:10547000FC0F0C0C0C180C180C180C0CFC07FC0F77
:105480000C180C300C300C300C300C18FC1FFC07C6
:105490000000000000000000000000000000C00745
:1054A000F01F38381C300C7006600600060006003D
:1054B00006000600060006600C701C30F01FE007B6
:1054C0000000000000000000000000000000FE03DB
:1054D000FE0F060E06180618063006300630063097
:1054E00006300630063006180618060EFE0FFE03BC
:1054F0000000000000000000000000000000FC3F71
:10550000FC3F0C000C000C000C000C00FC1FFC1FEE
:105510000C000C000C000C000C000C00FC3FFC3FCD
:105520000000000000000000000000000000F83F44
:10553000F83F18001800180018001800F81FF81F8E
:10554000180018001800180018001800180018009B
:105550000000000000000000000000000000E00F5C
:10556000F83F3C780E6006E007C00300030003FE2E
:1055700003FE03C007C006C00EC03CF0F83FE00FBA
:1055800000000000000000000000000000000C30DF
:105590000C300C300C300C300C300C30FC3FFC3F2D
:1055A0000C300C300C300C300C300C300C300C301B
:1055B000000000000000000000000000000080016A
:1055C00080018001800180018001800180018001D3
:1055D00080018001800180018001800180018001C3
:1055E00000000000000000000000000000000006B5
:1055F000000600060006000600060006000600067B
:10560000000600060006180618063807F003E00139
:105610000000000000000000000000000000063054
:105620000618060C060606038601C600660076000C
:10563000DE008E0106030606060C0618063006601C
:105640000000000000000000000000000000180042
:10565000180018001800180018001800180018008A
:10566000180018001800180018001800F81FF81F7C
:1056700000000000000000000000000000000EE03C
:105680001EF01EF01EF036D836D836D836D866CC86
:1056900066CC66CCC6C6C6C6C6C6C6C686C386C3E4
:1056A00000000000000000000000000000000C30BE
:1056B0001C303C303C306C306C30CC30CC308C31D9
:1056C0000C330C330C360C360C3C0C3C0C380C30C8
:1056D0000000000000000000000000000000E007E3
:1056E000F81F1C380E70066003C003C003C003C05F
:1056F00003C003C003C006600E701C38F81FE0072B
:105700000000000000000000000000000000FC0F8E
:10571000FC1F0C380C300C300C300C300C18FC1FFB
:10572000FC070C000C000C000C000C000C000C0022
:105730000000000000000000000000000000E00782
:10574000F81F1C380E70066003E003C003C003C0DE
:1057500003C003C007E006630E3F1C3CF83FE0F7C0
:1057600000C0000000000000000000000000FE0F6C
:10577000FE1F06380630063006300638FE1FFE07CC
:1057800006030606060C06180618063006300660E4
:105790000000000000000000000000000000E00326
:1057A000F80F1C0C0C180C180C001C00F803E00F70
:1057B000001E0038063006300E301C1CF80FE007C3
:1057C0000000000000000000000000000000FE7F5C
:1057D000FE7F8001800180018001800180018001C5
:1057E00080018001800180018001800180018001B1
:1057F00000000000000000000000000000000C306D
:105800000C300C300C300C300C300C300C300C30B8
:105810000C300C300C300C300C301818F81FE0072E
:105820000000000000000000000000000000036015
:105830000630063006300C180C180C18180C180C12
:10584000380E30063006700760036003C001C001E7
:1058500000000000000000000000000000000360E5
:10586000C361C361C36166336633663366336633CF
:1058700066336C1B6C1B6C1B2C1A3C1E380E380ECE
:1058800000000000000000000000000000000FE029
:105890000C7018303018700C600EC0078003800345
:1058A000C003E006700C301C18180C300E6007E0C6
:1058B000000000000000000000000000000003C025
:1058C00006600C301C383818300C6006E007C00346
:1058D00080018001800180018001800180018001C0
:1058E0000000000000000000000000000000FC7F3D
:1058F000FC7F006000300018000C000600038001EF
:10590000C0006000300018000C000600FE7FFE7F23
:105910000000000000000000000000000000E003A4
:10592000E0036000600060006000600060006000F4
:105930006000600060006000600060006000600067
:10594000600060006000E003E00300000000300041
:105950003000600060006000C000C000C000C001F6
:10596000800180018001000300030003000600069F
:105970000000000000000000000000000000E00344
:10598000E00300030003000300030003000300031F
:1059900000030003000300030003000300030003EF
:1059A000000300030003E003E00300000000000028
:1059B000C001C00160036003600330063006180CAC
:1059C000180C0000000000000000000000000000B3
:1059D00000000000000000000000000000000000C7
:1059E00000000000000000000000000000000000B7
:1059F0000000000000000000000000000000FFFFA9
:105A0000FFFF0000000000000000000000000C008C
:105A10000C000C000C000C000C000000000000004A
:105A20000000000000000000000000000000000076
:105A30000000000000000000000000000000000066
:105A40000000000000000000F003F8071C0C0C0C24
:105A5000000FF00FF80C0C0C0C0C1C0FF80FF018CA
:105A6000000000000000000000000000000018001E
:105A70001800180018001800D803F80F380C181870
:105A800018181818181818181818380CF80FD80300
:105A90000000000000000000000000000000000006
:105AA0000000000000000000C003F007300E180CDA
:105AB0001800180018001800180C300EF007C0036A
:105AC00000000000000000000000000000000018BE
:105AD0000018001800180018C01BF01F301C181800
