:020000040800F2
:1000000098050020ED0100080B350008EB290008D9
:100010000935000889080008594A00080000000056
:10002000000000000000000000000000453900084A
:10003000D9080008000000000D3500084739000805
:10004000070200080702000807020008070200086C
:10005000070200080702000807020008070200085C
:10006000070200080702000807020008070200084C
:10007000070200080702000807020008070200083C
:10008000070200080000000007020008070200083D
:10009000070200080702000807020008070200081C
:1000A000070200080702000807020008070200080C
:1000B00007020008070200080702000807020008FC
:1000C00007020008070200080702000807020008EC
:1000D000070200084D4A000807020008070200084E
:1000E00007020008070200080702000807020008CC
:1000F00007020008070200080702000800000000CD
:1001000000000000070200080000000007020008CD
:1001100007020008000000000702000807020008AC
:10012000070200080702000807020008070200088B
:10013000070200080000000000000000070200089D
:10014000070200080702000800000000000000008D
:10015000000000000000000000000000000000009F
:10016000000000000000000000000000070200087E
:10017000070200080000000000000000000000006E
:10018000000000000702000800000000000000005E
:10019000000000000000000000000000000000005F
:1001A000000000000000000007020008070200082D
:1001B000070200080702000807020008000000000C
:1001C000000000000702000800000000000000001E
:1001D0000702000807020008DFF80CD000F05CFA04
:1001E00000480047995300089805002006488047BA
:1001F00006480047FEE7FEE7FEE7FEE7FEE7FEE70C
:10020000FEE7FEE7FEE7FEE7C9390008D90100086E
:100210002DE9F05F0546002092469B46884606463B
:10022000814640241BE0284641464746224600F0CE
:100230006AF853465A46C01A914110D311461846DF
:10024000224600F051F82D1A67EB01084F4622466E
:100250000120002100F048F817EB00094E41201E54
:10026000A4F10104DFDC484631462A464346BDE896
:10027000F09FD2B201E000F8012B491EFBD270477B
:100280000022F6E710B513460A4604461946FFF762
:10029000F0FF204610BD00F0004230F000400AD0D0
:1002A000C10D01F56071C0F3160042EA0151C208A8
:1002B00040071143704700200146704730B50B4698
:1002C000014600202022012409E021FA02F59D4286
:1002D00005D303FA02F5491B04FA02F52844151E5A
:1002E000A2F10102F1DC30BD202A04DB203A00FA41
:1002F00002F1002070479140C2F1200320FA03F37D
:10030000194390407047202A04DB203A21FA02F07A
:100310000021704721FA02F3D040C2F1200291403F
:100320000843194670472DE9FE4F804681EA0300D5
:10033000C00F0C46009021F0004123F00045B8EBBF
:100340000200A94105D24046214690461C460B4674
:10035000024623F00040104347D0270DC7F30A00A0
:10036000C3F30A510290401A019040286BDAC3F39C
:10037000130040F4801B0098924620B10023D2EB7A
:10038000030A63EB0B0B01985946C0F1400250463B
:10039000FFF7AAFF06460D4650465946019A00F05F
:1003A0008DF910EB08006141002487EA115284EABC
:1003B000E7731A4340D0009A62B3019A012A4FEAC8
:1003C000075215DC001B61EB02014FF0004202EA0C
:1003D0000752CDE90042001C41F5801132462B4600
:1003E00000F08DF903B0BDE8F08F40462146F9E7F3
:1003F000001B61EB0201001C41F5801300185B41FA
:100400002018A2F5001747EB030140EAD570B61992
:100410006D4111E06D084FEA360645EAC0754FEAB6
:100420000752001B61EB0201001C41F580114908D5
:100430004FEA30000019514132462B4603B0BDE867
:10044000F04F00F04DB90098012240000023D0EB9E
:10045000020263EBE073009821464FEAE074B8EBC8
:10046000000061EB0401E9E783F000435BE781F002
:10047000004158E72DE9FE4F81EA030404F00044EF
:1004800021F0004100944FF0000B23F0004350EAAC
:1004900001045ED052EA03045BD0C3F30A54C1F3F3
:1004A0000A552C44A4F2F3340194A0FB0254C1F386
:1004B000130141F48011C3F3130343F4801301FBD0
:1004C000024400FB034E840A970A44EA815447EA37
:1004D0008357A4FB076802958D0A05FB07854FEA41
:1004E000932C04FB0C542705029D4FEA065847EA5B
:1004F0001637B5EB08056EEB070C870E920E47EA30
:10050000811742EA8312A7FB0201B6EB0B0164EBF1
:1005100000042B0D43EA0C335E1844EB1C50DA4602
:100520005146E7FB0201C5F313044FEA0B3343EADC
:1005300014534FEA0432019C43EA0603A4F10C046D
:100540000294009CCDE900B400F0D9F803B0BDE8F6
:10055000F08F00200146F9E72DE9F04D81EA030410
:1005600004F0004B21F0004514464FF0000A23F040
:10057000004150EA050220D054EA01021DD0C5F323
:100580000A570246C5F31303C1F31300C1F30A5619
:1005900040F4801543F48013A7EB0608101BD646E1
:1005A00008F2FD3873EB050002D308F1010801E001
:1005B00092185B41B8F1000F03DA00200146BDE854
:1005C000F08D00204FF48011064684460EE0171B84
:1005D00073EB050705D3121B63EB050306434CEAD7
:1005E000010C49084FEA300092185B4150EA0107BC
:1005F000EDD152EA030012D082EA040083EA050139
:10060000084305D0101BAB4106D20122002306E0AF
:1006100000224FF0004302E06FF0010253101AEB8A
:1006200006004CEB085110EB0A0041EB0B01BDE852
:10063000F04D00F055B8C1F30A52C1F3130140F276
:10064000FF3341F480119A4202DA002001467047DC
:1006500040F233439A42A2F2334202DC5242FFF7A5
:1006600052BEFFF741BE000030B5041E71F1000418
:1006700004DB4FF00044404264EB0101141E73F1AF
:10068000000405DB1C464FF00043524263EB0403B9
:10069000994208BF904230BD064C074D06E0E06825
:1006A00040F0010394E8070098471034AC42F6D3B9
:1006B000FFF796FD3066000850660008202A06DB2A
:1006C000CB17203A41FA02F043EAE07306E041FA20
:1006D00002F3D040C2F1200291400843194670470E
:1006E00010B5141E73F1000408DA401C41F100013A
:1006F00092185B411A4301D120F0010010BD2DE991
:10070000F04D92469B4611B1B1FA81F202E0B0FA87
:1007100080F220329046FFF7E7FD04460F4640EA9C
:100720000A0041EA0B0153465A46084313D01146CA
:1007300053EA010019D0C8F140025046FFF7E3FD2B
:1007400005460E46504659464246FFF7CDFD084342
:1007500005D0012004E020463946BDE8F08D002098
:10076000054346EAE0762C4337430A986305E40ADA
:10077000A0EB08000022FD0A44EA47540A3002D5E3
:1007800000200146E9E7010510196941DDE9084546
:1007900000196941BDE8F04DA2E770B50446206834
:1007A000816801F0010100293ED181686FF39E113B
:1007B00049B1E06D40F01000E065206E40F00100AE
:1007C0002066012070BD816821F03F0121F00041C9
:1007D00041F00101816000F05FFE0546206800687D
:1007E00010F0010F20D12068816801F0010139B9B2
:1007F000816821F03F0121F0004141F00101816059
:1008000000F04AFE401B022809D9E06D40F01000BC
:10081000E065206E40F001002066012070BD206878
:10082000006810F0010FDED0002070BD114810B537
:100830000168114CE269891AB1F57A7F18D3006812
:10084000E0610E4800F01AFC0C4800F0DDFA0B489D
:1008500000F0DAFA00EE100ADFED090AB8EE400AFD
:1008600020EE200ADFED070A80EE201A84ED0A1A36
:1008700010BD00004C00002008000020780000207F
:100880003333534000F07F45FEE7000010490A680B
:100890001048036AD21AB2F57A7F17D30968016249
:1008A0008178491CC9B281703B290FD90021817020
:1008B0004278521CD2B242703B2A07D9417002786A
:1008C000521CD2B20270172A00D901707047000082
:1008D0004C000020080000207047002240F6B8338A
:1008E00006E00021491C89B29942FBD3521C92B206
:1008F0008242F6D3704770472DE9F80700239C46E3
:10090000CDF800C0FE4E90F85820012A12D00124E4
:1009100080F8584002689568C5F3800575B1C16DCF
:1009200041F02001C165012380F858C01846BDE898
:10093000F8077047BDE8F807022070478D880F68F8
:1009400005F4407802EB9812D2F8308005F01F05CC
:100950004FF01F0909FA05F9C7F3846728EA090867
:1009600007FA05F548EA0505156302689568C5F3B9
:1009700080059768C7F3C0072F434FF0070540F085
:10098000FF80D1F80880B8F1004F53D00F6807F00E
:10099000007902EBD952D2F81490C7F3045705FA44
:1009A00007FA29EA0A0908FA07F749EA0707576127
:1009B0000268576927F00047576102684F69D2F80B
:1009C0000C80C8F3C1084FEA480807FA08F80F6915
:1009D000042F4CD0D1F8009002EB8702176EDFF89D
:1009E00024A309F0F84907EA0A0749EA080847EA90
:1009F000080747F0004717660268D1F810808F6932
:100A000002EB8802D2F8608028F0807848EA070775
:100A100017660F7F0268D1F81080012F24D00027BD
:100A200002EB8802D2F8608028F0007848EA0707D5
:100A30001766A5E00F684FF0000807F0007902EB99
:100A4000D952D2F81490C7F3045705FA07FA29EAE5
:100A50000A0908FA07F749EA070757610268576960
:100A600047F000475761A8E74FF00077D8E702F159
:100A700060073F6800277F037F0B7CD002F160078F
:100A80003F6807F0F84797FAA7F7B7FA87F80F68B3
:100A9000C7F31209B9F1000F6ED097FAA7F7B7FAAA
:100AA00087F7B84503D1176E27F00047176602682D
:100AB000121D02F160073F6800277F037F0B71D092
:100AC00002F160073F6807F0F84797FAA7F7B7FA0F
:100AD00087F80F68C7F31209B9F1000F6AD097FAC7
:100AE000A7F7B7FA87F7B84503D1176E27F0004785
:100AF00017660268083202F160073F6800277F032B
:100B00007F0B5AD002F160073F6807F0F84797FA69
:100B1000A7F7B7FA87F80F68C7F31209B9F1000F02
:100B200053D097FAA7F7B7FA87F7B84503D1176EEE
:100B300027F00047176602680C3202F160073F6831
:100B400000277F037F0B43D002F160073F6807F067
:100B5000F84797FAA7F7B7FA87F80F68C7F31209AB
:100B6000B9F1000F3CD097FAA7F7B7FA87F7B84565
:100B700006D1176E01E009E010E027F00047176684
:100B80000268976807F001076FB3D1E002F16007D0
:100B90003F6807F0F8474FEA976878E7C7F384673C
:100BA0007FE7FFE702F160073F6807F0F8474FEA89
:100BB00097688EE7C7F3846795E702F160073F689F
:100BC00007F0F8474FEA9768A5E7C7F38467ACE7F3
:100BD00002F160073F6807F0F8474FEA9768BCE703
:100BE000C7F38467C3E791F80C800F68D2F8B09020
:100BF000C7F3120A29EA0A09DFF80CA108F018085D
:100C00002AFA08F808EA070749EA0707C2F8B070A5
:100C1000CA68B2427AD10A68076812EA0A061AD08C
:100C200092FAA2F6B6FA86F6761C06F01F06092E90
:100C300032D8C2F31206002E10D092FAA2F6B6FAFB
:100C400086F606F1010606F01F0604FA06F608D13C
:100C5000C2F3846409E0C2F38466E5E7C2F3846604
:100C6000EFE792FAA2F4B4FA84F404F1010404F078
:100C70001F0446EA846402D1C2F3846203E092FA5C
:100C8000A2F2B2FA82F202F1010202F01F0202EBBA
:100C9000420244EA025432E0C2F31206002E0DD0A2
:100CA00092FAA2F6B6FA86F606F1010606F01F06DB
:100CB00004FA06F605D1C2F3846406E0C2F3846642
:100CC000F2E792FAA2F4B4FA84F404F1010404F015
:100CD0001F0446EA846402D1C2F3846203E092FAFC
:100CE000A2F2B2FA82F202F1010202F01F02A2F1B4
:100CF0000A0202EB420244EA025242F0007406E0A9
:100D000000007F4000F0FF03FFFF070010E08E6847
:100D100004F0007207EBD2525769C4F3045405FA89
:100D200004F527EA050506FA04F445EA04045461CB
:100D30000A682F490A423FF4F7AD2E4CA16801F032
:100D4000E07102F1705515F55F0502D02A4DAA42F7
:100D500002D111F4000F1ED0284D02F1605616F595
:100D60002E0602D111F0807F35D002F1505616F5D3
:100D7000F8067FF4D9AD11F4800F7FF4D5AD026889
:100D8000AA423FF4D1AD41F48001A26822F0E072A2
:100D90001143A160C8E50268B2F1A04F7FF4C4AD71
:100DA00041F40001A26822F0E0721143A1601449ED
:100DB000144A0968B1FBF2F101EB4101890000918D
:100DC000009900293FF4B0AD0099491E00910099A7
:100DD0000029F9D1A8E50268AA423FF4A5AD41F087
:100DE0008071A26822F0E0721143A1609CE50000CE
:100DF00000000880000300501000C0900001005067
:100E000040000020400D03000068006C70470000A7
:100E1000F8B50446002500260096002C02D0E06DAF
:100E200010B107E00120F8BD204600F0F7F8266673
:100E300084F8586020688168C1F3407129B18168E5
:100E400021F03F0121F02041816020688168C1F3D9
:100E50000071A9B9816821F03F0121F0004141F002
:100E600080518160684869490068B0FBF1F00090EA
:100E7000009828B10098401E009000980028F9D1F1
:100E800020688168C1F3007141B9E16D41F0100142
:100E9000E165216E41F00101216601258168C1F300
:100EA0008001E26D12F0100F00D131B1E06D40F021
:100EB0001000E06501252846F8BDE16D21F4807140
:100EC00041F00201E165806800F0010088B94FF04F
:100ED000A040806800F001004D49896801F00101DF
:100EE000084306D160684B498A6822F47C1210439B
:100EF0008860E168E06B627F0843A16841EA4231A3
:100F0000084394F8241040EA0140012903D1218DBF
:100F1000491E40EA4140E16A21B101F47871226B37
:100F2000084310432168CA683B4B1A401043C8600D
:100F300020680169626B21F0406111430161206802
:100F40008168C1F380018268C2F3C002114332D1CB
:100F5000217F94F83820890341EA4201C26822F0D7
:100F6000020222F480421143C160206970B12068FE
:100F7000016941F4803101612068D0F8C010226914
:100F80006FF30D011143C0F8C0100BE02068016938
:100F900021F4803101612068D0F8C0106FF30D0199
:100FA000C0F8C01094F84000012813D020680169EF
:100FB00021F001010161606901281CD02068016BEA
:100FC00021F00F010163E06D20F0020040F001000C
:100FD000E06570E7A16C606C226D0843E16C114321
:100FE00040EA0102206801696FF38A01114341F070
:100FF00001010161DFE72068016B226A21F00F0126
:10100000521E11430163DEE740000020400D030043
:1010100000010050000300500740F0FF10B586B0FB
:10102000044614216846FFF72BF9114920688842CD
:101030001BD11048C16C41F40051C164C16C01F472
:1010400000510591C16C41F00201C164C06C694658
:1010500000F0020005904FF4004000900320019042
:1010600000200290044800F0E9F806B010BD00002E
:1010700000010050001002400004004870B5044612
:101080003D48806800F01F0520688068C0F380003C
:10109000002802D00222104670BD94F858000128A2
:1010A0000DD0012084F858002046FFF776FB024659
:1010B00010004FF0000C04D084F858C0EBE7022079
:1010C00070BDE06D20F0010020F4606040F480709D
:1010D000E0652A4B2068984202D14FF0A04100E021
:1010E0000146814200D01DB9E16D21F48011E16516
:1010F000E16D11F4805F04D0216E21F006012166BC
:1011000001E0C4F860C01C21016084F858C0206868
:10111000984202D14FF0A04100E00146814217D031
:10112000B5B1052D14D0092D12D0E16D41F4801117
:10113000E165984201D14FF0A040C06810F0007FF7
:10114000A9D0E06D20F4005040F48050E065A2E7A3
:10115000C16811F0007F05D0E16D21F4005141F428
:101160008051E165816821F03F0121F0004141F0AB
:10117000040181608FE7000000030050000100506F
:1011800010B5002490F8251000230122022907D071
:101190000421C16380F8252080F82430012437E041
:1011A0000168D1F800C02CF00E0CC1F800C0016835
:1011B000D1F800C02CF0010CC1F800C0816CD1F84E
:1011C00000C02CF4807CC1F800C090F84410D0F826
:1011D00040C001F01F0102FA01F1CCF80410D0F870
:1011E0004CC0016DCCF80410416D51B1D1F800C074
:1011F0002CF4807CC1F800C0D0F858C0C16DCCF888
:10120000041080F8252080F82430816B01B18847D4
:10121000204610BD70B5044600F03EF90546B4F115
:10122000FF3F02D004484068044400F035F9401BF9
:10123000A042FAD370BD0000440000202DE9F84F11
:1012400000220B68002B7CD00324874E874F0F258C
:101250000123D1F800C003FA02F80CEA0803002BBE
:1012600070D0D1F804C0BCF1010F08D0BCF1020F5E
:1012700005D0BCF1110F02D0BCF1120F1DD1D0F876
:1012800008904FEA420C04FA0CFA29EA0A09D1F84C
:101290000CA00AFA0CFC4CEA090CC0F808C0D0F803
:1012A00004C02CEA080C91F80480C8F3001808FA6E
:1012B00002F848EA0C0CC0F804C0D0F80C804FEAE1
:1012C000420C04FA0CFA28EA0A08D1F8089009FA44
:1012D0000CF949EA0808C0F80C80D1F80480B8F18C
:1012E000020F02D0B8F1120F15D14FEAD20800EB6D
:1012F0008808D8F820B04FEA42794FEAD96905FA50
:1013000009FE2BEA0E0BD1F810E00EFA09F949EAB2
:101310000B09C8F82090D0F8008028EA0A0891F854
:10132000049009F0030909FA0CFC4CEA080CC0F817
:1013300000C0D1F804C01CF0805F7CD0D6F860C03B
:1013400001E07DE077E04CF0010CC6F860C0D6F813
:1013500060C00CF0010CCDF800C022F0030C0CF1C1
:10136000804909F58039D9F808C04FEA82784FEAF8
:10137000187805FA08FA2CEA0A0AB0F1904F64D0FE
:10138000A0F1904CBCF5806C5CD0A0F1904CBCF509
:10139000006C5DD0A0F1904CBCF5406C5BD0A0F12E
:1013A000904CBCF5805C59D0A0F1904CBCF5A05C91
:1013B00057D04FF0060C0CFA08FC4CEA0A0CC9F89E
:1013C00008C0D7F800C02CEA030CD1F8048018F448
:1013D000803F01D04CEA030CC7F800C0DFF89080D2
:1013E000D8F800C02CEA030CD1F8049019F4003F9F
:1013F00001D04CEA030CC8F800C0DFF87880D8F8B8
:1014000000C02CEA030CD1F8049019F4801F01D01D
:101410004CEA030CC8F800C0DFF85C80D8F800C0C4
:101420002CEA030CD1F8049019F4001F01D04CEA07
:10143000030CC8F800C0521C0B68D3407FF408AFFF
:10144000BDE8F88F4FF0010CB5E74FF0000CB2E7A4
:101450004FF0020CAFE74FF0030CACE74FF0040C79
:10146000A9E74FF0050CA6E7001002400004014078
:1014700004040140080401400C04014000690842D2
:1014800001D00120704700207047002A01D08161FF
:101490007047816270470000014880687047000013
:1014A000440000200248816842681144816070470E
:1014B0004400002010B50024032000F08FF8002025
:1014C00000F008F808B1012401E000F029F82046F6
:1014D00010BD000070B5054600240F4E706800284E
:1014E00017D04FF47A71B1FBF0F00C490968B1FBE9
:1014F000F0F000F097FF08B101240BE0102D06D2A8
:1015000000222946501E00F035F8356002E0012423
:1015100000E00124204670BD44000020400000206F
:101520000B4808B5016E41F001010166016E01F042
:1015300001010091816D41F080518165806D00F065
:10154000805000900348816841F48041816008BD6B
:10155000001002400070004000280ADB00F01F016C
:10156000012202FA01F14009800000F1E020C0F8F8
:101570000011704710B4184B1B68C3F30223C3F16A
:10158000070CBCF1040F01D94FF0040C1C1D072CF3
:1015900001D2002300E0DB1E012404FA0CFCACF1B4
:1015A000010C0CEA0101994004FA03F35B1E1A4096
:1015B0001143002806DB00F1E020090180F8001447
:1015C00010BC704700F00F0000F1E020090180F826
:1015D000141D10BC704700000CED00E000F0070087
:1015E000064A11684FF6FF03194041EA002040F017
:1015F000FD7040F080601060704700000CED00E06E
:1016000033493222334B09684A43334900280AD010
:10161000B0F5007F31D0086820F4C06040F48060ED
:10162000086000207047086800F4C060B0F5806F63
:1016300006D0D1F8800020F48070C1F88000F0E777
:10164000D1F8800020F48070C1F88000086820F490
:10165000C06040F400700860B2FBF3F0401C00E092
:10166000401E4A6912F4806F01D00028F8D1486901
:1016700010F4806FD5D003207047086800F4C06074
:10168000B0F5806F06D0D1F8800040F48070C1F8CA
:101690008000C6E7D1F8800040F48070C1F8800077
:1016A000086820F4C06040F400700860B2FBF3F0FA
:1016B000401C00E0401E4A6912F4806F01D00028EF
:1016C000F8D1486910F4806FABD003207047000058
:1016D0004000002040420F00007000402DE9F84F0C
:1016E0000446002500272068B04E10F4002F76D065
:1016F000A846B06D10F0805F09D1B06D40F0805009
:10170000B065B06D00F0805000904FF00108DFF838
:10171000A0A2DAF8000040F48070CAF80000FFF7D9
:10172000BBFE8146DAF8000010F4807F0CD1FFF791
:10173000B3FEA0EB0900022801D9032504E0DAF882
:10174000000010F4807FF2D025B12F46B8F1010FD0
:1017500041D044E0D6F8900000F44070A0B1216C74
:10176000814211D0D6F8900020F44070D6F8901045
:1017700041F48031C6F89010D6F8901021F48031F1
:10178000C6F89010C6F8900010F0010F16D0FFF7C1
:1017900083FE8146D6F8900010F0020F0ED141F280
:1017A000883AFFF779FEA0EB0900504501D90325DF
:1017B00004E0D6F8900010F0020FF2D00DB12F46E1
:1017C000C4E7D6F89000216C20F440700843C6F8B6
:1017D0009000BBE703E0B06D20F08050B06520784A
:1017E00010F0010F07D0D6F88800616820F00300E0
:1017F0000843C6F88800207810F0020F07D0D6F80A
:101800008800A16820F00C000843C6F88800207802
:1018100010F0040F07D0D6F88800E16820F03000FF
:101820000843C6F88800207810F0080F07D0D6F8D3
:101830008800216920F0C0000843C6F8880020789D
:1018400010F0200F07D0D6F88800616920F44060BE
:101850000843C6F88800207810F0400F07D0D6F86B
:101860008800A16920F440500843C6F88800207819
:1018700010F0800F07D0D6F88800E16920F44040CE
:101880000843C6F88800208810F4807F07D0D6F877
:101890008800216A20F440300843C6F88800208878
:1018A00010F4007F07D0D6F88800616A20F4402049
:1018B0000843C6F88800208810F4806F0FD0D6F84F
:1018C0008800A16A20F440100843C6F88800A06A86
:1018D000B0F5801F03D1F06840F48010F0602088DC
:1018E00010F4006F0FD0D6F88800E16A20F44000B1
:1018F0000843C6F88800E06AB0F5800F03D1F068AD
:1019000040F48010F060208810F4805F0FD0D6F88B
:101910008800216B20F040700843C6F88800206BD7
:10192000B0F1807F03D1F06840F48010F06020882F
:1019300010F4005F0FD0D6F88800616B20F0406093
:101940000843C6F88800606BB0F1006F03D1F068FF
:1019500040F48010F060208810F4804F0FD0D6F84B
:101960008800A16B20F040600843C6F88800A06B97
:10197000B0F1006F03D1F06840F48010F06020886F
:1019800010F4004F0FD0D6F88800E16B20F04050E3
:101990000843C6F88800E06BB0F1805F03D1F068BF
:1019A00040F48030F0603846BDE8F88F0010024007
:1019B000007000402DE9F04704460D460027002C3A
:1019C00017D0DFF8DC91D9F8000000F00F00A84232
:1019D00012D2D9F8000020F00F002843C9F8000007
:1019E000D9F8000000F00F00A84205D00120BDE8A2
:1019F000F0870120BDE8F08720786A4E10F0010FD3
:101A000041F2883A5ED06068DFF89C81032806D0F6
:101A1000022822D0306810F4806F49D021E030686D
:101A200010F0007F0ED001F073FD404524D9B0685E
:101A300010F0F00F09D0207810F0020F1CD0A06831
:101A400018B119E00120BDE8F087B06820F0F0007F
:101A500040F08000B06080270EE0306810F4003F56
:101A600023D000F0D3F8404506D9B06820F0F0004C
:101A700040F08000B0608027B068616820F003000B
:101A80000843B060FFF708FD8046B068616800F069
:101A90000C00B0EB810F15D0FFF7FEFCA0EB0800A7
:101AA000504508D90320BDE8F0870120BDE8F08744
:101AB0000120BDE8F087B068616800F00C00B0EB71
:101AC000810FE9D1206810F0020F17D010F0040F39
:101AD00003D0B06840F4E060B060207810F0080FE8
:101AE00005D0B06820F4605040F4E060B060B068A9
:101AF000A16820F0F0000843B06005E0802F03D11A
:101B0000B06820F0F000B060D9F8000000F00F00DD
:101B1000A8421DD9D9F8000020F00F002843C9F8C9
:101B20000000FFF7B9FC0746D9F8000000F00F00ED
:101B3000A8420DD0FFF7B0FCC01B504502D90320CE
:101B4000BDE8F087D9F8000000F00F00A842F1D1FD
:101B5000207810F0040F05D0B068E16820F4E06050
:101B60000843B060207810F0080F06D0B0682169F3
:101B700020F4605040EAC100B06000F047F8B1685E
:101B80000A4AC1F30311515C01F01F01C840084922
:101B9000086008480068BDE8F047FFF79BBC0000FC
:101BA000002002400010024000B4C404186600087F
:101BB00040000020440000200148006870470000F9
:101BC0004000002000B5FFF7F7FF05498968054A86
:101BD000C1F30221515C01F01F01C84000BD0000AB
:101BE000001002402866000800B5FFF7E5FF054930
:101BF0008968054AC1F3C221515C01F01F01C84048
:101C000000BD000000100240286600081A4A9068D3
:101C1000DFF868C000F00C0004280CD0906800F0D9
:101C20000C011748082905D091680C2333EA0101FB
:101C300003D00020704760467047D16801F003036D
:101C4000D168C1F30311491C032B0DD0BCFBF1F08B
:101C5000D168C1F306214843D168C1F34161491CF1
:101C60004900B0FBF1F07047B0FBF1F0D168C1F36F
:101C700006214843F0E70000001002400024F40071
:101C800000366E012DE9F8430446002C0ED0207872
:101C9000FD4F10F0010F60D0B8683D4600F00C0019
:101CA000E96801F003010C2803D004E00120BDE83D
:101CB000F88303291AD0082818D06068B0F5803F4F
:101CC0001DD0B0F5A02F1FD0286820F480302860E8
:101CD000286820F480202860606858B3FFF7DCFB98
:101CE0000646286810F4003F17D036E0286810F444
:101CF000003F32D0606880BB0120BDE8F8832868CF
:101D000040F480302860E7E7286840F480202860AD
:101D1000286840F480302860DEE7FFF7BDFB801BB9
:101D2000642802D90320BDE8F883286810F4003F36
:101D3000F3D012E0FFF7B0FB0646286810F4003F2E
:101D40000BD0FFF7A9FB801B642802D90320BDE854
:101D5000F883286810F4003FF3D1207810F0020FC8
:101D60005ED0B8683D4600F00C00E96801F0030160
:101D70000C2801D102290FD004280DD0E068B8B397
:101D8000286840F480702860FFF786FB06462868C4
:101D900010F4806F18D023E0286810F4806F01D011
:101DA000E06870B16868217C20F0FE4040EA016084
:101DB0006860B6480068FFF78DFB88B30120BDE876
:101DC000F8830120BDE8F883FFF766FB801B02283B
:101DD00002D90320BDE8F883286810F4806FF3D09F
:101DE0006868217C20F0FE4040EA0160686017E0EE
:101DF000FFE7286820F480702860FFF74DFB064657
:101E0000286810F4806F0BD0FFF746FB801B022878
:101E100002D90320BDE8F883286810F4806FF3D15D
:101E2000207810F0080F3AD06069E0B1D7F894003C
:101E30003D4640F00100C7F89400FFF72DFB064631
:101E4000D5F8940010F0020F29D1FFF725FB801B75
:101E5000022802D90320BDE8F883D5F8940010F0D9
:101E6000020FF2D01BE0D7F894003D4620F00100AD
:101E7000C7F89400FFF710FB0646D5F8940010F061
:101E8000020F0CD0FFF708FB801B022802D90320A9
:101E9000BDE8F883D5F8940010F0020FF2D1207855
:101EA00010F0040F7BD04FF00008B86D10F0805F89
:101EB00009D1B86D40F08050B865B86D00F0805021
:101EC00000904FF00108724D286810F4807F16D101
:101ED000286840F480702860FFF7DEFA064628681C
:101EE00010F4807F0BD1FFF7D7FA801B022802D9AC
:101EF0000320BDE8F883286810F4807FF3D0A06841
:101F000001281AD005281FD0D7F8900020F0010032
:101F1000C7F89000D7F8900020F00400C7F89000B0
:101F2000A06841F2883650B3FFF7B6FA0546D7F8F5
:101F3000900010F0020F14D037E0D7F8900040F076
:101F40000100C7F89000EBE7D7F8900040F00400DC
:101F5000C7F89000D7F8900040F00100C7F8900053
:101F6000DEE7FFF799FA401BB04202D90320BDE833
:101F7000F883D7F8900010F0020FF2D015E0FFF7C9
:101F80008BFA0546D7F8900010F0020F0DD0FFF73E
:101F900083FA401BB04203D90320BDE8F8830BE06D
:101FA000D7F8900010F0020FF1D1B8F1010F03D172
:101FB000B86D20F08050B865207810F0200F3AD02E
:101FC000A069E0B1D7F898003D4640F00100C7F89D
:101FD0009800FFF761FA0646D5F8980010F0020F56
:101FE00029D1FFF759FA801B022802D90320BDE846
:101FF000F883D5F8980010F0020FF2D01BE0D7F864
:1020000098003D4620F00100C7F89800FFF744FA19
:102010000646D5F8980010F0020F0CD0FFF73CFAF6
:10202000801B022802D90320BDE8F883D5F8980068
:1020300010F0020FF2D1E06960B3B9683D460C229E
:1020400032EA01014FF0FF3878D0022823D0286807
:1020500020F080702860E86820F00300E860E868FD
:1020600020F4881020F08070E860FFF715FA04462D
:10207000286810F0007F0DD0FFF70EFA001B022831
:1020800057D90320BDE8F883001002404400002027
:102090000070004083E0286820F080702860FFF71F
:1020A000FBF90646286810F0007F0AD0FFF7F4F924
:1020B000801B022801D90320E4E7286810F0007F84
:1020C000F4D1616A206A491E40EA0110A16A228E99
:1020D000090208EB520241EA4251084394F83410D5
:1020E00008EB510140EA416094F82C1040EAC160CD
:1020F000E9682C4A11400843E860286840F0807085
:102100002860E86840F08070E860FFF7C5F9044691
:10211000286810F0007F42D1FFF7BEF9001B0228AB
:1021200001D90320AEE7286810F0007FF4D036E034
:1021300004E0286810F0007F9ED130E001282CD008
:10214000E868226A00F00301914224D1626A00F03B
:10215000F001521EB1EB021F1DD1A26A00F4FE4134
:10216000B1EB022F17D194F82C1000F07842B2EBAB
:10217000C16F10D1228E00F4C00108EB5202B1EB06
:10218000425F08D194F8341000F0C06008EB5101B0
:10219000B0EB416F03D0012074E7012072E700200B
:1021A00070E700000C809F0170B504460120002CF0
:1021B0003ED094F8250028B9002084F82400204659
:1021C00000F03EF8022084F825001A4ECA20306044
:1021D00053203060204601F059FB10BB164D286893
:1021E00020F0400020F08E60286028686168A269B5
:1021F000084321691143084328602189E06840EAC7
:1022000001400E490860204601F06CFB48B9E269C4
:10221000216A2B681143626923F060431A4311431A
:102220002960FF213160002802D1012184F82510A6
:1022300070BD0000242800401828004010280040ED
:1022400000680549884205D1044850F8901F41F4C0
:10225000004101607047000000280040001002406B
:102260002DE9F04104460B4694F82400012807D0DC
:10227000012684F82460022084F825001AB10AE0BF
:102280000220BDE8F081587810F0100F03D000F064
:10229000EF000A305870A2B19878D9781A7840EADD
:1022A00001405978090241EA423140EA0105174FDD
:1022B000CA20386053203860204601F0E7FA88B120
:1022C00019E0D87801F0D6FA0204587801F0D2FA71
:1022D00042EA0022987801F0CDFA1978104340EADA
:1022E0004135E4E70A4925F0C00020F07F4008604E
:1022F000204601F0F7FAFF21396008B984F825601B
:10230000002184F82410BDE8F0810000242800405A
:10231000042800402DE9F04705460C46914695F803
:102320002400012811D04FF0010885F824800220F4
:1023300085F82500284FCA20386053203860284689
:1023400001F0A4FA002618B13DE00220BDE8F087B4
:10235000224BB9F1000F04D0186810F0400F17D1CC
:1023600015E0186810F0400F00D1E670207801F0F9
:1023700081FA0204607801F07DFA42EA0022A07836
:1023800001F078FAE178104340EA81500AE0E67003
:10239000A0782178E27840EA01406178090241EAB8
:1023A000825108430E4908400E490860186820F41D
:1023B000802018602169E0680843196808431860A4
:1023C000284601F08FFAFF21396008B985F8258089
:1023D00085F82460BDE8F0872428004018280040D4
:1023E0007F7F7F000028004070B50D4C206860F0B2
:1023F000A0002060FFF750F80546206810F0200F7D
:102400000BD1FFF749F8401BB0F57A7F01D90320C3
:1024100070BD206810F0200FF3D0002070BD0000C8
:102420000C280040401EB0F1807F01D3012070478E
:102430004FF0E0214861044AF020107000208861CC
:10244000072008610020704723ED00E090F87C1021
:10245000012918D0012180F87C102421C0F88010B7
:1024600001680A680B6823F001030B6022F0005139
:1024700000224266036819602021C0F8801080F8AD
:102480007C200020704702207047704770B50446DA
:1024900094F87C0001281DD0012084F87C002420C1
:1024A000C4F8800020680568026822F0010202601A
:1024B0002068826822F0606211438160204601F04A
:1024C000CDFA206805602020C4F88000002084F840
:1024D0007C0070BD022070BD70B5044694F87C008D
:1024E00001281DD0012084F87C002420C4F880003D
:1024F00020680568026822F0010202602068826894
:1025000022F0604211438160204601F0A7FA206862
:1025100005602020C4F88000002084F87C0070BD95
:10252000022070BD704770477047000070B50446C8
:102530002368D86919689A6800F00F0CBCF1000F85
:102540000FD110F0200F0CD001F0200502F08056C2
:10255000354306D0E16E00297ED02046BDE87040AC
:102560000847BCF1000F78D0DFF898C101F49075EE
:1025700002EA0C0C5CEA05056FD010F0010F0AD0DE
:1025800011F4807F07D001251D62D4F8883043F014
:102590000103C4F8883010F0020F0BD012F0010FC5
:1025A00008D0256802232B62D4F8883043F0040356
:1025B000C4F8883010F0040F0BD012F0010F08D0CF
:1025C000256804232B62D4F8883043F00203C4F852
:1025D000883010F0080F0FD001F0200353EA0C03ED
:1025E0000AD0D4F800C00823CCF82030D4F88830C2
:1025F00043F00803C4F88830D4F88830002B36D074
:1026000010F0200F09D001F0200002F080510843A3
:1026100003D0E16E09B120468847D4F888002168CC
:10262000896811F0400F02D110F0080F24D0204625
:1026300001F0F9FA2068816811F0400F18D0816824
:1026400021F040018160A06F70B12F498163A06FBC
:10265000FEF796FD002801E009E014E007D0A06F26
:10266000816BBDE8704008472046FFF75DFF70BDF5
:102670002046FFF759FF70BD2046FFF755FF0020A9
:10268000C4F8880070BD10F4801F0AD012F4800FC7
:1026900007D04FF4801018622046BDE87040FFF765
:1026A00042BF10F0800F0CD001F0800302F4000252
:1026B0001A4306D0216F0029E4D02046BDE87040BF
:1026C000084710F0400F07D011F0400F04D020460B
:1026D000BDE8704001F0B9BA10F4000F07D011F056
:1026E000804F04D02046BDE87040FFF71BBF10F0BC
:1026F000807FC7D011F0004FC4D02046BDE87040A5
:10270000FFF7C3BE01000010133C000810B50446DB
:10271000002C03D0D4F8800010B107E0012010BDD8
:10272000002084F87C00204600F028F82420C4F81B
:1027300080002068016821F001010160204601F05D
:1027400099FB012818D0A06A10B1204601F0C2F907
:102750002068416821F4904141602068816821F03F
:102760002A0181602068016841F001010160204672
:10277000BDE8104001F01ABA012010BD10B586B0B6
:10278000044614216846FDF77BFD174920688842FE
:1027900027D11648016E41F480410166016E01F4B3
:1027A00080410591C16C41F00101C164C06C694672
:1027B00000F0010005904FF4C060009002200190ED
:1027C000002002900390072004904FF09040FEF705
:1027D00035FD002211462520FEF7CCFE2520FEF710
:1027E000BBFE06B010BD00000038014000100240E2
:1027F00010B4D0F88430202B02D010BC02207047D7
:1028000061B35AB390F87C30012B2AD0012380F8B1
:102810007C308165A0F85C20A0F85E200023C366B0
:1028200081684FF0FF0CB1F5805F1DD07F2429B384
:10283000B1F1805F2AD0A0F86030C0F88830222142
:10284000C0F884100168D1F808C04CF0010CC1F840
:1028500008C0416EB1F1005F21D03CE010BC012006
:10286000704710BC02207047016911B1A0F860C028
:10287000E3E740F2FF11A0F86010DEE7016911B153
:10288000A0F86040D9E7A0F860C0D6E7016919B1A7
:102890003F21A0F86010D0E7A0F86040CDE7B0F885
:1028A0006810914217D88168B1F5805F01D1016944
:1028B00071B11349C16680F87C3001680A6842F43E
:1028C00080720A600068816841F08051816011E087
:1028D0000C49C166EFE78168B1F5805F01D10169FC
:1028E00059B10949C16680F87C300068016841F43B
:1028F0009071016010BC002070470449C166F2E786
:10290000CD3D0008C53C00086D3D0008673C00084F
:1029100070472DE9F84304460E4615461F46D4F885
:102920008000202802D00220BDE8F883D6B1CDB1C6
:1029300094F87C00012818D0012084F87C004FF026
:102940000008C4F888802120C4F88000FEF7A4FDA8
:102950008146A4F85450A4F85650A068B0F5805FA2
:1029600006D007E00120BDE8F8830220BDE8F88327
:10297000206978B135460026B4F85600D0B14B46F0
:10298000002280212046009702F024F820B1032085
:10299000BDE8F8830025EFE7BDB12168287888629B
:1029A0006D1CB4F85600401EA4F85600B4F856004A
:1029B0000028E4D14B46002240212046009702F037
:1029C00009F848B10320BDE8F88330882168C0F3D6
:1029D00008008862B61CE4E72020C4F8800084F870
:1029E0007C800020BDE8F8837047FEE700B585B025
:1029F00014216846FDF744FCC0200090012001909E
:102A000002900220039069460248FEF717FC05B0C9
:102A100000BD00000004004870B5134C134D607AEF
:102A200070B101280CD001212846FEF727FD0128AE
:102A300006D1E1790020012914D00121E1716072F1
:102A400001212846FEF71AFD00280AD1084801682E
:102A5000626A891A642904D300686062607A401C43
:102A6000607270BDE071EAE70800002000040048D1
:102A70004C00002070B5144C144DA07A80B1012890
:102A80000ED002212846FEF7F9FC012808D1207A51
:102A9000012817D0012020720020A0732074A0729A
:102AA00002212846FEF7EAFC00280AD108480168FE
:102AB000626A891A642904D300686062A07A401CA3
:102AC000A07270BD0220E6E7080000200004004864
:102AD0004C00002070B5154C154DE07A98B10128D6
:102AE00011D004212846FEF7C9FC01280BD1207C17
:102AF0000021401CC2B201202274E073A171032A9C
:102B000000D92074E17204212846FEF7B7FC0028A2
:102B10000AD108480168626A891A642904D30068E6
:102B20006062E07A401CE07270BD00000800002086
:102B3000000400484C00002010B50E4C207B30B142
:102B4000012804D0A079401CA0710020207301212D
:102B50004FF09040FEF792FC00280AD10648016829
:102B6000626A891A782904D300686062207B401C5D
:102B7000207310BD080000204C00002038B5FDF780
:102B800085FEFDF753FE264CA07B20B9002000F007
:102B90007FF90120A073A06AFDF77DFB41EC100BCB
:102BA00020A153EC102B234801F068FF214930206D
:102BB00000F0D4F96069FDF76EFB41EC100B1EA12B
:102BC00053EC102B1B4801F059FF1A49602000F00C
:102BD000C5F9E07918B91BA1164801F04FFFE0795B
:102BE000012803D11AA1134801F048FF1149902090
:102BF00000F0B4F9A07800906378227817A10D480E
:102C000001F03CFF0B49C02000F0A8F919A10948C8
:102C100001F034FFBDE838400649D82000F09EB9E5
:102C200008000020202056313A252E3266562020FA
:102C3000000000006400002020206B3A252E316641
:102C40002020000020204C45443A4F4646202000DA
:102C500020204C45443A4F4E202000002020543A7A
:102C6000253032642D253032642D25303264202009
:102C70002020200020202020202020202020202074
:102C80002020202020202031000000002DE9F843E2
:102C9000FFF720FFFFF750FF524C207C10B1E07B84
:102CA000012822D1A07B20B9002000F0F1F80120FA
:102CB000A073607900902379E2784BA1514801F02C
:102CC000DDFE5049782000F049F94FA14D4801F050
:102CD000D5FE4C49D82000F041F951A1494801F0F6
:102CE000CDFE4849302000F039F9207C0A26002525
:102CF0004FF478474FF6FF78012823D1A07908B91F
:102D0000E078A071C0B2E070172801D9E570A57114
:102D1000384600F0D3F9E078E021B0FBF6F030302F
:102D2000C2B2782000F00EF9E078B0FBF6F106FBB5
:102D30001102D0217820303200F004F9404600F032
:102D4000BDF9E573207C022823D1A07908B9207948
:102D5000A071C0B220713B2801D92571A5713846F8
:102D600000F0ACF92079B021B0FBF6F03030C2B2FF
:102D7000782000F0E7F82079B0FBF6F106FB1102AD
:102D8000A0217820303200F0DDF8404600F096F9BE
:102D9000E573207C032823D1A07908B96079A0715C
:102DA000C0B260713B2801D96571A571384600F049
:102DB00085F960798021B0FBF6F03030C2B278201E
:102DC00000F0C0F86079B0FBF6F106FB110270214B
:102DD0007820303200F0B6F8404600F06FF9E57325
:102DE000BDE8F88308000020202020202020253086
:102DF00032642D253032642D25303264202020208D
:102E000020200000640000202020202020202020FE
:102E10002020202020202020202020320000000020
:102E200020202020202053657474696E67202020A4
:102E30002020200000B585B014216846FDF720FA57
:102E40004FF6FF70009000200321CDE902010190B0
:102E500069460248FEF7F2F905B000BD00080048D7
:102E600000B585B014216846FDF70AFA4FF6FF70E9
:102E700000900120019003200390002002906946F9
:102E80000248FEF7DBF905B000BD0000000800486D
:102E900070B5002406462146204600F003F900F0F4
:102EA00041F94FF49635304600F010F9641CAC42FD
:102EB000F9D370BD30B587B014216846FDF7E0F94D
:102EC0001E48C16C41F00401C164C16C01F00401F1
:102ED0000591C16C41F00101C164C16C01F00101B7
:102EE0000591C16C41F00201C164C06C012500F084
:102EF000020005904FF44870CDE9000500240394CA
:102F0000694602940E48FEF799F92802039400904E
:102F1000CDE901544FF0904469462046FEF78EF902
:102F2000FFF79EFFA06940F48070A061044818304C
:102F3000016841F40871016007B030BD0010024023
:102F400000040048203AD2B2034B02EB420203EBEA
:102F5000021200F019B8000048540008F0B50E46FF
:102F60000746002540F23F1407E021463846FFF7A8
:102F7000E9FF103C6D1CA4B2761C3278002A01D007
:102F8000142DF2D3F0BD00002DE9F04791468A469A
:102F90000026044600F086F8DFF84080012700BFD5
:102FA00000F0C0F85FF0000539F8160007FA05F1E7
:102FB0000842404601D1408800E0008800F086F8D1
:102FC0006D1C102DF0D3641CE4B25146204600F075
:102FD00069F8761C182EE3D3BDE8F08700000020C6
:102FE00010B5FFF767FF002000F014F8084CA08030
:102FF000A088A0F50241303906D000F03AFB00204D
:1030000000F008F8A08010BD00F0AAFAF7E7000071
:103010000000002070B51D490A6842F400720A6081
:103020000A6842F480720A60184C103C226842F030
:1030300020022260164A1060086840F020000860F4
:1030400000BF00BF00BF206840F020002060206863
:1030500040F480702060FFF7EDFE4FF09041886AE9
:1030600040F48070886200BF00BF00BF0848001FA6
:10307000006885B2886940F480708861FFF7F0FECF
:10308000206840F400702060284670BD2804004885
:103090001408004801B5BDF800000149488008BD8A
:1030A0000000002010B50C460146202000F068F812
:1030B0002146BDE81040212000F062B801B5BDF8FE
:1030C00000000149088008BD00000020134A116873
:1030D00041F400711160114910390B6843F4807399
:1030E0000B600B6843F020030B600D4B18601068F9
:1030F00040F02000106000BF00BF00BF086840F033
:1031000020000860086840F48070086000BF00BFBD
:1031100000BF086840F40070086070472804004849
:10312000140800481449086840F4007008600868F2
:1031300040F48070086010481038026842F02002A5
:1031400002600E4B22221A600A6842F020020A60D6
:1031500000BF00BF00BF016841F0200101600168AD
:1031600041F48071016000BF00BF00BF016841F4FD
:1031700000710160704700002804004814080048EE
:10318000184B10B51A6842F400721A601A6842F4BB
:1031900080721A60134A103A146844F020041460D4
:1031A000114C2060186840F02000186000BF00BF7C
:1031B00000BF106840F020001060106840F480707C
:1031C00010602160186840F02000186000BF00BF48
:1031D00000BF106840F020001060106840F480705C
:1031E000106010BD280400481408004870B5144C45
:1031F0002078F8B100F02CF800224FF480711148CB
:10320000FEF743F9104D012204212846FEF73DF94F
:10321000002204212846FEF738F90C48016862684C
:10322000891AC82905D300686060207828B1002079
:10323000207070BD00F00CF8EFE70120F8E7000007
:103240003800002000080048000C00484C00002016
:1032500010B501224FF6FF710748FEF716F9074C2B
:10326000012204212046FEF710F920460022BDE885
:1032700010400421FEF709B900080048000C00487E
:1032800030B589B020216846FCF7FAFF1848174985
:103290000024C0E900148460C46004250461C0E90E
:1032A0000545047744770121016280F82440C46217
:1032B000046380F83840C46380F84040FDF7A8FDFF
:1032C00008B1FDF718FB0B4800900620CDE901047A
:1032D0007F200594CDE9030569460548FDF70CFB01
:1032E000002801D0FDF707FB09B030BD00010050F8
:1032F000780000200080F03E2DE9F04F87B01421C7
:103300006846FCF7BDFF3F48C16C41F00401C16451
:10331000C16C01F004010591C16C41F02001C16450
:10332000C16C01F020010591C16C41F00101C16443
:10333000C16C01F001010591C16C41F00201C16451
:10334000C16C01F002010591C16C41F00801C1643A
:10335000C06CDFF8B48000F008004FF6FF740590F1
:10336000002221464046FEF790F84FF480764FF059
:103370009049002231464846FEF787F8DFF88CA0D6
:10338000002204215046FEF780F8DFF884B04FF4A5
:103390004877002239465846FEF777F80125CDE9EF
:1033A000004500240294694640460394FDF746FF19
:1033B000CDE90054694648460295FDF73FFF0720D6
:1033C0008DE8310069465846FDF738FF0096CDE993
:1033D0000154694648460394FDF730FF04200090ED
:1033E000CDE90154694650460394FDF727FF009745
:1033F000CDE90154694658460394FDF71FFF07B015
:10340000BDE8F08F0010024000080048000C0048A2
:103410000004004830B587B014216846FCF730FF3F
:103420001E4800241C490594C0E900141F21816036
:1034300040F2E731C0E9031444610462FEF7B4FED0
:1034400008B1FDF758FA23208DF8000059208DF8B7
:103450000100552001258DF8020003942A46694693
:103460000E4801950494FEF755FF08B1FDF743FAA5
:103470008DF814508DF815508DF816508DF81750A2
:10348000012205A90548FEF7EBFE002801D0FDF753
:1034900032FA07B030BD000000280040E4000020F0
:1034A000184810B5164901604FF4165141600021CB
:1034B00081600C22C160C0E904128161C1610162B6
:1034C00041628162FFF722F908B1FDF714FA002189
:1034D0000C48FFF701F808B1FDF70DFA0021094883
:1034E000FEF7D4FF08B1FDF706FA0648FEF7AEFF77
:1034F000002803D0BDE81040FDF7FDB910BD000065
:10350000003801400C010020FEE7704770470000C2
:103510001049C86800F00302C868C0F30310401CDB
:10352000032A0ED00C4AB2FBF0F0CA68C2F306229E
:103530005043C968C1F34161491C4900B0FBF1F037
:103540007047064AB2FBF0F0CA68C2F30622504345
:10355000EFE70000001002400024F40000366E0186
:1035600030B501210020FFF70BFE4FF47A70FDF714
:10357000B4F900210120FFF703FE41F29071102001
:10358000FFF7FEFD4FF41C516020FFF7F9FD01210C
:103590006120FFF7F5FD02214620FFF7F1FD48F21B
:1035A00010011320FFF7ECFD48F2FE011220FFF797
:1035B000E7FD4FF4A0610220FFF7E2FD41F2300188
:1035C0000320FFF7DDFD40F2033421463020FFF7F2
:1035D000D7FD21463120FFF7D3FD21463220FFF7EA
:1035E000CFFDE51E29463320FFF7CAFD0321342015
:1035F000FFF7C6FD21463520FFF7C2FD1421362016
:10360000FFF7BEFD21463720FFF7BAFD21463820DF
:10361000FFF7B6FD21463920FFF7B2FD29463A20D3
:10362000FFF7AEFD03213B20FFF7AAFD21463C201A
:10363000FFF7A6FD4FF4A0513D20FFF7A1FD4FF489
:1036400000719220FFF79CFD21469320FFF798FD23
:1036500040F60D019020FFF793FD41F21801032081
:10366000FFF78EFDBDE8304040F273110720FFF7F1
:1036700087BD10B543F20801E320FFF781FD122159
:10368000E720FFF77DFD41F23121EF20FFF778FDC4
:1036900000210120FFF774FD4FF4E0610220FFF7E5
:1036A0006FFD41F230010320FFF76AFD0021042085
:1036B000FFF766FD40F207210820FFF761FD0021BA
:1036C0000920FFF75DFD00210A20FFF759FD0021C9
:1036D0000C20FFF755FD00210D20FFF751FD0021C3
:1036E0000F20FFF74DFD00211020FFF749FD0721B6
:1036F0001120FFF745FD00211220FFF741FD0021B9
:103700001320FFF73DFDC820FDF784FD41F29061D5
:103710001020FFF735FD40F227211120FFF730FD83
:103720003220FDF777FD1D211220FFF729FD322001
:10373000FDF770FD4FF400611320FFF721FD142108
:103740002920FFF71DFD0B212B20FFF719FD32204B
:10375000FDF760FD00212020FFF712FD0021212050
:10376000FFF70EFD07213020FFF70AFD40F2077139
:103770003120FFF705FD06213220FFF701FD40F261
:1037800004713520FFF7FCFC41F604713620FFF789
:10379000F7FC04213720FFF7F3FC00213820FFF766
:1037A000EFFC40F206713920FFF7EAFC40F20171AC
:1037B0003C20FFF7E5FC0F213D20FFF7E1FC002155
:1037C0005020FFF7DDFCEF215120FFF7D9FC00214D
:1037D0005220FFF7D5FC40F23F115320FFF7D0FCF9
:1037E0004FF41C516020FFF7CBFC01216120FFF753
:1037F000C7FC00216A20FFF7C3FC00218020FFF7EF
:10380000BFFC00218120FFF7BBFC00218220FFF7D5
:10381000B7FC00218320FFF7B3FC00218420FFF7D1
:10382000AFFC00218520FFF7ABFC10219020FFF7B3
:10383000A7FC00219220FFF7A3FC03219320FFF7B0
:103840009FFC4FF488719520FFF79AFC0021972088
:10385000FFF796FC00219820FFF792FC41F2180137
:103860000320FFF78DFCBDE8104040F273110720E4
:10387000FFF786BC00210A2804D3491C0A38C0B2CD
:103880000A28FAD2090740EA116070472DE9F04191
:1038900007460024DFF84880D8F8000010F0400FF9
:1038A0001AD1D8F8000040F08000C8F80000FDF7F9
:1038B000F3FD0546032608E0FDF7EEFD401BB0F5DD
:1038C0007A7F02D9032487F82560D8F8000010F029
:1038D000400F01D1032CEFD12046BDE8F08100005C
:1038E0000C2800402DE9F0410546002413480168EA
:1038F00021F080010160124E30684FF0030710F094
:10390000200F11D0306820F0200030602846FEF7EC
:103910006BFD10B185F825700324306840F020005D
:1039200030602046BDE8F0812846FEF75DFD0028A6
:10393000F7D085F825700324F3E700000C28004039
:10394000182800407047FDF7ADBD000030B5A5B0A8
:1039500038216846FCF794FC14211FA8FCF790FC62
:1039600044210EA8FCF78CFC4FF400752846FDF7A7
:1039700047FE09200090E8010190012005900221F6
:103980000324CDE907141420CDE90A0109940C9110
:1039900068460D91FEF776F90F20CDE91F0400244B
:1039A0002194229403211FA82394FEF703F80548CD
:1039B000CDE90E044007CDE91D050EA8FDF78EFEEA
:1039C00025B030BD018008000548016841F4700150
:1039D000016003494FF000608039086070470000C3
:1039E00088ED00E02DE9F043154C85B02078E178B2
:1039F0008146884220D160782179804688421BD157
:103A0000A7786079874217D1607B002814D160695C
:103A1000FCF741FC05460E46A06AFCF73CFC8DE82D
:103A2000600241EC100BCDE9038753EC102B05A08D
:103A300001F014F80120607305B0BDE8F0830000C8
:103A400008000020252E32662B252E31662B2530CE
:103A5000326425303264253032640A0010B485B0F7
:103A600018A14A6809680392029118A14A68096876
:103A700001920091416E00291CD002689168C1F347
:103A800042619268520F02AB13F802C01DF8022087
:103A90004FEACC04B4FBF2F2EC46A0F86A205A5C80
:103AA0001CF80110D200B2FBF1F1A0F8681005B0CB
:103AB00010BC70470121A0F86A10A0F8681005B08A
:103AC00010BC704701010103070100000804020453
:103AD0000801010190F8281011F0010F06D00168CB
:103AE0004A68C36A22F400321A434A6090F82810E8
:103AF00011F0020F06D001684A68036B22F480328D
:103B00001A434A6090F8281011F0040F06D001689B
:103B10004A68436B22F480221A434A6090F82810C6
:103B200011F0080F06D001684A68836B22F4004246
:103B30001A434A6090F8281011F0100F06D001685F
:103B40008A68C36B22F480521A438A6090F8281066
:103B500011F0200F06D001688A68036C22F400522D
:103B60001A438A6090F8281011F0400F11D00168B4
:103B70004A68436C22F480121A434A60416CB1F5E2
:103B8000801F06D101684A68836C22F4C0021A4380
:103B90004A6090F8281011F0800F06D001684A683A
:103BA000C06C22F40022104348607047F8B5044608
:103BB0000026C4F88860FDF76FFC0746206800689F
:103BC0006FF07E4510F0080F0AD03B4600224FF4FC
:103BD00000112046009500F0FDFE08B10320F8BD5D
:103BE0002068006810F0040F0AD03B4600224FF412
:103BF00080012046009500F0EDFE08B10320F8BDDD
:103C00002020C4F88000C4F8840084F87C60002080
:103C1000F8BD10B5806A0021A0F85E10A0F856101B
:103C2000FEF782FC10BD01680A6822F490720A60F7
:103C300001688A6822F0010222F080528A60202105
:103C4000C0F884100021C166704710B501680A6889
:103C500022F040020A602021C0F880100021016794
:103C6000FEF7C2FE10BD10B5B0F86020D0F8843069
:103C70000168222B04D0886940F00800886110BDDB
:103C8000496A836D11401980816D891C8165B0F886
:103C90005E10491EA0F85E10B0F85E100029EED14B
:103CA00001680A6822F490720A6001688A6822F04A
:103CB00001028A602021C0F884100021C166FEF74D
:103CC00027FE10BD2DE9F0410446B4F86060D4F839
:103CD0008400222806D02068816941F008018161B2
:103CE000BDE8F081B4F8685045B300274FF02008D4
:103CF0002068406AA16D30400880A06D801CA065DE
:103D0000B4F85E00401EA4F85E00B4F85E0088B906
:103D10002068016821F4807101602068816821F0C9
:103D2000010121F080518160C4F88480E76620465B
:103D3000FEF7EEFD681E85B2002DD9D1B4F85E0005
:103D40000028CDD0B4F868108142C9D920688168B4
:103D500021F0805181600448E0662068016841F0EC
:103D600020010160BDE8F081673C000810B5B0F8A3
:103D70006020D0F884300168222B04D0886940F09C
:103D80000800886110BD496A1140826D1170816D13
:103D9000491C8165B0F85E10491EA0F85E10B0F8AD
:103DA0005E100029EED101680A6822F490720A6060
:103DB00001688A6822F001028A602021C0F884101C
:103DC0000021C166FEF7A4FD10BD00002DE9F04101
:103DD0000446B4F86060D4F88400222806D0206835
:103DE000816941F008018161BDE8F081B4F8685053
:103DF00045B300274FF020082068406AA16D30408D
:103E00000870A06D401CA065B4F85E00401EA4F8C8
:103E10005E00B4F85E0088B92068016821F4807102
:103E200001602068816821F0010121F080518160EA
:103E3000C4F88480E7662046FEF76AFD681E85B2F6
:103E4000002DD9D1B4F85E000028CDD0B4F86810A8
:103E50008142C9D92068816821F08051816004487D
:103E6000E0662068016841F020010160BDE8F08152
:103E70006D3D00082DE9F04704460026002700208C
:103E8000FE4B2168D4F810C0A268E56942EA0C0232
:103E9000D4F814C04CEA050C42EA0C02D4F864C011
:103EA0004CEA0202D1F800C0F54D0CEA050C4CEAD0
:103EB00002020A6021684A68D4F80CC022F4405219
:103EC00042EA0C024A60A16922689A4203D0D4F8FF
:103ED00020C04CEA0101D2F808C02CF4306C2CF060
:103EE0006E4C4CEA010191602168CA6AD4F824C082
:103EF00022F00F0242EA0C02CA622268E149A2F1F2
:103F0000804CBCF59C3C20D0A2F1804CBCF5884C88
:103F100030D0A2F1804CBCF5904C40D0A2F1804C46
:103F2000BCF5984C50D09A426BD1D1F8881011F45E
:103F300040615ED0B1F5806F5FD0B1F5006F5AD0AF
:103F4000B1F5406F5BD010255CE0D1F8881011F01E
:103F5000030107D0012909D0022905D0032907D080
:103F600010254FE001254DE002254BE0042549E0F6
:103F7000082547E0D1F8881011F00C0107D004297A
:103F800009D0082905D00C2907D010253AE00025D2
:103F900038E0022536E0042534E0082532E0D1F887
:103FA000881011F0300107D0102909D0202905D040
:103FB000302907D0102525E0002523E0022521E047
:103FC00004251FE008251DE0D1F8881011F0C0017C
:103FD00007D0402909D0802905D0C02907D0102555
:103FE00010E000250EE002250CE004250AE008257B
:103FF00008E0002506E0022504E0042502E008258B
:1040000000E01025DFF880A24FF400414FF00008D7
:104010009A4240F03582ADB1022D4BD0042D6FD0C5
:10402000082D6ED00127002800F0C884D4F8049031
:1040300009EB4901814202D8B0EB093F71D9012750
:1040400000F0BCBCFDF7BEFD0146606AC8B10128A6
:1040500019D0022819D0032819D0042819D005280E
:1040600019D0062819D0072819D0082819D00928EE
:1040700019D00A2819D00B2819D00120B1FBF0F073
:10408000D1E70120FAE70220F8E70420F6E706204E
:10409000F4E70820F2E70A20F0E70C20EEE7102012
:1040A000ECE72020EAE74020E8E78020E6E74FF44D
:1040B0008070E3E7606AC8B1012819D0022819D0DE
:1040C000032819D0042819D005281BD006281BD096
:1040D00007281BD008281BD009281BD00A281BD072
:1040E0000B281BD00120BAFBF0F09CE70120FAE777
:1040F0000220F8E70420F6E70620F4E70820F2E7BC
:1041000010E047E00A20EEE70C20ECE71020EAE799
:104110002020E8E74020E6E78020E4E74FF48070C5
:10412000E1E76CE0FDF772FD0146606AC8B1012865
:1041300019D0022819D0032819D0042819D005282D
:1041400019D0062819D0072819D0082819D009280D
:1041500019D00A2819D00B2819D00120B1FBF0F092
:1041600061E70120FAE70220F8E70420F6E70620DD
:10417000F4E70820F2E70A20F0E70C20EEE7102031
:10418000ECE72020EAE74020E8E78020E6E74FF46C
:104190008070E3E7606AC8B1012819D0022819D0FD
:1041A000032819D0042819D0052819D0062819D0B9
:1041B000072819D0082819D0092819D00A2819D099
:1041C0000B2819D00120B1FBF0F02CE70120FAE711
:1041D0000220F8E70420F6E70620F4E70820F2E7DB
:1041E0000A20F0E70C20EEE71020ECE72020EAE7B9
:1041F0004020E8E78020E6E74FF48070E3E77DB1F8
:10420000022D61D0042D7CD0082D7BD001271F49C1
:10421000A6F54070884276D82068C66000F0CEBB14
:10422000FDF7D0FC0146606A90B3012835D0022822
:1042300035D0032835D0042835D0052835D00628B8
:1042400035D0072835D0082835D0092835D00A2898
:1042500035D00B2835D00122002308461946FBF73C
:10426000D7FF0902626841EA10610302500818187A
:1042700041EB08010023FBF7CBFF0AE00080004080
:10428000F369FFCF001002400024F400FFFC0F0090
:1042900001E00646BBE70122DEE70222DCE704225A
:1042A000DAE70622D8E70822D6E70A22D4E70C226A
:1042B000D2E71022D0E72022CEE74022CCE78022AE
:1042C000CAE74FF48072C7E7606A70B301282FD045
:1042D00002282FD003282FD004282FD005282FD034
:1042E00006282FD007282FD008282FD009282FD014
:1042F0000A282FD00B282FD0012200235046194620
:1043000002E02CE073E0B9E0FBF782FF090241EA2A
:10431000106102024FEA5900101841EB08014A46A9
:104320000023FBF775FF064671E7FFE70122E4E78C
:104330000222E2E70422E0E70622DEE70822DCE7C9
:104340000A22DAE70C22D8E71022D6E72022D4E7A7
:104350004022D2E78022D0E74FF48072CDE7FDF70C
:1043600055FC0146606A48B3012829D0022829D0AB
:10437000032829D0042829D0052829D0062829D0A7
:10438000072829D0082829D0092829D00A2829D087
:104390000B2829D00122002308461946FBF738FFD5
:1043A0000902626841EA106103025008181841EBE3
:1043B00008010023FBF72CFF064628E70122EAE765
:1043C0000222E8E70422E6E70622E4E70822E2E721
:1043D0000A22E0E70C22DEE71022DCE72022DAE7FF
:1043E0004022D8E78022D6E74FF48072D3E7606A94
:1043F00058B301282BD002282BD003282BD0042817
:104400002BD005282BD006282BD007282BD0082806
:104410002BD009282BD00A282BD00B282BD00122F7
:1044200000234FF400401946FBF7F2FE090241EA6F
:10443000106102024FEA5900101841EB08014A4688
:104440000023FBF7E5FE0646E1E60122E8E702224B
:10445000E6E70422E4E70622E2E70822E0E70A2290
:10446000DEE70C22DCE71022DAE72022D8E7402240
:10447000D6E78022D4E74FF48072D1E701279DE28E
:10448000E0694FF6EF79B0F5004F08D0092D74D2EE
:10449000DFE805F0F4F3F273F1737373F000092DA4
:1044A0006CD2DFE805F00544856BC16B6B6BEC00EB
:1044B000FDF788FB0146606A00B3012820D002287E
:1044C00020D0032820D0042820D0052820D006287A
:1044D00020D0072820D0082820D0092820D00A285A
:1044E00020D00B2820D00120B1FBF0F04100606803
:1044F00001EB5001B1FBF0F086B217E10120F3E7C8
:104500000220F1E70420EFE70620EDE70820EBE7C3
:104510000A20E9E70C20E7E71020E5E72020E3E7A1
:104520004020E1E78020DFE74FF48070DCE7FDF713
:104530005BFB0146606A10B3012822D0022822D01A
:10454000032822D0042822D0052822D0062822D0F1
:10455000072822D0082822D0092822D00A2822D0D1
:104560000B2822D00120B1FBF0F04100606801EB84
:104570005001B1FBF0F086B2D8E016E2D5E00120A0
:10458000F1E70220EFE70420EDE70620EBE7082043
:10459000E9E70A20E7E70C20E5E71020E3E7202021
:1045A000E1E74020DFE78020DDE74FF48070DAE7C5
:1045B000606A00B3012820D0022820D0032820D030
:1045C000042820D0052820D0062820D0072820D075
:1045D000082820D0092820D00A2820D00B2820D055
:1045E0000120BAFBF0F04100606801EB5001B1FB23
:1045F000F0F086B29AE00120F3E70220F1E7042010
:10460000EFE70620EDE70820EBE70A20E9E70C20BA
:10461000E7E71020E5E72020E3E74020E1E78020FE
:10462000DFE74FF48070DCE7FDF7F0FA0146606ADF
:1046300030B3012826D0022826D0032826D004280B
:1046400026D0052826D0062826D0072826D00828D8
:1046500026D0092826D00A2826D00B2826D00120CB
:10466000B1FBF0F04100606801EB5001B1FBF0F0EC
:1046700086B25BE05EE11FE1E3E0A4E065E018E004
:104680000120EDE70220EBE70420E9E70620E7E759
:104690000820E5E70A20E3E70C20E1E71020DFE748
:1046A0002020DDE74020DBE78020D9E74FF4807051
:1046B000D6E7606A00B3012820D0022820D0032862
:1046C00020D0042820D0052820D0062820D0072874
:1046D00020D0082820D0092820D00A2820D00B2854
:1046E00020D00120B1FBF0F04100606801EB5001E7
:1046F000B1FBF0F086B219E00120F3E70220F1E708
:104700000420EFE70620EDE70820EBE70A20E9E7C1
:104710000C20E7E71020E5E72020E3E74020E1E771
:104720008020DFE74FF48070DCE70127A6F110005E
:10473000484508D84FF6F0703040C6F342010843B0
:104740002168C8603AE1012738E1FDF73BFA0146EC
:10475000606AF8B101281FD002281FD003281FD09B
:1047600004281FD005281FD006281FD007281FD0D7
:1047700008281FD009281FD00A281FD00B281FD0B7
:104780000120B1FBF0F1606801EB5001B1FBF0F0EA
:1047900086B20BE10120F4E70220F2E70420F0E703
:1047A0000620EEE70820ECE70A20EAE70C20E8E71D
:1047B0001020E6E72020E4E74020E2E78020E0E761
:1047C0004FF48070DDE7FDF70FFA0146606AF8B13B
:1047D00001281FD002281FD003281FD004281FD073
:1047E00005281FD006281FD007281FD008281FD053
:1047F00009281FD00A281FD00B281FD00120B1FB89
:10480000F0F1606801EB5001B1FBF0F086B2CDE051
:104810000120F4E70220F2E70420F0E70620EEE7AB
:104820000820ECE70A20EAE70C20E8E71020E6E79A
:104830002020E4E74020E2E78020E0E74FF48070AA
:10484000DDE7606AF8B101281FD002281FD00328D5
:104850001FD004281FD005281FD006281FD00728E6
:104860001FD008281FD009281FD00A281FD00B28C6
:104870001FD00120BAFBF0F1606801EB5001B1FBE1
:10488000F0F086B292E00120F4E70220F2E7042083
:10489000F0E70620EEE70820ECE70A20EAE70C2024
:1048A000E8E71020E6E72020E4E74020E2E7802068
:1048B000E0E74FF48070DDE7FDF7A8F90146606A94
:1048C000F8B101281FD002281FD003281FD00428C8
:1048D0001FD005281FD006281FD007281FD0082862
:1048E0001FD009281FD00A281FD00B281FD0012055
:1048F000B1FBF0F1606801EB5001B1FBF0F086B262
:1049000054E00120F4E70220F2E70420F0E706205B
:10491000EEE70820ECE70A20EAE70C20E8E71020A1
:10492000E6E72020E4E74020E2E78020E0E74FF4DC
:104930008070DDE7606AF8B101281FD002281FD01F
:1049400003281FD004281FD005281FD006281FD0F9
:1049500007281FD008281FD009281FD00A281FD0D9
:104960000B281FD00120B1FBF0F1606801EB500172
:10497000B1FBF0F086B219E00120F4E70220F2E783
:104980000420F0E70620EEE70820ECE70A20EAE73B
:104990000C20E8E71020E6E72020E4E74020E2E7EB
:1049A0008020E0E74FF48070DDE70127A6F11000DA
:1049B000484502D82068C66000E001270120A4F81D
:1049C0006A00A4F86800C4F86C80C4F870803846A7
:1049D000BDE8F0872DE9F0410446069D884617465C
:1049E0001E462068C06938EA000016D00020B84290
:1049F00010D1B5F1FF3F05D0FCF74EFD801BA8425A
:104A00000DD865B12068C06938EA00001CD00020CC
:104A1000B842EED00020BDE8F0810120E7E7206831
:104A2000016821F4D07101602068816821F00101E2
:104A300081602020C4F88000C4F88400002084F83D
:104A40007C000320BDE8F0810120E1E70148FDF78B
:104A50006DBD00000C010020FEE700000FB4054B07
:104A600010B503A9044A029800F0EEF810BC5DF8F6
:104A700014FB000081530008340000200FB4084BE1
:104A800010B504A902AA039800F0DEF8044602A9B2
:104A9000002000F070FC204610BC5DF814FB000004
:104AA0007753000802E008C8121F08C1002AFAD193
:104AB00070477047002001E001C1121F002AFBD19E
:104AC000704700002DE9FF5F82B00021DDE904306E
:104AD000020DDDF840B0034318D044F61050A2F2A6
:104AE000FF3242431514119801281FD0A5EB0B008B
:104AF000401C5FEA000A4FF000064E4FDFF8389185
:104B0000B046504615D5CAF1000413E011980124AF
:104B10004AA3012801D16FEA0B010298119AC0E95A
:104B20000031C0E9024206B0BDE8F09FCBF10000C1
:104B3000DFE704460021404A491842EB0450CDE922
:104B4000001012E0E00707D032463B464046494697
:104B5000FBF790FC8046894632463B461046194694
:104B6000FBF788FC06460F466410002CEAD1DDE90D
:104B70000401DDE90023BAF1000F06DAFBF77AFC45
:104B800042464B46FBF776FC05E0FBF7E5FC424668
:104B90004B46FBF7E1FC04460E460022284BFBF790
:104BA00063FD03D84FF0FF30014607E00022254B9C
:104BB00020463146FBF7B7FBFBF73DFD102409E02B
:104BC000002C0ADB0A220023FBF722FB039B303276
:104BD0001A55641E50EA0102F2D1641C039AC4F112
:104BE00011031444119A012A03D0012208430DD164
:104BF0000AE0084304D000204FF0110B119072E737
:104C0000A3EB0B056D1E0DE05B4504DD4FF00002CC
:104C100005F1010504E003DA4FF00002A5F10105FA
:104C2000002AECD002981199C0E90231C0E9004590
:104C300079E70000000014400000F03F3000000061
:104C40000000F0430000E03F2DE9FF4F95B09B4688
:104C50008946064600250FE2252877D100242746FD
:104C6000F84A0121059400E0044316F8013F203B77
:104C700001FA03F01042F7D130782A2811D06FF0F2
:104C80002F033078A0F13002092A16D8059A44F093
:104C9000020402EB820203EB42021044761C0590F0
:104CA000EFE759F8042B0592002A03DA504244F446
:104CB0000054059044F00204761C30782E2816D15A
:104CC00016F8010F44F004042A280DD06FF02F02CB
:104CD0003078A0F13003092B09D807EB870302EBEA
:104CE0004303C718761CF3E759F8047B761C307829
:104CF0006C280FD006DC4C2817D068280DD06A2805
:104D000014D104E0742810D07A280FD10DE044F4B7
:104D100000140AE044F4801401E044F44014727872
:104D2000824202D104F58014761C761C3078662805
:104D30000BD013DC582877D009DC002875D0452823
:104D4000F6D04628F4D047281AD19DE118E0632810
:104D500035D0642879D0652812D195E1702873D0B8
:104D600008DC6728F1D069286FD06E280DD06F2835
:104D700006D1B5E073282CD0752875D0782874D06A
:104D80005A46179990476D1C75E1C4F302500228EA
:104D900009D003280DD0D9F8001004280DD00D60DB
:104DA00009F1040967E1D9F80010EA17C1E90052D6
:104DB000F6E7D9F800100D80F2E70D70F0E719F86A
:104DC000041B8DF8001000208DF80100EA46012038
:104DD00003E059F804AB4FF0FF3061074FF00001DA
:104DE00002D40DE008F101018846B9420FDA80458E
:104DF000F8DB1AF808100029F4D108E008F10101E5
:104E000088468142FADB1AF808100029F6D1059885
:104E10005B46A0EB080721463846179A00F094FA43
:104E2000284400EB080507E04DE029E10DE01AF801
:104E3000010B5A4617999047B8F10108F7D25B4623
:104E400021463846179A13E142E00A220092C4F341
:104E500002524FF0000A022A08D059F804CB032A64
:104E60004FEAEC710AD00DE029E02AE009F10701D0
:104E700021F00702F2E802C1914609E00FFA8CFC2A
:104E80004FEAEC71042A03D14FFA8CFC4FEAEC7123
:104E9000002907DA0A460021DCF1000C61EB02016F
:104EA0002D2202E0220504D52B228DF804200122B8
:104EB00003E0E20701D02022F7E7904659E00A21FB
:104EC00002E010220DE010214FF0000A00910BE0EB
:104ED00010224FF0000A44F004040827009203E077
:104EE00008224FF0000A0092C4F30252022A05D0B1
:104EF00059F804CB0021032A08D009E009F1070181
:104F000021F00702F2E802C1914605E01FFA8CFC8D
:104F1000042A01D10CF0FF0C4FF00008220728D51D
:104F2000702806D0009B83F0100353EA0A0305D0D3
:104F30000EE040228DF80420012208E05CEA010224
:104F400006D030228DF804208DF80500022290460C
:104F5000009B83F0080353EA0A030AD15CEA0102CA
:104F600001D1620705D530228DF804204FF00108E9
:104F70007F1E582804D034A003900EA802900DE0A4
:104F800036A0F9E753466046009AFBF741F984469C
:104F90000398825C0298401E029002705CEA010055
:104FA000F0D1029806A9081A00F1200A600702D57C
:104FB00024F4803400E00127574502DDA7EB0A0006
:104FC00000E0002000EB0A01009005984144401ADF
:104FD0000590E00306D45B462146179A059800F039
:104FE000B3F90544002706E001A85A46C05D1799A9
:104FF00090476D1C7F1C4745F6DBE0030CD55B46F4
:105000002146179A059800F09FF9054404E03020E6
:105010005A46179990476D1C0099481E0090002928
:10502000F5DC08E0029802995A460078491C029182
:10503000179990476D1CBAF10001AAF1010AF1DC41
:1050400065E100000928010030313233343536374C
:1050500038396162636465660000000030313233C4
:105060003435363738394142434445460000000064
:1050700000F058F90544761C307800287FF4ECAD38
:1050800019B02846BDE8F08F620700D4062709F161
:10509000070222F0070CFCE80223E14603F0004877
:1050A0005FEA080C02D00FF2702C0DE05FEA045C9E
:1050B00002D50FF2682C07E05FEAC47C02D00FF241
:1050C000602C01E0AFF2700C4FF0FF3823F000438A
:1050D000CDF850C065280CD006DC452809D04628FC
:1050E0001DD047283DD13DE0662818D067287ED1E5
:1050F00038E00021112F01DB112000E0781CCDE900
:10510000000106A90EA8FFF7DDFCDDE90F010E9AEC
:1051100003910021009207F1010A04914DE04FF044
:1051200000400097CDE9011006A90EA8FFF7CAFCC0
:10513000DDE90F0203920E9B11990022DDF80CA00D
:105140000093049211B9791C00EB010AB7EB0A0035
:1051500004D4C0F1FF3007F1010A0490AAEB070064
:10516000019044E0012F00DA01270021112F01DD19
:10517000112000E03846CDE9000106A90EA8FFF78E
:10518000A1FCDDE90F010E9A039100210491009228
:10519000BA4621070CD40399514500DA8A46BAF180
:1051A000010F05DD009AAAF10101515C302908D0F8
:1051B000B84202DA10F1040F06DA0121CDE901103C
:1051C00015E0AAF10101E9E7002805DC0499014492
:1051D0000491AAEB000102E0411C514500DD8A4622
:1051E0000499401A401C01904FF0004002902007A3
:1051F00004D40198504501DBCDF8048000208DF8DF
:105200004F0002980DF14F07B0F1004F25D02B2031
:105210000E9002984FF0020800280CDA40420290EB
:105220002D200E9007E00A210298FBF747F8303155
:10523000029007F8011DB8F10001A8F10108F2DCA5
:1052400002980028EFD1791E0E980870307800F08F
:10525000200040F0450007F8020D12A8C01B00F125
:1052600007081498007800B1012000EB0A010198AA
:1052700001EBE07105984144401A401E0590E0039F
:1052800006D45B462146179A059800F05DF8054460
:105290001498007818B15A46179990476D1CE0038E
:1052A00024D55B462146179A059800F04DF8054431
:1052B0001CE00498002807DBDDE90301884203DDD8
:1052C0000098405C179901E0179930205A469047A2
:1052D000049805F10105401C04900198401E0190BE
:1052E00004D12E205A46179990476D1CBAF100013F
:1052F000AAF1010ADDDC05E017F8010B5A461799FF
:1053000090476D1CB8F10001A8F10108F4DC5B4680
:105310002146179A0598ABE62D0000002B000000EF
:10532000200000002DE9F041044600251E461746E6
:10533000880404D405E039462020B0476D1C641E63
:10534000F9D52846BDE8F0812DE9F0410446002555
:105350001E469046C80301D5302700E02027880468
:1053600004D505E041463846B0476D1C641EF9D5AA
:105370002846BDE8F0810A68531C0B601070704726
:1053800013B53223012269460248FDF7C2FA00989C
:105390001CBD00000C010020FCF78CF8FEF7D6FACB
:1053A000FDF7AAFFFDF76CFFFEF734F8FEF778F87B
:1053B000FDF716FEFDF74CFFFDF718FB0020FDF78B
:1053C00067FD0020FDF766FE4FF6FF70FDF776FEE5
:1053D000012217491748FDF70BFA17A0FFF73EFB0C
:1053E000184C207A012801D1FDF7C8FB207A022849
:1053F00001D1FDF74BFCFDF70FFBFDF73BFB94EDF7
:10540000060AD4ED050A20EE200AD4ED0A0AB4EE0D
:10541000E00AF1EE10FA02D2E079012805D0FDF79A
:1054200017FF00BFFEF7DEFADBE7FDF7DFFEF9E767
:10543000500000200C01002048484848484848488F
:105440000A0000000800002000000000000000002A
:10545000000000000000000000000000000000004C
:10546000000000000000000000000000000000003C
:1054700000000000000000000000800180018001A9
:105480008001800180018001800180018001800114
:105490008001800100000000800180010000000008
:1054A000000000000000000000000000CC00CC0064
:1054B000CC00CC00CC00CC000000000000000000BC
:1054C00000000000000000000000000000000000DC
:1054D00000000000000000000000000000000000CC
:1054E00000000000600C600C600C30063006FE1FEF
:1054F000FE1F300638071803FE1FFE1F180318038F
:105500008C018C018C01000000008000E003F80F8A
:105510009C0E8C1C8C188C009800F801E007800E03
:10552000801C8C188C189C18B80CF00FE0038000BD
:1055300080000000000000000000000000000E18C5
:105540001B0C110C11061106110311039B018E0196
:10555000C038C06C60446044304430441844186C17
:105560000C380000000000000000E001F0033807E4
:10557000180618063003F001F000F8009C310E33D5
:10558000061E061C061C063FFC73F02100000000EE
:105590000000000000000000000000000C000C00F3
:1055A0000C000C000C000C000000000000000000CB
:1055B00000000000000000000000000000000000EB
:1055C0000000000000000000000000020003800155
:1055D000C000C000600060003000300030003000CB
:1055E000300030003000300060006000C000C000BB
:1055F0008001000300020000000020006000C000E5
:10560000800180010003000300060006000600067A
:10561000000600060006000600030003800180016A
:10562000C00060002000000000000000000000003A
:1056300000000000C000C000D806F807E0013003F9
:10564000380700000000000000000000000000001B
:10565000000000000000000000000000000000004A
:105660000000000080018001800180018001FC3F7A
:10567000FC3F80018001800180018001000000006A
:10568000000000000000000000000000000000001A
:10569000000000000000000000000000000000000A
:1056A00000000000000000000000800180010001F7
:1056B0000001800000000000000000000000000069
:1056C00000000000000000000000000000000000DA
:1056D000E007E007000000000000000000000000FC
:1056E00000000000000000000000000000000000BA
:1056F00000000000000000000000000000000000AA
:1057000000000000000000000000C000C000000019
:1057100000000000000000000000000C000C00066B
:1057200000060006000300030003800380018001DF
:105730008001C000C000C0006000600000000000E8
:1057400000000000000000000000E003F007380E39
:10575000180C0C180C180C180C180C180C180C1829
:105760000C180C18180C380EF007E00300000000AD
:105770000000000000000000000000018001C001E6
:10578000F001980188018001800180018001800181
:105790008001800180018001800180010000000003
:1057A00000000000000000000000E003F80F180CEB
:1057B0000C180C1800180018000C000600038001DB
:1057C000C000600030001800FC1FFC1F000000003B
:1057D00000000000000000000000E001F807180EC3
:1057E0000C0C0C0C000C0006C003C007000C0018C9
:1057F00000180C180C18180CF807E0030000000043
:1058000000000000000000000000000C000E000F6F
:10581000000F800DC00C600C600C300C180C0C0CD0
:10582000FC3FFC3F000C000C000C000C00000000D2
:1058300000000000000000000000F80FF80F180042
:1058400018000C00EC03FC071C0E001C00180018CC
:1058500000180C181C0C180EF807E00300000000DC
:1058600000000000000000000000C007F00F381C1E
:10587000181818000C00CC03EC0F3C0E1C1C0C1864
:105880000C180C18181C380EF007E003000000007C
:1058900000000000000000000000FC1FFC1F000CC6
:1058A00000060006000380038001C001C000E00084
:1058B0006000600070003000300030000000000028
:1058C00000000000000000000000E003F007380EB8
:1058D000180C180C180C3806F007F007180C0C18E8
:1058E0000C180C180C18380CF80FE003000000001E
:1058F00000000000000000000000E003F007380E88
:105900001C0C0C180C180C181C1C381EF81BE01969
:105910000018000C000C1C0EF807F001000000003D
:105920000000000000000000000000000000000077
:105930000000000080018001000000000000000065
:105940000000000000000000800180010000000055
:105950000000000000000000000000000000000047
:105960000000000080018001000000000000000035
:105970000000000000000000800180010001000123
:105980008000000000000000000000000000000097
:1059900000000000000000000010001C800FE00369
:1059A000F8001800F800E003800F001C0010000051
:1059B00000000000000000000000000000000000E7
:1059C0000000000000000000F81F000000000000C0
:1059D000F81F0000000000000000000000000000B0
:1059E00000000000000000000000000000000000B7
:1059F000000000000000000008003800F001C007AF
:105A0000001F0018001FC007F00138000800000048
:105A100000000000000000000000E003F80F180C78
:105A20000C180C180018000C000600038001C000C0
:105A3000C000C00000000000C000C0000000000066
:105A4000000000000000000000000000E00718183F
:105A50000420C229224A1144094409440944092264
:105A60001113E20C024004201818E00700000000A7
:105A70000000000000000000000080038003C0065A
:105A8000C006C006600C600C301830183018F83FA3
:105A9000F83F1C700C600C6006C006C000000000DF
:105AA00000000000000000000000FC03FC0F0C0CD4
:105AB0000C180C180C180C0CFC07FC0F0C180C30F4
:105AC0000C300C300C300C18FC1FFC0700000000E0
:105AD00000000000000000000000C007F01F383880
