:020000040800F2
:1000000070050020ED010008E72C0008BF23000860
:10001000E52C0008B9080008A5420008000000000F
:100020000000000000000000000000005D3100083A
:10003000BB08000800000000E92C00083536000865
:10004000070200080702000807020008070200086C
:10005000070200080702000807020008070200085C
:10006000070200080702000807020008070200084C
:10007000070200080702000807020008070200083C
:10008000070200080000000007020008070200083D
:10009000070200080702000807020008070200081C
:1000A000070200080702000807020008070200080C
:1000B00007020008070200080702000807020008FC
:1000C00007020008070200080702000807020008EC
:1000D000070200089942000807020008070200080A
:1000E00007020008070200080702000807020008CC
:1000F00007020008070200080702000800000000CD
:1001000000000000070200080000000007020008CD
:1001100007020008000000000702000807020008AC
:10012000070200080702000807020008070200088B
:10013000070200080000000000000000070200089D
:10014000070200080702000800000000000000008D
:10015000000000000000000000000000000000009F
:10016000000000000000000000000000070200087E
:10017000070200080000000000000000000000006E
:10018000000000000702000800000000000000005E
:10019000000000000000000000000000000000005F
:1001A000000000000000000007020008070200082D
:1001B000070200080702000807020008000000000C
:1001C000000000000702000800000000000000001E
:1001D0000702000807020008DFF80CD000F0D2FA8E
:1001E00000480047114C0008700500200648804771
:1001F00006480047FEE7FEE7FEE7FEE7FEE7FEE70C
:10020000FEE7FEE7FEE7FEE7AD360008D90100088D
:100210002DE9F05F0546002092469B46884606463B
:10022000814640241BE0284641464746224600F0CE
:10023000F2F853465A46C01A914110D31146184657
:10024000224600F0D9F82D1A67EB01084F462246E6
:100250000120002100F0D0F817EB00094E41201ECC
:10026000A4F10104DFDC484631462A464346BDE896
:10027000F09FD2B201E000F8012B491EFBD270477B
:100280000022F6E710B513460A4604461946FFF762
:10029000F0FF204610BD2DE9F04D81EA030404F083
:1002A000004B21F0004514464FF0000A23F00041B6
:1002B00050EA050220D054EA01021DD0C5F30A57C6
:1002C0000246C5F31303C1F31300C1F30A5640F409
:1002D000801543F48013A7EB0608101BD64608F2DE
:1002E000FD3873EB050002D308F1010801E0921814
:1002F0005B41B8F1000F03DA00200146BDE8F08D44
:1003000000204FF48011064684460EE0171B73EB65
:10031000050705D3121B63EB050306434CEA010CEA
:1003200049084FEA300092185B4150EA0107EDD1CD
:1003300052EA030012D082EA040083EA050108436E
:1003400005D0101BAB4106D20122002306E000229B
:100350004FF0004302E06FF0010253101AEB060069
:100360004CEB085110EB0A0041EB0B01BDE8F04DDE
:1003700000F061B8C1F30A5210B5C1F3130140F2A5
:10038000FF3341F480119A4201DA002010BD40F29F
:1003900033439A42A2F2334203DC524200F03BF86C
:1003A00010BD904010BD00F0004230F000400AD077
:1003B000C10D01F56071C0F3160042EA0151C20897
:1003C00040071143704700200146704730B50B4687
:1003D000014600202022012409E021FA02F59D4275
:1003E00005D303FA02F5491B04FA02F52844151E49
:1003F000A2F10102F1DC30BD202A04DB203A00FA30
:1004000002F1002070479140C2F1200320FA03F36B
:10041000194390407047202A04DB203A21FA02F069
:100420000021704721FA02F3D040C2F1200291402E
:1004300008431946704710B5141E73F1000408DA1A
:10044000401C41F1000192185B411A4301D120F098
:10045000010010BD2DE9F04D92469B4611B1B1FA55
:1004600081F202E0B0FA80F220329046FFF7C4FF3A
:1004700004460F4640EA0A0041EA0B0153465A4639
:10048000084313D0114653EA010019D0C8F14002C5
:100490005046FFF7C0FF05460E46504659464246B5
:1004A000FFF7AAFF084305D0012004E020463946A3
:1004B000BDE8F08D0020054346EAE0762C43374343
:1004C0000A986305E40AA0EB08000022FD0A44EA4A
:1004D00047540A3002D500200146E9E7010510190A
:1004E0006941DDE9084500196941BDE8F04DA2E721
:1004F0002DE9FE4F804681EA0300C00F0C460090B4
:1005000021F0004123F00045B8EB0200A94105D2DB
:100510004046214690461C460B46024623F00040CA
:10052000104347D0270DC7F30A00C3F30A510290C6
:10053000401A019040286BDAC3F3130040F4801B8B
:100540000098924620B10023D2EB030A63EB0B0B19
:1005500001985946C0F140025046FFF74DFF06464C
:100560000D4650465946019A00F01EF910EB08005E
:100570006141002487EA115284EAE7731A4340D0AC
:10058000009A62B3019A012A4FEA075215DC001B58
:1005900061EB02014FF0004202EA0752CDE900424E
:1005A000001C41F5801132462B46FFF753FF03B084
:1005B000BDE8F08F40462146F9E7001B61EB0201E0
:1005C000001C41F5801300185B412018A2F50017AC
:1005D00047EB030140EAD570B6196D4111E06D0893
:1005E0004FEA360645EAC0754FEA0752001B61EB39
:1005F0000201001C41F5801149084FEA3000001942
:10060000514132462B4603B0BDE8F04FFFF713BF10
:100610000098012240000023D0EB020263EBE0735C
:10062000009821464FEAE074B8EB000061EB04014A
:10063000E9E783F000435BE781F0004158E72DE9EB
:10064000FE4F81EA030404F0004421F000410094CD
:100650004FF0000B23F0004350EA01045ED052EA51
:1006600003045BD0C3F30A54C1F30A552C44A4F22B
:10067000F3340194A0FB0254C1F3130141F480113F
:10068000C3F3130343F4801301FB024400FB034E46
:10069000840A970A44EA815447EA8357A4FB07680F
:1006A00002958D0A05FB07854FEA932C04FB0C5439
:1006B0002705029D4FEA065847EA1637B5EB0805AD
:1006C0006EEB070C870E920E47EA811742EA8312FF
:1006D000A7FB0201B6EB0B0164EB00042B0D43EA10
:1006E0000C335E1844EB1C50DA465146E7FB02011E
:1006F000C5F313044FEA0B3343EA14534FEA0432B1
:10070000019C43EA0603A4F10C040294009CCDE989
:1007100000B4FFF79FFE03B0BDE8F08F0020014654
:10072000F9E7C1F30A52C1F3130140F2FF3341F478
:1007300080119A4202DA00200146704740F23343AA
:100740009A42A2F2334202DC5242FFF764BEFFF744
:1007500053BE000030B5041E71F1000404DB4FF0FD
:100760000044404264EB0101141E73F1000405DBF8
:100770001C464FF00043524263EB0403994208BF0A
:10078000904230BD064C074D06E0E06840F00103A2
:1007900094E8070098471034AC42F6D3FFF720FDE9
:1007A000845E0008A45E0008202A06DBCB17203AEE
:1007B00041FA02F043EAE07306E041FA02F3D04066
:1007C000C2F12002914008431946704770B50446B3
:1007D0000068816811F0010F28D18168144A114224
:1007E00015D18168D5432940491C816000F0A4FDE2
:1007F000064616E0816811F0010F03D18168294097
:10080000491C816000F098FD801B022809D9E06D29
:1008100040F01000E065206E40F0010020660120ED
:1008200070BD20680168C943C907E3D1002070BDCD
:100830003F000080184810B50168184CA269891A59
:10084000B1F57A7F26D30068A061154800F0BEFBA1
:10085000134800F08BFA00EE100ADFED120A9FED4C
:10086000121AB8EE400A60EE200A80EE810ADFED2F
:100870000F0A84ED050A20EE200A10EE100AFFF799
:1008800092FD9FED0B1B53EC112BFFF704FDFFF7BF
:1008900071FDE07110BD0000340000200800002050
:1008A000780000203333534000F07F450000C842F9
:1008B0006666666666660A40FEE77047002240F696
:1008C000B83306E00021491C89B29942FBD3521C7F
:1008D00092B28242F6D3704710B5044601F0ECFDA7
:1008E000A02001F0AAFD01F01DFE204601F0A5FDAB
:1008F00001F018FE01F0E0FDA12001F09EFD01F0E5
:1009000011FE01F073FD044601F0BEFD01F0EFFDA4
:10091000204610BD70B50D46044601F0CDFDA02067
:1009200001F08BFD01F0FEFD204601F086FD01F097
:10093000F9FD284601F081FD01F0F4FD01F0D7FD3D
:10094000BDE87040052000F0F7BB70472DE9F84F77
:1009500000270446009790F85800DFF8DC930D4616
:10096000B846012811D0012684F85860206802F0AA
:100970007BF860B1E06D40F02000E0655FF00107BA
:1009800084F858803846BDE8F88F0220FBE7D5E9A7
:1009900000210C23206803EA91131844036B01F033
:1009A0001F014FF01F0C0CFA01FCC2F3846223EA12
:1009B0000C038A4013430363206802F055F8824613
:1009C000206802F04DF85AEA00003CD1AA68296874
:1009D0002068B2F1004F37D002F04AF82068416930
:1009E00021F00041416120686969C268C2F3C10217
:1009F000520091402A69042A31D000EB82002B6812
:100A0000026EDFF838C303F0F84302EA0C020B432E
:100A10001A4342F00041016622682869A96902EB85
:100A20008000026E22F080720A430266297F2068ED
:100A30002A69012910D0002100EB8200026E22F009
:100A400000720A4302667DE0002202F011F820687D
:100A5000416941F00041C5E74FF00071ECE700212A
:100A600001F0F8FF400320684FF0000172D001F060
:100A7000F1FF90FAA0F0B0FA80F1286842036ED03E
:100A800090FAA0F0B0FA80F0814204D10022114621
:100A9000206801F0FCFF0121206801F0DBFF40032A
:100AA00020684FF001015DD001F0D4FF90FAA0F072
:100AB000B0FA80F12868420359D090FAA0F0B0FA59
:100AC00080F0814204D100220121206801F0DFFF83
:100AD0000221206801F0BEFF400320684FF00201B0
:100AE00048D001F0B7FF90FAA0F0B0FA80F1286882
:100AF000420344D090FAA0F0B0FA80F0814204D1D1
:100B000000220221206801F0C2FF0321206801F0C9
:100B1000A1FF400320684FF0030133D001F09AFF9A
:100B200090FAA0F0B0FA80F1286842032FD090FA32
:100B3000A0F0B0FA80F0814204D1002203212068A5
:100B400001F0A5FF2068816811F0010F22D0ACE010
:100B500000E004E001F07EFFC0F384618DE7C0F3A4
:100B6000846091E701F076FFC0F38461A2E7C0F3EF
:100B70008460A6E701F06EFFC0F38461B7E7C0F3BD
:100B80008460BBE701F066FFC0F38461CCE7C0F38B
:100B90008460D0E72A7B296850F8B03FC1F3120C7B
:100BA00023EA0C0302F0180C654A22FA0CF20A4000
:100BB00013430360E968494577D1286841031CD095
:100BC00090FAA0F1B1FA81F1491C01F01F01092945
:100BD0004FEA403132D8002912D000BF90FAA0F17C
:100BE000B1FA81F101F1010101F01F0106FA01F6EC
:100BF00009D100BFC0F3846109E0C0F38461E3E779
:100C0000C0F38461EEE790FAA0F1B1FA81F101F14D
:100C1000010101F01F0146EA816102D1C0F3846045
:100C200003E090FAA0F0B0FA80F000F1010000F0CB
:100C30001F0000EB400041EA005132E000290ED0D5
:100C400090FAA0F1B1FA81F101F1010101F01F0167
:100C500006FA01F606D100BFC0F3846106E0C0F3D6
:100C60008461F1E790FAA0F1B1FA81F101F101019B
:100C700001F01F0146EA816102D1C0F3846003E004
:100C800090FAA0F0B0FA80F000F1010000F01F002F
:100C90002C4A00EB400002EB005041EA000141F019
:100CA0000071AA68206801F0E3FE27482A68024222
:100CB0003FF466AE25488168254B01F0E0719A4209
:100CC00002D0244B9A421BD10B0219D42268B2F1F4
:100CD000A04F7FF455AE826841F4000122F0E0722B
:100CE0000A4382601C481D490068B0FBF1F000EB2C
:100CF0004000800000E0401E00900028FBD13FE64D
:100D0000174D184BAA4207D1CD0105D422689A424B
:100D1000F5D041F0807109E0134DAA42EFD14A02AB
:100D2000EDD422689A42EAD041F48001826822F030
:100D3000E0720A43826023E600007F4000F0FF0378
:100D4000FFFF0700000020FE0000088000030050A5
:100D5000000021C31000C09028000020400D0300B7
:100D6000000052C700010050000084CB0068006CF6
:100D700070470000F8B54FF0000504002E460095BE
:100D800002D0E06D10B107E00120F8BD204600F070
:100D9000EDF8266684F8586020688168C1F34071D8
:100DA00019B18168694A1140816020688168C1F386
:100DB000007179B98168664A114041F080518160C3
:100DC000644865490068B0FBF1F000E0401E009007
:100DD0000028FBD120688168C1F3007141B9E16D41
:100DE00041F01001E165216E41F00101216601250C
:100DF00001F03AFEE16DC90600D430B1E06D40F07B
:100E00001000E06501252846F8BDE06D20F48070F3
:100E100040F00200E0652068806810F0010F11D1F9
:100E20004FF0A04080684D4900F00100896801F052
:100E30000101084306D14A486168826822F47C12A5
:100E40000A438260E168E06B627F0843A16841EA7F
:100E50004231084394F8241040EA0140012904D1AA
:100E6000218D404A02EB41410843E16A29B101F476
:100E70007871226B014342EA01002168CA683A4B4B
:100E80001A400243CA6020680169626B21F0406128
:100E900011430161206801F0E7FD0646206801F07A
:100EA000DFFD30432ED1207F94F83810800340EAD4
:100EB00041022068C16844F2020399431143C160B2
:100EC00020690028206801690AD041F4803101615D
:100ED000206850F8C01F22696FF30D01114307E02D
:100EE00021F480310161206850F8C01F6FF30D01BB
:100EF000016094F8400001280CD02068016921F0BD
:100F000001010161606901282068016B21F00F0176
:100F100011D013E0D4E911010843D4E913121143AD
:100F2000084321680A6940F2FC739A43104340F079
:100F300001000861E6E7226A521E11430163E06D79
:100F400020F0020040F00100E0655CE7C0FFFF5FB9
:100F5000C0FFFF7F28000020400D0300000100506B
:100F6000000300500000FEFF0740F0FF10B586B000
:100F7000044614216846FFF783F911492068884226
:100F80001BD11048C16C41F40051C164C16C01F423
:100F900000510591C16C41F00201C164C06C694609
:100FA00000F0020005904FF40040009003200190F3
:100FB00000200290044800F0D1F806B010BD0000F7
:100FC0000001005000100240000400482DE9F041EB
:100FD00004463848806800F01F05206801F044FD91
:100FE00018B102210846BDE8F08194F858000128A4
:100FF0000CD0012084F858002046FFF7E7FB0100E1
:101000004FF0000304D084F85830EBE70220EAE701
:10101000E06D40F60162904340F48070E065264A3E
:1010200020684FF0A046904201D1374600E00746C5
:10103000874200D01DB9E76D27F48017E765E76D9B
:10104000FF0404D5276E27F00607276600E0236615
:101050001C27076084F858302068904201D133463D
:1010600000E00346834215D0A5B1052D12D0092D0D
:1010700010D0E36D43F48013E365904200D1304615
:10108000C0688001AED5E06D20F4005040F480507F
:10109000E065A7E7C268920105D5E26D22F400522F
:1010A00042F48052E2658268044B1A40121D82604D
:1010B00098E700000003005000010050C0FFFF7FD0
:1010C00070B590F82520002401212346022A07D07C
:1010D0000422C26380F8251080F82430012429E01E
:1010E0000268156825F00E0515600268156825F080
:1010F00001051560826C156825F48075156090F8FF
:101100004420056C02F01F0201FA02F26A60D0E985
:1011100013255560426D32B1156825F48075156050
:10112000D0E91625556080F8251080F82430816BB1
:1011300001B18847204670BD70B5044600F0FCF848
:101140000546601C02D004484068044400F0F4F8EE
:10115000401BA042FAD370BD2C0000202DE9FC4FAB
:10116000DFF8A0A1002301250AF1040B03244FF0AE
:101170000F0C0BF1040EBDE005FA03F632406FD000
:101180004F68012F05D0022F03D0112F01D0122F4D
:1011900017D1D0F808905F0004FA07F829EA080987
:1011A0000097D1F80C8008FA07F848EA0908C0F857
:1011B00008804768B7430E79C6F300169E403E4349
:1011C0004660C6684FEA430804FA08F7BE43019731
:1011D0008F6807FA08F73743C7604E68022E01D0C0
:1011E000122E13D1DE0800EB86060096366A5F07E2
:1011F000FF0E0CFA07F926EA0906D1F8109009FA51
:1012000007F949EA0609009EC6F820900668019F82
:10121000BE430F7907F0030707FA08F73743076063
:101220004E68F60065D5384E376E47F001073766D1
:10123000366E23F0030706F001060096334E3E4457
:10124000B146B6689F074FEA17780CFA08F7BE4315
:10125000B0F1904F05D02E4FB84204D1012717E0CE
:1012600047E0002714E02B4FB84201D102270FE0DE
:10127000294FB84201D103270AE0284FB84201D1D3
:10128000042705E0264FB84201D1052700E00627D4
:1012900007FA08F73743C9F80870DAF800605746CC
:1012A000D1F8048096435FEAC83800D516433E6003
:1012B000DBF800605F46D1F8048096435FEA883827
:1012C00000D516433E60DEF800607746D1F8048012
:1012D00096435FEAC82800D516433E60094F0C3795
:1012E0003E68D1F8048096435FEA882800D516430B
:1012F0003E605B1C0A6832FA03F67FF43DAFBDE83E
:10130000FC8F00000004014000100240000001407A
:101310000004004800080048000C00480010004885
:10132000001400480069084000D0012070470AB14D
:101330008161704781627047014880687047000092
:101340002C00002002488168426811448160704787
:101350002C00002010B50024032000F077F80020B6
:1013600000F008F808B1012401E000F025F820465B
:1013700010BD000070B50E4E05460024706898B18F
:101380004FF47A71B1FBF0F00A490968B1FBF0F053
:1013900000F060FD40B9102D06D200222946501EF3
:1013A00000F034F8356000E00124204670BD0000F4
:1013B0002C000020280000200B4808B5016E41F0E9
:1013C00001010166016E01F001010091816D41F0A2
:1013D00080518165806D00F08050009003488168E5
:1013E00041F48041816008BD00100240007000405F
:1013F000002809DB00F01F02012191404009800014
:1014000000F1E020C0F8001170470000F0B40E4B6E
:101410001B680C46C3F30223C3F10705042D00D952
:101420000425191D072901D2002300E0DB1E012637
:1014300006FA05F1491E214099409E40761E16404D
:101440003143F0BC02F054BF0CED00E0064900F05F
:10145000070208684FF6FF03184040EA0220034ADB
:1014600010430860704700000CED00E00000FA0532
:101470002B492C4B0A6832214A432B4940B1B0F525
:10148000007F086829D020F4C06040F480602CE020
:101490000868C0F34120022804D051F8800F20F4DE
:1014A000807022E0D1F8800020F48070C1F88000C4
:1014B000086820F4C06040F400700860B2FBF3F0EC
:1014C000401C00E0401E4A69520501D50028F9D1B0
:1014D000486940050AD503207047C0F3412002281F
:1014E00006D051F8800F40F48070086000207047EB
:1014F000D1F8800040F48070C1F88000086820F4C2
:10150000C06040F400700860B2FBF3F0401C00E0E3
:10151000401E4A695205DBD50028F9D1D8E7000002
:101520002800002040420F00007000402DE9F843E1
:101530000446006800269D4D00035ED5A86D002777
:10154000C00008D4A86D40F08050A865A86D0127A0
:1015500000F080500090DFF85892D9F8001041F464
:101560008071C9F80010FFF7E7FE804606E000BF73
:10157000FFF7E2FEA0EB080002282BD8D9F8000004
:10158000C005F5D5D5F8900010F4407014D0216C4A
:10159000814211D0D5F89000D5F8901020F4407019
:1015A00041F48031C5F89010D5F8901021F48031C5
:1015B000C5F89010C5F89000C00711D0FFF7BCFE29
:1015C000804641F2883907E0FFF7B6FEA0EB08013C
:1015D000494501D903260BE0D5F890008007F3D5E3
:1015E000D5F89000216C20F440700843C5F89000B5
:1015F0001FB1A86D20F08050A8652078C00707D0E3
:10160000D5F88800616820F003000843C5F8880019
:101610002078800707D5D5F88800A16820F00C0055
:101620000843C5F888002078400707D5D5F888001A
:10163000E16820F030000843C5F8880020780007F2
:1016400007D5D5F88800216920F0C0000843C5F807
:1016500088002078800607D5D5F88800616920F4D5
:1016600040600843C5F888002078400607D5D5F8C3
:101670008800A16920F440500843C5F8880020780C
:10168000000607D5D5F88800E16920F440400843FA
:10169000C5F888002088C00507D5D5F88800216ADC
:1016A00020F440300843C5F888002088800507D51D
:1016B000D5F88800616A20F440200843C5F8880006
:1016C000208840050FD5D5F88800A16A20F4401085
:1016D0000843C5F88800A06AB0F5801F03D1E86808
:1016E00040F48010E860208800050FD5D5F8880008
:1016F000E16A20F440000843C5F88800E06AB0F5CC
:10170000800F03D1E86840F48010E8602088C004AE
:101710000FD5D5F88800216B20F040700843C5F83C
:101720008800206BB0F1807F03D1E86840F480101E
:10173000E86020884FF0006180040ED5D5F888005D
:10174000626B20F040601043C5F88800606B8842EF
:1017500003D1E86840F48010E860208840040ED58A
:10176000D5F88800A26B20F040601043C5F88800CF
:10177000A06B884203D1E86840F48010E8602088BC
:1017800000040FD5D5F88800E16B20F040500843E5
:10179000C5F88800E06BB0F1805F03D1E86840F4E1
:1017A0008030E8603046BDE8F88300000010024059
:1017B000007000402DE9F0470E4605004FF000078D
:1017C00025D0DFF8AC81D8F8000000F00F00B0425F
:1017D0000CD2D8F8001021F00F013143C8F80010E6
:1017E000D8F8000000F00F00B04210D12968614C19
:1017F000C80741F2883A5AD06868DFF87C9103281C
:1018000008D0022820682DD0400500282CDB0120BC
:10181000BDE8F08720688001F9D5E06800F0030298
:10182000E068C0F30310401C032A19D0534A00BFDC
:10183000B2FBF0F0E268C2F306225043E268C2F362
:101840004162521C5200B0FBF2F0484517D9A06823
:1018500010F0F00F0CD0880711D5A86840B10EE049
:10186000474AE5E78003D0E700F0B6F8484506D9D7
:10187000A06820F0F00040F08000A0608027A06801
:10188000696820F003000843A060FFF755FD81461A
:1018900006E000BFFFF750FDA0EB090151453AD823
:1018A000A068696800F00C00B0EB810FF2D12868E5
:1018B000810714D5400703D5A06840F4E060A0601C
:1018C0002878000705D5A06820F4605040F4E06057
:1018D000A060A068A96820F0F000084304E0802F11
:1018E00003D1A06820F0F000A060D8F800104046B6
:1018F00001F00F01B14216D9016821F00F01314307
:101900000160FFF719FD074607E000BFFFF714FD70
:10191000C11B514501D903207AE7D8F8000000F037
:101920000F00B042F2D12878400705D5A068E968D9
:1019300020F4E0600843A0602878000706D5A0687E
:10194000296920F4605040EAC100A06000F044F82A
:10195000A1680C4AC1F30311515C01F01F01C8409A
:101960000949086009480068BDE8F047FFF702BD73
:10197000002002400010024000B4C4040024F4001F
:1019800000366E016C5E0008280000202C0000204C
:101990000548064900688968054AC1F30221515C7F
:1019A00001F01F01C84070472800002000100240CD
:1019B0007C5E00080548064900688968054AC1F34D
:1019C000C221515C01F01F01C8407047280000206F
:1019D000001002407C5E0008184910B58868C0F30A
:1019E00081021748012A0BD08A68164BC2F3810284
:1019F000022A06D08A68C2F38102032A03D000209B
:101A000010BD184610BDCA6802F00304CA68C2F3CC
:101A10000312521C032C02D0B0FBF2F001E0B3FB26
:101A2000F2F0CA68C968C2F306225043C1F34161AB
:101A3000491C4900B0FBF1F010BD0000001002404D
:101A40000024F40000366E012DE9F84304007AD03A
:101A50002078FA4DC00747D0A868E96800F00C006C
:101A600001F003010C2802D0082817D001E0032957
:101A700014D06068B0F5803F17D0B0F5A02F28686B
:101A800017D020F480302860286820F48020286057
:101A90006068E0B1FFF750FC064614E02868800358
:101AA00022D560680028D2D01EE0286840F480303B
:101AB000EDE740F480202860F7E700BFFFF73CFC2B
:101AC000801B642870D828688003F7D50CE0FFF7E6
:101AD00033FC064605E000BFFFF72EFC801B6428A0
:101AE000F0D828688003F7D4207880074CD5A86800
:101AF000E96800F00C0001F003010C2802D0042872
:101B00000DD001E002290AD0E068002828682BD017
:101B100040F480702860FFF70FFC064619E0286843
:101B2000400502D5E068002891D06868217C20F04B
:101B3000FE4040EA01606860C1480068FFF71AFC97
:101B4000002800D120E076E1FFF7F6FB801B022899
:101B5000B8D828684005F7D56868217C20F0FE4099
:101B600040EA016068600FE020F480702860FFF7B1
:101B7000E3FB064605E000BFFFF7DEFB801B022803
:101B8000A0D828684005F7D42078000729D56069D7
:101B90000028D5F8940013D040F00100C5F8940057
:101BA000FFF7CAFB064606E090E000BFFFF7C4FB64
:101BB000801B022886D8D5F894008007F6D510E05F
:101BC00020F00100C5F89400FFF7B6FB064604E0DC
:101BD000FFF7B2FB801B022878D8D5F89400800765
:101BE000F6D42078400761D5A86D0026C00008D43F
:101BF000A86D40F08050A865A86D012600F08050C7
:101C0000009090480168C90511D40168804641F4EC
:101C100080710160FFF790FB074604E0FFF78CFB43
:101C2000C01B022852D8D8F80000C005F6D5A0681D
:101C3000012815D00528D5F8900016D020F0010015
:101C4000C5F89000D5F8900020F00400C5F8900089
:101C5000A06841F28838B8B1FFF76EFB07460EE086
:101C6000D5F8900040F00100F0E740F00400C5F81E
:101C70009000F5E7FFF760FBC11B414526D8D5F87A
:101C800090008007F6D50CE0FFF756FB074604E00E
:101C9000FFF752FBC11B414518D8D5F890008007CB
:101CA000F6D41EB1A86D20F08050A865207880067B
:101CB00029D5A0690028D5F8980013D040F001007C
:101CC000C5F89800FFF738FB064606E077E000BF4E
:101CD000FFF732FB801B022877D8D5F898008007E1
:101CE000F6D510E020F00100C5F89800FFF724FBBE
:101CF000064604E0FFF720FB801B022865D8D5F8D4
:101D000098008007F6D4E069F0B3A968C1F38101B7
:101D1000032961D00228286820F0807028600BD049
:101D2000E86820F00300E860E86847490840E86098
:101D3000FFF702FB04464BE0FFF7FEFA064604E01D
:101D4000FFF7FAFA801B02283FD828688001F7D4F1
:101D5000F4E908016FF00F0202EB01110843218A38
:101D60005204490802EB4151A26841EA02210843AA
:101D7000217D4FF07E42490802EB41610843217BFF
:101D800040EAC160E96800E062E0304A114008437F
:101D9000E860286840F080702860E86840F0807053
:101DA000E860FFF7C9FA044605E000BFFFF7C4FA90
:101DB000001B022809D828688001F7D548E004E014
:101DC000FFF7BAFA001B022802D90320BDE8F88306
:101DD00028688001F4D43BE00128F7D0E868226A43
:101DE00000F00301914226D1616A00F0F00209017E
:101DF000103991421FD1A26A00F4FE41B1EB022FCB
:101E000019D194F82C2000F07841B1EBC26F12D1B7
:101E1000218E00F4C00249084905A1F50011914244
:101E200009D194F8341000F0C06049084906A1F1C6
:101E3000007181420CD00120C8E700000010024070
:101E40002C00002000700040FFFFEEFE0C809F0180
:101E50000020BBE710B5401EB0F1807F01D3012008
:101E600010BD4FF0E02460610F21601702F040FACE
:101E70000020A06107202061002010BD90F87C1098
:101E8000012918D0012180F87C102421C0F880108D
:101E900050F8601B0A680B6823F001030B6022F006
:101EA00000510022426050F8603C1960202101621C
:101EB00002771046704702207047704770B504469D
:101EC00090F87C0001281DD0012084F87C0024209B
:101ED000C4F8800020680568026822F001020260F0
:101EE0002068826822F060620A438260204601F026
:101EF000EBFB206805602020C4F88000002084F8F7
:101F00007C0070BD022070BD70B5044690F87C0066
:101F100001281DD0012084F87C002420C4F8800012
:101F200020680568026822F0010202602068826869
:101F300022F060420A438260204601F0C5FB20681F
:101F400005602020C4F88000002084F87C0070BD6B
:101F5000022070BD70477047704700002DE9F041C6
:101F600003680446D8691A68996810F00F0F4FF09B
:101F7000000569D05E4E02F490770E4037437DD065
:101F8000C70709D0D70507D501271F62D4F88830C5
:101F900043F00103C4F8883083070AD5CB0708D083
:101FA000276802233B62D4F8883043F00403C4F866
:101FB000883043070AD5CB0708D0276804233B6243
:101FC000D4F8883043F00203C4F8883003070CD5F6
:101FD00002F02003334308D0266808233362D4F884
:101FE000883043F00803C4F88830D4F88830002BD8
:101FF0003CD0800609D502F0200001F08051084352
:1020000003D0E16E09B120468847D4F888002168E2
:102010008968490601D400072AD5204601F024FC2E
:102020002068816849061ED5816821F040018160E1
:10203000A06FC0B12F498163A06FFFF741F800285E
:1020400014D0A06F816B0AE0860617D502F0200637
:1020500001F080573E4311D0E16E24E02046BDE8F8
:10206000F04108470AE02046FFF776FFBDE8F0811F
:102070002046FFF771FFC4F88850F7E7C60209D57C
:102080004E0207D54FF4801018622046BDE8F0419B
:10209000FFF761BF060609D502F0800601F40001D2
:1020A0000E4303D0216F0029D8D1DFE741060DD5BB
:1020B00051060BD51968204621F0400119602021F6
:1020C000C4F88010256700F079F9CFE7010206D542
:1020D000510004D52046BDE8F041FFF73BBFC001E9
:1020E000C4D5002AC2DA2046BDE8F041FFF7E5BEBC
:1020F000010000105338000810B5040003D0D4F8D4
:10210000800010B107E0012010BD002084F87C00A1
:10211000204600F027F82420C4F8800020680168D9
:1021200021F001010160204601F0B0FC0128EBD054
:10213000A06A10B1204601F0F9FA2068416821F444
:10214000904141602068816821F02A018160206807
:10215000016841F0010101602046BDE8104001F036
:1021600049BB000010B586B0044614216846FEF74E
:1021700087F817492068884227D11648016E41F434
:1021800080410166016E01F480410591C16C41F00E
:102190000101C164C06C694600F0010005904FF474
:1021A000C060009002200190002002900390072060
:1021B00004904FF09040FEF7D1FF002211462520F9
:1021C000FFF724F92520FFF713F906B010BD000032
:1021D000003801400010024070B5D0F88430202B48
:1021E0006DD1B9B1B2B190F87C30012B67D0012329
:1021F00080F87C308165A0F85C20A0F85E2000218A
:10220000C16683684FF48056FF24B34207D1036947
:1022100013B11CE0012070BD40F2FF131DE07F25CB
:102220009BB1B3F1805F15D0A0F86010C0F88810A2
:102230002223C0F8843003689C6844F001049C6049
:10224000436EB3F1005F0ED027E0036943B9A0F8F5
:102250006040EBE703691BB13F23A0F86030E5E77E
:10226000A0F86050E2E7B0F86830934215D8826871
:10227000B24201D1026972B1124AC26680F87C1082
:1022800001680A6842F480720A600068816841F05F
:10229000805181600FE00C4AEFE78268B24201D1C1
:1022A000026952B1094AC26680F87C100068016870
:1022B00041F490710160002070BD054AF3E70220EF
:1022C00070BD0000ED390008ED3800088D390008B8
:1022D0008D38000810B5012206490748FFF77CFF3A
:1022E0000448064BA0F10E010278487B1A54401CAA
:1022F000487310BD16000020E40000205A000020A2
:102300002DE9F8430446D0F880001F4616460D46D6
:10231000202851D1DDB1D6B194F87C0001284BD0F2
:10232000012084F87C004FF00008C4F88880212048
:10233000C4F880001834FEF7FFFFA6878146E687C1
:1023400054F8100C183CB0F5805F03D004E0012075
:10235000BDE8F883206910B12E46002510E0002664
:102360000EE08021204601F064FFB8B9C6B116F82E
:10237000010B21688862B4F85600401EA4F856008C
:10238000B4F856004B464FF0000200970028E8D101
:102390004FF04001204601F04CFF30B10320D7E759
:1023A00035F8020BC0F30800E3E72020C4F88000F2
:1023B00084F87C800020CBE70220C9E77047FEE765
:1023C00000B585B014216846FDF75AFFC020009083
:1023D0000120019002900220039069460248FEF716
:1023E000BDFE05B000BD00000004004870B5082423
:1023F000002500F07BFE13E06806050E002000F0CB
:102400005DFE142002F0F2FB142002F0EFFB01202D
:1024100000F054FE142002F0E9FB00F05BFE0543DF
:10242000641EE4B2E8D2002000F048FE142002F05E
:10243000DDFB00F07DFE284670BD70B50446082522
:1024400016E000F03BFE142002F0D0FB04F0800008
:1024500000F062FE142002F0C9FB6006040E142096
:1024600002F0C4FB012000F029FE142002F0BEFBA4
:102470006D1EEDB24FF00000E3D200F01FFEBDE88C
:102480007040142002F0B2BB10B5012000F044FEF1
:10249000142002F0ABFB142002F0A8FB012000F096
:1024A0000DFE142002F0A2FB002000F007FEBDE8A4
:1024B0001040142002F09ABB10B5012000F02CFE51
:1024C000142002F093FB012000F0F8FD142002F02C
:1024D0008DFB002000F020FE142002F087FB00207E
:1024E00000F0ECFDBDE81040142002F07FBB10B5F9
:1024F000002000F0E3FD142002F078FB002000F043
:102500000BFE142002F072FB012000F0D7FD142016
:1025100002F06CFB012000F0FFFDBDE8104014202C
:1025200002F064BB10B5052400F0E0FD142002F0B9
:102530005DFB012000F0C2FD142002F057FB05E016
:10254000641EA4B2142002F051FB6CB100F0C2FD75
:102550000028F5D100F0ECFD002000F0AFFD1420C4
:1025600002F044FB002010BD00F0E2FDFFF7BFFFCA
:10257000012010BD00B585B014216846FDF780FE2E
:102580004FF6FF70009000200321CDE90201019079
:1025900069460248FEF7E2FD05B000BD00080048AC
:1025A00000B585B014216846FDF76AFE4FF6FF704E
:1025B00000900120019003200390002002906946C2
:1025C0000248FEF7CBFD05B000BD00000008004842
:1025D00070B5002406462146204600F003F900F0BD
:1025E00041F94FF49635304600F010F9641CAC42C6
:1025F000F9D370BD30B587B014216846FDF740FEB1
:102600001E48C16C41F00401C164C16C01F00401B9
:102610000591C16C41F00101C164C16C01F001017F
:102620000591C16C41F00201C164C06C012500F04C
:10263000020005904FF44870CDE900050024039492
:10264000694602940E48FEF789FD28020394009023
:10265000CDE901544FF0904469462046FEF77EFDD7
:10266000FFF79EFFA06940F48070A0610448183015
:10267000016841F40871016007B030BD00100240EC
:1026800000040048203AD2B2034B02EB420203EBB3
:10269000021200F019B800009C4C0008F0B50E467C
:1026A0000746002540F23F1407E021463846FFF771
:1026B000E9FF103C6D1CA4B2761C3278002A01D0D0
:1026C000142DF2D3F0BD00002DE9F04791468A4663
:1026D0000026044600F086F8DFF84080012700BF9E
:1026E00000F0C0F85FF0000539F8160007FA05F1B0
:1026F0000842404601D1408800E0008800F086F89A
:102700006D1C102DF0D3641CE4B25146204600F03D
:1027100069F8761C182EE3D3BDE8F087000000208E
:1027200010B5FFF767FF002000F014F8084CA080F8
:10273000A088A0F50241303906D000F05FFB0020F0
:1027400000F008F8A08010BD00F0CFFAF7E7000015
:102750000000002070B51D490A6842F400720A604A
:102760000A6842F480720A60184C103C226842F0F9
:1027700020022260164A1060086840F020000860BD
:1027800000BF00BF00BF206840F02000206020682C
:1027900040F480702060FFF7EDFE4FF09041886AB2
:1027A00040F48070886200BF00BF00BF0848001F6F
:1027B000006885B2886940F480708861FFF7F0FE98
:1027C000206840F400702060284670BD280400484E
:1027D0001408004801B5BDF800000149488008BD53
:1027E0000000002010B50C460146202000F068F8DB
:1027F0002146BDE81040212000F062B801B5BDF8C7
:1028000000000149088008BD00000020134A11683B
:1028100041F400711160114910390B6843F4807361
:102820000B600B6843F020030B600D4B18601068C1
:1028300040F02000106000BF00BF00BF086840F0FB
:1028400020000860086840F48070086000BF00BF86
:1028500000BF086840F40070086070472804004812
:10286000140800481449086840F4007008600868BB
:1028700040F48070086010481038026842F020026E
:1028800002600E4B22221A600A6842F020020A609F
:1028900000BF00BF00BF016841F020010160016876
:1028A00041F48071016000BF00BF00BF016841F4C6
:1028B00000710160704700002804004814080048B7
:1028C000184B10B51A6842F400721A601A6842F484
:1028D00080721A60134A103A146844F0200414609D
:1028E000114C2060186840F02000186000BF00BF45
:1028F00000BF106840F020001060106840F4807045
:1029000010602160186840F02000186000BF00BF10
:1029100000BF106840F020001060106840F4807024
:10292000106010BD280400481408004870B5114C10
:10293000114D4FF47A766079012809D02868E16951
:10294000401AB04203D32868E0610120607170BD75
:1029500000F040F8012000F055F82868E169401ABD
:10296000B042F4D32868E06100206071BDE8704097
:1029700000F030B8080000203400002070B5134C7F
:10298000607A05280CD0A079114D012809D028685B
:10299000E169401AC82803D32868E0610120A071CA
:1029A00070BD00F017F8022000F02CF82868E169EB
:1029B000401AC828F4D32868E0610020A071607A2A
:1029C000401C6072BDE8704000F004B808000020B0
:1029D0003400002010B501224FF6FF710748FEF7C2
:1029E000A6FC074C012204212046FEF7A0FC20464D
:1029F0000022BDE810400421FEF799BC0008004801
:102A0000000C004810B5114B114C012815D00228BC
:102A100017D0032819D100224FF480611846FEF721
:102A200086FC012204212046FEF781FC204600227C
:102A3000BDE810400421FEF77ABC00224FF48071FB
:102A4000ECE700224FF40071E8E710BD00080048F1
:102A5000000C004800EB8100006E00F0F840704769
:102A60008068C0F3C00070478068C0F38000704782
:102A7000042303EAD15310B518444369C1F3045148
:102A800007248C40A3438A401343436110BD00EBED
:102A90008100016E21F00041114301667047000082
:102AA00030B5104801240246C17905789278022396
:102AB000A94202D80025057207E04578A94201D84D
:102AC000047202E0914200D80372914201D90321BD
:102AD0000172027B017A8A4200D9C47200D2C372A9
:102AE000017330BD0800002030B589B02021684650
:102AF000FDF7C6FB184817490024C0E9001484609C
:102B0000C46004250461C0E90545047744770121C8
:102B1000016280F82440C462046380F83840C463D2
:102B200080F84040FEF726F908B1FDF70EFF0B488C
:102B300000900620CDE901047F200594CDE903052E
:102B400069460548FDF702FF002801D0FDF7FDFEAC
:102B500009B030BD00010050780000200080F03E38
:102B60002DE9F04F87B014216846FDF789FB3F48F7
:102B7000C16C41F00401C164C16C01F00401059114
:102B8000C16C41F02001C164C16C01F020010591CC
:102B9000C16C41F00101C164C16C01F001010591FA
:102BA000C16C41F00201C164C16C01F002010591E8
:102BB000C16C41F00801C164C06CDFF8B48000F062
:102BC00008004FF6FF740590002221464046FEF7AC
:102BD000AEFB4FF480764FF09049002231464846D4
:102BE000FEF7A5FBDFF88CA0002204215046FEF77B
:102BF0009EFBDFF884B04FF44877002239465846F0
:102C0000FEF795FB0125CDE90045002402946946B5
:102C100040460394FEF7A2FACDE9005469464846BF
:102C20000295FEF79BFA07208DE831006946584669
:102C3000FEF794FA0096CDE901546946484603949C
:102C4000FEF78CFA04200090CDE901546946504605
:102C50000394FEF783FA0097CDE90154694658467C
:102C60000394FEF77BFA07B0BDE8F08F0010024036
:102C700000080048000C004800040048184810B53F
:102C8000164901604FF416514160002181600C2209
:102C9000C160C0E904128161C16101624162816267
:102CA000FFF72AFA08B1FDF750FE00210C48FFF7A4
:102CB0002BF908B1FDF749FE00210948FFF7FEF89E
:102CC00008B1FDF742FE0648FFF7D8F8002803D008
:102CD000BDE81040FDF739BE10BD000000380140CE
:102CE000E4000020FEE77047704730B50121002066
:102CF000FFF7E6FD4FF47A70FDF7E0FD00210120BB
:102D0000FFF7DEFD41F290711020FFF7D9FD4FF47F
:102D10001C516020FFF7D4FD01216120FFF7D0FD99
:102D200002214620FFF7CCFD48F210011320FFF7E7
:102D3000C7FD48F2FE011220FFF7C2FD4FF4A0616B
:102D40000220FFF7BDFD41F230010320FFF7B8FD7F
:102D500040F2033421463020FFF7B2FD21463120F6
:102D6000FFF7AEFD21463220FFF7AAFDE51E2946FA
:102D70003320FFF7A5FD03213420FFF7A1FD2146F5
:102D80003520FFF79DFD14213620FFF799FD2146E0
:102D90003720FFF795FD21463820FFF791FD2146AA
:102DA0003920FFF78DFD29463A20FFF789FD0321E1
:102DB0003B20FFF785FD21463C20FFF781FD4FF4C6
:102DC000A0513D20FFF77CFD4FF400719220FFF7EA
:102DD00077FD21469320FFF773FD40F60D0190200B
:102DE000FFF76EFD41F218010320FFF769FDBDE812
:102DF000304040F273110720FFF762BD10B543F277
:102E00000801E320FFF75CFD1221E720FFF758FDE2
:102E100041F23121EF20FFF753FD00210120FFF7A0
:102E20004FFD4FF4E0610220FFF74AFD41F230010F
:102E30000320FFF745FD00210420FFF741FD40F28C
:102E400007210820FFF73CFD00210920FFF738FD8E
:102E500000210A20FFF734FD00210C20FFF730FD90
:102E600000210D20FFF72CFD00210F20FFF728FD8A
:102E700000211020FFF724FD07211120FFF720FD7E
:102E800000211220FFF71CFD00211320FFF718FD81
:102E9000C820FEF751F941F290611020FFF710FDB4
:102EA00040F227211120FFF70BFD3220FEF744F9F5
:102EB0001D211220FFF704FD3220FEF73DF94FF4EB
:102EC00000611320FFF7FCFC14212920FFF7F8FC18
:102ED0000B212B20FFF7F4FC3220FEF72DF9002107
:102EE0002020FFF7EDFC00212120FFF7E9FC07215E
:102EF0003020FFF7E5FC40F207713120FFF7E0FCDE
:102F000006213220FFF7DCFC40F204713520FFF788
:102F1000D7FC41F604713620FFF7D2FC042137209C
:102F2000FFF7CEFC00213820FFF7CAFC40F2067103
:102F30003920FFF7C5FC40F201713C20FFF7C0FCCF
:102F40000F213D20FFF7BCFC00215020FFF7B8FC0B
:102F5000EF215120FFF7B4FC00215220FFF7B0FC15
:102F600040F23F115320FFF7ABFC4FF41C5160209F
:102F7000FFF7A6FC01216120FFF7A2FC00216A20D7
:102F8000FFF79EFC00218020FFF79AFC00218120A2
:102F9000FFF796FC00218220FFF792FC002183209E
:102FA000FFF78EFC00218420FFF78AFC002185209A
:102FB000FFF786FC10219020FFF782FC0021922071
:102FC000FFF77EFC03219320FFF77AFC4FF4887112
:102FD0009520FFF775FC00219720FFF771FC002179
:102FE0009820FFF76DFC41F218010320FFF768FC01
:102FF000BDE8104040F273110720FFF761BC0000EC
:1030000070B51C4801681C4C2269891A322922D3E8
:103010000068206104F10E0021460378487B0A7A9B
:103020000025C979432B02D0532B06D007E0012895
:1030300005D112A001F038F90CE0012804D0E07AA3
:1030400040B1012808D00AE0A378627821780EA068
:1030500001F02AF9657370BD10A001F025F9E07A3E
:10306000022804D1227AE17910A001F01DF9E5725D
:1030700070BD00003400002008000020433A4825BD
:10308000642B4C25640D0A00533A544C25642B5490
:103090004D25642B544825640D0A0000413A48250B
:1030A000642B4C25642B440D0A000000413A48254E
:1030B000642B4C25642B550D0A00000008B1044810
:1030C00001E003481030016841F0400101607047A1
:1030D0001804004810B580210348FEF723F90128A1
:1030E00000D0002010BD00000004004800B585B0ED
:1030F00014216846FDF7C4F880200090002001905C
:10310000012002900220039069460248FEF726F84B
:1031100005B000BD0004004808B1044801E00348C0
:103120001030016841F080010160704718040048C8
:1031300000B585B014216846FDF7A2F88020009004
:10314000112001900020029002200390694602485D
:10315000FEF704F805B000BD000400487047000009
:1031600070B5FDF767FBFFF79BFC2BA16020FFF715
:1031700095FA29A19020FFF791FA27A1C020FFF727
:103180008DFA4FF6FF70FFF739FB29A12E4801F0A9
:103190009BF82D491820FFF781FA2C4C2CA12A48C6
:1031A000E27901F091F828494820FFF777FA606941
:1031B000FDF7F9F841EC100B2BA153EC102B224832
:1031C00001F082F820497820FFF768FA227A2CA1D2
:1031D0001D4801F079F81C49A820FFF75FFA2E4D31
:1031E00001212846FEF79EF868B91420FDF7A4FFD8
:1031F00001212846FEF796F80028F9D01420FDF7A3
:103200009BFF02202071A07A217A884203D1FFF728
:10321000B5FB207AA07270BD202020202020202025
:10322000202020202020202020202020000000001E
:10323000202020204C6971756964204C6576656C8E
:1032400020202020200000003C000020080000205A
:1032500020204865696768743A2564636D202020E2
:10326000202020202000000020204144433A252E29
:103270003266562020202020202020202000000020
:1032800020204C6576656C3A256420202020202083
:103290002020202020000000000400482DE9F041FB
:1032A000C34CC44D4FF6FF77E0784FF4FC684FF005
:1032B0009046012868D1C0A14820FFF7EFF9BEA1D0
:1032C0007820FFF7EBF9BCA1A820FFF7E7F9384613
:1032D000FFF794FABEA1C44800F0F6FFC2491820D7
:1032E000FFF7DCF94046FFF789FA2278BFA1BE4814
:1032F00000F0EAFFBC496020FFF7D0F93846FFF73D
:103300007DFA6278BFA1B84800F0DEFFB649902090
:10331000FFF7C4F93846FFF771FAA278BFA1B248A7
:1033200000F0D2FFB049C020FFF7B8F904212846C9
:10333000FDF7F8FF88B920785F280ED01420FDF73C
:10334000FBFE04212846FDF7EDFF0028F9D01420EC
:10335000FDF7F2FE2078401D207001213046FDF778
:10336000E1FF88B9207805280ED01420FDF7E4FE8F
:1033700001213046FDF7D6FF0028F9D01420FDF7D3
:10338000DBFE2078401F2070E078022868D18AA1F7
:103390004820FFF783F988A17820FFF77FF986A1FD
:1033A000A820FFF77BF93846FFF728FA88A18E4856
:1033B00000F08AFF8C491820FFF770F93846FFF7B4
:1033C0001DFA227889A1884800F07EFF8649602096
:1033D000FFF764F94046FFF711FA627889A1824845
:1033E00000F072FF80499020FFF758F93846FFF748
:1033F00005FAA27889A17C4800F066FF7A49C020CE
:10340000FFF74CF904212846FDF78CFF88B9607856
:103410005F280ED01420FDF78FFE04212846FDF70B
:1034200081FF0028F9D01420FDF786FE6078401D4A
:10343000607001213046FDF775FF88B96078052876
:103440000ED01420FDF778FE01213046FDF76AFF0B
:103450000028F9D01420FDF76FFE6078401F6070DF
:10346000E078032868D154A14820FFF717F952A14A
:103470007820FFF713F950A1A820FFF70FF938467D
:10348000FFF7BCF952A1584800F01EFF564918201A
:10349000FFF704F93846FFF7B1F9227853A15248F3
:1034A00000F012FF50496020FFF7F8F83846FFF7A8
:1034B000A5F9627853A14C4800F006FF4A499020D4
:1034C000FFF7ECF84046FFF799F9A27853A1464878
:1034D00000F0FAFE4449C020FFF7E0F80421284636
:1034E000FDF720FF88B9A0785F280ED01420FDF7E3
:1034F00023FE04212846FDF715FF0028F9D01420EB
:10350000FDF71AFEA078401DA07001213046FDF79E
:1035100009FF88B9A07805280ED01420FDF70CFE0D
:1035200001213046FDF7FEFE0028F9D01420FDF7FA
:1035300003FEA078401FA07002212846FDF7F2FE8E
:10354000012690B91420FDF7F7FD02212846FDF76A
:10355000E9FE0028F9D01420FDF7EEFDE078401CCC
:10356000C0B2E070042800D1E67001212846FDF7C2
:10357000D9FE00281AD11420FDF7DEFD01212846CE
:10358000FDF7D0FE0028F9D01420FDF7D5FD2671F7
:1035900021780120FDF7BEF961780220FDF7BAF924
:1035A000A178BDE8F0410320FDF7B4B9BDE8F08192
:1035B0000800002000040048202020202020202097
:1035C000202020202020202020202020000000007B
:1035D0002020506172616D65746572205365747549
:1035E00070202020202000003C0000202054687221
:1035F0006573686F6C6420313A202564636D202008
:1036000020200000205468726573686F6C6420325B
:103610003A202564636D2020202000002054687229
:103620006573686F6C6420333A202564636D2020D5
:1036300020200000FDF786BE10B5A4B038216846F2
:10364000FCF71EFE14211FA8FCF71AFE44210EA849
:10365000FCF716FE4FF40070FDF70AFF0120009002
:103660000004019002200324CDE907041421CDE9D0
:103670000A100C900D9009946846FEF7E5F90F20AA
:10368000CDE91F0400242194229403211FA8239430
:10369000FEF790F848F20100CDE90E0440071D90B6
:1036A0000EA8FDF743FF24B010BD000005480168D7
:1036B00041F47001016003494FF0006080390860F7
:1036C0007047000088ED00E03FB514A1D1E900216A
:1036D000CDE9002113A2D2E90012CDE90212416E18
:1036E000B9B1026891689268C1F34261520F1DF846
:1036F0000240E50002ACA25CB5FBF2F2A0F86A2041
:103700001DF80120615CD200B2FBF1F1A0F8681055
:103710003FBD0121A0F86A10F8E700000101010394
:1037200007010000080402040801010190F82810B4
:10373000C90706D001684A68C36A22F400321A43F6
:103740004A6090F82810890706D501684A68036B1B
:1037500022F480321A434A6090F82810490706D5AF
:1037600001684A68436B22F480221A434A6090F849
:103770002810090706D501684A68836B22F40042C5
:103780001A434A6090F82810C90606D501688A686D
:10379000C36B22F480521A438A6090F8281089067D
:1037A00006D501688A68036C22F400521A438A60C5
:1037B00090F82810490611D501684A68436C22F434
:1037C00080121A434A60416CB1F5801F06D101682E
:1037D0004A68836C22F4C0021A434A6090F82810A9
:1037E000090606D501684A68C06C22F4002202432B
:1037F0004A607047F8B500260446C0F88860FDF7B7
:103800009BFD0546206800686FF07E47000708D5DD
:103810002B4600224FF400112046009700F009FDCE
:1038200060B92068006840070AD52B4600224FF493
:1038300080012046009700F0FCFC08B10320F8BD91
:103840002020C4F88000C4F8840084F87C60002044
:10385000F8BD10B5806A0021A0F85E10A0F85610DF
:10386000FEF77AFB10BD000001680A6822F490722E
:103870000A6001688A68044B1A408A602021C0F8F7
:1038800084100021C1667047FEFFFFEF10B5B0F84D
:103890006020D0F884300168222B04D0886940F081
:1038A0000800886110BD496A836D11401980816DDF
:1038B000891C8165B0F85E10491EA0F85E10B0F852
:1038C0005E100029EED101680A6822F490720A6045
:1038D00001688A6822F001028A602021C0F8841001
:1038E0000021C166FEF7F6FC10BD000070B504466D
:1038F000B0F86060D0F88400222805D02068816983
:1039000041F00801816170BDB4F8685023E020687F
:10391000406AA16D30400880A06D801CA065B4F89D
:103920005E00401EA4F85E00B4F85E0088B920680E
:10393000016821F48071016020688168114A11409A
:1039400081602020C4F884000020E0662046FEF755
:10395000C1FC6D1EADB2002DD9D1B4F85E000028B7
:10396000D1D0B4F868108142CDD92068816821F0A7
:10397000805181600448E0662068016841F02001C0
:10398000016070BDFEFFFFEF8D38000810B5B0F884
:103990006020D0F884300168222B04D0886940F080
:1039A0000800886110BD496A1140826D1170816DF7
:1039B000491C8165B0F85E10491EA0F85E10B0F891
:1039C0005E100029EED101680A6822F490720A6044
:1039D00001688A6822F001028A602021C0F8841000
:1039E0000021C166FEF776FC10BD000070B50446EC
:1039F000B0F86060D0F88400222805D02068816982
:103A000041F00801816170BDB4F8685023E020687E
:103A1000406AA16D30400870A06D401CA065B4F8EC
:103A20005E00401EA4F85E00B4F85E0088B920680D
:103A3000016821F48071016020688168114A114099
:103A400081602020C4F884000020E0662046FEF754
:103A500041FC6D1EADB2002DD9D1B4F85E00002836
:103A6000D1D0B4F868108142CDD92068816821F0A6
:103A7000805181600448E0662068016841F02001BF
:103A8000016070BDFEFFFFEF8D3900082DE9F05F8A
:103A90000446016880682369E56918436369002763
:103AA0002B431843636EFA4A03430868F94D2840D4
:103AB0001843086020684168E36821F440511943C5
:103AC00041602168A069914201D0236A18438B6844
:103AD000F14D2B4003438B602068C16A636A21F07B
:103AE0000F011943C162ED4B2068ED4998420DD199
:103AF000D1F8881011F0030106D001295AD002290B
:103B000056D003293FD157E001253DE0E54B9842CF
:103B10000BD1D1F8881011F00C0147D0042949D0FD
:103B2000082945D00C292ED146E0DF4B98420BD115
:103B3000D1F8881011F0300138D010293AD020295E
:103B400036D030291FD137E0D84B98420BD1D1F86D
:103B5000881011F0C00129D040292BD0802927D00E
:103B6000C02910D128E090420DD1D1F8881011F46D
:103B700040611BD0B1F5806F1CD0B1F5006F17D03C
:103B8000B1F5406F18D01025DFF824A34FF48076EC
:103B90004FF000094FF4004B90426ED175B1022DE9
:103BA00029D0042D59D0082D68D176E00025EBE707
:103BB0000225E9E70425E7E70825E5E7FDF7E8FE44
:103BC0004DE0012851D0022851D0032851D00428BB
:103BD00051D0052853D0062853D0072853D00828A1
:103BE00053D0092853D00A2853D00B2853D03AE099
:103BF000B1FBF0F06CE0606AA8B1012817D0022890
:103C000017D0032817D0042817D0052817D0062866
:103C100017D0072817D0082817D0092817D00A2846
:103C200017D00B2817D00120BAFBF0F050E002208B
:103C3000FAE70420F8E70620F6E70820F4E70A2070
:103C4000F2E70C20F0E71020EEE72020ECE7402020
:103C5000EAE78020E8E73046E6E7FDF7BDFE0146EB
:103C6000606A0028ADD10120C2E70220C0E704202D
:103C7000BEE70620BCE70820BAE761E14AE00A2077
:103C8000B6E70C20B4E71020B2E72020B0E74020D0
:103C9000AEE78020ACE73046AAE7606AA8B1012809
:103CA00022D0022822D0032822D0042822D005289E
:103CB00022D0062822D0072822D0082822D009287E
:103CC00022D00A2822D00B2822D00120BBFBF0F002
:103CD000002820D06168884601EB4101814219D853
:103CE000B0EB083F16D817E00220EFE70420EDE71D
:103CF0000620EBE70820E9E70A20E7E70C20E5E7E4
:103D00001020E3E72020E1E74020DFE78020DDE727
:103D10003046DBE7012739E27DB3022D61D0042D67
:103D20007DD0082DF6D1606AA8B1012878D002288C
:103D300077D0032876D0042875D0052874D00628BB
:103D400073D0072872D0082871D0092870D00A28AB
:103D50006FD00B2800D0012632464D46002358462E
:103D60000021FCF755FA090241EA106102024FEA0C
:103D7000580010186941424670E0FFE7FDF708FE61
:103D80000146606AA8B1012817D0022817D003287D
:103D900017D0042817D0052817D0062817D00728D1
:103DA00017D0082817D0092817D00A2817D00B28B1
:103DB00000D0012632464D468CE00226FAE7042662
:103DC000F8E70626F6E70826F4E70A26F2E70C26C7
:103DD000F0E71026EEE72026ECE74026EAE780260B
:103DE000E8E7606AA8B1012824D0022824D003287B
:103DF00024D0042824D0052824D0062824D007283D
:103E000024D0082824D0092824D00A2824D00B281C
:103E100000D0012632464D4600235046A0E726E05A
:103E20007AE07BE07CE07DE07EE07FE080E081E0A6
:103E300082E083E00226EDE70426EBE70626E9E7C9
:103E40000826E7E70A26E5E70C26E3E71026E1E780
:103E50002026DFE74026DDE78026DBE70023FCF7AE
:103E6000D7F9144AA0F54071914271D952E7FDF794
:103E7000B3FD0146606A50B3012839D0022839D019
:103E8000032839D0042839D0052839D0062813E072
:103E900000800040F369FFCFFFF4FF1100380140BC
:103EA000001002400044004000480040004C004028
:103EB0000024F400FFFC0F0024D0072824D0082899
:103EC00024D0092824D00A2824D00B2800D0012689
:103ED0004D463246002308461946FCF799F9090277
:103EE000626841EA10610302500818186941B5E799
:103EF0000226EDE70426EBE70626E9E70826E7E7D2
:103F00000A26E5E70C26E3E71026E1E72026DFE7AF
:103F10004026DDE78026DBE702261DE704261BE7B7
:103F2000062619E7082617E70A2615E70C2613E7E1
:103F3000102611E720260FE740260DE780260BE725
:103F4000E0694FF6EF78584570D1092D8ED200E028
:103F50001AE1DFE805F006093C0580050505830048
:103F6000D8E6FDF715FD01E0FDF724FD0146606A86
:103F7000A8B1012815D0022815D0032815D004288F
:103F800015D0052815D0062815D0072815D00828E3
:103F900015D0092815D00A2815D00B2814D00126D1
:103FA00012E0022610E004260EE006260CE00826A9
:103FB0000AE00A2608E00C2606E0102604E0202687
:103FC00002E0402600E08026B1FBF6F01AE0606ACD
:103FD000A8B101282BD002282BD003282BD00428ED
:103FE0002BD005282BD006282BD007282BD008282B
:103FF0002BD009282BD00A282BD00B2800D0012643
:10400000BAFBF6F04100606801EB5001B1FBF0F043
:1040100080B2A0F110014145A2D84FF6F0710140E5
:10402000C0F3420001432068C160AFE046E00226D1
:10403000E6E70426E4E70626E2E70826E0E70A26A4
:10404000DEE70C26DCE71026DAE72026D8E7402654
:10405000D6E78026D4E7FDF7BFFC87E7606AA8B102
:10406000012817D0022817D0032817D0042817D00A
:10407000052817D0062817D0072817D0082817D0EA
:10408000092817D00A2817D00B2800D00126BBFB1F
:10409000F6F0B7E70226FAE70426F8E70626F6E781
:1040A0000826F4E70A26F2E70C26F0E71026EEE7EA
:1040B0002026ECE74026EAE78026E8E7092DBFF452
:1040C000D5AEDFE805F006093C0583050505860049
:1040D00020E6FDF75DFC01E0FDF76CFC0146606A3F
:1040E000A8B1012815D0022815D0032815D004281E
:1040F00015D0052815D0062815D0072815D0082872
:1041000015D0092815D00A2815D00B2814D001265F
:1041100012E0022610E004260EE006260CE0082637
:104120000AE00A2608E00C2606E0102604E0202615
:1041300002E0402600E08026B1FBF6F11AE0606A5A
:10414000A8B101282ED002282ED003282ED0042872
:104150002ED005282ED006282ED007282ED00828AD
:104160002ED009282ED00A282ED00B2800D00126C8
:10417000BAFBF6F1606801EB5001B1FBF0F080B2E0
:10418000A0F110014145A3D82168C8600120A4F81E
:104190006A0024F8680F3846C4F80490C4F8089000
:1041A000BDE8F09F0226E3E70426E1E70626DFE705
:1041B0000826DDE70A26DBE70C26D9E71026D7E735
:1041C0002026D5E74026D3E78026D1E7FDF704FC7B
:1041D00084E7606AA8B1012817D0022817D0032805
:1041E00017D0042817D0052817D0062817D007287D
:1041F00017D0082817D0092817D00A2817D00B285D
:1042000000D00126BBFBF6F1B4E70226FAE704264C
:10421000F8E70626F6E70826F4E70A26F2E70C2672
:10422000F0E71026EEE72026ECE74026EAE78026B6
:10423000E8E72DE9F041984617460E460446069DEC
:1042400008E0681C06D0FDF777F8A0EB0800A8424C
:104250000BD855B12068C06936EA000019D000209B
:10426000B842EED00020BDE8F0812068016821F45A
:10427000D07101602068816821F0010181602020F7
:10428000C4F88000C4F88400002084F87C00032077
:10429000E9E70120E4E700000148FDF75FBE000008
:1042A000E4000020FEE700000FB4054B10B503A9A1
:1042B000044A029800F0FEF810BC5DF814FB000000
:1042C000F94B0008380000200FB4084B10B504A9C2
:1042D00002AA039800F0EEF8044602A9002000F0BC
:1042E00080FC204610BC5DF814FB0000E34B000886
:1042F0000907090E002804DB00F1E02080F8001413
:10430000704700F00F0000F1E02080F8141D7047A6
:1043100002E008C8121F08C1002AFAD1704770478E
:10432000002001E001C1121F002AFBD170470000EC
:104330002DE9FF5F82B00021DDE90430020DDDF8D8
:1043400040B0034318D044F61050A2F2FF3242436B
:104350001514119801281FD0A5EB0B00401C5FEA33
:10436000000A4FF000064E4FDFF83891B046504635
:1043700015D5CAF1000413E0119801244AA30128BD
:1043800001D16FEA0B010298119AC0E90031C0E92E
:10439000024206B0BDE8F09FCBF10000DFE7044623
:1043A0000021404A491842EB0450CDE9001012E0C8
:1043B000E00707D032463B4640464946FCF73FF906
:1043C0008046894632463B4610461946FCF737F987
:1043D00006460F466410002CEAD1DDE90401DDE950
:1043E0000023BAF1000F06DAFCF729F942464B46E2
:1043F000FCF725F905E0FBF74EFF42464B46FBF77D
:104400004AFF04460E460022284BFCF7A3F903D8C6
:104410004FF0FF30014607E00022254B2046314691
:10442000FCF766F8FCF77DF9102409E0002C0ADBA4
:104430000A220023FBF7ECFE039B30321A55641E60
:1044400050EA0102F2D1641C039AC4F1110314442E
:10445000119A012A03D0012208430DD10AE0084332
:1044600004D000204FF0110B119072E7A3EB0B0565
:104470006D1E0DE05B4504DD4FF0000205F1010506
:1044800004E003DA4FF00002A5F10105002AECD0A8
:1044900002981199C0E90231C0E9004579E70000AE
:1044A000000014400000F03F300000000000F04326
:1044B0000000E03F2DE9FF4F95B09B468946064638
:1044C00000250FE2252877D100242746F84A01214C
:1044D000059400E0044316F8013F203B01FA03F085
:1044E0001042F7D130782A2811D06FF02F0330789E
:1044F000A0F13002092A16D8059A44F0020402EB12
:10450000820203EB42021044761C0590EFE759F853
:10451000042B0592002A03DA504244F4005405901B
:1045200044F00204761C30782E2816D116F8010FBC
:1045300044F004042A280DD06FF02F023078A0F147
:104540003003092B09D807EB870302EB4303C71895
:10455000761CF3E759F8047B761C30786C280FD072
:1045600006DC4C2817D068280DD06A2814D104E046
:10457000742810D07A280FD10DE044F400140AE01A
:1045800044F4801401E044F440147278824202D171
:1045900004F58014761C761C307866280BD013DC6A
:1045A000582877D009DC002875D04528F6D0462851
:1045B000F4D047281AD19DE118E0632835D064284B
:1045C00079D0652812D195E1702873D008DC67286E
:1045D000F1D069286FD06E280DD06F2806D1B5E0D4
:1045E00073282CD0752875D0782874D05A4617991E
:1045F00090476D1C75E1C4F30250022809D00328CE
:104600000DD0D9F8001004280DD00D6009F104096F
:1046100067E1D9F80010EA17C1E90052F6E7D9F8C6
:1046200000100D80F2E70D70F0E719F8041B8DF80B
:10463000001000208DF80100EA46012003E059F83F
:1046400004AB4FF0FF3061074FF0000102D40DE0E2
:1046500008F101018846B9420FDA8045F8DB1AF803
:1046600008100029F4D108E008F1010188468142D0
:10467000FADB1AF808100029F6D105985B46A0EB82
:10468000080721463846179A00F094FA284400EBB0
:10469000080507E04DE029E10DE01AF8010B5A4644
:1046A00017999047B8F10108F7D25B462146384682
:1046B000179A13E142E00A220092C4F302524FF02B
:1046C000000A022A08D059F804CB032A4FEAEC71F9
:1046D0000AD00DE029E02AE009F1070121F00702E4
:1046E000F2E802C1914609E00FFA8CFC4FEAEC7146
:1046F000042A03D14FFA8CFC4FEAEC71002907DA47
:104700000A460021DCF1000C61EB02012D2202E0DF
:10471000220504D52B228DF80420012203E0E207B4
:1047200001D02022F7E7904659E00A2102E010224A
:104730000DE010214FF0000A00910BE010224FF025
:10474000000A44F004040827009203E008224FF016
:10475000000A0092C4F30252022A05D059F804CB91
:104760000021032A08D009E009F1070121F007021E
:10477000F2E802C1914605E01FFA8CFC042A01D13F
:104780000CF0FF0C4FF00008220728D5702806D047
:10479000009B83F0100353EA0A0305D00EE0402289
:1047A0008DF80420012208E05CEA010206D03022E4
:1047B0008DF804208DF8050002229046009B83F0BE
:1047C000080353EA0A030AD15CEA010201D1620735
:1047D00005D530228DF804204FF001087F1E58289F
:1047E00004D034A003900EA802900DE036A0F9E7A3
:1047F00053466046009AFBF70BFD84460398825CA3
:104800000298401E029002705CEA0100F0D102980A
:1048100006A9081A00F1200A600702D524F48034A2
:1048200000E00127574502DDA7EB0A0000E0002069
:1048300000EB0A01009005984144401A0590E003FE
:1048400006D45B462146179A059800F0B3F9054453
:10485000002706E001A85A46C05D179990476D1CD5
:104860007F1C4745F6DBE0030CD55B462146179AD3
:10487000059800F09FF9054404E030205A46179946
:1048800090476D1C0099481E00900029F5DC08E057
:10489000029802995A460078491C0291179990474C
:1048A0006D1CBAF10001AAF1010AF1DC65E100001A
:1048B00009280100303132333435363738396162F6
:1048C00063646566000000003031323334353637BA
:1048D00038394142434445460000000000F058F991
:1048E0000544761C307800287FF4ECAD19B02846DA
:1048F000BDE8F08F620700D4062709F1070222F015
:10490000070CFCE80223E14603F000485FEA080CCC
:1049100002D00FF2702C0DE05FEA045C02D50FF2BA
:10492000682C07E05FEAC47C02D00FF2602C01E043
:10493000AFF2700C4FF0FF3823F00043CDF850C0B9
:1049400065280CD006DC452809D046281DD047280C
:104950003DD13DE0662818D067287ED138E000219F
:10496000112F01DB112000E0781CCDE9000106A920
:104970000EA8FFF7DDFCDDE90F010E9A039100217F
:10498000009207F1010A04914DE04FF000400097BA
:10499000CDE9011006A90EA8FFF7CAFCDDE90F0258
:1049A00003920E9B11990022DDF80CA00093049253
:1049B00011B9791C00EB010AB7EB0A0004D4C0F16D
:1049C000FF3007F1010A0490AAEB0700019044E0D0
:1049D000012F00DA01270021112F01DD112000E055
:1049E0003846CDE9000106A90EA8FFF7A1FCDDE9D4
:1049F0000F010E9A0391002104910092BA462107FB
:104A00000CD40399514500DA8A46BAF1010F05DD4D
:104A1000009AAAF10101515C302908D0B84202DAAB
:104A200010F1040F06DA0121CDE9011015E0AAF119
:104A30000101E9E7002805DC049901440491AAEB8F
:104A4000000102E0411C514500DD8A460499401AEC
:104A5000401C01904FF000400290200704D40198C0
:104A6000504501DBCDF8048000208DF84F000298FE
:104A70000DF14F07B0F1004F25D02B200E9002987A
:104A80004FF0020800280CDA404202902D200E90D0
:104A900007E00A210298FBF799FC3031029007F8F1
:104AA000011DB8F10001A8F10108F2DC029800280C
:104AB000EFD1791E0E980870307800F0200040F099
:104AC000450007F8020D12A8C01B00F10708149852
:104AD000007800B1012000EB0A01019801EBE071C0
:104AE00005984144401A401E0590E00306D45B46F9
:104AF0002146179A059800F05DF80544149800784F
:104B000018B15A46179990476D1CE00324D55B46AF
:104B10002146179A059800F04DF805441CE00498CA
:104B2000002807DBDDE90301884203DD0098405CD3
:104B3000179901E0179930205A469047049805F1DB
:104B40000105401C04900198401E019004D12E20C4
:104B50005A46179990476D1CBAF10001AAF1010A53
:104B6000DDDC05E017F8010B5A46179990476D1CDC
:104B7000B8F10001A8F10108F4DC5B462146179A60
:104B80000598ABE62D0000002B000000200000007F
:104B90002DE9F041044600251E461746880404D43A
:104BA00005E039462020B0476D1C641EF9D5284623
:104BB000BDE8F0812DE9F041044600251E469046EF
:104BC000C80301D5302700E02027880404D505E07C
:104BD00041463846B0476D1C641EF9D52846BDE8ED
:104BE000F0810A68531C0B6010707047002100E0D0
:104BF000491C8142FCD3704713B532230122694618
:104C00000248FDF77DFB00981CBD0000E400002079
:104C1000FCF7A0FBFEF710FDFDF7A2FFFDF764FF18
:104C2000FEF72CF8FDF77CFDFDF7D4FEFDF7C8FB81
:104C30000020FDF7CDFC0020FDF7CCFD4FF6FF7006
:104C4000FDF7DCFD0120FBF747FE0220FBF744FEE9
:104C50000320FBF741FE0BA0FFF726FB01220D49C5
:104C60000D48FDF7B9FA0B4C0E3C2079012804D011
:104C7000FEF714FBFEF7C4F9F7E7FEF771FAFDF74C
:104C800055FEF7E748656C6C6F20576F726C640DCA
:104C90000A00000016000020E400002000000000D0
:104CA0000000000000000000000000000000000004
:104CB00000000000000000000000000000000000F4
:104CC0000000000000000000000000000000800163
:104CD00080018001800180018001800180018001CC
:104CE00080018001800180010000000080018001BE
:104CF00000000000000000000000000000000000B4
:104D0000CC00CC00CC00CC00CC00CC0000000000DB
:104D10000000000000000000000000000000000093
:104D20000000000000000000000000000000000083
:104D30000000000000000000600C600C600C3006F9
:104D40003006FE1FFE1F300638071803FE1FFE1F29
:104D5000180318038C018C018C01000000008000F6
:104D6000E003F80F9C0E8C1C8C188C009800F80146
:104D7000E007800E801C8C188C189C18B80CF00F63
:104D8000E003800080000000000000000000000040
:104D900000000E181B0C110C110611061103110353
:104DA0009B018E01C038C06C604460443044304484
:104DB0001844186C0C380000000000000000E001EE
:104DC000F0033807180618063003F001F000F80069
:104DD0009C310E33061E061C061C063FFC73F02198
:104DE00000000000000000000000000000000000C3
:104DF0000C000C000C000C000C000C00000000006B
:104E000000000000000000000000000000000000A2
:104E10000000000000000000000000000000000290
:104E200000038001C000C00060006000300030005E
:104E30003000300030003000300030006000600092
:104E4000C000C0008001000300020000000020003C
:104E50006000C0008001800100030003000600061E
:104E60000006000600060006000600060003000318
:104E700080018001C00060002000000000000000F0
:104E80000000000000000000C000C000D806F807C5
:104E9000E0013003380700000000000000000000BF
:104EA0000000000000000000000000000000000002
:104EB00000000000000000008001800180018001EE
:104EC0008001FC3FFC3F8001800180018001800166
:104ED00000000000000000000000000000000000D2
:104EE00000000000000000000000000000000000C2
:104EF0000000000000000000000000000000800131
:104F0000800100010001800000000000000000009E
:104F10000000000000000000000000000000000091
:104F200000000000E007E0070000000000000000B3
:104F30000000000000000000000000000000000071
:104F40000000000000000000000000000000000061
:104F50000000000000000000000000000000C00091
:104F6000C000000000000000000000000000000C75
:104F7000000C000600060006000300030003800387
:104F8000800180018001C000C000C000600060009E
:104F90000000000000000000000000000000E0032E
:104FA000F007380E180C0C180C180C180C180C18EC
:104FB0000C180C180C180C18180C380EF007E0031D
:104FC00000000000000000000000000000000001E0
:104FD0008001C001F00198018801800180018001F9
:104FE00080018001800180018001800180018001B9
:104FF0000000000000000000000000000000E003CE
:10500000F80F180C0C180C1800180018000C0006EB
:1050100000038001C000600030001800FC1FFC1F6E
:105020000000000000000000000000000000E0019F
:10503000F807180E0C0C0C0C000C0006C003C0077F
:10504000000C001800180C180C18180CF807E003D6
:105050000000000000000000000000000000000C44
:10506000000E000F000F800DC00C600C600C300CA7
:10507000180C0C0CFC3FFC3F000C000C000C000C4E
:105080000000000000000000000000000000F80F19
:10509000F80F180018000C00EC03FC071C0E001C95
:1050A0000018001800180C181C0C180EF807E00364
:1050B0000000000000000000000000000000C00729
:1050C000F00F381C181818000C00CC03EC0F3C0E25
:1050D0001C1C0C180C180C18181C380EF007E003D8
:1050E0000000000000000000000000000000FC1FA5
:1050F000FC1F000C00060006000380038001C001B5
:10510000C000E0006000600070003000300030003F
:105110000000000000000000000000000000E003AC
:10512000F007380E180C180C180C3806F007F007AA
:10513000180C0C180C180C180C18380CF80FE0038D
:105140000000000000000000000000000000E0037C
:10515000F007380E1C0C0C180C180C181C1C381EF0
:10516000F81BE0190018000C000C1C0EF807F001E9
:10517000000000000000000000000000000000002F
:10518000000000000000000080018001000000001D
:10519000000000000000000000000000800180010D
:1051A00000000000000000000000000000000000FF
:1051B00000000000000000008001800100000000ED
:1051C00000000000000000000000000080018001DD
:1051D000000100018000000000000000000000004D
:1051E0000000000000000000000000000010001C93
:1051F000800FE003F8001800F800E003800F001CA7
:10520000001000000000000000000000000000008E
:10521000000000000000000000000000F81F000077
:1052200000000000F81F0000000000000000000067
:10523000000000000000000000000000000000006E
:10524000000000000000000000000000080038001E
:10525000F001C007001F0018001FC007F001380050
:105260000800000000000000000000000000E00353
:10527000F80F180C0C180C180018000C000600038E
:105280008001C000C000C00000000000C000C000DD
:10529000000000000000000000000000000000000E
:1052A000E00718180420C229224A1144094409447D
:1052B000094409221113E20C024004201818E007E7
:1052C000000000000000000000000000000080035B
:1052D0008003C006C006C006600C600C3018301891
:1052E0003018F83FF83F1C700C600C6006C006C018
:1052F0000000000000000000000000000000FC03AF
:10530000FC0F0C0C0C180C180C180C0CFC07FC0FE8
:105310000C180C300C300C300C300C18FC1FFC0737
:105320000000000000000000000000000000C007B6
:10533000F01F38381C300C700660060006000600AE
:1053400006000600060006600C701C30F01FE00727
:105350000000000000000000000000000000FE034C
:10536000FE0F060E06180618063006300630063008
:1053700006300630063006180618060EFE0FFE032D
:105380000000000000000000000000000000FC3FE2
:10539000FC3F0C000C000C000C000C00FC1FFC1F60
:1053A0000C000C000C000C000C000C00FC3FFC3F3F
:1053B0000000000000000000000000000000F83FB6
:1053C000F83F18001800180018001800F81FF81F00
:1053D000180018001800180018001800180018000D
:1053E0000000000000000000000000000000E00FCE
:1053F000F83F3C780E6006E007C00300030003FEA0
:1054000003FE03C007C006C00EC03CF0F83FE00F2B
:1054100000000000000000000000000000000C3050
:105420000C300C300C300C300C300C30FC3FFC3F9E
:105430000C300C300C300C300C300C300C300C308C
:1054400000000000000000000000000000008001DB
:105450008001800180018001800180018001800144
:105460008001800180018001800180018001800134
:105470000000000000000000000000000000000626
:1054800000060006000600060006000600060006EC
:10549000000600060006180618063807F003E001AB
:1054A00000000000000000000000000000000630C6
:1054B0000618060C060606038601C600660076007E
:1054C000DE008E0106030606060C0618063006608E
:1054D00000000000000000000000000000001800B4
:1054E00018001800180018001800180018001800FC
:1054F000180018001800180018001800F81FF81FEE
:1055000000000000000000000000000000000EE0AD
:105510001EF01EF01EF036D836D836D836D866CCF7
:1055200066CC66CCC6C6C6C6C6C6C6C686C386C355
:1055300000000000000000000000000000000C302F
:105540001C303C303C306C306C30CC30CC308C314A
:105550000C330C330C360C360C3C0C3C0C380C3039
:105560000000000000000000000000000000E00754
:10557000F81F1C380E70066003C003C003C003C0D0
:1055800003C003C003C006600E701C38F81FE0079C
:105590000000000000000000000000000000FC0F00
:1055A000FC1F0C380C300C300C300C300C18FC1F6D
:1055B000FC070C000C000C000C000C000C000C0094
:1055C0000000000000000000000000000000E007F4
:1055D000F81F1C380E70066003E003C003C003C050
:1055E00003C003C007E006630E3F1C3CF83FE0F732
:1055F00000C0000000000000000000000000FE0FDE
:10560000FE1F06380630063006300638FE1FFE073D
:1056100006030606060C0618061806300630066055
:105620000000000000000000000000000000E00397
:10563000F80F1C0C0C180C180C001C00F803E00FE1
:10564000001E0038063006300E301C1CF80FE00734
:105650000000000000000000000000000000FE7FCD
:10566000FE7F800180018001800180018001800136
:105670008001800180018001800180018001800122
:1056800000000000000000000000000000000C30DE
:105690000C300C300C300C300C300C300C300C302A
:1056A0000C300C300C300C300C301818F81FE007A0
:1056B0000000000000000000000000000000036087
:1056C0000630063006300C180C180C18180C180C84
:1056D000380E30063006700760036003C001C00159
:1056E0000000000000000000000000000000036057
:1056F000C361C361C3616633663366336633663341
:1057000066336C1B6C1B6C1B2C1A3C1E380E380E3F
:1057100000000000000000000000000000000FE09A
:105720000C7018303018700C600EC00780038003B6
:10573000C003E006700C301C18180C300E6007E037
:10574000000000000000000000000000000003C096
:1057500006600C301C383818300C6006E007C003B7
:105760008001800180018001800180018001800131
:105770000000000000000000000000000000FC7FAE
:10578000FC7F006000300018000C00060003800160
:10579000C0006000300018000C000600FE7FFE7F95
:1057A0000000000000000000000000000000E00316
:1057B000E003600060006000600060006000600066
:1057C00060006000600060006000600060006000D9
:1057D000600060006000E003E003000000003000B3
:1057E0003000600060006000C000C000C000C00168
:1057F0008001800180010003000300030006000611
:105800000000000000000000000000000000E003B5
:10581000E003000300030003000300030003000390
:105820000003000300030003000300030003000360
:10583000000300030003E003E00300000000000099
:10584000C001C00160036003600330063006180C1D
:10585000180C000000000000000000000000000024
:105860000000000000000000000000000000000038
:105870000000000000000000000000000000000028
:105880000000000000000000000000000000FFFF1A
:10589000FFFF0000000000000000000000000C00FE
:1058A0000C000C000C000C000C00000000000000BC
:1058B00000000000000000000000000000000000E8
:1058C00000000000000000000000000000000000D8
:1058D0000000000000000000F003F8071C0C0C0C96
:1058E000000FF00FF80C0C0C0C0C1C0FF80FF0183C
:1058F0000000000000000000000000000000180090
:105900001800180018001800D803F80F380C1818E1
:1059100018181818181818181818380CF80FD80371
:105920000000000000000000000000000000000077
:105930000000000000000000C003F007300E180C4B
:105940001800180018001800180C300EF007C003DB
:10595000000000000000000000000000000000182F
:105960000018001800180018C01BF01F301C181871
:1059700018181818181818181818301CF01FC01B01
:105980000000000000000000000000000000000017
:105990000000000000000000C003F00F300C1818D9
:1059A000F81FF81F180018003818301CF00FC00737
:1059B0000000000000000000000000000000800F58
:1059C000C00FC000C000C000F007F007C000C0005A
:1059D000C000C000C000C000C000C000C000C000C7
:1059E00000000000000000000000000000000000B7
:1059F0000000000000000000E00DF80F180E0C0C75
:105A00000C0C0C0C0C0C0C0C0C0C180EF80FE00D04
:105A1000000C0C0C1C06F807F00100000000180038
:105A20001800180018001800D807F80F381C1818AC
:105A300018181818181818181818181818181818E6
:105A40000000000000000000000000000000C00096
:105A5000C000000000000000C000C000C000C00086
:105A6000C000C000C000C000C000C000C000C00036
:105A70000000000000000000000000000000C00066
:105A8000C000000000000000C000C000C000C00056
:105A9000C000C000C000C000C000C000C000C00006
:105AA000C000C000C000F8007800000000000C003A
:105AB0000C000C000C000C000C0C0C060C038C01F0
:105AC000CC006C00FC009C018C030C030C060C0C3D
:105AD0000000000000000000000000000000C00006
