:020000040800F2
:1000000030050020ED01000817230008B31C00088C
:1000100015230008F9020008F53900080000000067
:100020000000000000000000000000005127000850
:10003000FB020008000000001923000853270008F5
:10004000070200080702000807020008070200086C
:10005000070200080702000807020008070200085C
:10006000070200080702000807020008070200084C
:10007000070200080702000807020008070200083C
:10008000070200080000000007020008070200083D
:10009000070200080702000807020008070200081C
:1000A000070200080702000807020008070200080C
:1000B00007020008070200080702000807020008FC
:1000C00007020008070200080702000807020008EC
:1000D00007020008E93900080702000807020008C3
:1000E00007020008070200080702000807020008CC
:1000F00007020008070200080702000800000000CD
:1001000000000000070200080000000007020008CD
:1001100007020008000000000702000807020008AC
:10012000070200080702000807020008070200088B
:10013000070200080000000000000000070200089D
:10014000070200080702000800000000000000008D
:10015000000000000000000000000000000000009F
:10016000000000000000000000000000070200087E
:10017000070200080000000000000000000000006E
:10018000000000000702000800000000000000005E
:10019000000000000000000000000000000000005F
:1001A000000000000000000007020008070200082D
:1001B000070200080702000807020008000000000C
:1001C000000000000702000800000000000000001E
:1001D0000702000807020008DFF80CD000F07AF8E8
:1001E00000480047153A00083005002006488047BF
:1001F00006480047FEE7FEE7FEE7FEE7FEE7FEE70C
:10020000FEE7FEE7FEE7FEE7D1270008D901000878
:100210002DE9F05F0546002092469B46884606463B
:10022000814640241BE0284641464746224600F0CE
:1002300041F853465A46C01A914110D31146184608
:10024000224600F028F82D1A67EB01084F46224697
:100250000120002100F01FF817EB00094E41201E7D
:10026000A4F10104DFDC484631462A464346BDE896
:10027000F09FD2B201E000F8012B491EFBD270477B
:100280000022F6E710B513460A4604461946FFF762
:10029000F0FF204610BD202A04DB203A00FA02F1CC
:1002A000002070479140C2F1200320FA03F3194364
:1002B00090407047202A04DB203A21FA02F0002106
:1002C000704721FA02F3D040C2F120029140084366
:1002D00019467047064C074D06E0E06840F0010300
:1002E00094E8070098471034AC42F6D3FFF778FF44
:1002F0007485000894850008FEE77047002240F6E8
:10030000B83306E00021491C89B29942FBD3521C44
:1003100092B28242F6D37047704710B5002490F82D
:10032000251000230122022907D00421C16380F88F
:10033000252080F82430012437E00168D1F800C07E
:100340002CF00E0CC1F800C00168D1F800C02CF0F0
:10035000010CC1F800C0816CD1F800C02CF4807C85
:10036000C1F800C090F84410D0F840C001F01F015F
:1003700002FA01F1CCF80410D0F84CC0016DCCF8B1
:100380000410416D51B1D1F800C02CF4807CC1F84B
:1003900000C0D0F858C0C16DCCF8041080F82520FA
:1003A00080F82430816B01B18847204610BD0000E1
:1003B00070B5044600F03EF90546B4F1FF3F02D0A7
:1003C00004484068044400F035F9401BA042FAD3C9
:1003D00070BD0000200000202DE9F84F00220B68BE
:1003E000002B7CD00324874E874F0F250123D1F8A3
:1003F00000C003FA02F80CEA0803002B70D0D1F811
:1004000004C0BCF1010F08D0BCF1020F05D0BCF153
:10041000110F02D0BCF1120F1DD1D0F808904FEA95
:10042000420C04FA0CFA29EA0A09D1F80CA00AFADB
:100430000CFC4CEA090CC0F808C0D0F804C02CEA47
:10044000080C91F80480C8F3001808FA02F848EA8A
:100450000C0CC0F804C0D0F80C804FEA420C04FA2F
:100460000CFA28EA0A08D1F8089009FA0CF949EAC6
:100470000808C0F80C80D1F80480B8F1020F02D04F
:10048000B8F1120F15D14FEAD20800EB8808D8F85E
:1004900020B04FEA42794FEAD96905FA09FE2BEA02
:1004A0000E0BD1F810E00EFA09F949EA0B09C8F869
:1004B0002090D0F8008028EA0A0891F8049009F00A
:1004C000030909FA0CFC4CEA080CC0F800C0D1F88A
:1004D00004C01CF0805F7CD0D6F860C001E07DE0F5
:1004E00077E04CF0010CC6F860C0D6F860C00CF0A4
:1004F000010CCDF800C022F0030C0CF1804909F585
:100500008039D9F808C04FEA82784FEA187805FA9E
:1005100008FA2CEA0A0AB0F1904F64D0A0F1904C8E
:10052000BCF5806C5CD0A0F1904CBCF5006C5DD04B
:10053000A0F1904CBCF5406C5BD0A0F1904CBCF5A8
:10054000805C59D0A0F1904CBCF5A05C57D04FF026
:10055000060C0CFA08FC4CEA0A0CC9F808C0D7F8DB
:1005600000C02CEA030CD1F8048018F4803F01D0BD
:100570004CEA030CC7F800C0DFF89080D8F800C040
:100580002CEA030CD1F8049019F4003F01D04CEA96
:10059000030CC8F800C0DFF87880D8F800C02CEA57
:1005A000030CD1F8049019F4801F01D04CEA030C1D
:1005B000C8F800C0DFF85C80D8F800C02CEA030C53
:1005C000D1F8049019F4001F01D04CEA030CC8F8CC
:1005D00000C0521C0B68D3407FF408AFBDE8F88F11
:1005E0004FF0010CB5E74FF0000CB2E74FF0020CF2
:1005F000AFE74FF0030CACE74FF0040CA9E74FF066
:10060000050CA6E70010024000040140040401406C
:10061000080401400C0401400069084201D0012097
:10062000704700207047002A01D0816170478162C5
:1006300070470000014880687047000020000020DB
:1006400002488168426811448160704720000020A0
:1006500010B50024032000F08FF8002000F008F807
:1006600008B1012401E000F029F8204610BD000087
:1006700070B5054600240F4E7068002817D04FF45F
:100680007A71B1FBF0F00C490968B1FBF0F000F0B1
:1006900097FF08B101240BE0102D06D20022294655
:1006A000501E00F035F8356002E0012400E001241E
:1006B000204670BD200000201C0000200B4808B51B
:1006C000016E41F001010166016E01F0010100912E
:1006D000816D41F080518165806D00F08050009007
:1006E0000348816841F48041816008BD00100240E8
:1006F0000070004000280ADB00F01F01012202FA0E
:1007000001F14009800000F1E020C0F800117047BD
:1007100010B4184B1B68C3F30223C3F1070CBCF1E0
:10072000040F01D94FF0040C1C1D072C01D200232B
:1007300000E0DB1E012404FA0CFCACF1010C0CEA15
:100740000101994004FA03F35B1E1A40114300288B
:1007500006DB00F1E020090180F8001410BC7047AE
:1007600000F00F0000F1E020090180F8141D10BC1A
:10077000704700000CED00E000F00700064A116829
:100780004FF6FF03194041EA002040F0FD7040F0B1
:1007900080601060704700000CED00E033493222A9
:1007A000334B09684A43334900280AD0B0F5007F2B
:1007B00031D0086820F4C06040F4806008600020F8
:1007C0007047086800F4C060B0F5806F06D0D1F8BB
:1007D000800020F48070C1F88000F0E7D1F880003C
:1007E00020F48070C1F88000086820F4C06040F4F4
:1007F00000700860B2FBF3F0401C00E0401E4A6944
:1008000012F4806F01D00028F8D1486910F4806F8D
:10081000D5D003207047086800F4C060B0F5806F41
:1008200006D0D1F8800040F48070C1F88000C6E79F
:10083000D1F8800040F48070C1F88000086820F48E
:10084000C06040F400700860B2FBF3F0401C00E0B0
:10085000401E4A6912F4806F01D00028F8D148691F
:1008600010F4806FABD00320704700001C00002004
:1008700040420F00007000402DE9F84F044600256B
:1008800000272068B04E10F4002F76D0A846B06D37
:1008900010F0805F09D1B06D40F08050B065B06D50
:1008A00000F0805000904FF00108DFF8A0A2DAF8C5
:1008B000000040F48070CAF80000FFF7BBFE8146DC
:1008C000DAF8000010F4807F0CD1FFF7B3FEA0EB44
:1008D0000900022801D9032504E0DAF8000010F429
:1008E000807FF2D025B12F46B8F1010F41D044E00E
:1008F000D6F8900000F44070A0B1216C814211D074
:10090000D6F8900020F44070D6F8901041F4803171
:10091000C6F89010D6F8901021F48031C6F89010E7
:10092000C6F8900010F0010F16D0FFF783FE814645
:10093000D6F8900010F0020F0ED141F2883AFFF77E
:1009400079FEA0EB0900504501D9032504E0D6F853
:10095000900010F0020FF2D00DB12F46C4E7D6F888
:100960009000216C20F440700843C6F89000BBE76B
:1009700003E0B06D20F08050B065207810F0010FDA
:1009800007D0D6F88800616820F003000843C6F855
:100990008800207810F0020F07D0D6F88800A168F0
:1009A00020F00C000843C6F88800207810F0040FEF
:1009B00007D0D6F88800E16820F030000843C6F878
:1009C0008800207810F0080F07D0D6F88800216939
:1009D00020F0C0000843C6F88800207810F0200FEF
:1009E00007D0D6F88800616920F440600843C6F853
:1009F0008800207810F0400F07D0D6F88800A16951
:100A000020F440500843C6F88800207810F0800F8A
:100A100007D0D6F88800E16920F440400843C6F8C2
:100A20008800208810F4807F07D0D6F88800216ADB
:100A300020F440300843C6F88800208810F4007F76
:100A400007D0D6F88800616A20F440200843C6F831
:100A50008800208810F4806F0FD0D6F88800A16A33
:100A600020F440100843C6F88800A06AB0F5801F43
:100A700003D1F06840F48010F060208810F4006F1B
:100A80000FD0D6F88800E16A20F440000843C6F889
:100A90008800E06AB0F5800F03D1F06840F4801060
:100AA000F060208810F4805F0FD0D6F88800216BAA
:100AB00020F040700843C6F88800206BB0F1807FBA
:100AC00003D1F06840F48010F060208810F4005FDB
:100AD0000FD0D6F88800616B20F040600843C6F85C
:100AE0008800606BB0F1006F03D1F06840F48010B3
:100AF000F060208810F4804F0FD0D6F88800A16BEA
:100B000020F040600843C6F88800A06BB0F1006F89
:100B100003D1F06840F48010F060208810F4004F9A
:100B20000FD0D6F88800E16B20F040500843C6F89B
:100B30008800E06BB0F1805F03D1F06840F4803052
:100B4000F0603846BDE8F88F0010024000700040A9
:100B50002DE9F04704460D460027002C17D0DFF89A
:100B6000DC91D9F8000000F00F00A84212D2D9F8A9
:100B7000000020F00F002843C9F80000D9F8000059
:100B800000F00F00A84205D00120BDE8F087012049
:100B9000BDE8F08720786A4E10F0010F41F2883AE4
:100BA0005ED06068DFF89C81032806D0022822D03E
:100BB000306810F4806F49D021E0306810F0007F79
:100BC0000ED001F0ABFB404524D9B06810F0F00F17
:100BD00009D0207810F0020F1CD0A06818B119E0DD
:100BE0000120BDE8F087B06820F0F00040F0800000
:100BF000B06080270EE0306810F4003F23D000F092
:100C0000D3F8404506D9B06820F0F00040F08000ED
:100C1000B0608027B068616820F003000843B060CE
:100C2000FFF708FD8046B068616800F00C00B0EB8B
:100C3000810F15D0FFF7FEFCA0EB0800504508D946
:100C40000320BDE8F0870120BDE8F0870120BDE862
:100C5000F087B068616800F00C00B0EB810FE9D15B
:100C6000206810F0020F17D010F0040F03D0B06806
:100C700040F4E060B060207810F0080F05D0B06854
:100C800020F4605040F4E060B060B068A16820F0EB
:100C9000F0000843B06005E0802F03D1B06820F079
:100CA000F000B060D9F8000000F00F00A8421DD994
:100CB000D9F8000020F00F002843C9F80000FFF722
:100CC000B9FC0746D9F8000000F00F00A8420DD08B
:100CD000FFF7B0FCC01B504502D90320BDE8F087E8
:100CE000D9F8000000F00F00A842F1D1207810F0F0
:100CF000040F05D0B068E16820F4E0600843B060FC
:100D0000207810F0080F06D0B068216920F46050F8
:100D100040EAC100B06000F047F8B1680A4AC1F388
:100D20000311515C01F01F01C840084908600848E0
:100D30000068BDE8F047FFF79BBC000000200240C0
:100D40000010024000B4C4045A8500081C000020B2
:100D50002000002001480068704700001C000020AF
:100D600000B5FFF7F7FF05498968054AC1F302217D
:100D7000515C01F01F01C84000BD0000001002409E
:100D80006A85000800B5FFF7E5FF05498968054A4F
:100D9000C1F3C221515C01F01F01C84000BD000039
:100DA000001002406A8500081A4A9068DFF868C09F
:100DB00000F00C0004280CD0906800F00C011748DB
:100DC000082905D091680C2333EA010103D00020E3
:100DD000704760467047D16801F00303D168C1F3E2
:100DE0000311491C032B0DD0BCFBF1F0D168C1F3FA
:100DF00006214843D168C1F34161491C4900B0FB59
:100E0000F1F07047B0FBF1F0D168C1F3062148431F
:100E1000F0E70000001002400024F40000366E01EC
:100E20002DE9F8430446002C0ED02078FD4F10F039
:100E3000010F60D0B8683D4600F00C00E96801F091
:100E400003010C2803D004E00120BDE8F883032946
:100E50001AD0082818D06068B0F5803F1DD0B0F5D2
:100E6000A02F1FD0286820F480302860286820F444
:100E700080202860606858B3FFF7DCFB06462868CE
:100E800010F4003F17D036E0286810F4003F32D04D
:100E9000606880BB0120BDE8F883286840F480309A
:100EA0002860E7E7286840F480202860286840F43C
:100EB00080302860DEE7FFF7BDFB801B642802D985
:100EC0000320BDE8F883286810F4003FF3D012E057
:100ED000FFF7B0FB0646286810F4003F0BD0FFF781
:100EE000A9FB801B642802D90320BDE8F883286889
:100EF00010F4003FF3D1207810F0020F5ED0B868F4
:100F00003D4600F00C00E96801F003010C2801D116
:100F100002290FD004280DD0E068B8B3286840F447
:100F200080702860FFF786FB0646286810F4806F03
:100F300018D023E0286810F4806F01D0E06870B109
:100F40006868217C20F0FE4040EA01606860B64895
:100F50000068FFF78DFB88B30120BDE8F88301200E
:100F6000BDE8F883FFF766FB801B022802D9032047
:100F7000BDE8F883286810F4806FF3D06868217C9E
:100F800020F0FE4040EA0160686017E0FFE7286853
:100F900020F480702860FFF74DFB0646286810F4A7
:100FA000806F0BD0FFF746FB801B022802D903207D
:100FB000BDE8F883286810F4806FF3D1207810F032
:100FC000080F3AD06069E0B1D7F894003D4640F090
:100FD0000100C7F89400FFF72DFB0646D5F89400F2
:100FE00010F0020F29D1FFF725FB801B022802D940
:100FF0000320BDE8F883D5F8940010F0020FF2D07A
:101000001BE0D7F894003D4620F00100C7F894009B
:10101000FFF710FB0646D5F8940010F0020F0CD035
:10102000FFF708FB801B022802D90320BDE8F883E4
:10103000D5F8940010F0020FF2D1207810F0040FD0
:101040007BD04FF00008B86D10F0805F09D1B86D0B
:1010500040F08050B865B86D00F0805000904FF0BF
:101060000108724D286810F4807F16D1286840F47A
:1010700080702860FFF7DEFA0646286810F4807F4B
:101080000BD1FFF7D7FA801B022802D90320BDE855
:10109000F883286810F4807FF3D0A06801281AD064
:1010A00005281FD0D7F8900020F00100C7F8900065
:1010B000D7F8900020F00400C7F89000A06841F233
:1010C000883650B3FFF7B6FA0546D7F8900010F00F
:1010D000020F14D037E0D7F8900040F00100C7F8B5
:1010E0009000EBE7D7F8900040F00400C7F89000BC
:1010F000D7F8900040F00100C7F89000DEE7FFF756
:1011000099FA401BB04202D90320BDE8F883D7F812
:10111000900010F0020FF2D015E0FFF78BFA0546B1
:10112000D7F8900010F0020F0DD0FFF783FA401BA4
:10113000B04203D90320BDE8F8830BE0D7F8900054
:1011400010F0020FF1D1B8F1010F03D1B86D20F00A
:101150008050B865207810F0200F3AD0A069E0B137
:10116000D7F898003D4640F00100C7F89800FFF717
:1011700061FA0646D5F8980010F0020F29D1FFF762
:1011800059FA801B022802D90320BDE8F883D5F85C
:10119000980010F0020FF2D01BE0D7F898003D46FF
:1011A00020F00100C7F89800FFF744FA0646D5F88A
:1011B000980010F0020F0CD0FFF73CFA801B0228B9
:1011C00002D90320BDE8F883D5F8980010F0020F8B
:1011D000F2D1E06960B3B9683D460C2232EA010100
:1011E0004FF0FF3878D0022823D0286820F0807094
:1011F0002860E86820F00300E860E86820F48810C0
:1012000020F08070E860FFF715FA0446286810F0B7
:10121000007F0DD0FFF70EFA001B022857D90320DC
:10122000BDE8F8830010024020000020007000405C
:1012300083E0286820F080702860FFF7FBF90646FD
:10124000286810F0007F0AD0FFF7F4F9801B02280D
:1012500001D90320E4E7286810F0007FF4D1616A27
:10126000206A491E40EA0110A16A228E090208EB99
:10127000520241EA4251084394F8341008EB5101FC
:1012800040EA416094F82C1040EAC160E9682C4AB9
:1012900011400843E860286840F080702860E868E2
:1012A00040F08070E860FFF7C5F90446286810F048
:1012B000007F42D1FFF7BEF9001B022801D90320AD
:1012C000AEE7286810F0007FF4D036E004E028682C
:1012D00010F0007F9ED130E001282CD0E868226A0F
:1012E00000F00301914224D1626A00F0F001521E25
:1012F000B1EB021F1DD1A26A00F4FE41B1EB022F37
:1013000017D194F82C1000F07842B2EBC16F10D1D5
:10131000228E00F4C00108EB5202B1EB425F08D10B
:1013200094F8341000F0C06008EB5101B0EB416F4D
:1013300003D0012074E7012072E7002070E700006D
:101340000C809F0170B504460120002C3ED094F81B
:10135000250028B9002084F82400204600F03EF83B
:10136000022084F825001A4ECA20306053203060D5
:10137000204601F091F910BB164D286820F040007E
:1013800020F08E60286028686168A269084321699E
:101390001143084328602189E06840EA01400E4972
:1013A0000860204601F0A4F948B9E269216A2B6877
:1013B0001143626923F060431A4311432960FF21FE
:1013C0003160002802D1012184F8251070BD000091
:1013D00024280040182800401028004000680549D3
:1013E000884205D1044850F8901F41F40041016043
:1013F0007047000000280040001002402DE9F04135
:1014000004460B4694F82400012807D0012684F8EE
:101410002460022084F825001AB10AE00220BDE809
:10142000F081587810F0100F03D000F0EF000A3070
:101430005870A2B19878D9781A7840EA0140597862
:10144000090241EA423140EA0105174FCA203860DB
:1014500053203860204601F01FF988B119E0D87890
:1014600001F00EF90204587801F00AF942EA00226C
:10147000987801F005F91978104340EA4135E4E71E
:101480000A4925F0C00020F07F400860204601F0A6
:101490002FF9FF21396008B984F82560002184F80C
:1014A0002410BDE8F08100002428004004280040FA
:1014B0002DE9F04705460C46914695F82400012891
:1014C00011D04FF0010885F82480022085F825000E
:1014D000284FCA20386053203860284601F0DCF8D5
:1014E000002618B13DE00220BDE8F087224BB9F19B
:1014F000000F04D0186810F0400F17D115E01868DD
:1015000010F0400F00D1E670207801F0B9F8020425
:10151000607801F0B5F842EA0022A07801F0B0F856
:10152000E178104340EA81500AE0E670A078217823
:10153000E27840EA01406178090241EA82510843B9
:101540000E4908400E490860186820F48020186091
:101550002169E0680843196808431860284601F0CB
:10156000C7F8FF21396008B985F8258085F824601F
:10157000BDE8F08724280040182800407F7F7F00C6
:101580000028004070B50D4C206860F0A00020607D
:10159000FFF750F80546206810F0200F0BD1FFF739
:1015A00049F8401BB0F57A7F01D9032070BD20684F
:1015B00010F0200FF3D0002070BD00000C28004078
:1015C000401EB0F1807F01D3012070474FF0E02131
:1015D0004861044AF02010700020886107200861EB
:1015E0000020704723ED00E070B490F83C20012A01
:1015F0004CD0012280F83C20CA684FF0000C8B6868
:1016000022F440721A434B6822F480621A430B683A
:1016100022F400621A430B6922F480521A434B6988
:1016200022F400521A430B6B22F480421A430B8BB4
:1016300022F4702242EA0342164C0368164DA3427C
:1016400001D0AB4203D1CE6922F080523243A34293
:1016500001D0AB4214D10E8D22F4700242EA065240
:101660000E6A22F0807232434E6A22F000723243D8
:10167000A34201D0AB4203D1C96A22F000520A430F
:101680005A6480F83CC070BC0020704770BC0220D7
:1016900070470000002C01400034014010B50446A2
:1016A000002C03D094F83D0010B107E0012010BDDC
:1016B000002084F83C00204600F022F8022084F844
:1016C0003D00211D206801F091F8012084F84800B8
:1016D00084F83E0084F83F0084F8400084F841001C
:1016E00084F8420084F8430084F8440084F84500FC
:1016F00084F8460084F8470084F83D00002010BDBF
:1017000008B500680649884208D10648016E41F4D0
:1017100080210166006E00F48020009008BD00006A
:10172000004801400010024010B586B00446142164
:101730006846FEF7A5FD0E492068884216D10D487F
:10174000C16C41F00101C164C06C694600F0010048
:1017500005908020009002200190002002900390CC
:10176000012004904FF09040FEF736FE06B010BD09
:10177000004801400010024070B504460D4694F840
:101780003C0001280BD0012084F83C000C2A4AD0F0
:1017900007DC5AB1042A1DD0082A43D12FE00220C9
:1017A00070BD102A54D0142A7AD165E029462068E9
:1017B00001F074F82068816941F0080181612068B6
:1017C000816921F004018161206881692A691143DE
:1017D000816165E02946206801F0B4F820688169DC
:1017E00041F4006181612068816921F48061816137
:1017F000206881692A6941EA0221816150E0294615
:10180000206801F0EDF82068C16941F00801C1616C
:101810002068C16921F00401C1612068C1692A6999
:101820001143C1613CE02946206801F027F9206896
:10183000C16941F40061C1612068C16921F480611E
:10184000C1612068C1692A6941EA0221C16127E0BA
:101850002946206801F060F92068016D41F0080117
:1018600001652068016D21F0040101652068016DAA
:101870002A691143016513E02946206801F086F9C1
:101880002068016D41F4006101652068016D21F45B
:10189000806101652068016D2A6941EA02210165C4
:1018A000002084F83C0070BD10B50446002C03D025
:1018B00094F83D0010B107E0012010BD002084F82D
:1018C0003C00204600F022F8022084F83D00211D53
:1018D000206800F08BFF012084F8480084F83E0067
:1018E00084F83F0084F8400084F8410084F8420006
:1018F00084F8430084F8440084F8450084F84600E6
:1019000084F8470084F83D00002010BD704790F82F
:101910007C10012918D0012180F87C102421C0F806
:10192000801001680A680B6823F001030B6022F045
:10193000005100224266036819602021C0F880101F
:1019400080F87C200020704702207047704770B5F7
:10195000044694F87C0001281DD0012084F87C0006
:101960002420C4F8800020680568026822F0010283
:1019700002602068826822F0606211438160204624
:1019800001F040F9206805602020C4F880000020A4
:1019900084F87C0070BD022070BD70B5044694F8D8
:1019A0007C0001281DD0012084F87C002420C4F88C
:1019B000800020680568026822F001020260206849
:1019C000826822F0604211438160204601F01AF9DA
:1019D000206805602020C4F88000002084F87C0086
:1019E00070BD022070BD70477047704770B50446E7
:1019F0002368D86919689A6800F00F0CBCF1000FD1
:101A00000FD110F0200F0CD001F0200502F080560D
:101A1000354306D0E16E00297ED02046BDE87040F7
:101A20000847BCF1000F78D0DFF898C101F4907539
:101A300002EA0C0C5CEA05056FD010F0010F0AD029
:101A400011F4807F07D001251D62D4F8883043F05F
:101A50000103C4F8883010F0020F0BD012F0010F10
:101A600008D0256802232B62D4F8883043F00403A1
:101A7000C4F8883010F0040F0BD012F0010F08D01A
:101A8000256804232B62D4F8883043F00203C4F89D
:101A9000883010F0080F0FD001F0200353EA0C0338
:101AA0000AD0D4F800C00823CCF82030D4F888300D
:101AB00043F00803C4F88830D4F88830002B36D0BF
:101AC00010F0200F09D001F0200002F080510843EF
:101AD00003D0E16E09B120468847D4F88800216818
:101AE000896811F0400F02D110F0080F24D0204671
:101AF00001F06DF92068816811F0400F18D08168FD
:101B000021F040018160A06F70B12F498163A06F07
:101B1000FEF703FC002801E009E014E007D0A06F05
:101B2000816BBDE8704008472046FFF75EFF70BD3F
:101B30002046FFF75AFF70BD2046FFF756FF0020F2
:101B4000C4F8880070BD10F4801F0AD012F4800F12
:101B500007D04FF4801018622046BDE87040FFF7B0
:101B600043BF10F0800F0CD001F0800302F400029C
:101B70001A4306D0216F0029E4D02046BDE870400A
:101B8000084710F0400F07D011F0400F04D0204656
:101B9000BDE8704001F02DB910F4000F07D011F02E
:101BA000804F04D02046BDE87040FFF71CBF10F006
:101BB000807FC7D011F0004FC4D02046BDE87040F0
:101BC000FFF7C4BE01000010BB2D000810B504468D
:101BD000002C03D0D4F8800010B107E0012010BD24
:101BE000002084F87C00204600F028F82420C4F867
:101BF00080002068016821F001010160204601F0A9
:101C000007F9012818D0A06A10B1204601F036F873
:101C10002068416821F4904141602068816821F08A
:101C20002A0181602068016841F0010101602046BD
:101C3000BDE8104001F08EB8012010BD10B586B08F
:101C4000044614216846FEF71BFB174920688842AA
:101C500027D11648016E41F480410166016E01F4FE
:101C600080410591C16C41F00101C164C06C6946BD
:101C700000F0010005904FF4C06000900220019038
:101C8000002002900390072004904FF09040FEF750
:101C9000A3FB002211462520FEF73AFD2520FEF782
:101CA00029FD06B010BD00000038014000100240C0
:101CB0007047FEE770B5124D01212846FEF7ACFCD7
:101CC000104C50B9104801682269891A142914D39C
:101CD00000682061A078401CA07001212846FEF712
:101CE0009BFC012809D1A078002806D00020A07014
:101CF0002078012802D00120207070BD0220FBE76F
:101D000000040048080000202800002000B585B02D
:101D100014216846FEF7B4FA4FF6FF7000900020D9
:101D20000321CDE90201019069460248FEF754FB08
:101D300005B000BD0008004800B585B01421684614
:101D4000FEF79EFA4FF6FF700090012001900320ED
:101D500003900020029069460248FEF73DFB05B063
:101D600000BD00000008004870B50024064621466A
:101D7000204600F0CBF800F00DF94FF496353046D0
:101D800000F0D8F8641CAC42F9D370BD30B587B010
:101D900014216846FEF774FA1E48C16C41F0040134
:101DA000C164C16C01F004010591C16C41F00101F5
:101DB000C164C16C01F001010591C16C41F00201E7
:101DC000C164C06C012500F0020005904FF448701A
:101DD000CDE9000500240394694602940E48FEF7FD
:101DE000FBFA280203940090CDE901544FF090448F
:101DF00069462046FEF7F0FAFFF79EFFA06940F41F
:101E00008070A06104481830016841F408710160D5
:101E100007B030BD001002400004004870B5054610
:101E20000021084600F072F800F0B4F800244FF4E6
:101E3000963600BF05EB4400008800F07BF8641C78
:101E4000B442F7DB70BD000010B5FFF79FFF002024
:101E500000F014F8084CA080A088A0F502413039A9
:101E600006D000F00CFB002000F008F8A08010BDA8
:101E700000F07CFAF7E700000000002070B51D4973
:101E80000A6842F400720A600A6842F480720A60CA
:101E9000184C103C226842F020022260164A106062
:101EA000086840F02000086000BF00BF00BF206845
:101EB00040F020002060206840F480702060FFF730
:101EC00025FF4FF09041886A40F48070886200BF1F
:101ED00000BF00BF0848001F006885B2886940F451
:101EE00080708861FFF728FF206840F40070206050
:101EF000284670BD280400481408004801B5BDF804
:101F000000000149488008BD0000002010B50C46C3
:101F10000146242000F070F82146BDE8104024203E
:101F200000F06AB801B5BDF800000149088008BD9D
:101F30000000002030B5154B1968154A8CB21168A5
:101F400041F400711160124910390D6845F4807533
:101F50000D600D6845F020050D601860106840F0B8
:101F60002000106000BF00BF00BF086840F02000E4
:101F70000860086840F48070086000BF00BF00BFC0
:101F8000086840F4007008601C6030BD1408004808
:101F900028040048164A10B51068164983B208682C
:101FA00040F400700860086840F4807008601148D0
:101FB0001038046844F020040460222414600C6883
:101FC00044F020040C6000BF00BF00BF016841F076
:101FD00020010160016841F48071016000BF00BF11
:101FE00000BF016841F400710160136010BD000082
:101FF000140800482804004870B51A4C22681A4B8F
:1020000095B21A6842F400721A601A6842F480723B
:102010001A60154A103A166846F0200616602060CD
:10202000186840F02000186000BF00BF00BF1068B3
:1020300040F020001060106840F480701060216053
:10204000186840F02000186000BF00BF00BF106893
:1020500040F020001060106840F48070106025602F
:1020600070BD000014080048280400482DE9F04F16
:1020700087B014216846FEF703F93F48C16C41F070
:102080000401C164C16C01F004010591C16C41F00F
:102090002001C164C16C01F020010591C16C41F0C7
:1020A0000101C164C16C01F001010591C16C41F0F5
:1020B0000201C164C16C01F002010591C16C41F0E3
:1020C0000801C164C06CDFF8B48000F008004FF66E
:1020D000FF740590002221464046FEF7A4FA4FF413
:1020E00080764FF09049002231464846FEF79BFA31
:1020F000DFF88CA0002204215046FEF794FADFF8A6
:1021000084B04FF44877002239465846FEF78BFAE0
:102110000125CDE900450024029469464046039418
:10212000FEF75AF9CDE90054694648460295FEF794
:1021300053F907208DE8310069465846FEF74CF9FF
:102140000096CDE90154694648460394FEF744F9E8
:1021500004200090CDE90154694650460394FEF7EF
:102160003BF90097CDE90154694658460394FEF7C0
:1021700033F907B0BDE8F08F0010024000080048B6
:10218000000C00480004004810B586B014216846D1
:10219000FEF776F81D4800241B490594C0E9001499
:1021A0004F2181601F21C0E9031444610462FFF7DD
:1021B000C9F808B1FEF7B0F812208DF800008DF8CC
:1021C00001408DF8024001940394012269460F48B2
:1021D0000494FFF76DF908B1FEF79EF801208DF821
:1021E000140002208DF815008DF8160020208DF8BF
:1021F0001700012205A90548FFF700F9002801D0C2
:10220000FEF78AF806B010BD002800402C00002020
:1022100010B594B01C210DA8FEF732F834216846A1
:10222000FEF72EF820481F49002401604F21C0E925
:10223000011440F2F311C0E903148021C0E9054103
:10224000FFF72CFA08B1FEF767F81748FFF72CFBE9
:1022500008B1FEF761F860200D906420CDE90E040E
:1022600010941194129400220DA90F481394FFF7B3
:1022700083FA08B1FEF750F800944FF40050CDE90E
:1022800004400194029403940694694606480C9411
:10229000FFF7AAF908B1FEF73FF80348FFF744FA41
:1022A00014B010BD0048014054000020184810B57B
:1022B000164901604FF416514160002181600C22E3
:1022C000C160C0E904128161C16101624162816241
:1022D000FFF77CFC08B1FEF71FF800210C48FFF760
:1022E0005CFB08B1FEF718F800210948FFF72FFB47
:1022F00008B1FEF711F80648FFF709FB002803D0E4
:10230000BDE81040FEF708B810BD000000380140DD
:10231000A0000020FEE77047704700001049C86821
:1023200000F00302C868C0F30310401C032A0ED05B
:102330000C4AB2FBF0F0CA68C2F306225043C968E7
:10234000C1F34161491C4900B0FBF1F07047064AF6
:10235000B2FBF0F0CA68C2F306225043EFE7000078
:10236000001002400024F40000366E0130B5012157
:102370000020FFF741FE4FF47A70FDF7BFFF002108
:102380000120FFF739FE41F290711020FFF734FE73
:102390004FF41C516020FFF72FFE01216120FFF751
:1023A0002BFE02214620FFF727FE48F210011320E2
:1023B000FFF722FE48F2FE011220FFF71DFE4FF448
:1023C000A0610220FFF718FE41F230010320FFF761
:1023D00013FE40F2033421463020FFF70DFE214664
:1023E0003120FFF709FE21463220FFF705FEE51EEA
:1023F00029463320FFF700FE03213420FFF7FCFDC0
:1024000021463520FFF7F8FD14213620FFF7F4FDB3
:1024100021463720FFF7F0FD21463820FFF7ECFD7D
:1024200021463920FFF7E8FD29463A20FFF7E4FD71
:1024300003213B20FFF7E0FD21463C20FFF7DCFDB8
:102440004FF4A0513D20FFF7D7FD4FF400719220CB
:10245000FFF7D2FD21469320FFF7CEFD40F60D0198
:102460009020FFF7C9FD41F218010320FFF7C4FDDA
:10247000BDE8304040F273110720FFF7BDBD10B535
:1024800043F20801E320FFF7B7FD1221E720FFF731
:10249000B3FD41F23121EF20FFF7AEFD0021012015
:1024A000FFF7AAFD4FF4E0610220FFF7A5FD41F21E
:1024B00030010320FFF7A0FD00210420FFF79CFD61
:1024C00040F207210820FFF797FD00210920FFF7C0
:1024D00093FD00210A20FFF78FFD00210C20FFF75C
:1024E0008BFD00210D20FFF787FD00210F20FFF756
:1024F00083FD00211020FFF77FFD07211120FFF74A
:102500007BFD00211220FFF777FD00211320FFF74C
:1025100073FDC820FDF74CFF41F290611020FFF7DA
:102520006BFD40F227211120FFF766FD3220FDF7F9
:102530003FFF1D211220FFF75FFD3220FDF738FF1E
:102540004FF400611320FFF757FD14212920FFF7F6
:1025500053FD0B212B20FFF74FFD3220FDF728FF05
:1025600000212020FFF748FD00212120FFF744FD36
:1025700007213020FFF740FD40F207713120FFF7BF
:102580003BFD06213220FFF737FD40F20471352074
:10259000FFF732FD41F604713620FFF72DFD0421CF
:1025A0003720FFF729FD00213820FFF725FD40F2F5
:1025B00006713920FFF720FD40F201713C20FFF742
:1025C0001BFD0F213D20FFF717FD00215020FFF7D5
:1025D00013FDEF215120FFF70FFD00215220FFF7DF
:1025E0000BFD40F23F115320FFF706FD4FF41C5145
:1025F0006020FFF701FD01216120FFF7FDFC0021B4
:102600006A20FFF7F9FC00218020FFF7F5FC00218C
:102610008120FFF7F1FC00218220FFF7EDFC002173
:102620008320FFF7E9FC00218420FFF7E5FC00216F
:102630008520FFF7E1FC10219020FFF7DDFC002151
:102640009220FFF7D9FC03219320FFF7D5FC4FF42C
:1026500088719520FFF7D0FC00219720FFF7CCFC74
:1026600000219820FFF7C8FC41F218010320FFF772
:10267000C3FCBDE8104040F273110720FFF7BCBC5B
:1026800000210A2804D3491C0A38C0B20A28FAD209
:10269000090740EA116070472DE9F0410746002420
:1026A000DFF84880D8F8000010F0400F1AD1D8F8B1
:1026B000000040F08000C8F80000FDF7BBFF0546B1
:1026C000032608E0FDF7B6FF401BB0F57A7F02D97C
:1026D000032487F82560D8F8000010F0400F01D1DE
:1026E000032CEFD12046BDE8F08100000C2800400B
:1026F0002DE9F041054600241348016821F08001CE
:102700000160124E30684FF0030710F0200F11D017
:10271000306820F0200030602846FEF733FF10B10B
:1027200085F825700324306840F020003060204692
:10273000BDE8F0812846FEF725FF0028F7D085F890
:1027400025700324F3E700000C28004018280040FF
:102750007047FDF775BF000030B5A5B03821684659
:10276000FDF78EFD14211FA8FDF78AFD44210EA858
:10277000FDF786FD4FF400752846FEF70FF8092097
:102780000090E80101900120059002210324CDE989
:1027900007141420CDE90A0109940C9168460D91A3
:1027A000FEF73EFB0F20CDE91F0400242194229464
:1027B00003211FA82394FEF7CBF904481E95CDE909
:1027C0000E040EA8FEF758F825B030BD0100080031
:1027D0000548016841F47001016003494FF0006051
:1027E000803908607047000088ED00E02DE9F001B5
:1027F0000268234C234BDFF89080DFF890C0A042A2
:1028000008D0B0F1804F05D0984203D0404501D0A8
:10281000604503D122F070024D682A431C4D1D4EC5
:102820001D4FA0420ED0B0F1804F0BD0984209D07E
:10283000404507D0604505D0A84203D0B04201D042
:10284000B84203D122F44072CB681A434B6922F09C
:1028500080021A4302608A68C2620A688262A042E9
:1028600007D0604505D0A84203D0B04201D0B8429D
:1028700001D10969016301214161BDE8F00170479F
:10288000002C0140000400400008004000340140DA
:102890000040014000440140004801402DE9F003A0
:1028A000026A22F001020262026A4368D0F818C08C
:1028B0002CF0700C2CF4803C2CF0030C0C6844EAD7
:1028C0000C0C22F002028C682243194C194D1A4E4E
:1028D0001A4FDFF86C80A04207D0A84205D0B04262
:1028E00003D0B84201D0404507D122F00802D1F808
:1028F0000C9049EA020222F00402A04207D0A8424A
:1029000005D0B04203D0B84201D0404507D123F4EE
:10291000807323F400734C6923438C692343436021
:10292000C0F818C0496841630262BDE8F00370470F
:10293000002C0140003401400040014000440140AF
:102940000048014070B4026A22F010020262036A79
:102950004268D0F818C02CF4E04C2CF0807C2CF4A9
:10296000407C0C684CEA042C23F020038C6843EA7A
:102970000413194C194DA04201D0A84206D123F0EE
:102980008003CE6843EA061323F04003A04210D030
:10299000A8420ED0A0F18044B4F5A03409D0A0F133
:1029A0008044B4F5A23404D0A0F18044B4F5A4343A
:1029B00009D122F4806222F400624C6942EA840266
:1029C0008C6942EA84024260C0F818C04968816399
:1029D000036270BC70470000002C014000340140CD
:1029E00070B4026A22F480720262036A4268D0F80C
:1029F0001CC02CF0700C2CF4803C2CF0030C0C68E8
:102A000044EA0C0C23F400738C6843EA0423194C49
:102A1000194DA04201D0A84206D123F40063CE682C
:102A200043EA062323F48063A04210D0A8420ED0CC
:102A3000A0F18044B4F5A03409D0A0F18044B4F5ED
:102A4000A23404D0A0F18044B4F5A43409D122F416
:102A5000805222F400524C6942EA04128C6942EA24
:102A600004124260C0F81CC04968C163036270BCB4
:102A700070470000002C01400034014070B4026A2D
:102A800022F480520262036A4268D0F81CC02CF41F
:102A9000E04C2CF0807C2CF4407C0C684CEA042C3C
:102AA00023F400538C6843EA0433194C194DA042B7
:102AB00001D0A84206D123F40043CE6843EA06338E
:102AC00023F48043A04210D0A8420ED0A0F180444D
:102AD000B4F5A03409D0A0F18044B4F5A23404D0F8
:102AE000A0F18044B4F5A43409D122F4804222F448
:102AF00000424C6942EA84128C6942EA84124260C4
:102B0000C0F81CC049680164036270BC70470000D3
:102B1000002C01400034014010B4026A22F48032DB
:102B20000262D0F820C04268036D23F0700323F4E2
:102B300080330C6823432CF4003C0C894CEA044C91
:102B4000A0F18044B4F5963413D0A0F18044B4F5DC
:102B50009A340ED0A0F18044B4F5A03409D0A0F18D
:102B60008044B4F5A23404D0A0F18044B4F5A43478
:102B700004D122F480324C6942EA042242600365A7
:102B800049688164C0F820C010BC704710B4026A64
:102B900022F480120262D0F820C04268036D23F450
:102BA000E04323F080730C6843EA04232CF4001CF8
:102BB0000C894CEA045CA0F18044B4F5963413D03F
:102BC000A0F18044B4F59A340ED0A0F18044B4F55D
:102BD000A03409D0A0F18044B4F5A23404D0A0F10F
:102BE0008044B4F5A43404D122F480224C6942EA32
:102BF0008422426003654968C164C0F820C010BCEB
:102C00007047000010B485B018A14A6809680392A3
:102C1000029118A14A68096801920091416E002949
:102C20001CD002689168C1F342619268520F02ABF6
:102C300013F802C01DF802204FEACC04B4FBF2F2F4
:102C4000EC46A0F86A205A5C1CF80110D200B2FBD6
:102C5000F1F1A0F8681005B010BC70470121A0F890
:102C60006A10A0F8681005B010BC7047010101039C
:102C700007010000080402040801010190F828106F
:102C800011F0010F06D001684A68C36A22F40032CD
:102C90001A434A6090F8281011F0020F06D001681C
:102CA0004A68036B22F480321A434A6090F8281075
:102CB00011F0040F06D001684A68436B22F48022A9
:102CC0001A434A6090F8281011F0080F06D00168E6
:102CD0004A68836B22F400421A434A6090F8281035
:102CE00011F0100F06D001688A68C36B22F480527D
:102CF0001A438A6090F8281011F0200F06D001685E
:102D00008A68036C22F400521A438A6090F82810F3
:102D100011F0400F11D001684A68436C22F4801210
:102D20001A434A60416CB1F5801F06D101684A68B8
:102D3000836C22F4C0021A434A6090F8281011F004
:102D4000800F06D001684A68C06C22F4002210434C
:102D500048607047F8B504460026C4F88860FDF75F
:102D600069FC0746206800686FF07E4510F0080F88
:102D70000AD03B4600224FF400112046009500F097
:102D8000F7FD08B10320F8BD2068006810F0040FBB
:102D90000AD03B4600224FF480012046009500F007
:102DA000E7FD08B10320F8BD2020C4F88000C4F876
:102DB000840084F87C600020F8BD10B5806A002192
:102DC000A0F85E10A0F85610FEF70FFE10BD0168C7
:102DD0000A6822F490720A6001688A6822F001028F
:102DE00022F080528A602021C0F884100021C16640
:102DF000704710B501680A6822F040020A6020217D
:102E0000C0F8801000210167FEF752FF10BD0000DE
:102E10002DE9F0470446002600270020FE4B2168DC
:102E2000D4F810C0A268E56942EA0C02D4F814C0D4
:102E30004CEA050C42EA0C02D4F864C04CEA0202E7
:102E4000D1F800C0F54D0CEA050C4CEA02020A600C
:102E500021684A68D4F80CC022F4405242EA0C02BD
:102E60004A60A16922689A4203D0D4F820C04CEA93
:102E70000101D2F808C02CF4306C2CF06E4C4CEAF6
:102E8000010191602168CA6AD4F824C022F00F02BF
:102E900042EA0C02CA622268E149A2F1804CBCF508
:102EA0009C3C20D0A2F1804CBCF5884C30D0A2F1E3
:102EB000804CBCF5904C40D0A2F1804CBCF5984CB5
:102EC00050D09A426BD1D1F8881011F440615ED095
:102ED000B1F5806F5FD0B1F5006F5AD0B1F5406F9A
:102EE0005BD010255CE0D1F8881011F0030107D009
:102EF000012909D0022905D0032907D010254FE068
:102F000001254DE002254BE0042549E0082547E076
:102F1000D1F8881011F00C0107D0042909D0082934
:102F200005D00C2907D010253AE0002538E002250D
:102F300036E0042534E0082532E0D1F8881011F09D
:102F4000300107D0102909D0202905D0302907D019
:102F5000102525E0002523E0022521E004251FE0BF
:102F600008251DE0D1F8881011F0C00107D04029D4
:102F700009D0802905D0C02907D0102510E00025F0
:102F80000EE002250CE004250AE0082508E00025F3
:102F900006E0022504E0042502E0082500E01025F3
:102FA000DFF880A24FF400414FF000089A4240F051
:102FB0003582ADB1022D4BD0042D6FD0082D6ED0CF
:102FC0000127002800F0C884D4F8049009EB4901D7
:102FD000814202D8B0EB093F71D9012700F0BCBC97
:102FE000FDF7BEFE0146606AC8B1012819D002286B
:102FF00019D0032819D0042819D0052819D006287B
:1030000019D0072819D0082819D0092819D00A285A
:1030100019D00B2819D00120B1FBF0F0D1E7012025
:10302000FAE70220F8E70420F6E70620F4E7082094
:10303000F2E70A20F0E70C20EEE71020ECE7202072
:10304000EAE74020E8E78020E6E74FF48070E3E716
:10305000606AC8B1012819D0022819D0032819D0F4
:10306000042819D005281BD006281BD007281BD000
:1030700008281BD009281BD00A281BD00B281BD0DE
:103080000120BAFBF0F09CE70120FAE70220F8E704
:103090000420F6E70620F4E70820F2E710E047E016
:1030A0000A20EEE70C20ECE71020EAE72020E8E712
:1030B0004020E6E78020E4E74FF48070E1E76CE031
:1030C000FDF772FE0146606AC8B1012819D00228D6
:1030D00019D0032819D0042819D0052819D006289A
:1030E00019D0072819D0082819D0092819D00A287A
:1030F00019D00B2819D00120B1FBF0F061E70120B5
:10310000FAE70220F8E70420F6E70620F4E70820B3
:10311000F2E70A20F0E70C20EEE71020ECE7202091
:10312000EAE74020E8E78020E6E74FF48070E3E735
:10313000606AC8B1012819D0022819D0032819D013
:10314000042819D0052819D0062819D0072819D025
:10315000082819D0092819D00A2819D00B2819D005
:103160000120B1FBF0F02CE70120FAE70220F8E79C
:103170000420F6E70620F4E70820F2E70A20F0E74B
:103180000C20EEE71020ECE72020EAE74020E8E7FB
:103190008020E6E74FF48070E3E77DB1022D61D037
:1031A000042D7CD0082D7BD001271F49A6F5407047
:1031B000884276D82068C66000F0CEBBFDF7D0FD0F
:1031C0000146606A90B3012835D0022835D0032823
:1031D00035D0042835D0052835D0062835D0072825
:1031E00035D0082835D0092835D00A2835D00B2805
:1031F00035D00122002308461946FDF709F80902D7
:10320000626841EA106103025008181841EB080196
:103210000023FCF7FDFF0AE000800040F369FFCFC8
:10322000001002400024F400FFFC0F0001E00646FD
:10323000BBE70122DEE70222DCE70422DAE706220E
:10324000D8E70822D6E70A22D4E70C22D2E71022D8
:10325000D0E72022CEE74022CCE78022CAE74FF415
:103260008072C7E7606A70B301282FD002282FD080
:1032700003282FD004282FD005282FD006282FD0A0
:1032800007282FD008282FD009282FD00A282FD080
:103290000B282FD0012200235046194602E02CE0D3
:1032A00073E0B9E0FCF7B4FF090241EA10610202E1
:1032B0004FEA5900101841EB08014A460023FCF779
:1032C000A7FF064671E7FFE70122E4E70222E2E7F3
:1032D0000422E0E70622DEE70822DCE70A22DAE73A
:1032E0000C22D8E71022D6E72022D4E74022D2E7EA
:1032F0008022D0E74FF48072CDE7FDF755FD0146FF
:10330000606A48B3012829D0022829D0032829D08F
:10331000042829D0052829D0062829D0072829D013
:10332000082829D0092829D00A2829D00B2829D0F3
:103330000122002308461946FCF76AFF0902626869
:1033400041EA106103025008181841EB08010023FC
:10335000FCF75EFF064628E70122EAE70222E8E7DB
:103360000422E6E70622E4E70822E2E70A22E0E791
:103370000C22DEE71022DCE72022DAE74022D8E741
:103380008022D6E74FF48072D3E7606A58B30128F1
:103390002BD002282BD003282BD004282BD0052893
:1033A0002BD006282BD007282BD008282BD0092873
:1033B0002BD00A282BD00B282BD0012200234FF42E
:1033C00000401946FCF724FF090241EA106102029D
:1033D0004FEA5900101841EB08014A460023FCF758
:1033E00017FF0646E1E60122E8E70222E6E70422AB
:1033F000E4E70622E2E70822E0E70A22DEE70C2201
:10340000DCE71022DAE72022D8E74022D6E7802244
:10341000D4E74FF48072D1E701279DE2E0694FF6CF
:10342000EF79B0F5004F08D0092D74D2DFE805F030
:10343000F4F3F273F1737373F000092D6CD2DFE8CB
:1034400005F00544856BC16B6B6BEC00FDF788FCE8
:103450000146606A00B3012820D0022820D003284A
:1034600020D0042820D0052820D0062820D00728E6
:1034700020D0082820D0092820D00A2820D00B28C6
:1034800020D00120B1FBF0F04100606801EB500159
:10349000B1FBF0F086B217E10120F3E70220F1E77B
:1034A0000420EFE70620EDE70820EBE70A20E9E734
:1034B0000C20E7E71020E5E72020E3E74020E1E7E4
:1034C0008020DFE74FF48070DCE7FDF75BFC01460E
:1034D000606A10B3012822D0022822D0032822D00B
:1034E000042822D0052822D0062822D0072822D05E
:1034F000082822D0092822D00A2822D00B2822D03E
:103500000120B1FBF0F04100606801EB5001B1FB1C
:10351000F0F086B2D8E016E2D5E00120F1E7022013
:10352000EFE70420EDE70620EBE70820E9E70A20B3
:10353000E7E70C20E5E71020E3E72020E1E7402063
:10354000DFE78020DDE74FF48070DAE7606A00B3E0
:10355000012820D0022820D0032820D0042820D001
:10356000052820D0062820D0072820D0082820D0E1
:10357000092820D00A2820D00B2820D00120BAFB0F
:10358000F0F04100606801EB5001B1FBF0F086B251
:103590009AE00120F3E70220F1E70420EFE706209C
:1035A000EDE70820EBE70A20E9E70C20E7E7102029
:1035B000E5E72020E3E74020E1E78020DFE74FF464
:1035C0008070DCE7FDF7F0FB0146606A30B301284C
:1035D00026D0022826D0032826D0042826D0052865
:1035E00026D0062826D0072826D0082826D0092845
:1035F00026D00A2826D00B2826D00120B1FBF0F0D7
:103600004100606801EB5001B1FBF0F086B25BE075
:103610005EE11FE1E3E0A4E065E018E00120EDE7F2
:103620000220EBE70420E9E70620E7E70820E5E7CA
:103630000A20E3E70C20E1E71020DFE72020DDE7A8
:103640004020DBE78020D9E74FF48070D6E7606A3E
:1036500000B3012820D0022820D0032820D004283D
:1036600020D0052820D0062820D0072820D00828E0
:1036700020D0092820D00A2820D00B2820D00120D3
:10368000B1FBF0F04100606801EB5001B1FBF0F0DC
:1036900086B219E00120F3E70220F1E70420EFE70A
:1036A0000620EDE70820EBE70A20E9E70C20E7E732
:1036B0001020E5E72020E3E74020E1E78020DFE776
:1036C0004FF48070DCE70127A6F11000484508D8C8
:1036D0004FF6F0703040C6F3420108432168C860DD
:1036E0003AE1012738E1FDF73BFB0146606AF8B19A
:1036F00001281FD002281FD003281FD004281FD064
:1037000005281FD006281FD007281FD008281FD043
:1037100009281FD00A281FD00B281FD00120B1FB79
:10372000F0F1606801EB5001B1FBF0F086B20BE103
:103730000120F4E70220F2E70420F0E70620EEE79C
:103740000820ECE70A20EAE70C20E8E71020E6E78B
:103750002020E4E74020E2E78020E0E74FF480709B
:10376000DDE7FDF70FFB0146606AF8B101281FD0C5
:1037700002281FD003281FD004281FD005281FD0DF
:1037800006281FD007281FD008281FD009281FD0BF
:103790000A281FD00B281FD00120B1FBF0F1606870
:1037A00001EB5001B1FBF0F086B2CDE00120F4E76F
:1037B0000220F2E70420F0E70620EEE70820ECE71D
:1037C0000A20EAE70C20E8E71020E6E72020E4E7FB
:1037D0004020E2E78020E0E74FF48070DDE7606A98
:1037E000F8B101281FD002281FD003281FD00428B9
:1037F0001FD005281FD006281FD007281FD0082853
:103800001FD009281FD00A281FD00B281FD0012045
:10381000BAFBF0F1606801EB5001B1FBF0F086B249
:1038200092E00120F4E70220F2E70420F0E706200E
:10383000EEE70820ECE70A20EAE70C20E8E7102092
:10384000E6E72020E4E74020E2E78020E0E74FF4CD
:103850008070DDE7FDF7A8FA0146606AF8B101283B
:103860001FD002281FD003281FD004281FD00528EE
:103870001FD006281FD007281FD008281FD00928CE
:103880001FD00A281FD00B281FD00120B1FBF0F158
:10389000606801EB5001B1FBF0F086B254E001200A
:1038A000F4E70220F2E70420F0E70620EEE7082024
:1038B000ECE70A20EAE70C20E8E71020E6E7202002
:1038C000E4E74020E2E78020E0E74FF48070DDE7A6
:1038D000606AF8B101281FD002281FD003281FD02A
:1038E00004281FD005281FD006281FD007281FD066
:1038F00008281FD009281FD00A281FD00B281FD046
:103900000120B1FBF0F1606801EB5001B1FBF0F078
:1039100086B219E00120F4E70220F2E70420F0E784
:103920000620EEE70820ECE70A20EAE70C20E8E7AB
:103930001020E6E72020E4E74020E2E78020E0E7EF
:103940004FF48070DDE70127A6F11000484502D84A
:103950002068C66000E001270120A4F86A00A4F8EE
:103960006800C4F86C80C4F870803846BDE8F08701
:103970002DE9F0410446069D884617461E462068FC
:10398000C06938EA000016D00020B84210D1B5F165
:10399000FF3F05D0FCF74EFE801BA8420DD865B155
:1039A0002068C06938EA00001CD00020B842EED080
:1039B0000020BDE8F0810120E7E72068016821F4DC
:1039C000D07101602068816821F0010181602020B0
:1039D000C4F88000C4F88400002084F87C00032030
:1039E000BDE8F0810120E1E70148FDF7FFBF0000DD
:1039F000A0000020FEE702E008C8121F08C1002A4C
:103A0000FAD170477047002001E001C1121F002A5F
:103A1000FBD17047FCF71CFEFEF79EFEFEF726FB6F
:103A2000FEF7B2FBFEF7F4FBFEF740FCFEF70CFAE4
:103A30000020FEF799F90020FEF760FA4FF6FF70BC
:103A4000FEF770FAFEF736F90148FEF7E7F9F9E7F5
:103A5000543A00088004A000F000000000000000BC
:103A60000000000000000000000000000000000056
:103A70000000000000000000000000000000000046
:103A80000000000000000000000000000000000036
:103A90000000000000000000000000000000000026
:103AA0000000000000000000000000000000000016
:103AB00000000000000000000010000000000000F6
:103AC00000000000000000000000000000000000F6
:103AD00000000000000000000000000000000000E6
:103AE00000000000000000000000000000000000D6
:103AF00000000000000000000000000000000000C6
:103B000000000000000000000000000000000000B5
:103B100000000000000000000000000000000000A5
:103B20000000000000000000000000000000000095
:103B30000000000000000000000000000000000085
:103B40000000000000000000000000000000000075
:103B50000000000000000000000000000000000065
:103B60000000000000000000000000000000000055
:103B70000000000000000000000000000000000045
:103B80000000000000000000000000000000000035
:103B90000000000000000000000000000000000025
:103BA0000000000000000000000000000000000015
:103BB0000000000000000000000000000000000005
:103BC00000000000000000000000000000000000F5
:103BD00000000000000000000000000000000000E5
:103BE00000000000000000000000000000000000D5
:103BF00000000000000000000000000000000000C5
:103C000000000000000000000000000000000000B4
:103C100000000000000000000000000000000000A4
:103C20000000000000000000000000000000000094
:103C30000000000000000000000000000000000084
:103C40000000000000000000000000000000000074
:103C50000000000000000000000000000000000064
:103C600012222211110000000000000000000000DC
:103C70000000000000000000000000000000000044
:103C80000000000000000000000000000000000034
:103C90000000000000000000000000000000000024
:103CA000000000000000000000000000001233448B
:103CB0004444455444433321000000000000000008
:103CC00000000000000000000000000000000000F4
:103CD00000000000000000000000000000000000E4
:103CE00000000000000000000000000000000000D4
:103CF00000000000000000000000000024455433D4
:103D000034444332222233333321000000000000C8
:103D100000000000000000000000000000000000A3
:103D20000000000000000000000000000000000093
:103D30000000000000000000000000000000000083
:103D40000000000000000000000001344443223461
:103D50004432110000000001122211100000000086
:103D60000000000000000000000000000000000053
:103D70000000000000000000000000000000000043
:103D80000000000000000000000000000000000033
:103D900000000000000000000001454333212443DF
:103DA0001001012322211111111112221000000013
:103DB0000000000000000000000000000000000003
:103DC00000000000000000000000000000000000F3
:103DD00000000000000000000000000000000000E3
:103DE000000000000000000000354333211443119F
:103DF0001110133432211111111111112210000070
:103E000000000000000000000000000000000000B2
:103E100000000000000000000000000000000000A2
:103E20000000000000000000000000000000000092
:103E3000000000000000000015533321124311114F
:103E4000111244321111111111111111112210000E
:103E50000000000000000000000000000000000062
:103E60000000000000000000000000000000000052
:103E70000000000000000000000000000000000042
:103E800000000000000000025433311135311111DF
:103E900011243210111111111111111222112200CD
:103EA0000000000000000000000000000000000012
:103EB0000000000000000000000000000000000002
:103EC00000000000000000000000000000000000F2
:103ED000000000000000003533321124520111119E
:103EE000125311111111111111111112233102204C
:103EF00000000000000000000000000000000000C2
:103F000000000000000000000000000000000000B1
:103F100000000000000000000000000000000000A1
:103F2000000000000000045322222244111111114C
:103F300024211111111111111111111123432022EA
:103F40000000000000000000000000000000000071
:103F50000000000000000000000000000100000060
:103F60000000000000000000000000000000000051
:103F700000000000000044333332233101111111DD
:103F8000431111211111111111111111113441019C
:103F90002100000000000000000000000000000000
:103FA0000000000000000000000000000000000011
:103FB0000000000000000000000000000000000001
:103FC00000000000000453332211331011111113AB
:103FD000301111211111111111111111110244107F
:103FE00012000000000000000000000000000000BF
:103FF00000000000000000000000000000000000C1
:1040000000000000000000000000000000000000B0
:10401000000000001234332222333100011011233A
:10402000111112211111111111111111111124313C
:10403000112000000000000000000000000000004F
:104040000000000000000000000000000000000070
:104050000000000000000000000000000000000060
:104060000000000003533344443320200011112189
:1040700011101211111111111111111111110253FD
:10408000111200000000000000000000000000000D
:104090000000000000000000000000000000000020
:1040A0000000000000000000000000000000000010
:1040B0000000000014334443323202111111121176
:1040C0001000121100011111111111111111102400
:1040D000111120000000000000000000000000009E
:1040E00000000000000000000000000000001000C0
:1040F00000000000000000000000000000000000C0
:1041000000000000444443322231121111111211F7
:1041100011012211100011101101111111111113AF
:10412000311121000000000000000000000000002C
:10413000000000000000000000000000000001116D
:10414000100000000000000000000000000000005F
:104150000000000464433211222122211111211197
:104160001111221111101110110111111111111140
:1041700042111210000000000000000000000000CA
:10418000000000000000000000000000000000012E
:1041900010011000000000100000000000000011DD
:1041A0000001123332221111131122222111211187
:1041B00011212211211111100001111111111110E1
:1041C000231111200000000000000000000000008A
:1041D00000000000000000000001000000000000DE
:1041E0000011110010000011100000000000002359
:1041F0002212221111111221221222222112111136
:10420000112122112211111110011111111111117D
:104210001321112100000000000000000000000038
:10422000000000000000000111110000000000006B
:104230000011011111110001100000000000000028
:1042400012221001111232122122222221121112E5
:10425000222122112212211110011001111111111C
:1042600012301112100000000000000000000000D9
:10427000000000000000010001110000000000002B
:1042800000000111111100111110100000000000B8
:104290000011244333332113212221222122111220
:1042A00023212211222211111101100121111112B9
:1042B0001231111120000000000000000000000079
:1042C0001111111111111111111100000000000044
:1042D0000000001111001111100001100000000079
:1042E00000113765443111221121112211211112BF
:1042F0002311321123221111110121112111111247
:104300001121111121000000000000000000001127
:1043100011111111111111111111000000000000F3
:104320000000000111111011100000110000001018
:1043300000244223221111321221112212211123B1
:104340001211321222221111111121112101111207
:1043500021221111120000000000000000000011D5
:1043600000000111111001111111000000000000E6
:10437000000000000111000001000000000000002A
:104380000001543111112231121111110221113386
:1043900011113212212311111112211122000111C8
:1043A0002112111112100010011000000000000075
:1043B00000000111111011110000000000000000A8
:1043C00000000000001110000100000000000000CB
:1043D00000025444333434211211112112211143AB
:1043E0001112422221231111111221112211001147
:1043F0002212111112200000000110000011000013
:104400000011111111110000000000000000000057
:10441000000000000000111000000000000000007B
:104420000003433454444421111111111311124358
:1044300011124223211221111112222122111001E5
:104440001322111111332111132100000000111149
:104450001111111111000000000000000000000007
:104460000000000000000110000000000011001119
:10447000001443133124431111111111231123424C
:104480001112432321122111111222312311210172
:104490001322211111264444431010000000111171
:1044A00011111111000000000000000000000000C8
:1044B00000000000000000111110000000001100B9
:1044C00000243113114433111111111133112352EE
:1044D00021124323211222111223223113112211FE
:1044E00012321111112422221001000000111100BA
:1044F0001111110000000000000000000000000089
:104500000000000000000000111000000111111156
:104510001034213203412311111111113211245190
:104520002212442421212211122323321311132297
:104530001233111111142000011111100111111168
:104540001111000000000000000000000000000049
:104550000000000000000000011100000011111116
:10456000103312312421421111112112321235510E
:104570003212442422212311122322321421133215
:1045800011332111111340011111111111111111C8
:10459000100000000000000000000000000000000B
:1045A0000000000000000000001111111111111194
:1045B00001431211420142111112211232124531EE
:1045C0004212452421212321232331221421133394
:1045D0002134201111125301111111111111111057
:1045E00000000000000000000000000000000000CB
:1045F0000000000000000000000011111111111155
:104600000242121331124211111221134213442299
:104610004212452431211331232331121431124324
:104620002134210111223520111111111111100015
:10463000000000000000000000000000000000007A
:104640000000000000000000000011111111111104
:10465000024221231113411111122113422443322A
:1046600052124424312213312323311215311233D3
:1046700020343111012234411111111111000000B7
:10468000000000000000000000000000000000002A
:1046900000000000000000000000001111111111C5
:1046A00012421132111441111112212432344332B9
:1046B0005212442441321341343342121541221321
:1046C0002034321111222333111111111000000076
:1046D00000000000000000000000000000000000DA
:1046E0000000000000000000000000011111111185
:1046F0001343122111144111112321243234322287
:1047000042124434523212423433421116522212AF
:104710002134421211222322301111100000000016
:104720000000000000000000001100000000000078
:104730000000000000000000000000001111111135
:104740001332131111254211112321343344213422
:10475000431243335223124334334211165222126E
:104760002134443221332322331110000000000091
:104770000000000000000000111100000000000017
:1047800000000000000000000000000001111111F5
:1047900013422211133442111123213433431134B3
:1047A00054335434542312334433521126532212B7
:1047B0002133453121432322233000000000000033
:1047C00000000000000001111100000000000000C6
:1047D00000000000000000000000000000111111A6
:1047E0001342221132154211112321443442012473
:1047F0004332443444332134344353112663221169
:1048000022333421434324322233000000000000CD
:104810000000000000011111000000000000000075
:104820000000000000000000000000000001211155
:104830001343212321154211122322433520002442
:10484000432133233433213433435311376322114B
:104850002234232244432434432342100000000026
:104860000000000001111100000000000000000025
:104870000000000000000000000000000000122105
:1048800013431231111552211223224354101024C4
:1048900043224314434332244333442136533211D9
:1048A0002243122244433431355323432100000074
:1048B00000000011111000000000000100000000C5
:1048C00000000000000000000000000000000000E8
:1048D00004533311101553211223224330000024B6
:1048E0004431331342344223443444225764321156
:1048F0002343122344322453224420011000000099
:104900000000111110000000000000010000000074
:104910000000000000000000000000000000024451
:104920000355410012355321122333479775300345
:104930004431330242144323443344125764432224
:104940002342112343323543322343100000000039
:104950001111111000000000000000010111000001
:104960000000000000000000000000000368ABFF32
:10497000C7642114554464311224668EFEDCB9628A
:104980002432330144035423344344125653432204
:104990003442112432333430010000000000111180
:1049A00011111000000000000000000111111000A2
:1049B0000000000000000000000000005DDDC853A2
:1049C0006DB76665334464311224769BCDCBBCDA77
:1049D00042432301341144323443442345533312B8
:1049E0003431113322234111000000001111111143
:1049F0001111000000000000000000011111111051
:104A0000000000000000000000000000AB85200056
:104A10000CFABDC743247432122367329869AAABDB
:104A2000D713231024202543333344343453431203
:104A300044311243122342000011111111111111BE
:104A40001100000000000000000000010111111120
:104A5000000000000000000000000002FB00000158
:104A60007AF6358DC96375331223463393087789F7
:104A7000CF7123101330034433333434455343137D
:104A8000442113421234321111211111111111114B
:104A900000000000000000000000000101111111E1
:104AA000110000000000000000000001FD000009EE
:104AB00067F81235ABD96633122335328A88777797
:104AC0008BD5011002320122443344333453332353
:104AD00044212431123433222221111111111100E9
:104AE0000000000000000000000000000011111193
:104AF000111000000000000000000000BF20009620
:104B000039FB01325CED5344212335319BA9888860
:104B100077572000002200002443334323544224CB
:104B200044123421124433122211111111111000B8
:104B30000000000000000000000000010011111141
:104B40001111100000000000000000006FB26D7233
:104B500077CF60114DDD3044312334209BBB9899D1
:104B6000A8112000000100000134323434532134F4
:104B70004412441123444312221111111110000058
:104B800000000000000000000000000000111111F2
:104B90001111110000000000000000000BFFF914CB
:104BA00066CDD1012CDB1045422344207BAAAABA52
:104BB000B7110000000000100000487BCAA7533363
:104BC00053244312244442122211111111000000F7
:104BD00000000000000000000000000000001111B3
:104BE000111111000000000000000000004CB14451
:104BF00046DAF9013CD9102452124420387997AA98
:104C0000B4010000000000001003BEBBBBCAA854E2
:104C10005234421235444222121111111000000088
:104C20000000000000000000000000000000000084
:104C300011111110000000000000000000083242B5
:104C400036E7BF604DD8203453123430145877778C
:104C500080000000000000000018A78888897757AE
:104C60004254312235443222121111110000000049
:104C70000000000000000000000000000000000034
:104C80000000010000000000000000000085153257
:104C900046F56FF78B634125442234400236773363
:104CA0003000000000000000001851888897148729
:104CB0003444212444343222222111100000000007
:104CC00000001110000000000000000000000000C3
:104CD00000000000000000000000000006704422F8
:104CE00037F73AA863235304444223430123433351
:104CF00010000000000000000019A788999515B564
:104D000034342134542521222221111001011111A2
:104D10001111110000000000000000000000000060
:104D20000000000000000000000000003A035303F0
:104D300037F8222234444523445312442233344268
:104D40000000000000000000002BBA999B7118625F
:104D500054431244533421222221111111111111F3
:104D60001011000000000000000000000000000022
:104D7000000000000000000000000000A314311338
:104D800038F7244443234443434531243333332108
:104D9000000000000000000000388A9BBB2056265F
:104DA00044422355423422222222111111111111A1
:104DB00010010000000000000000000000000000E2
:104DC00000000000000000000000000880342113F3
:104DD00039F7223331134445422454223321110040
:104DE000100000000000000000268877B70142652F
:104DF0003431445641432222222221111111111132
:104E00001000000000000000000000000000000092
:104E100000000000000000000000004C02431113DD
:104E20003AF72112411344355323454332321211CC
:104E30001000000000000000001467647101156399
:104E400045234557524212222222211111111111DC
:104E50001000000000000000000000000000000042
:104E60000000000000000000000001D40343111303
:104E70004BE721134114444344224433322221118D
:104E8000110000000000000000123334200026430F
:104E90005324476952422222222222111111111158
:104EA00010000000000000000000000000000000F2
:104EB000000000000000000000000D9024411113CC
:104EC0005CC721134114444344213422222111118F
:104ED00010000000000010000014323200114434B1
:104EE00042447767643222222222221111111111C9
:104EF00001100000000000000000000000000000A1
:104F000000000000000000000000BF013431112249
:104F10006CB621144214544345222531111111114C
:104F2000100000000000100000123431111353442F
:104F30002446865685222222222222111111111086
:104F40001000000000000000000005878876542053
:104F500000000000000000000009F40334111122D9
:104F60007CB51114421454433532144111111110FF
:104F7000000000000000000001101222222544421F
:104F80003458753685122222222222221111100154
:104F900000000000000000000000049CBAABBBA8A9
:104FA000642000000000000000AFA01343011123A3
:104FB0008CC31114321454433532124111111100B3
:104FC00000000000000000000011122121453433D0
:104FD00054676436842122222222222211111000D9
:104FE000000000000000000000000004BDAABBBBE0
:104FF000CCB85300000000004EFC303342111124A5
:105000009CB2112533155444254212310001000091
:105010000000000000000000011112222265655509
:1050200044554536743122222222222211111000C9
:1050300000000000000000000000000019EDCCCCD2
:10504000DDDEEECA7543345AFD61023330111116AC
:10505000AC91112533156444255221310000000024
:1050600000000000000000000111122215766554B6
:10507000445235367442222222222221111100008C
:105080000000000000000000000000000054322278
:105090002334456777777676300212342111112850
:1050A000AD601135431664442462213600100000BF
:1050B00000000000000000000011111125551254DD
:1050C000453135366343122222222211110000009D
:1050D00000000000000000000000000000000000D0
:1050E0000000000000000000003112341111103ADD
:1050F000BC3111344316644424632128500000005D
:105100000013431000000000001111103644126417
:10511000452135465444212222211111000000006E
:10512000000000000000000000000000000000007F
:105130000000000000000000023012420111107B4C
:10514000C9121144431664443364121565100000FB
:1051500002654555520000000000110066441254DB
:105160004421254563433122221111000000000033
:10517000000000000000000000000000000000002F
:10518000000000000000011113112441111111AAA7
:10519000C61211444225644433751215436200005F
:1051A00004422234661000000000000385431254BC
:1051B00054112544644333122111100000000000F3
:1051C00000000000000000000000000000000000DF
:1051D000011111111111111022012520111205CAFE
:1051E000A212124442346445336721144135400011
:1051F000012333224610000000000027754213549B
:1052000053121444444423211211100000000000E2
:10521000000000000000000000000000000000018D
:1052200010111001111100103111341111202BAC8B
:1052300071111244414455452368311331235520DF
:10524000001112223400000000000476653214546C
:105250005311145432453231111100000000000086
:10526000000000000000000000000000000000003E
:1052700000000001000000022112521111009BBA2F
:1052800031111345414345453268511232222454AD
:10529000000000010000000000036966743214532E
:1052A0005311135441245223111000000000000038
:1052B00000000000000000000000000000000000EE
:1052C0000000000000111003211352111007CAB68C
:1052D000212213554152464532677211332222244E
:1052E00053000000000000023358875674321553F3
:1052F0004411124442124513200000000000000037
:10530000000000000000000000000000000000009D
:10531000000001000011101211243011007C9C7358
:10532000211214553252264432778411332222221C
:1053300034430000012345766547775574212643A1
:1053400044111144422214413100000000000000C9
:10535000000000000000000000000000000000004D
:1053600000000011110000221135201029C9B934A4
:1053700021111455225216444277761123222222FB
:1053800022344334667888865447885573213732EF
:1053900044111134521211332300000000000000A8
:1053A00000000000000000000000000000000000FD
:1053B000000000001101012111430113AC9CB43421
:1053C00011112445225206445368673113222222C8
:1053D00022223329DA77877654478855732157324A
:1053E000342111245311211222200000000000005A
:1053F00000000000000000000000000000000000AD
:1054000000000000011102211242226BB9C933537E
:10541000112124442362055452377D811231222206
:105420002222222CEEC547985458875562216632B5
:105430002431111453112110123200000000000019
:10544000000000000000000000000000000000005C
:105450000000000000110221134337BAAC8015523E
:105460001121354423620453346BDED412202222EE
:105470002222222AFDEB00456468775652127531CC
:1054800023311113531111110023200000000000DB
:10549000000000000000000000000000000000000C
:1054A000000000000000221124548CAAC6003541DF
:1054B0001121354423620177ACEEDDC42221122292
:1054C000222222228DCFB0001347984551148441E7
:1054D000233111124421211100014200000000007B
:1054E00000000000000000000000000000000000BC
:1054F0000000000000002211237BCABC400136419D
:1055000011214544135139CDCBBBDE51422200124B
:105510002222222219ECEB40020036684115844118
:105520001232111234211111000014300000000059
:10553000000000000000000000000000000000006B
:10554000000000000000211128DCACB3011145313E
:105550001121444412448DA99999BE40352210016D
:105560002222222219DDEFFB600000145327644140
:1055700011321111343111110000004400000000FB
:10558000000000000000000000000000000000001B
:105590000000000000023101AECBEA1011025511EB
:1055A0001212444217D86BAAAA999C5014421000B8
:1055B000122222222CB247BFA000000013496441EE
:1055C00011231111343111111000000340000000AB
:1055D00000000000000000000000000000000000CB
:1055E000000000000135201CFDDF90011102641154
:1055F00012134247BFE47BAAAAA99B5000342000A3
:10560000011222112BD50004300000000004564185
:105610001122111123321111110000002410000079
:10562000000000000000000000000000000000007A
:1056300000000000345303CEBDF7001111036311C5
:10564000121247CEEDC59AAAAAAA9A6100023200A8
:10565000000111003D53321110000000000004420F
:10566000111221111342111111100000014100000B
:10567000000000000000000000000000000000002A
:105680000000002443413DDBDE5001111104611193
:105690001105CDCBCDB6AAAAAAAA9A5121101110F4
:1056A000000000004DA002241000000000000013C4
:1056B0004113211112421111111110000004200098
:1056C00000000000000000000000000000000000DA
:1056D000000013433424CCBCD40111111116401125
:1056E000119EDAAABF84CAAAAABBAA401110000060
:1056F000000001104CDA1013000000000000000050
:105700002432211112332111111111100000320025
:105710000000000000000000000000000000000089
:1057200000034334315CBACD300111111026311120
:1057300009EBBBAABE75CAAA99ACCB6111110000D6
:10574000000001105CBEC512000000000000000057
:1057500001533111112421111111111111100230B5
:105760000000000000000000000000000000000039
:105770000244344201CBABD4000011111036111099
:105780005DAAABBAAE56CAAAA99BCC711111000092
:10579000000011106CABEEA2000000000000000041
:1057A00000154211112331111111111111010024A1
:1057B00010000000000000000000000000000000D9
:1057C000343442000AB9AD600000011110451111D6
:1057D0009CAABAAAAE67BAAA9999BC800111000026
:1057E000000111107CA9BEF50000000000000000BF
:1057F0000002631111123211111111111000110266
:105800004100000000000000000000000000001443
:10581000434300007B99B90000000111115311129C
:10582000BBAAAAAABC49BAAA99999CA100000000E7
:10583000000000009CA989C50000000000000000D5
:105840000000341111124201111111111000100049
:1058500025100000000000000000000000000243CE
:1058600044100003B99AA300000000110251111462
:10587000CAABBAAABB2ABBAA999989C30000000087
:1058800000000001BB9B702520000000000000000C
:105890000000361111112311111111111100000016
:1058A000015100000000000000000000000033343F
:1058B00020000009A89A51000000000103411105D1
:1058C000CAAABBAABC49BBBA999997A50000000017
:1058D00000000003B999C723220000000000000067
:1058E00000103B21111124201111111100000000A2
:1058F00000152000000000000000000000133441EB
:105900000000005B88A63100000000010431110690
:10591000CAAAABBAB93ABBCA9AA9988700000000D4
:1059200000000008A9A9AED3231000000000000069
:1059300002101E90111122411111111100000000DE
:10594000000052000000000000000000023343008D
:105950000000003A89933000000000001421110774
:10596000CAAAAACCB81AABC87979987830000000D6
:105970000000005B999A9AE41330000000000000D8
:1059800013002EE301111144011111000000000069
:10599000000005200000000000000000233420006B
:1059A00000000006AA532000000000002411110787
:1059B000CAAAAAACCC28BBBC747698886000000048
:1059C000000003B999A98BC4123200000000000046
:1059D00023006EEA011111262011100000000000C2
:1059E00000000152000000000000000233410000EE
:1059F00000000002B824000000000000231111077D
:105A0000CAAAAAAACE05D9CC8475998782000000BB
:105A100000002A99AA9778D41233100000000001E0
:105A200033208EDF501111146111100000000000AE
:105A300000000025100000000000002244000000CB
:105A40000000000197230000000000003211110740
:105A5000CAAAAAAAAE30DAACCB6898989700000020
:105A60000003AA999A8787C412233000000000031C
:105A7000212699AEC1111111541010000000000030
:105A8000000000025101000000000223400000005D
:105A90000000000233420000000000002111110745
:105AA000CAAAAAAAACA06DADCCEBBA6216300000AF
:105AB000001A769BBAA87BD502333200000002415F
:105AC00014AB9889F6011111363010000000000067
:105AD000000000003410000000002234000000002C
