:020000040800F2
:1000000068050020ED0100082F2E0008B924000823
:100010002D2E000881080008DF36000800000000CF
:100020000000000000000000000000001532000881
:100030008308000800000000AD2E000817320008F9
:10004000070200080702000807020008070200086C
:10005000070200080702000807020008070200085C
:10006000070200080702000807020008070200084C
:10007000070200080702000807020008070200083C
:10008000070200080000000007020008070200083D
:10009000070200080702000807020008070200081C
:1000A000070200080702000807020008070200080C
:1000B00007020008070200080702000807020008FC
:1000C00007020008070200080702000807020008EC
:1000D00007020008070200080702000807020008DC
:1000E00007020008070200080702000807020008CC
:1000F00007020008070200080702000800000000CD
:1001000000000000070200080000000007020008CD
:1001100007020008000000000702000807020008AC
:10012000070200080702000807020008070200088B
:10013000070200080000000000000000070200089D
:10014000070200080702000800000000000000008D
:10015000000000000000000000000000000000009F
:10016000000000000000000000000000070200087E
:10017000070200080000000000000000000000006E
:10018000000000000702000800000000000000005E
:10019000000000000000000000000000000000005F
:1001A000000000000000000007020008070200082D
:1001B000070200080702000807020008000000000C
:1001C000000000000702000800000000000000001E
:1001D0000702000807020008DFF80CD000F03CFA24
:1001E00000480047E53F00086805002006488047B2
:1001F00006480047FEE7FEE7FEE7FEE7FEE7FEE70C
:10020000FEE7FEE7FEE7FEE78D320008D9010008B1
:10021000D2B201E000F8012B491EFBD27047002248
:10022000F6E710B513460A4604461946FFF7F0FFF5
:10023000204610BD00F0004230F000400AD0C10D51
:1002400001F56071C0F3160042EA0151C20840078F
:100250001143704700200146704730B50B460146F8
:1002600000202022012409E021FA02F59D4205D355
:1002700003FA02F5491B04FA02F52844151EA2F1FF
:100280000102F1DC30BD2DE9F05F05460020924609
:100290009B4688460646814640241BE02846414648
:1002A0004746224600F0F9F953465A46C01A914192
:1002B00010D311461846224600F0E0F92D1A67EBDC
:1002C00001084F4622460120002100F0D7F917EB24
:1002D00000094E41201EA4F10104DFDC48463146EE
:1002E0002A464346BDE8F09F2DE9FE4F804681EA4D
:1002F0000300C00F0C46009021F0004123F00045A0
:10030000B8EB0200A94105D24046214690461C4662
:100310000B46024623F00040104347D0270DC7F399
:100320000A00C3F30A510290401A019040286BDA88
:10033000C3F3130040F4801B0098924620B10023C1
:10034000D2EB030A63EB0B0B01985946C0F1400254
:10035000504600F093F906460D4650465946019A1C
:1003600000F0ABF910EB08006141002487EA11525C
:1003700084EAE7731A4340D0009A62B3019A012AD3
:100380004FEA075215DC001B61EB02014FF00042FF
:1003900002EA0752CDE90042001C41F580113246C5
:1003A0002B4600F0ABF903B0BDE8F08F4046214684
:1003B000F9E7001B61EB0201001C41F580130018F6
:1003C0005B412018A2F5001747EB030140EAD57006
:1003D000B6196D4111E06D084FEA360645EAC07561
:1003E0004FEA0752001B61EB0201001C41F580112E
:1003F00049084FEA30000019514132462B4603B0FC
:10040000BDE8F04F00F06BB90098012240000023D6
:10041000D0EB020263EBE073009821464FEAE074F0
:10042000B8EB000061EB0401E9E783F000435BE710
:1004300081F0004158E72DE9FE4F81EA030404F002
:10044000004421F0004100944FF0000B23F00043E2
:1004500050EA01045ED052EA03045BD0C3F30A54AD
:10046000C1F30A552C44A4F2F3340194A0FB0254C6
:10047000C1F3130141F48011C3F3130343F4801358
:1004800001FB024400FB034E840A970A44EA8154AC
:1004900047EA8357A4FB076802958D0A05FB078589
:1004A0004FEA932C04FB0C542705029D4FEA065893
:1004B00047EA1637B5EB08056EEB070C870E920E70
:1004C00047EA811742EA8312A7FB0201B6EB0B0150
:1004D00064EB00042B0D43EA0C335E1844EB1C5014
:1004E000DA465146E7FB0201C5F313044FEA0B332A
:1004F00043EA14534FEA0432019C43EA0603A4F191
:100500000C040294009CCDE900B400F0F7F803B0AD
:10051000BDE8F08F00200146F9E72DE9F04D81EAB2
:10052000030404F0004B21F0004514464FF0000A8C
:1005300023F0004150EA050220D054EA01021DD008
:10054000C5F30A570246C5F31303C1F31300C1F301
:100550000A5640F4801543F48013A7EB0608101BDD
:10056000D64608F2FD3873EB050002D308F1010806
:1005700001E092185B41B8F1000F03DA0020014658
:10058000BDE8F08D00204FF48011064684460EE051
:10059000171B73EB050705D3121B63EB050306431B
:1005A0004CEA010C49084FEA300092185B4150EACE
:1005B0000107EDD152EA030012D082EA040083EA77
:1005C0000501084305D0101BAB4106D201220023D0
:1005D00006E000224FF0004302E06FF001025310EA
:1005E0001AEB06004CEB085110EB0A0041EB0B0133
:1005F000BDE8F04D00F073B8C1F30A52C1F3130126
:1006000040F2FF3341F480119A4202DA00200146A1
:10061000704740F233439A42A2F2334202DC524224
:1006200000F03BB800F02AB830B5041E71F10004A8
:1006300004DB4FF00044404264EB0101141E73F1EF
:10064000000405DB1C464FF00043524263EB0403F9
:10065000994208BF904230BD064C074D06E0E06865
:1006600040F0010394E8070098471034AC42F6D3F9
:10067000FFF7B6FD4C5200086C520008202A04DB3C
:10068000203A00FA02F1002070479140C2F12003A5
:1006900020FA03F3194390407047202A04DB203AE4
:1006A00021FA02F00021704721FA02F3D040C2F192
:1006B00020029140084319467047202A06DBCB17D9
:1006C000203A41FA02F043EAE07306E041FA02F30D
:1006D000D040C2F12002914008431946704710B53E
:1006E000141E73F1000408DA401C41F10001921855
:1006F0005B411A4301D120F0010010BD2DE9F04DFE
:1007000092469B4611B1B1FA81F202E0B0FA80F252
:1007100020329046FFF7B2FF04460F4640EA0A0037
:1007200041EA0B0153465A46084313D0114653EA97
:10073000010019D0C8F140025046FFF7AEFF054650
:100740000E46504659464246FFF798FF084305D0EB
:10075000012004E020463946BDE8F08D0020054325
:1007600046EAE0762C4337430A986305E40AA0EB97
:1007700008000022FD0A44EA47540A3002D500204E
:100780000146E9E7010510196941DDE9084500194D
:100790006941BDE8F04DA2E770B504462068816864
:1007A00001F0010100293ED181686FF39E1149B12A
:1007B000E06D40F01000E065206E40F00100206622
:1007C000012070BD816821F03F0121F0004141F01E
:1007D0000101816000F0ECFD05462068006810F022
:1007E000010F20D12068816801F0010139B98168C9
:1007F00021F03F0121F0004141F00101816000F052
:10080000D7FD401B022809D9E06D40F01000E065DB
:10081000206E40F001002066012070BD2068006855
:1008200010F0010FDED0002070BD00000F4810B5A1
:1008300001680F4C626A891A632915D300686062E7
:100840000C4800F0F1FB0B4800F0B4FA00EE100A7F
:10085000DFED090AB8EE400A20EE200ADFED070AB4
:1008600080EE201A84ED0A1A10BD0000400000201E
:1008700008000020640000203333534000F07F451F
:10088000FEE77047002240F6B83306E00021491C1D
:1008900089B29942FBD3521C92B28242F6D370477E
:1008A000704700002DE9F80700239C46CDF800C0F2
:1008B000FE4E90F85820012A12D0012480F85840AA
:1008C00002689568C5F3800575B1C16D41F02001DE
:1008D000C165012380F858C01846BDE8F807704785
:1008E000BDE8F807022070478D880F6805F440784E
:1008F00002EB9812D2F8308005F01F054FF01F0967
:1009000009FA05F9C7F3846728EA090807FA05F523
:1009100048EA0505156302689568C5F38005976880
:10092000C7F3C0072F434FF0070540F0FF80D1F811
:100930000880B8F1004F53D00F6807F0007902EB40
:10094000D952D2F81490C7F3045705FA07FA29EAE6
:100950000A0908FA07F749EA070757610268576961
:1009600027F00047576102684F69D2F80C80C8F33E
:10097000C1084FEA480807FA08F80F69042F4CD05D
:10098000D1F8009002EB8702176EDFF824A309F07C
:10099000F84907EA0A0749EA080847EA080747F05A
:1009A000004717660268D1F810808F6902EB880251
:1009B000D2F8608028F0807848EA070717660F7F32
:1009C0000268D1F81080012F24D0002702EB8802A2
:1009D000D2F8608028F0007848EA07071766A5E09B
:1009E0000F684FF0000807F0007902EBD952D2F8F7
:1009F0001490C7F3045705FA07FA29EA0A0908FA16
:100A000007F749EA070757610268576947F0004747
:100A10005761A8E74FF00077D8E702F160073F6819
:100A200000277F037F0B7CD002F160073F6807F04F
:100A3000F84797FAA7F7B7FA87F80F68C7F31209CC
:100A4000B9F1000F6ED097FAA7F7B7FA87F7B84554
:100A500003D1176E27F0004717660268121D02F1D6
:100A600060073F6800277F037F0B71D002F16007AA
:100A70003F6807F0F84797FAA7F7B7FA87F80F68C3
:100A8000C7F31209B9F1000F6AD097FAA7F7B7FABE
:100A900087F7B84503D1176E27F00047176602683D
:100AA000083202F160073F6800277F037F0B5AD0AE
:100AB00002F160073F6807F0F84797FAA7F7B7FA1F
:100AC00087F80F68C7F31209B9F1000F53D097FAEE
:100AD000A7F7B7FA87F7B84503D1176E27F0004795
:100AE000176602680C3202F160073F6800277F0337
:100AF0007F0B43D002F160073F6807F0F84797FA91
:100B0000A7F7B7FA87F80F68C7F31209B9F1000F12
:100B10003CD097FAA7F7B7FA87F7B84506D1176E12
:100B200001E009E010E027F00047176602689768C7
:100B300007F001076FB3D1E002F160073F6807F0EB
:100B4000F8474FEA976878E7C7F384677FE7FFE7DE
:100B500002F160073F6807F0F8474FEA97688EE7B1
:100B6000C7F3846795E702F160073F6807F0F8472D
:100B70004FEA9768A5E7C7F38467ACE702F160071F
:100B80003F6807F0F8474FEA9768BCE7C7F3846708
:100B9000C3E791F80C800F68D2F8B090C7F3120A3F
:100BA00029EA0A09DFF80CA108F018082AFA08F85F
:100BB00008EA070749EA0707C2F8B070CA68B242F4
:100BC0007AD10A68076812EA0A061AD092FAA2F6DF
:100BD000B6FA86F6761C06F01F06092E32D8C2F346
:100BE0001206002E10D092FAA2F6B6FA86F606F198
:100BF000010606F01F0604FA06F608D1C2F3846463
:100C000009E0C2F38466E5E7C2F38466EFE792FA8F
:100C1000A2F4B4FA84F404F1010404F01F0446EAD7
:100C2000846402D1C2F3846203E092FAA2F2B2FABF
:100C300082F202F1010202F01F0202EB420244EAD8
:100C4000025432E0C2F31206002E0DD092FAA2F640
:100C5000B6FA86F606F1010606F01F0604FA06F655
:100C600005D1C2F3846406E0C2F38466F2E792FA27
:100C7000A2F4B4FA84F404F1010404F01F0446EA77
:100C8000846402D1C2F3846203E092FAA2F2B2FA5F
:100C900082F202F1010202F01F02A2F10A0202EB4B
:100CA000420244EA025242F0007406E000007F4033
:100CB00000F0FF03FFFF070010E08E6804F00072F1
:100CC00007EBD2525769C4F3045405FA04F527EA36
:100CD000050506FA04F445EA040454610A682F493C
:100CE0000A423FF4F7AD2E4CA16801F0E07102F129
:100CF000705515F55F0502D02A4DAA4202D111F4B4
:100D0000000F1ED0284D02F1605616F52E0602D1B6
:100D100011F0807F35D002F1505616F5F8067FF4B9
:100D2000D9AD11F4800F7FF4D5AD0268AA423FF42B
:100D3000D1AD41F48001A26822F0E0721143A160BC
:100D4000C8E50268B2F1A04F7FF4C4AD41F40001E0
:100D5000A26822F0E0721143A1601449144A0968A4
:100D6000B1FBF2F101EB41018900009100990029EA
:100D70003FF4B0AD0099491E009100990029F9D1C6
:100D8000A8E50268AA423FF4A5AD41F08071A268CF
:100D900022F0E0721143A1609CE500000000088091
:100DA000000300501000C0900001005034000020EB
:100DB000400D03000068006C70470000F8B5044661
:100DC000002500260096002C02D0E06D10B107E04F
:100DD0000120F8BD204600F0F7F8266684F8586038
:100DE00020688168C1F3407129B1816821F03F0119
:100DF00021F02041816020688168C1F30071A9B9A8
:100E0000816821F03F0121F0004141F08051816073
:100E1000684869490068B0FBF1F00090009828B17B
:100E20000098401E009000980028F9D12068816841
:100E3000C1F3007141B9E16D41F01001E165216E2E
:100E400041F00101216601258168C1F38001E26D55
:100E500012F0100F00D131B1E06D40F01000E065EC
:100E600001252846F8BDE16D21F4807141F00201B1
:100E7000E165806800F0010088B94FF0A04080680B
:100E800000F001004D49896801F00101084306D1D5
:100E900060684B498A6822F47C1210438860E168DC
:100EA000E06B627F0843A16841EA4231084394F84D
:100EB000241040EA0140012903D1218D491E40EA56
:100EC0004140E16A21B101F47871226B084310437B
:100ED0002168CA683B4B1A401043C860206801690A
:100EE000626B21F040611143016120688168C1F3A8
:100EF00080018268C2F3C002114332D1217F94F88D
:100F00003820890341EA4201C26822F0020222F439
:100F100080421143C160206970B12068016941F4C9
:100F2000803101612068D0F8C01022696FF30D0193
:100F30001143C0F8C0100BE02068016921F4803132
:100F400001612068D0F8C0106FF30D01C0F8C01027
:100F500094F84000012813D02068016921F00101B4
:100F60000161606901281CD02068016B21F00F012C
:100F70000163E06D20F0020040F00100E06570E7E1
:100F8000A16C606C226D0843E16C114340EA0102E0
:100F9000206801696FF38A01114341F00101016189
:100FA000DFE72068016B226A21F00F01521E114316
:100FB0000163DEE734000020400D03000001005013
:100FC000000300500740F0FF10B586B0044614211E
:100FD0006846FFF724F91149206888421BD1104860
:100FE000C16C41F40051C164C16C01F40051059120
:100FF000C16C41F00201C164C06C694600F002009E
:1010000005904FF4004000900320019000200290D2
:10101000044800F09FF806B010BD00000001005029
:10102000001002400004004870B504463D48806846
:1010300000F01F0520688068C0F38000002802D0FF
:101040000222104670BD94F8580001280DD00120EE
:1010500084F858002046FFF79FFB024610004FF02F
:10106000000C04D084F858C0EBE7022070BDE06D9E
:1010700020F0010020F4606040F48070E0652A4BAD
:101080002068984202D14FF0A04100E00146814221
:1010900000D01DB9E16D21F48011E165E16D11F41D
:1010A000805F04D0216E21F00601216601E0C4F8C2
:1010B00060C01C21016084F858C02068984202D1A9
:1010C0004FF0A04100E00146814217D0B5B1052D97
:1010D00014D0092D12D0E16D41F48011E1659842E0
:1010E00001D14FF0A040C06810F0007FA9D0E06DA2
:1010F00020F4005040F48050E065A2E7C16811F090
:10110000007F05D0E16D21F4005141F48051E1658B
:10111000816821F03F0121F0004141F0040181602C
:101120008FE70000000300500001005070B5044636
:1011300000F03EF90546B4F1FF3F02D00448406894
:10114000044400F035F9401BA042FAD370BD000002
:10115000380000202DE9F84F00220B68002B7CD0CE
:101160000324874E874F0F250123D1F800C003FACF
:1011700002F80CEA0803002B70D0D1F804C0BCF1CF
:10118000010F08D0BCF1020F05D0BCF1110F02D045
:10119000BCF1120F1DD1D0F808904FEA420C04FAAE
:1011A0000CFA29EA0A09D1F80CA00AFA0CFC4CEA5C
:1011B000090CC0F808C0D0F804C02CEA080C91F85B
:1011C0000480C8F3001808FA02F848EA0C0CC0F8CA
:1011D00004C0D0F80C804FEA420C04FA0CFA28EA5A
:1011E0000A08D1F8089009FA0CF949EA0808C0F889
:1011F0000C80D1F80480B8F1020F02D0B8F1120FC0
:1012000015D14FEAD20800EB8808D8F820B04FEA91
:1012100042794FEAD96905FA09FE2BEA0E0BD1F89B
:1012200010E00EFA09F949EA0B09C8F82090D0F845
:10123000008028EA0A0891F8049009F0030909FAE5
:101240000CFC4CEA080CC0F800C0D1F804C01CF03B
:10125000805F7CD0D6F860C001E07DE077E04CF0A4
:10126000010CC6F860C0D6F860C00CF0010CCDF8D7
:1012700000C022F0030C0CF1804909F58039D9F83F
:1012800008C04FEA82784FEA187805FA08FA2CEA83
:101290000A0AB0F1904F64D0A0F1904CBCF5806C7C
:1012A0005CD0A0F1904CBCF5006C5DD0A0F1904CEE
:1012B000BCF5406C5BD0A0F1904CBCF5805C59D083
:1012C000A0F1904CBCF5A05C57D04FF0060C0CFA86
:1012D00008FC4CEA0A0CC9F808C0D7F800C02CEA90
:1012E000030CD1F8048018F4803F01D04CEA030CC1
:1012F000C7F800C0DFF89080D8F800C02CEA030CD3
:10130000D1F8049019F4003F01D04CEA030CC8F85E
:1013100000C0DFF87880D8F800C02CEA030CD1F8C0
:10132000049019F4801F01D04CEA030CC8F800C0E7
:10133000DFF85C80D8F800C02CEA030CD1F80490E8
:1013400019F4001F01D04CEA030CC8F800C0521C6D
:101350000B68D3407FF408AFBDE8F88F4FF0010C65
:10136000B5E74FF0000CB2E74FF0020CAFE74FF0DB
:10137000030CACE74FF0040CA9E74FF0050CA6E70F
:101380000010024000040140040401400804014030
:101390000C0401400069084201D001207047002080
:1013A0007047002A01D08161704781627047000058
:1013B00001488068704700003800002002488168BA
:1013C00042681144816070473800002010B5002445
:1013D000032000F081F8002000F008F808B1012493
:1013E00001E000F029F8204610BD000070B5054668
:1013F00000240F4E7068002817D04FF47A71B1FBAB
:10140000F0F00C490968B1FBF0F000F021FE08B1E2
:1014100001240BE0102D06D200222946501E00F0B8
:1014200027F8356002E0012400E00124204670BD69
:1014300038000020340000200B4808B5016E41F050
:1014400001010166016E01F001010091816D41F021
:1014500080518165806D00F0805000900348816864
:1014600041F48041816008BD0010024000700040DE
:1014700010B4184B1B68C3F30223C3F1070CBCF173
:10148000040F01D94FF0040C1C1D072C01D20023BE
:1014900000E0DB1E012404FA0CFCACF1010C0CEAA8
:1014A0000101994004FA03F35B1E1A40114300281E
:1014B00006DB00F1E020090180F8001410BC704741
:1014C00000F00F0000F1E020090180F8141D10BCAD
:1014D000704700000CED00E000F00700064A1168BC
:1014E0004FF6FF03194041EA002040F0FD7040F044
:1014F00080601060704700000CED00E0334932223C
:10150000334B09684A43334900280AD0B0F5007FBD
:1015100031D0086820F4C06040F48060086000208A
:101520007047086800F4C060B0F5806F06D0D1F84D
:10153000800020F48070C1F88000F0E7D1F88000CE
:1015400020F48070C1F88000086820F4C06040F486
:1015500000700860B2FBF3F0401C00E0401E4A69D6
:1015600012F4806F01D00028F8D1486910F4806F20
:10157000D5D003207047086800F4C060B0F5806FD4
:1015800006D0D1F8800040F48070C1F88000C6E732
:10159000D1F8800040F48070C1F88000086820F421
:1015A000C06040F400700860B2FBF3F0401C00E043
:1015B000401E4A6912F4806F01D00028F8D14869B2
:1015C00010F4806FABD0032070470000340000207F
:1015D00040420F00007000402DE9F84F04460025FE
:1015E00000272068B04E10F4002F76D0A846B06DCA
:1015F00010F0805F09D1B06D40F08050B065B06DE3
:1016000000F0805000904FF00108DFF8A0A2DAF857
:10161000000040F48070CAF80000FFF7C9FE814660
:10162000DAF8000010F4807F0CD1FFF7C1FEA0EBC8
:101630000900022801D9032504E0DAF8000010F4BB
:10164000807FF2D025B12F46B8F1010F41D044E0A0
:10165000D6F8900000F44070A0B1216C814211D006
:10166000D6F8900020F44070D6F8901041F4803104
:10167000C6F89010D6F8901021F48031C6F890107A
:10168000C6F8900010F0010F16D0FFF791FE8146CA
:10169000D6F8900010F0020F0ED141F2883AFFF711
:1016A00087FEA0EB0900504501D9032504E0D6F8D8
:1016B000900010F0020FF2D00DB12F46C4E7D6F81B
:1016C0009000216C20F440700843C6F89000BBE7FE
:1016D00003E0B06D20F08050B065207810F0010F6D
:1016E00007D0D6F88800616820F003000843C6F8E8
:1016F0008800207810F0020F07D0D6F88800A16883
:1017000020F00C000843C6F88800207810F0040F81
:1017100007D0D6F88800E16820F030000843C6F80A
:101720008800207810F0080F07D0D6F888002169CB
:1017300020F0C0000843C6F88800207810F0200F81
:1017400007D0D6F88800616920F440600843C6F8E5
:101750008800207810F0400F07D0D6F88800A169E3
:1017600020F440500843C6F88800207810F0800F1D
:1017700007D0D6F88800E16920F440400843C6F855
:101780008800208810F4807F07D0D6F88800216A6E
:1017900020F440300843C6F88800208810F4007F09
:1017A00007D0D6F88800616A20F440200843C6F8C4
:1017B0008800208810F4806F0FD0D6F88800A16AC6
:1017C00020F440100843C6F88800A06AB0F5801FD6
:1017D00003D1F06840F48010F060208810F4006FAE
:1017E0000FD0D6F88800E16A20F440000843C6F81C
:1017F0008800E06AB0F5800F03D1F06840F48010F3
:10180000F060208810F4805F0FD0D6F88800216B3C
:1018100020F040700843C6F88800206BB0F1807F4C
:1018200003D1F06840F48010F060208810F4005F6D
:101830000FD0D6F88800616B20F040600843C6F8EE
:101840008800606BB0F1006F03D1F06840F4801045
:10185000F060208810F4804F0FD0D6F88800A16B7C
:1018600020F040600843C6F88800A06BB0F1006F1C
:1018700003D1F06840F48010F060208810F4004F2D
:101880000FD0D6F88800E16B20F040500843C6F82E
:101890008800E06BB0F1805F03D1F06840F48030E5
:1018A000F0603846BDE8F88F00100240007000403C
:1018B0002DE9F04704460D460027002C17D0DFF82D
:1018C000DC91D9F8000000F00F00A84212D2D9F83C
:1018D000000020F00F002843C9F80000D9F80000EC
:1018E00000F00F00A84205D00120BDE8F0870120DC
:1018F000BDE8F08720786A4E10F0010F41F2883A77
:101900005ED06068DFF89C81032806D0022822D0D0
:10191000306810F4806F49D021E0306810F0007F0B
:101920000ED001F0C5FA404524D9B06810F0F00F90
:1019300009D0207810F0020F1CD0A06818B119E06F
:101940000120BDE8F087B06820F0F00040F0800092
:10195000B06080270EE0306810F4003F23D000F024
:10196000A9F8404506D9B06820F0F00040F08000AA
:10197000B0608027B068616820F003000843B06061
:10198000FFF716FD8046B068616800F00C00B0EB10
:10199000810F15D0FFF70CFDA0EB0800504508D9CA
:1019A0000320BDE8F0870120BDE8F0870120BDE8F5
:1019B000F087B068616800F00C00B0EB810FE9D1EE
:1019C000206810F0020F17D010F0040F03D0B06899
:1019D00040F4E060B060207810F0080F05D0B068E7
:1019E00020F4605040F4E060B060B068A16820F07E
:1019F000F0000843B06005E0802F03D1B06820F00C
:101A0000F000B060D9F8000000F00F00A8421DD926
:101A1000D9F8000020F00F002843C9F80000FFF7B4
:101A2000C7FC0746D9F8000000F00F00A8420DD00F
:101A3000FFF7BEFCC01B504502D90320BDE8F0876C
:101A4000D9F8000000F00F00A842F1D1207810F082
:101A5000040F05D0B068E16820F4E0600843B0608E
:101A6000207810F0080F06D0B068216920F460508B
:101A700040EAC100B06000F01DF8B1680A4AC1F345
:101A80000311515C01F01F01C84008490860084873
:101A90000068BDE8F047FFF7A9BC00000020024045
:101AA0000010024000B4C4043C520008340000207E
:101AB000380000201A4A9068DFF868C000F00C0077
:101AC00004280CD0906800F00C011748082905D0B4
:101AD00091680C2333EA010103D00020704760466F
:101AE0007047D16801F00303D168C1F30311491CA9
:101AF000032B0DD0BCFBF1F0D168C1F306214843A4
:101B0000D168C1F34161491C4900B0FBF1F0704755
:101B1000B0FBF1F0D168C1F306214843F0E70000C3
:101B2000001002400024F40000366E012DE9F84355
:101B30000446002C0ED02078FD4F10F0010F60D02D
:101B4000B8683D4600F00C00E96801F003010C287C
:101B500003D004E00120BDE8F88303291AD0082847
:101B600018D06068B0F5803F1DD0B0F5A02F1FD011
:101B7000286820F480302860286820F480202860BD
:101B8000606858B3FFF714FC0646286810F4003F5D
:101B900017D036E0286810F4003F32D0606880BB70
:101BA0000120BDE8F883286840F480302860E7E72A
:101BB000286840F480202860286840F4803028603D
:101BC000DEE7FFF7F5FB801B642802D90320BDE8A0
:101BD000F883286810F4003FF3D012E0FFF7E8FB29
:101BE0000646286810F4003F0BD0FFF7E1FB801B8E
:101BF000642802D90320BDE8F883286810F4003F68
:101C0000F3D1207810F0020F5ED0B8683D4600F0A6
:101C10000C00E96801F003010C2801D102290FD062
:101C200004280DD0E068B8B3286840F480702860BC
:101C3000FFF7BEFB0646286810F4806F18D023E03B
:101C4000286810F4806F01D0E06870B16868217C6A
:101C500020F0FE4040EA01606860B6480068FFF787
:101C6000C5FB88B30120BDE8F8830120BDE8F883F7
:101C7000FFF79EFB801B022802D90320BDE8F883F2
:101C8000286810F4806FF3D06868217C20F0FE4053
:101C900040EA0160686017E0FFE7286820F4807080
:101CA0002860FFF785FB0646286810F4806F0BD08C
:101CB000FFF77EFB801B022802D90320BDE8F883D2
:101CC000286810F4806FF3D1207810F0080F3AD014
:101CD0006069E0B1D7F894003D4640F00100C7F8D4
:101CE0009400FFF765FB0646D5F8940010F0020F4C
:101CF00029D1FFF75DFB801B022802D90320BDE834
:101D0000F883D5F8940010F0020FF2D01BE0D7F85A
:101D100094003D4620F00100C7F89400FFF748FB0F
:101D20000646D5F8940010F0020F0CD0FFF740FBE8
:101D3000801B022802D90320BDE8F883D5F894005F
:101D400010F0020FF2D1207810F0040F7BD04FF08A
:101D50000008B86D10F0805F09D1B86D40F0805078
:101D6000B865B86D00F0805000904FF00108724DDA
:101D7000286810F4807F16D1286840F480702860AD
:101D8000FFF716FB0646286810F4807F0BD1FFF79B
:101D90000FFB801B022802D90320BDE8F8832868C6
:101DA00010F4807FF3D0A06801281AD005281FD036
:101DB000D7F8900020F00100C7F89000D7F8900005
:101DC00020F00400C7F89000A06841F2883650B3B4
:101DD000FFF7EEFA0546D7F8900010F0020F14D086
:101DE00037E0D7F8900040F00100C7F89000EBE72B
:101DF000D7F8900040F00400C7F89000D7F89000A2
:101E000040F00100C7F89000DEE7FFF7D1FA401B71
:101E1000B04202D90320BDE8F883D7F8900010F053
:101E2000020FF2D015E0FFF7C3FA0546D7F890008D
:101E300010F0020F0DD0FFF7BBFA401BB04203D9E0
:101E40000320BDE8F8830BE0D7F8900010F0020FF4
:101E5000F1D1B8F1010F03D1B86D20F08050B86511
:101E6000207810F0200F3AD0A069E0B1D7F89800A0
:101E70003D4640F00100C7F89800FFF799FA064682
:101E8000D5F8980010F0020F29D1FFF791FA801BC6
:101E9000022802D90320BDE8F883D5F8980010F095
:101EA000020FF2D01BE0D7F898003D4620F0010069
:101EB000C7F89800FFF77CFA0646D5F8980010F0AE
:101EC000020F0CD0FFF774FA801B022802D90320FE
:101ED000BDE8F883D5F8980010F0020FF2D1E06960
:101EE00060B3B9683D460C2232EA01014FF0FF3879
:101EF00078D0022823D0286820F080702860E86815
:101F000020F00300E860E86820F4881020F080707A
:101F1000E860FFF74DFA0446286810F0007F0DD006
:101F2000FFF746FA001B022857D90320BDE8F883C3
:101F300000100240380000200070004083E0286854
:101F400020F080702860FFF733FA0646286810F00A
:101F5000007F0AD0FFF72CFA801B022801D903204A
:101F6000E4E7286810F0007FF4D1616A206A491E16
:101F700040EA0110A16A228E090208EB520241EAEE
:101F80004251084394F8341008EB510140EA416093
:101F900094F82C1040EAC160E9682C4A11400843CB
:101FA000E860286840F080702860E86840F0807041
:101FB000E860FFF7FDF90446286810F0007F42D181
:101FC000FFF7F6F9001B022801D90320AEE72868C5
:101FD00010F0007FF4D036E004E0286810F0007FB5
:101FE0009ED130E001282CD0E868226A00F003017D
:101FF000914224D1626A00F0F001521EB1EB021F3F
:102000001DD1A26A00F4FE41B1EB022F17D194F862
:102010002C1000F07842B2EBC16F10D1228E00F488
:10202000C00108EB5202B1EB425F08D194F83410C2
:1020300000F0C06008EB5101B0EB416F03D001200C
:1020400074E7012072E7002070E700000C809F0118
:10205000401EB0F1807F01D3012070474FF0E02196
:102060004861044AF0201070002088610720086150
:102070000020704723ED00E070B490F83C20012A66
:102080004CD0012280F83C20CA684FF0000C8B68CD
:1020900022F440721A434B6822F480621A430B68A0
:1020A00022F400621A430B6922F480521A434B69EE
:1020B00022F400521A430B6B22F480421A430B8B1A
:1020C00022F4702242EA0342164C0368164DA342E2
:1020D00001D0AB4203D1CE6922F080523243A342F9
:1020E00001D0AB4214D10E8D22F4700242EA0652A6
:1020F0000E6A22F0807232434E6A22F0007232433E
:10210000A34201D0AB4203D1C96A22F000520A4374
:102110005A6480F83CC070BC0020704770BC02203C
:1021200070470000002C01400034014010B5044607
:10213000002C03D094F83D0010B107E0012010BD41
:10214000002084F83C00204600F022F8022084F8A9
:102150003D00211D206801F0A7F8012084F8480007
:1021600084F83E0084F83F0084F8400084F8410081
:1021700084F8420084F8430084F8440084F8450061
:1021800084F8460084F8470084F83D00002010BD24
:1021900008B50C4A01680C48914207D1016E41F420
:1021A00000310166006E00F4003009E0074A9142F8
:1021B00007D1016E41F480210166006E00F4802099
:1021C000009008BD0044014000100240004801405A
:1021D00070B586B0044614216846FEF720F8154E07
:1021E000256800221449022401234FF09040B54293
:1021F00009D1CD6C45F00105CD64C96C01F0010138
:10220000059140210BE00D4EB54210D1CD6C45F04B
:102210000105CD64C96C01F0010105918021009197
:10222000CDE901426946CDE90323FEF793FF06B0ED
:1022300070BD000000440140001002400048014011
:1022400070B504460D4694F83C0001280BD00120DF
:1022500084F83C000C2A4AD007DC5AB1042A1DD06D
:10226000082A43D12FE0022070BD102A54D0142A2E
:102270007AD165E02946206801F07EF820688169FE
:1022800041F0080181612068816921F004018161C8
:10229000206881692A691143816165E029462068C7
:1022A00001F0BEF82068816941F400618161206815
:1022B000816921F480618161206881692A6941EA2C
:1022C0000221816150E02946206801F0F7F820687A
:1022D000C16941F00801C1612068C16921F00401B0
:1022E000C1612068C1692A691143C1613CE0294686
:1022F000206801F031F92068C16941F40061C161D1
:102300002068C16921F48061C1612068C1692A69BE
:1023100041EA0221C16127E02946206801F06AF9FB
:102320002068016D41F0080101652068016D21F010
:10233000040101652068016D2A691143016513E0FC
:102340002946206801F090F92068016D41F4006190
:1023500001652068016D21F4806101652068016DCF
:102360002A6941EA02210165002084F83C0070BD21
:1023700010B50446002C03D094F83D0010B107E0DE
:10238000012010BD002084F83C00204600F022F817
:10239000022084F83D00211D206800F085FF012007
:1023A00084F8480084F83E0084F83F0084F8400038
:1023B00084F8410084F8420084F8430084F8440023
:1023C00084F8450084F8460084F8470084F83D000E
:1023D000002010BD7047000010B5044600290DD044
:1023E00004290ED008290FD00C2910D0102911D0A3
:1023F00094F84300012810D0012010BD94F83E004D
:10240000F8E794F83F00F5E794F84000F2E794F815
:102410004100EFE794F84200ECE70220D1B3042931
:102420003CD008293DD00C293ED010293FD084F85B
:1024300043000122206800F08FFF2068A0F1804156
:10244000B1F5963113D0A0F18041B1F59A310ED09B
:10245000A0F18041B1F5A03109D0A0F18041B1F5E2
:10246000A23104D0A0F18041B1F5A43103D1416C77
:1024700041F400414164206881680E4A11400629F8
:1024800006D0B1F5803F03D0016841F00101016041
:10249000002010BDFFE784F83E00CAE784F83F0043
:1024A000C7E784F84000C4E784F84100C1E784F836
:1024B0004200BEE707000100FEE700002DE9F04101
:1024C000434E01213046FEF765FF424D424C48B96C
:1024D00028686168401A142878D3286860606069A9
:1024E000401C60610121B0463046FEF753FF0026D4
:1024F000012807D1606928B166612078401C00F08E
:102500000100207060780A2701283DD10221404651
:10251000FEF740FF48B92868A168401A142855D32F
:102520002868A060A069401CA06102214046FEF717
:1025300031FF012809D1A06938B1A661A0780A301D
:10254000C0B2A0705A2800D9A77004214046FEF7F7
:1025500021FF48B92868E168401A142836D3286852
:10256000E060E069401CE06104214046FEF712FF94
:10257000012809D1E06938B1E661E0780A30C0B2DB
:10258000E0705A2800D9E7704FF09048012140468A
:10259000FEF700FF48B928682169401A142815D3AE
:1025A00028682061206A401C206201214046FEF715
:1025B000F1FE01280AD1206A002807D02662A77000
:1025C000E7706078401C00F001006070BDE8F081A9
:1025D00000040048400000200800002000B585B03D
:1025E00014216846FDF71BFE4FF6FF700090002097
:1025F0000321CDE90201019069460248FEF7AAFDD8
:1026000005B000BD0008004800B585B0142168463B
:10261000FDF705FE4FF6FF700090012001900320AA
:1026200003900020029069460248FEF793FD05B032
:1026300000BD00000008004870B500240646214691
:10264000204600F0A1F900F0E3F94FF4963530464A
:1026500000F0AEF9641CAC42F9D370BD30B587B060
:1026600014216846FDF7DBFD1E48C16C41F00401F2
:10267000C164C16C01F004010591C16C41F001011C
:10268000C164C16C01F001010591C16C41F002010E
:10269000C164C06C012500F0020005904FF4487041
:1026A000CDE9000500240394694602940E48FEF724
:1026B00051FD280203940090CDE901544FF090445D
:1026C00069462046FEF746FDFFF79EFFA06940F4ED
:1026D0008070A06104481830016841F408710160FD
:1026E00007B030BD0010024000040048203AD2B2CA
:1026F000034B02EB420203EB021200F019B8000098
:102700006C400008F0B50E460746002540F23F1425
:1027100007E021463846FFF7E9FF103C6D1CA4B2E4
:10272000761C3278002A01D0142DF2D3F0BD0000BF
:102730002DE9F04791468A460026044600F024F928
:10274000DFF84080012700BF00F062F95FF000056C
:1027500039F8160007FA05F10842404601D14088D1
:1027600000E0008800F024F96D1C102DF0D3641CEB
:10277000E4B25146204600F007F9761C182EE3D348
:10278000BDE8F0870000002010B5FFF767FF0020CC
:1027900000F0B2F8084CA080A088A0F502413039C2
:1027A00006D000F036FC002000F0A6F8A08010BD96
:1027B00000F0A6FBF7E700000000002010B5244C55
:1027C0002078002823D123A1284800F089FF274939
:1027D0000020FFF797FFA06AFDF72CFD41EC100BDE
:1027E00023A153EC102B214800F07AFF1F49302021
:1027F000FFF788FF607818B923A16020FFF782FFF8
:102800006078012803D125A16020FFF77BFF2078A5
:1028100001281BD126A1154800F062FF13490020B2
:10282000FFF770FFA27828A1104800F059FF0F4968
:102830003020FFF767FFE27829A10C4800F050FF35
:10284000BDE8104009496020FFF75CBF10BD0000E3
:1028500008000020202020202020446174652020D2
:102860002020202020202020000000004400002004
:1028700020202020563A252E326656202020202067
:102880002020202020000000202020204D6F6465A3
:102890003A4155544F2020202020000020202020A5
:1028A0004D6F64653A4D414E552020202020000098
:1028B0002020202020205061726120202020202014
:1028C0002020202000000000202020205041363A07
:1028D00025642525202020202020202020200000E5
:1028E000202020205041373A256425252020202013
:1028F000202020202020000070B51D490A6842F4E5
:1029000000720A600A6842F480720A60184C103C37
:10291000226842F020022260164A1060086840F0E7
:102920002000086000BF00BF00BF206840F020000A
:102930002060206840F480702060FFF74FFE4FF069
:102940009041886A40F48070886200BF00BF00BF79
:102950000848001F006885B2886940F4807088616B
:10296000FFF752FE206840F400702060284670BDDA
:10297000280400481408004801B5BDF800000149CA
:10298000488008BD0000002010B50C4601462020FC
:1029900000F070F82146BDE81040212000F06AB830
:1029A00001B5BDF800000149088008BD0000002005
:1029B00030B5154B1968154A8CB2116841F4007195
:1029C0001160124910390D6845F480750D600D686D
:1029D00045F020050D601860106840F02000106080
:1029E00000BF00BF00BF086840F020000860086812
:1029F00040F48070086000BF00BF00BF086840F46A
:102A0000007008601C6030BD1408004828040048AD
:102A1000164A10B51068164983B2086840F4007071
:102A20000860086840F48070086011481038046835
:102A300044F020040460222414600C6844F0200454
:102A40000C6000BF00BF00BF016841F020010160C1
:102A5000016841F48071016000BF00BF00BF0168E0
:102A600041F400710160136010BD000014080048BB
:102A70002804004870B51A4C22681A4B95B21A689F
:102A800042F400721A601A6842F480721A60154AA1
:102A9000103A166846F0200616602060186840F06C
:102AA0002000186000BF00BF00BF106840F0200089
:102AB0001060106840F4807010602160186840F069
:102AC0002000186000BF00BF00BF106840F0200069
:102AD0001060106840F480701060256070BD0000C8
:102AE000140800482804004810B501224FF6FF7171
:102AF0000748FEF756FC074C012204212046FEF74A
:102B000050FC20460022BDE810400421FEF749BCDD
:102B100000080048000C004810B50D4B00020129C8
:102B200001D011B106E0002200E001220146184662
:102B3000FEF737FC074C012204212046FEF731FC4A
:102B400020460022BDE810400421FEF72ABC000008
:102B500000080048000C004830B589B020216846C4
:102B6000FDF75DFB184817490024C0E90014846094
:102B7000C46004250461C0E9054504774477012158
:102B8000016280F82440C462046380F83840C46362
:102B900080F84040FEF712F908B1FDF781FE0B48BE
:102BA00000900620CDE901047F200594CDE90305BE
:102BB00069460548FDF776FE002801D0FDF770FE56
:102BC00009B030BD00010050640000200080F03EDC
:102BD0002DE9F04F87B014216846FDF720FB3F48F0
:102BE000C16C41F00401C164C16C01F004010591A4
:102BF000C16C41F02001C164C16C01F0200105915C
:102C0000C16C41F00101C164C16C01F00101059189
:102C1000C16C41F00201C164C16C01F00201059177
:102C2000C16C41F00801C164C06CDFF8B48000F0F1
:102C300008004FF6FF740590002221464046FEF73B
:102C4000B0FB4FF480764FF0904900223146484661
:102C5000FEF7A7FBDFF88CA0002204215046FEF708
:102C6000A0FBDFF884B04FF448770022394658467D
:102C7000FEF797FB0125CDE9004500240294694643
:102C800040460394FEF766FACDE90054694648468B
:102C90000295FEF75FFA07208DE831006946584635
:102CA000FEF758FA0096CDE9015469464846039468
:102CB000FEF750FA04200090CDE9015469465046D1
:102CC0000394FEF747FA0097CDE901546946584648
:102CD0000394FEF73FFA07B0BDE8F08F0010024002
:102CE00000080048000C00480004004810B594B0EB
:102CF0001C210DA8FDF793FA34216846FDF78FFAE1
:102D000021482049002401604F21C0E9011442F20A
:102D10000F71C0E903148021C0E90541FFF706FAED
:102D200008B1FDF7BDFD1848FFF722FB08B1FDF71C
:102D3000B7FD60200D904FF47A70CDE90E04109429
:102D40001194129400220DA90F481394FFF778FAFA
:102D500008B1FDF7A5FD00944FF40050CDE9044003
:102D60000194029403940694694607480C94FFF773
:102D700083F908B1FDF794FD0348FFF729FA14B071
:102D800010BD000000440140D000002010B594B0F8
:102D90001C210DA8FDF743FA34216846FDF73FFAE0
:102DA00021482049002401604F21C0E9011441F26B
:102DB0008731C0E903148021C0E90541FFF7B6F966
:102DC00008B1FDF76DFD1848FFF7D2FA08B1FDF71D
:102DD00067FD60200D904FF4FA70CDE90E04109459
:102DE0001194129400220DA90F481394FFF728FAAA
:102DF00008B1FDF755FD00944FF40050CDE90440B3
:102E00000194029403940694694607480C94FFF7D2
:102E100033F908B1FDF744FD0348FFF7D9F914B0C1
:102E200010BD0000004801401C010020FEE7704773
:102E300019484178C9B990ED0A0AB5EEC00AF1EE19
:102E400010FA02D1002181700EE0DFED140A80EE4D
:102E5000201A9FED130A21EE000ABCEEC00A10EE04
:102E6000101A817010EE101AC1700E490A6881782C
:102E7000521C4A436421B2FBF1F20A4B08331A6038
:102E8000094A1268C078521C4243B2FBF1F006496D
:102E900008310860704700000800002033335340B9
:102EA0000000C8422C4401402C48014070470000FB
:102EB0001049C86800F00302C868C0F30310401C42
:102EC000032A0ED00C4AB2FBF0F0CA68C2F3062205
:102ED0005043C968C1F34161491C4900B0FBF1F09E
:102EE0007047064AB2FBF0F0CA68C2F306225043AC
:102EF000EFE70000001002400024F40000366E01ED
:102F000030B501210020FFF7B5FD4FF47A70FDF7D1
:102F1000B9FC00210120FFF7ADFD41F290711020B6
:102F2000FFF7A8FD4FF41C516020FFF7A3FD01211E
:102F30006120FFF79FFD02214620FFF79BFD48F22D
:102F400010011320FFF796FD48F2FE011220FFF753
:102F500091FD4FF4A0610220FFF78CFD41F230019A
:102F60000320FFF787FD40F2033421463020FFF7AE
:102F700081FD21463120FFF77DFD21463220FFF7FC
:102F800079FDE51E29463320FFF774FD0321342027
:102F9000FFF770FD21463520FFF76CFD1421362028
:102FA000FFF768FD21463720FFF764FD21463820F2
:102FB000FFF760FD21463920FFF75CFD29463A20E6
:102FC000FFF758FD03213B20FFF754FD21463C202D
:102FD000FFF750FD4FF4A0513D20FFF74BFD4FF49C
:102FE00000719220FFF746FD21469320FFF742FD36
:102FF00040F60D019020FFF73DFD41F2180103203E
:10300000FFF738FDBDE8304040F273110720FFF7AD
:1030100031BD10B543F20801E320FFF72BFD12216B
:10302000E720FFF727FD41F23121EF20FFF722FDD6
:1030300000210120FFF71EFD4FF4E0610220FFF7A1
:1030400019FD41F230010320FFF714FD0021042097
:10305000FFF710FD40F207210820FFF70BFD0021CC
:103060000920FFF707FD00210A20FFF703FD0021DB
:103070000C20FFF7FFFC00210D20FFF7FBFC0021D7
:103080000F20FFF7F7FC00211020FFF7F3FC0721CA
:103090001120FFF7EFFC00211220FFF7EBFC0021CD
:1030A0001320FFF7E7FCC820FEF740F841F29061DB
:1030B0001020FFF7DFFC40F227211120FFF7DAFC98
:1030C0003220FEF733F81D211220FFF7D3FC322007
:1030D000FEF72CF84FF400611320FFF7CBFC14210E
:1030E0002920FFF7C7FC0B212B20FFF7C3FC322060
:1030F000FEF71CF800212020FFF7BCFC0021212056
:10310000FFF7B8FC07213020FFF7B4FC40F207714D
:103110003120FFF7AFFC06213220FFF7ABFC40F275
:1031200004713520FFF7A6FC41F604713620FFF745
:10313000A1FC04213720FFF79DFC00213820FFF778
:1031400099FC40F206713920FFF794FC40F20171BE
:103150003C20FFF78FFC0F213D20FFF78BFC002167
:103160005020FFF787FCEF215120FFF783FC00215F
:103170005220FFF77FFC40F23F115320FFF77AFC0B
:103180004FF41C516020FFF775FC01216120FFF70F
:1031900071FC00216A20FFF76DFC00218020FFF701
:1031A00069FC00218120FFF765FC00218220FFF7E8
:1031B00061FC00218320FFF75DFC00218420FFF7E4
:1031C00059FC00218520FFF755FC10219020FFF7C6
:1031D00051FC00219220FFF74DFC03219320FFF7C3
:1031E00049FC4FF488719520FFF744FC002197209B
:1031F000FFF740FC00219820FFF73CFC41F218014A
:103200000320FFF737FCBDE8104040F273110720A0
:10321000FFF730BC7047FEF7D1B810B5A4B0382125
:103220006846FCF7FCFF14211FA8FCF7F8FF4421B7
:103230000EA8FCF7F4FF4FF40070FEF75FF90120D1
:1032400000900004019002200324CDE9070414211A
:10325000CDE90A100C900D9009946846FEF766FCC3
:103260000F20CDE91F0400202190229023900321FC
:103270001FA8FEF71DFB4FF400400E9080031D9029
:103280000EA8FEF7A9F924B010BD0000054801689A
:1032900041F47001016003494FF00060803908601B
:1032A0007047000088ED00E02DE9F0010268234C32
:1032B000234BDFF89080DFF890C0A04208D0B0F137
:1032C000804F05D0984203D0404501D0604503D1DE
:1032D00022F070024D682A431C4D1D4E1D4FA04226
:1032E0000ED0B0F1804F0BD0984209D0404507D0A6
:1032F000604505D0A84203D0B04201D0B84203D106
:1033000022F44072CB681A434B6922F080021A43C0
:1033100002608A68C2620A688262A04207D0604581
:1033200005D0A84203D0B04201D0B84201D109690A
:10333000016301214161BDE8F0017047002C0140AB
:1033400000040040000800400034014000400140FB
:10335000004401400048014001F01F0101238B405F
:10336000D0F820C02CEA03030362036A02FA01F1D9
:1033700019430162704700002DE9F003026A22F050
:1033800001020262026A4368D0F818C02CF0700C87
:103390002CF4803C2CF0030C0C6844EA0C0C22F05A
:1033A00002028C682243194C194D1A4E1A4FDFF84D
:1033B0006C80A04207D0A84205D0B04203D0B842EA
:1033C00001D0404507D122F00802D1F80C9049EA1B
:1033D000020222F00402A04207D0A84205D0B04267
:1033E00003D0B84201D0404507D123F4807323F4C1
:1033F00000734C6923438C6923434360C0F818C0B1
:10340000496841630262BDE8F0037047002C014047
:1034100000340140004001400044014000480140A8
:1034200070B4026A22F010020262036A4268D0F8A5
:1034300018C02CF4E04C2CF0807C2CF4407C0C6800
:103440004CEA042C23F020038C6843EA0413194C43
:10345000194DA04201D0A84206D123F08003CE68C6
:1034600043EA061323F04003A04210D0A8420ED036
:10347000A0F18044B4F5A03409D0A0F18044B4F5A3
:10348000A23404D0A0F18044B4F5A43409D122F4CC
:10349000806222F400624C6942EA84028C6942EA4A
:1034A00084024260C0F818C049688163036270BC3E
:1034B00070470000002C01400034014070B4026AE3
:1034C00022F480720262036A4268D0F81CC02CF0B9
:1034D000700C2CF4803C2CF0030C0C6844EA0C0CAF
:1034E00023F400738C6843EA0423194C194DA0425D
:1034F00001D0A84206D123F40063CE6843EA062334
:1035000023F48063A04210D0A8420ED0A0F18044E2
:10351000B4F5A03409D0A0F18044B4F5A23404D0AD
:10352000A0F18044B4F5A43409D122F4805222F4ED
:1035300000524C6942EA04128C6942EA0412426069
:10354000C0F81CC04968C163036270BC70470000CA
:10355000002C01400034014070B4026A22F4805211
:103560000262036A4268D0F81CC02CF4E04C2CF0D4
:10357000807C2CF4407C0C684CEA042C23F400532F
:103580008C6843EA0433194C194DA04201D0A8427B
:1035900006D123F40043CE6843EA063323F4804384
:1035A000A04210D0A8420ED0A0F18044B4F5A034BF
:1035B00009D0A0F18044B4F5A23404D0A0F1804435
:1035C000B4F5A43409D122F4804222F400424C69BB
:1035D00042EA84128C6942EA84124260C0F81CC03C
:1035E00049680164036270BC70470000002C014010
:1035F0000034014010B4026A22F480320262D0F832
:1036000020C04268036D23F0700323F480330C68FC
:1036100023432CF4003C0C894CEA044CA0F1804478
:10362000B4F5963413D0A0F18044B4F59A340ED09A
:10363000A0F18044B4F5A03409D0A0F18044B4F5E1
:10364000A23404D0A0F18044B4F5A43404D122F40F
:1036500080324C6942EA0422426003654968816411
:10366000C0F820C010BC704710B4026A22F4801267
:103670000262D0F820C04268036D23F4E04323F0D7
:1036800080730C6843EA04232CF4001C0C894CEA78
:10369000045CA0F18044B4F5963413D0A0F18044CA
:1036A000B4F59A340ED0A0F18044B4F5A03409D01A
:1036B000A0F18044B4F5A23404D0A0F18044B4F564
:1036C000A43404D122F480224C6942EA842242606C
:1036D00003654968C164C0F820C010BC7047FEE7AC
:1036E0000FB4084B10B504A902AA039800F0DEF845
:1036F000044602A9002000F070FC204610BC5DF8D2
:1037000014FB0000DB3F000802E008C8121F08C1DC
:10371000002AFAD170477047002001E001C1121F52
:10372000002AFBD1704700002DE9FF5F82B0002125
:10373000DDE90430020DDDF840B0034318D044F653
:103740001050A2F2FF3242431514119801281FD0E5
:10375000A5EB0B00401C5FEA000A4FF000064E4F3D
:10376000DFF83891B046504615D5CAF1000413E091
:10377000119801244AA3012801D16FEA0B01029894
:10378000119AC0E90031C0E9024206B0BDE8F09FDD
:10379000CBF10000DFE704460021404A491842EB24
:1037A0000450CDE9001012E0E00707D032463B4656
:1037B00040464946FCF73FFE8046894632463B4636
:1037C00010461946FCF737FE06460F466410002CDB
:1037D000EAD1DDE90401DDE90023BAF1000F06DAE0
:1037E000FCF729FE42464B46FCF725FE05E0FCF7B8
:1037F00094FE42464B46FCF790FE04460E460022DD
:10380000284BFCF711FF03D84FF0FF30014607E0CB
:103810000022254B20463146FCF766FDFCF7ECFE06
:10382000102409E0002C0ADB0A220023FCF72BFD00
:10383000039B30321A55641E50EA0102F2D1641C17
:10384000039AC4F111031444119A012A03D00122EE
:1038500008430DD10AE0084304D000204FF0110BBB
:10386000119072E7A3EB0B056D1E0DE05B4504DDC7
:103870004FF0000205F1010504E003DA4FF0000209
:10388000A5F10105002AECD002981199C0E9023196
:10389000C0E9004579E70000000014400000F03F57
:1038A000300000000000F0430000E03F2DE9FF4F32
:1038B00095B09B468946064600250FE2252877D11C
:1038C00000242746F84A0121059400E0044316F835
:1038D000013F203B01FA03F01042F7D130782A284B
:1038E00011D06FF02F033078A0F13002092A16D8DA
:1038F000059A44F0020402EB820203EB42021044F8
:10390000761C0590EFE759F8042B0592002A03DA9C
:10391000504244F40054059044F00204761C307880
:103920002E2816D116F8010F44F004042A280DD0D1
:103930006FF02F023078A0F13003092B09D807EB84
:10394000870302EB4303C718761CF3E759F8047B9F
:10395000761C30786C280FD006DC4C2817D06828ED
:103960000DD06A2814D104E0742810D07A280FD121
:103970000DE044F400140AE044F4801401E044F43F
:1039800040147278824202D104F58014761C761CB1
:10399000307866280BD013DC582877D009DC002853
:1039A00075D04528F6D04628F4D047281AD19DE195
:1039B00018E0632835D0642879D0652812D195E1C4
:1039C000702873D008DC6728F1D069286FD06E2882
:1039D0000DD06F2806D1B5E073282CD0752875D08E
:1039E000782874D05A46179990476D1C75E1C4F336
:1039F0000250022809D003280DD0D9F8001004285D
:103A00000DD00D6009F1040967E1D9F80010EA173B
:103A1000C1E90052F6E7D9F800100D80F2E70D7009
:103A2000F0E719F8041B8DF8001000208DF8010054
:103A3000EA46012003E059F804AB4FF0FF3061077C
:103A40004FF0000102D40DE008F101018846B942AF
:103A50000FDA8045F8DB1AF808100029F4D108E0E5
:103A600008F1010188468142FADB1AF808100029A2
:103A7000F6D105985B46A0EB080721463846179A11
:103A800000F094FA284400EB080507E04DE029E136
:103A90000DE01AF8010B5A4617999047B8F1010842
:103AA000F7D25B4621463846179A13E142E00A22D4
:103AB0000092C4F302524FF0000A022A08D059F8CB
:103AC00004CB032A4FEAEC710AD00DE029E02AE08A
:103AD00009F1070121F00702F2E802C1914609E06D
:103AE0000FFA8CFC4FEAEC71042A03D14FFA8CFCDC
:103AF0004FEAEC71002907DA0A460021DCF1000CDC
:103B000061EB02012D2202E0220504D52B228DF863
:103B10000420012203E0E20701D02022F7E79046CB
:103B200059E00A2102E010220DE010214FF0000AB6
:103B300000910BE010224FF0000A44F00404082723
:103B4000009203E008224FF0000A0092C4F30252F0
:103B5000022A05D059F804CB0021032A08D009E035
:103B600009F1070121F00702F2E802C1914605E0E0
:103B70001FFA8CFC042A01D10CF0FF0C4FF0000856
:103B8000220728D5702806D0009B83F0100353EA43
:103B90000A0305D00EE040228DF80420012208E03F
:103BA0005CEA010206D030228DF804208DF8050071
:103BB00002229046009B83F0080353EA0A030AD1CD
:103BC0005CEA010201D1620705D530228DF804209C
:103BD0004FF001087F1E582804D034A003900EA88F
:103BE00002900DE036A0F9E753466046009AFCF7D4
:103BF0004AFB84460398825C0298401E0290027041
:103C00005CEA0100F0D1029806A9081A00F1200A26
:103C1000600702D524F4803400E00127574502DD17
:103C2000A7EB0A0000E0002000EB0A0100900598D5
:103C30004144401A0590E00306D45B462146179A9A
:103C4000059800F0B3F90544002706E001A85A469C
:103C5000C05D179990476D1C7F1C4745F6DBE0035C
:103C60000CD55B462146179A059800F09FF905444C
:103C700004E030205A46179990476D1C0099481E61
:103C800000900029F5DC08E0029802995A46007875
:103C9000491C0291179990476D1CBAF10001AAF1D5
:103CA000010AF1DC65E100000928010030313233FE
:103CB0003435363738396162636465660000000068
:103CC0003031323334353637383941424344454652
:103CD0000000000000F058F90544761C30780028F8
:103CE0007FF4ECAD19B02846BDE8F08F620700D430
:103CF000062709F1070222F0070CFCE80223E1463F
:103D000003F000485FEA080C02D00FF2702C0DE0BF
:103D10005FEA045C02D50FF2682C07E05FEAC47C1E
:103D200002D00FF2602C01E0AFF2700C4FF0FF38C0
:103D300023F00043CDF850C065280CD006DC4528A0
:103D400009D046281DD047283DD13DE0662818D02F
:103D500067287ED138E00021112F01DB112000E01F
:103D6000781CCDE9000106A90EA8FFF7DDFCDDE90E
:103D70000F010E9A03910021009207F1010A0491AC
:103D80004DE04FF000400097CDE9011006A90EA8C4
:103D9000FFF7CAFCDDE90F0203920E9B1199002286
:103DA000DDF80CA00093049211B9791C00EB010A14
:103DB000B7EB0A0004D4C0F1FF3007F1010A049008
:103DC000AAEB0700019044E0012F00DA012700214F
:103DD000112F01DD112000E03846CDE9000106A9D0
:103DE0000EA8FFF7A1FCDDE90F010E9A0391002157
:103DF00004910092BA4621070CD40399514500DA88
:103E00008A46BAF1010F05DD009AAAF10101515C61
:103E1000302908D0B84202DA10F1040F06DA012185
:103E2000CDE9011015E0AAF10101E9E7002805DC60
:103E3000049901440491AAEB000102E0411C5145A0
:103E400000DD8A460499401A401C01904FF0004062
:103E50000290200704D40198504501DBCDF804807E
:103E600000208DF84F0002980DF14F07B0F1004F80
:103E700025D02B200E9002984FF0020800280CDA73
:103E8000404202902D200E9007E00A210298FCF794
:103E9000E4F93031029007F8011DB8F10001A8F1F2
:103EA0000108F2DC02980028EFD1791E0E98087004
:103EB000307800F0200040F0450007F8020D12A80D
:103EC000C01B00F107081498007800B1012000EB36
:103ED0000A01019801EBE07105984144401A401E27
:103EE0000590E00306D45B462146179A059800F03A
:103EF0005DF805441498007818B15A461799904710
:103F00006D1CE00324D55B462146179A059800F006
:103F10004DF805441CE00498002807DBDDE90301A7
:103F2000884203DD0098405C179901E01799302022
:103F30005A469047049805F10105401C04900198E9
:103F4000401E019004D12E205A46179990476D1CAF
:103F5000BAF10001AAF1010ADDDC05E017F8010B56
:103F60005A46179990476D1CB8F10001A8F1010855
:103F7000F4DC5B462146179A0598ABE62D0000005D
:103F80002B000000200000002DE9F0410446002530
:103F90001E461746880404D405E039462020B04761
:103FA0006D1C641EF9D52846BDE8F0812DE9F0416D
:103FB000044600251E469046C80301D5302700E080
:103FC0002027880404D505E041463846B0476D1CDB
:103FD000641EF9D52846BDE8F0810A68531C0B60C1
:103FE00010707047FDF7F2F9FFF717F9FEF7F0FDD3
:103FF000FEF7B2FDFEF77AFEFEF7C8FEFEF7C4FB41
:10400000FEF772FD0020FEF717FB0020FEF7B4FC60
:104010004FF6FF70FEF7C4FC00211148FEF7DCF9F3
:1040200000211048FEF7D8F90F4C00BFFEF746FA02
:10403000FEF7FEFEFCF7FAFBFEF7C0FB207850B15E
:1040400000210220FEF768FD607830B100210120D8
:10405000FEF762FDEAE70121F3E70121F7E700003F
:10406000D00000201C0100200800002000000000FB
:104070000000000000000000000000000000000040
:104080000000000000000000000000000000000030
:10409000000000000000000000000000000080019F
:1040A0008001800180018001800180018001800108
:1040B00080018001800180010000000080018001FA
:1040C00000000000000000000000000000000000F0
:1040D000CC00CC00CC00CC00CC00CC000000000018
:1040E00000000000000000000000000000000000D0
:1040F00000000000000000000000000000000000C0
:104100000000000000000000600C600C600C300635
:104110003006FE1FFE1F300638071803FE1FFE1F65
:10412000180318038C018C018C0100000000800032
:10413000E003F80F9C0E8C1C8C188C009800F80182
:10414000E007800E801C8C188C189C18B80CF00F9F
:10415000E00380008000000000000000000000007C
:1041600000000E181B0C110C11061106110311038F
:104170009B018E01C038C06C6044604430443044C0
:104180001844186C0C380000000000000000E0012A
:10419000F0033807180618063003F001F000F800A5
:1041A0009C310E33061E061C061C063FFC73F021D4
:1041B00000000000000000000000000000000000FF
:1041C0000C000C000C000C000C000C0000000000A7
:1041D00000000000000000000000000000000000DF
:1041E00000000000000000000000000000000002CD
:1041F00000038001C000C00060006000300030009B
:1042000030003000300030003000300060006000CE
:10421000C000C00080010003000200000000200078
:104220006000C0008001800100030003000600065A
:104230000006000600060006000600060003000354
:1042400080018001C000600020000000000000002C
:104250000000000000000000C000C000D806F80701
:10426000E0013003380700000000000000000000FB
:10427000000000000000000000000000000000003E
:10428000000000000000000080018001800180012A
:104290008001FC3FFC3F80018001800180018001A2
:1042A000000000000000000000000000000000000E
:1042B00000000000000000000000000000000000FE
:1042C000000000000000000000000000000080016D
:1042D00080010001000180000000000000000000DB
:1042E00000000000000000000000000000000000CE
:1042F00000000000E007E0070000000000000000F0
:1043000000000000000000000000000000000000AD
:10431000000000000000000000000000000000009D
:104320000000000000000000000000000000C000CD
:10433000C000000000000000000000000000000CB1
:10434000000C0006000600060003000300038003C3
:10435000800180018001C000C000C00060006000DA
:104360000000000000000000000000000000E0036A
:10437000F007380E180C0C180C180C180C180C1828
:104380000C180C180C180C18180C380EF007E00359
:10439000000000000000000000000000000000011C
:1043A0008001C001F0019801880180018001800135
:1043B00080018001800180018001800180018001F5
:1043C0000000000000000000000000000000E0030A
:1043D000F80F180C0C180C1800180018000C000628
:1043E00000038001C000600030001800FC1FFC1FAB
:1043F0000000000000000000000000000000E001DC
:10440000F807180E0C0C0C0C000C0006C003C007BB
:10441000000C001800180C180C18180CF807E00312
:104420000000000000000000000000000000000C80
:10443000000E000F000F800DC00C600C600C300CE3
:10444000180C0C0CFC3FFC3F000C000C000C000C8A
:104450000000000000000000000000000000F80F55
:10446000F80F180018000C00EC03FC071C0E001CD1
:104470000018001800180C181C0C180EF807E003A0
:104480000000000000000000000000000000C00765
:10449000F00F381C181818000C00CC03EC0F3C0E61
:1044A0001C1C0C180C180C18181C380EF007E00314
:1044B0000000000000000000000000000000FC1FE1
:1044C000FC1F000C00060006000380038001C001F1
:1044D000C000E0006000600070003000300030007C
:1044E0000000000000000000000000000000E003E9
:1044F000F007380E180C180C180C3806F007F007E7
:10450000180C0C180C180C180C18380CF80FE003C9
:104510000000000000000000000000000000E003B8
:10452000F007380E1C0C0C180C180C181C1C381E2C
:10453000F81BE0190018000C000C1C0EF807F00125
:10454000000000000000000000000000000000006B
:104550000000000000000000800180010000000059
:104560000000000000000000000000008001800149
:10457000000000000000000000000000000000003B
:104580000000000000000000800180010000000029
:104590000000000000000000000000008001800119
:1045A0000001000180000000000000000000000089
:1045B0000000000000000000000000000010001CCF
:1045C000800FE003F8001800F800E003800F001CE3
:1045D00000100000000000000000000000000000CB
:1045E000000000000000000000000000F81F0000B4
:1045F00000000000F81F00000000000000000000A4
:1046000000000000000000000000000000000000AA
:10461000000000000000000000000000080038005A
:10462000F001C007001F0018001FC007F00138008C
:104630000800000000000000000000000000E0038F
:10464000F80F180C0C180C180018000C00060003CA
:104650008001C000C000C00000000000C000C00019
:10466000000000000000000000000000000000004A
:10467000E00718180420C229224A114409440944B9
:10468000094409221113E20C024004201818E00723
:104690000000000000000000000000000000800397
:1046A0008003C006C006C006600C600C30183018CD
:1046B0003018F83FF83F1C700C600C6006C006C054
:1046C0000000000000000000000000000000FC03EB
:1046D000FC0F0C0C0C180C180C180C0CFC07FC0F25
:1046E0000C180C300C300C300C300C18FC1FFC0774
:1046F0000000000000000000000000000000C007F3
:10470000F01F38381C300C700660060006000600EA
:1047100006000600060006600C701C30F01FE00763
:104720000000000000000000000000000000FE0388
:10473000FE0F060E06180618063006300630063044
:1047400006300630063006180618060EFE0FFE0369
:104750000000000000000000000000000000FC3F1E
:10476000FC3F0C000C000C000C000C00FC1FFC1F9C
:104770000C000C000C000C000C000C00FC3FFC3F7B
:104780000000000000000000000000000000F83FF2
:10479000F83F18001800180018001800F81FF81F3C
:1047A0001800180018001800180018001800180049
:1047B0000000000000000000000000000000E00F0A
:1047C000F83F3C780E6006E007C00300030003FEDC
:1047D00003FE03C007C006C00EC03CF0F83FE00F68
:1047E00000000000000000000000000000000C308D
:1047F0000C300C300C300C300C300C30FC3FFC3FDB
:104800000C300C300C300C300C300C300C300C30C8
:104810000000000000000000000000000000800117
:104820008001800180018001800180018001800180
:104830008001800180018001800180018001800170
:104840000000000000000000000000000000000662
:104850000006000600060006000600060006000628
:10486000000600060006180618063807F003E001E7
:104870000000000000000000000000000000063002
:104880000618060C060606038601C60066007600BA
:10489000DE008E0106030606060C061806300660CA
:1048A00000000000000000000000000000001800F0
:1048B0001800180018001800180018001800180038
:1048C000180018001800180018001800F81FF81F2A
:1048D00000000000000000000000000000000EE0EA
:1048E0001EF01EF01EF036D836D836D836D866CC34
:1048F00066CC66CCC6C6C6C6C6C6C6C686C386C392
:1049000000000000000000000000000000000C306B
:104910001C303C303C306C306C30CC30CC308C3186
:104920000C330C330C360C360C3C0C3C0C380C3075
:104930000000000000000000000000000000E00790
:10494000F81F1C380E70066003C003C003C003C00C
:1049500003C003C003C006600E701C38F81FE007D8
:104960000000000000000000000000000000FC0F3C
:10497000FC1F0C380C300C300C300C300C18FC1FA9
:10498000FC070C000C000C000C000C000C000C00D0
:104990000000000000000000000000000000E00730
:1049A000F81F1C380E70066003E003C003C003C08C
:1049B00003C003C007E006630E3F1C3CF83FE0F76E
:1049C00000C0000000000000000000000000FE0F1A
:1049D000FE1F06380630063006300638FE1FFE077A
:1049E00006030606060C0618061806300630066092
:1049F0000000000000000000000000000000E003D4
:104A0000F80F1C0C0C180C180C001C00F803E00F1D
:104A1000001E0038063006300E301C1CF80FE00770
:104A20000000000000000000000000000000FE7F09
:104A3000FE7F800180018001800180018001800172
:104A4000800180018001800180018001800180015E
:104A500000000000000000000000000000000C301A
:104A60000C300C300C300C300C300C300C300C3066
:104A70000C300C300C300C300C301818F81FE007DC
:104A800000000000000000000000000000000360C3
:104A90000630063006300C180C180C18180C180CC0
:104AA000380E30063006700760036003C001C00195
:104AB0000000000000000000000000000000036093
:104AC000C361C361C361663366336633663366337D
:104AD00066336C1B6C1B6C1B2C1A3C1E380E380E7C
:104AE00000000000000000000000000000000FE0D7
:104AF0000C7018303018700C600EC00780038003F3
:104B0000C003E006700C301C18180C300E6007E073
:104B1000000000000000000000000000000003C0D2
:104B200006600C301C383818300C6006E007C003F3
:104B3000800180018001800180018001800180016D
:104B40000000000000000000000000000000FC7FEA
:104B5000FC7F006000300018000C0006000380019C
:104B6000C0006000300018000C000600FE7FFE7FD1
:104B70000000000000000000000000000000E00352
:104B8000E0036000600060006000600060006000A2
:104B90006000600060006000600060006000600015
:104BA000600060006000E003E003000000003000EF
:104BB0003000600060006000C000C000C000C001A4
:104BC000800180018001000300030003000600064D
:104BD0000000000000000000000000000000E003F2
:104BE000E0030003000300030003000300030003CD
:104BF000000300030003000300030003000300039D
:104C0000000300030003E003E003000000000000D5
:104C1000C001C00160036003600330063006180C59
:104C2000180C000000000000000000000000000060
:104C30000000000000000000000000000000000074
:104C40000000000000000000000000000000000064
:104C50000000000000000000000000000000FFFF56
:104C6000FFFF0000000000000000000000000C003A
:104C70000C000C000C000C000C00000000000000F8
:104C80000000000000000000000000000000000024
:104C90000000000000000000000000000000000014
:104CA0000000000000000000F003F8071C0C0C0CD2
:104CB000000FF00FF80C0C0C0C0C1C0FF80FF01878
:104CC00000000000000000000000000000001800CC
:104CD0001800180018001800D803F80F380C18181E
:104CE00018181818181818181818380CF80FD803AE
:104CF00000000000000000000000000000000000B4
:104D00000000000000000000C003F007300E180C87
:104D10001800180018001800180C300EF007C00317
:104D2000000000000000000000000000000000186B
:104D30000018001800180018C01BF01F301C1818AD
:104D400018181818181818181818301CF01FC01B3D
:104D50000000000000000000000000000000000053
:104D60000000000000000000C003F00F300C181815
:104D7000F81FF81F180018003818301CF00FC00773
:104D80000000000000000000000000000000800F94
:104D9000C00FC000C000C000F007F007C000C00096
:104DA000C000C000C000C000C000C000C000C00003
:104DB00000000000000000000000000000000000F3
:104DC0000000000000000000E00DF80F180E0C0CB1
:104DD0000C0C0C0C0C0C0C0C0C0C180EF80FE00D41
:104DE000000C0C0C1C06F807F00100000000180075
:104DF0001800180018001800D807F80F381C1818E9
:104E00001818181818181818181818181818181822
:104E10000000000000000000000000000000C000D2
:104E2000C000000000000000C000C000C000C000C2
:104E3000C000C000C000C000C000C000C000C00072
:104E40000000000000000000000000000000C000A2
:104E5000C000000000000000C000C000C000C00092
:104E6000C000C000C000C000C000C000C000C00042
:104E7000C000C000C000F8007800000000000C0076
:104E80000C000C000C000C000C0C0C060C038C012C
:104E9000CC006C00FC009C018C030C030C060C0C79
:104EA0000000000000000000000000000000C00042
:104EB000C000C000C000C000C000C000C000C000F2
:104EC000C000C000C000C000C000C000C000C000E2
:104ED00000000000000000000000000000000000D2
:104EE00000000000000000007C3CFF7EC7E383C19F
:104EF00083C183C183C183C183C183C183C183C192
:104F000000000000000000000000000000000000A1
:104F100000000000000000009807F80F381C181867
:104F20001818181818181818181818181818181801
:104F30000000000000000000000000000000000071
:104F40000000000000000000C003F00F300C181833
:104F500018181818181818181818300CF00FC00363
:104F60000000000000000000000000000000000041
:104F70000000000000000000D803F80F380C1818DB
:104F800018181818181818181818380CF80FD8030B
:104F90001800180018001800180000000000000099
:104FA0000000000000000000C01BF01F301C18189B
:104FB00018181818181818181818301CF01FC01BCB
:104FC0000018001800180018001800000000000069
:104FD0000000000000000000B007F0037000300087
:104FE0003000300030003000300030003000300041
:104FF00000000000000000000000000000000000B1
:105000000000000000000000E003F003380E180C60
:105010003800F003C007000C180C380EF007E0034E
:105020000000000000000000000000000000000080
:105030008000C000C000C000F007F007C000C00042
:10504000C000C000C000C000C000C000C007800792
:105050000000000000000000000000000000000050
:105060000000000000000000181818181818181880
:1050700018181818181818181818381CF01FE019E4
:105080000000000000000000000000000000000020
:1050900000000000000000000C18180C180C180C80
:1050A000300630063006600360036003C001C001B3
:1050B00000000000000000000000000000000000F0
:1050C0000000000000000000C141C141C3616363F2
:1050D000636363633636363636361C1C1C1C1C1C58
:1050E00000000000000000000000000000000000C0
:1050F00000000000000000001C38381C300C600666
:1051000060036003600360036006300C381C1C38C9
:10511000000000000000000000000000000000008F
:10512000000000000000000018303018301870181F
:10513000600C600CE00CC006C00680038003800396
:1051400080018001C001F00070000000000000003C
:105150000000000000000000FC1FFC1F000C000607
:1051600000038001C000600030001800FC1FFC1F1D
:10517000000000000000000000000000000000032C
:105180008001C000C000C000C000C000C0006000BE
:105190006000300060004000C000C000C000C000DF
:1051A000C000C0008001000300000000000080017A
:1051B00080018001800180018001800180018001E7
:1051C00080018001800180018001800180018001D7
:1051D00080018001800180018001000000006000EA
:1051E000C000C001800180018001800180010003B6
:1051F000000300060003000180018001800180019E
:1052000080018001C000600000000000000000007C
:10521000000000000000000000000000F010F81F77
:10522000080F000000000000000000000000000067
:10523000000000000000000000000000000000006E
:105240000000000001020304060708096C52000870
:10525000000000204400000008370008B052000899
:105260004400002024050000183700080000FFFF5C
:10527000000000000000000000000000000000002E
:10528000000000000000000000000000000000001E
:10529000000000000000000000000000000000000E
:1052A0000024F400100000000100000000000000D5
:04000005080001D915
:00000001FF
