:020000040800F2
:10000000A0040020ED0100088B1F00081113000858
:10001000891F00088502000847280008000000002A
:100020000000000000000000000000009523000810
:1000300087020008000000008D1F000897230008B9
:10004000070200080702000807020008070200086C
:10005000070200080702000807020008070200085C
:10006000070200080702000807020008070200084C
:10007000070200080702000807020008070200083C
:10008000070200080000000007020008070200083D
:10009000070200080702000807020008070200081C
:1000A000070200080702000807020008070200080C
:1000B00007020008070200080702000807020008FC
:1000C00007020008070200080702000807020008EC
:1000D00007020008070200080702000807020008DC
:1000E00007020008070200080702000807020008CC
:1000F00007020008070200080702000800000000CD
:1001000000000000070200080000000007020008CD
:1001100007020008000000000702000807020008AC
:10012000070200080702000807020008070200088B
:10013000070200080000000000000000070200089D
:10014000070200080702000800000000000000008D
:10015000000000000000000000000000000000009F
:10016000000000000000000000000000070200087E
:10017000070200080000000000000000000000006E
:10018000000000000702000800000000000000005E
:10019000000000000000000000000000000000005F
:1001A000000000000000000007020008070200082D
:1001B000070200080702000807020008000000000C
:1001C000000000000702000800000000000000001E
:1001D0000702000807020008DFF80CD000F040F822
:1001E00000480047E92B0008A0040020064880478B
:1001F00006480047FEE7FEE7FEE7FEE7FEE7FEE70C
:10020000FEE7FEE7FEE7FEE7F5230008D901000858
:10021000D2B201E000F8012B491EFBD27047002248
:10022000F6E710B513460A4604461946FFF7F0FFF5
:10023000204610BD30B50B46014600202022012487
:1002400009E021FA02F59D4205D303FA02F5491BA4
:1002500004FA02F52844151EA2F10102F1DC30BDBA
:10026000064C074D06E0E06840F0010394E8070003
:1002700098471034AC42F6D3FFF7B2FF843E000833
:10028000A43E0008FEE77047002240F6B83306E0BF
:100290000021491C89B29942FBD3521C92B282427E
:1002A000F6D3704710B5044601F0B0F8A02001F075
:1002B0006EF801F0E1F8204601F069F801F0DCF891
:1002C00001F0A4F8A12001F062F801F0D5F801F0E6
:1002D00037F8044601F082F801F0B3F8204610BD6B
:1002E00070B50D46044601F091F8A02001F04FF8DA
:1002F00001F0C2F8204601F04AF801F0BDF82846A6
:1003000001F045F801F0B8F801F09BF8BDE8704045
:10031000052000F001B8704770B5044600F03EF9C2
:100320000546B4F1FF3F02D004484068044400F0A1
:1003300035F9401BA042FAD370BD00002400002014
:100340002DE9F84F00220B68002B7CD00324874E48
:10035000874F0F250123D1F800C003FA02F80CEAF9
:100360000803002B70D0D1F804C0BCF1010F08D0F5
:10037000BCF1020F05D0BCF1110F02D0BCF1120F7D
:100380001DD1D0F808904FEA420C04FA0CFA29EA81
:100390000A09D1F80CA00AFA0CFC4CEA090CC0F8C6
:1003A00008C0D0F804C02CEA080C91F80480C8F307
:1003B000001808FA02F848EA0C0CC0F804C0D0F89B
:1003C0000C804FEA420C04FA0CFA28EA0A08D1F829
:1003D000089009FA0CF949EA0808C0F80C80D1F82D
:1003E0000480B8F1020F02D0B8F1120F15D14FEA14
:1003F000D20800EB8808D8F820B04FEA42794FEADB
:10040000D96905FA09FE2BEA0E0BD1F810E00EFAB5
:1004100009F949EA0B09C8F82090D0F8008028EAC9
:100420000A0891F8049009F0030909FA0CFC4CEA57
:10043000080CC0F800C0D1F804C01CF0805F7CD06C
:10044000D6F860C001E07DE077E04CF0010CC6F822
:1004500060C0D6F860C00CF0010CCDF800C022F0EE
:10046000030C0CF1804909F58039D9F808C04FEA2E
:1004700082784FEA187805FA08FA2CEA0A0AB0F1ED
:10048000904F64D0A0F1904CBCF5806C5CD0A0F192
:10049000904CBCF5006C5DD0A0F1904CBCF5406C6C
:1004A0005BD0A0F1904CBCF5805C59D0A0F1904C91
:1004B000BCF5A05C57D04FF0060C0CFA08FC4CEAD7
:1004C0000A0CC9F808C0D7F800C02CEA030CD1F810
:1004D000048018F4803F01D04CEA030CC7F800C038
:1004E000DFF89080D8F800C02CEA030CD1F8049013
:1004F00019F4003F01D04CEA030CC8F800C0DFF843
:100500007880D8F800C02CEA030CD1F8049019F4D4
:10051000801F01D04CEA030CC8F800C0DFF85C80F3
:10052000D8F800C02CEA030CD1F8049019F4001F8D
:1005300001D04CEA030CC8F800C0521C0B68D34031
:100540007FF408AFBDE8F88F4FF0010CB5E74FF02E
:10055000000CB2E74FF0020CAFE74FF0030CACE732
:100560004FF0040CA9E74FF0050CA6E7001002407D
:100570000004014004040140080401400C0401404F
:100580000069084201D00120704700207047002A0E
:1005900001D0816170478162704700000148806826
:1005A000704700002400002002488168426811441E
:1005B000816070472400002010B50024032000F063
:1005C00081F8002000F008F808B1012401E000F0F3
:1005D00029F8204610BD000070B5054600240F4ED6
:1005E0007068002817D04FF47A71B1FBF0F00C4915
:1005F0000968B1FBF0F000F0B5FC08B101240BE094
:10060000102D06D200222946501E00F027F8356032
:1006100002E0012400E00124204670BD24000020F7
:10062000200000200B4808B5016E41F00101016671
:10063000016E01F001010091816D41F080518165F1
:10064000806D00F0805000900348816841F4804143
:10065000816008BD001002400070004010B4184BCB
:100660001B68C3F30223C3F1070CBCF1040F01D9CB
:100670004FF0040C1C1D072C01D2002300E0DB1EF0
:10068000012404FA0CFCACF1010C0CEA01019940C4
:1006900004FA03F35B1E1A401143002806DB00F145
:1006A000E020090180F8001410BC704700F00F0032
:1006B00000F1E020090180F8141D10BC7047000013
:1006C0000CED00E000F00700064A11684FF6FF034A
:1006D000194041EA002040F0FD7040F08060106059
:1006E000704700000CED00E033493222334B0968BB
:1006F0004A43334900280AD0B0F5007F31D008685A
:1007000020F4C06040F480600860002070470868F2
:1007100000F4C060B0F5806F06D0D1F8800020F4FE
:100720008070C1F88000F0E7D1F8800020F480707C
:10073000C1F88000086820F4C06040F400700860D0
:10074000B2FBF3F0401C00E0401E4A6912F4806FD7
:1007500001D00028F8D1486910F4806FD5D003206B
:100760007047086800F4C060B0F5806F06D0D1F81B
:10077000800040F48070C1F88000C6E7D1F88000A6
:1007800040F48070C1F88000086820F4C06040F434
:1007900000700860B2FBF3F0401C00E0401E4A69A4
:1007A00012F4806F01D00028F8D1486910F4806FEE
:1007B000ABD00320704700002000002040420F0013
:1007C000007000402DE9F04704460D460027002C3C
:1007D00017D0DFF8DC91D9F8000000F00F00A84234
:1007E00012D2D9F8000020F00F002843C9F8000009
:1007F000D9F8000000F00F00A84205D00120BDE8A4
:10080000F0870120BDE8F08720786A4E10F0010FD4
:1008100041F2883A5ED06068DFF89C81032806D0F8
:10082000022822D0306810F4806F49D021E030686F
:1008300010F0007F0ED001F0ABFB404524D9B0682A
:1008400010F0F00F09D0207810F0020F1CD0A06833
:1008500018B119E00120BDE8F087B06820F0F00081
:1008600040F08000B06080270EE0306810F4003F58
:1008700023D000F0A9F8404506D9B06820F0F00078
:1008800040F08000B0608027B068616820F003000D
:100890000843B060FFF782FE8046B068616800F0F0
:1008A0000C00B0EB810F15D0FFF778FEA0EB08002D
:1008B000504508D90320BDE8F0870120BDE8F08746
:1008C0000120BDE8F087B068616800F00C00B0EB73
:1008D000810FE9D1206810F0020F17D010F0040F3B
:1008E00003D0B06840F4E060B060207810F0080FEA
:1008F00005D0B06820F4605040F4E060B060B068AB
:10090000A16820F0F0000843B06005E0802F03D11B
:10091000B06820F0F000B060D9F8000000F00F00DF
:10092000A8421DD9D9F8000020F00F002843C9F8CB
:100930000000FFF733FE0746D9F8000000F00F0073
:10094000A8420DD0FFF72AFEC01B504502D9032054
:10095000BDE8F087D9F8000000F00F00A842F1D1FF
:10096000207810F0040F05D0B068E16820F4E06052
:100970000843B060207810F0080F06D0B0682169F5
:1009800020F4605040EAC100B06000F01DF8B1688A
:100990000A4AC1F30311515C01F01F01C840084924
:1009A000086008480068BDE8F047FFF715BE000082
:1009B000002002400010024000B4C404743E00084D
:1009C00020000020240000201A4A9068DFF868C048
:1009D00000F00C0004280CD0906800F00C011748BF
:1009E000082905D091680C2333EA010103D00020C7
:1009F000704760467047D16801F00303D168C1F3C6
:100A00000311491C032B0DD0BCFBF1F0D168C1F3DD
:100A100006214843D168C1F34161491C4900B0FB3C
:100A2000F1F07047B0FBF1F0D168C1F30621484303
:100A3000F0E70000001002400024F40000366E01D0
:100A40002DE9F8430446002C0ED02078FD4F10F01D
:100A5000010F60D0B8683D4600F00C00E96801F075
:100A600003010C2803D004E00120BDE8F88303292A
:100A70001AD0082818D06068B0F5803F1DD0B0F5B6
:100A8000A02F1FD0286820F480302860286820F428
:100A900080202860606858B3FFF780FD064628680C
:100AA00010F4003F17D036E0286810F4003F32D031
:100AB000606880BB0120BDE8F883286840F480307E
:100AC0002860E7E7286840F480202860286840F420
:100AD00080302860DEE7FFF761FD801B642802D9C3
:100AE0000320BDE8F883286810F4003FF3D012E03B
:100AF000FFF754FD0646286810F4003F0BD0FFF7BF
:100B00004DFD801B642802D90320BDE8F8832868C6
:100B100010F4003FF3D1207810F0020F5ED0B868D7
:100B20003D4600F00C00E96801F003010C2801D1FA
:100B300002290FD004280DD0E068B8B3286840F42B
:100B400080702860FFF72AFD0646286810F4806F41
:100B500018D023E0286810F4806F01D0E06870B1ED
:100B60006868217C20F0FE4040EA01606860B64879
:100B70000068FFF731FD88B30120BDE8F88301204C
:100B8000BDE8F883FFF70AFD801B022802D9032085
:100B9000BDE8F883286810F4806FF3D06868217C82
:100BA00020F0FE4040EA0160686017E0FFE7286837
:100BB00020F480702860FFF7F1FC0646286810F4E6
:100BC000806F0BD0FFF7EAFC801B022802D90320BC
:100BD000BDE8F883286810F4806FF3D1207810F016
:100BE000080F3AD06069E0B1D7F894003D4640F074
:100BF0000100C7F89400FFF7D1FC0646D5F8940031
:100C000010F0020F29D1FFF7C9FC801B022802D97E
:100C10000320BDE8F883D5F8940010F0020FF2D05D
:100C20001BE0D7F894003D4620F00100C7F894007F
:100C3000FFF7B4FC0646D5F8940010F0020F0CD074
:100C4000FFF7ACFC801B022802D90320BDE8F88323
:100C5000D5F8940010F0020FF2D1207810F0040FB4
:100C60007BD04FF00008B86D10F0805F09D1B86DEF
:100C700040F08050B865B86D00F0805000904FF0A3
:100C80000108724D286810F4807F16D1286840F45E
:100C900080702860FFF782FC0646286810F4807F89
:100CA0000BD1FFF77BFC801B022802D90320BDE893
:100CB000F883286810F4807FF3D0A06801281AD048
:100CC00005281FD0D7F8900020F00100C7F8900049
:100CD000D7F8900020F00400C7F89000A06841F217
:100CE000883650B3FFF75AFC0546D7F8900010F04D
:100CF000020F14D037E0D7F8900040F00100C7F899
:100D00009000EBE7D7F8900040F00400C7F890009F
:100D1000D7F8900040F00100C7F89000DEE7FFF739
:100D20003DFC401BB04202D90320BDE8F883D7F850
:100D3000900010F0020FF2D015E0FFF72FFC0546EF
:100D4000D7F8900010F0020F0DD0FFF727FC401BE2
:100D5000B04203D90320BDE8F8830BE0D7F8900038
:100D600010F0020FF1D1B8F1010F03D1B86D20F0EE
:100D70008050B865207810F0200F3AD0A069E0B11B
:100D8000D7F898003D4640F00100C7F89800FFF7FB
:100D900005FC0646D5F8980010F0020F29D1FFF7A0
:100DA000FDFB801B022802D90320BDE8F883D5F89B
:100DB000980010F0020FF2D01BE0D7F898003D46E3
:100DC00020F00100C7F89800FFF7E8FB0646D5F8C9
:100DD000980010F0020F0CD0FFF7E0FB801B0228F8
:100DE00002D90320BDE8F883D5F8980010F0020F6F
:100DF000F2D1E06960B3B9683D460C2232EA0101E4
:100E00004FF0FF3878D0022823D0286820F0807077
:100E10002860E86820F00300E860E86820F48810A3
:100E200020F08070E860FFF7B9FB0446286810F0F6
:100E3000007F0DD0FFF7B2FB001B022857D903201B
:100E4000BDE8F8830010024024000020007000403C
:100E500083E0286820F080702860FFF79FFB06463B
:100E6000286810F0007F0AD0FFF798FB801B02284B
:100E700001D90320E4E7286810F0007FF4D1616A0B
:100E8000206A491E40EA0110A16A228E090208EB7D
:100E9000520241EA4251084394F8341008EB5101E0
:100EA00040EA416094F82C1040EAC160E9682C4A9D
:100EB00011400843E860286840F080702860E868C6
:100EC00040F08070E860FFF769FB0446286810F086
:100ED000007F42D1FFF762FB001B022801D90320EB
:100EE000AEE7286810F0007FF4D036E004E0286810
:100EF00010F0007F9ED130E001282CD0E868226AF3
:100F000000F00301914224D1626A00F0F001521E08
:100F1000B1EB021F1DD1A26A00F4FE41B1EB022F1A
:100F200017D194F82C1000F07842B2EBC16F10D1B9
:100F3000228E00F4C00108EB5202B1EB425F08D1EF
:100F400094F8341000F0C06008EB5101B0EB416F31
:100F500003D0012074E7012072E7002070E7000051
:100F60000C809F01401EB0F1807F01D301207047AB
:100F70004FF0E0214861044AF020107000208861A1
:100F8000072008610020704723ED00E0F0B490F8DE
:100F90003C20012A3ED0012480F83C40022280F807
:100FA0003D2003685A68D3F808C01C4D1C4EAB4264
:100FB00001D0B34203D122F470024F683A4322F0C9
:100FC000700222F000720F683A435A600268AA4227
:100FD00013D0B2F1804F10D0A2F18043B3F58063FB
:100FE0000BD0A2F18043B3F5006306D0B24204D027
:100FF000A2F18043B3F5A03304D12CF080038968BB
:101000001943916080F83D40002180F83C10F0BC0D
:1010100000207047F0BC022070470000002C014007
:101020000034014010B586B0044614216846FFF72D
:10103000F6F80E492068884215D10D48C16C41F080
:101040000101C164C06C002100F001000590402046
:1010500000900220CDE90101CDE9031069464FF06F
:101060009040FFF76DF906B010BD0000000400408D
:101070000010024070B504460D4694F83C0001286B
:101080000BD0012084F83C000C2A4AD007DC5AB16E
:10109000042A1DD0082A43D12FE0022070BD102A57
:1010A00054D0142A7AD165E02946206801F018FA54
:1010B0002068816941F0080181612068816921F01F
:1010C00004018161206881692A691143816165E0B9
:1010D0002946206801F058FA2068816941F40061CE
:1010E00081612068816921F4806181612068816962
:1010F0002A6941EA0221816150E02946206801F015
:1011000091FA2068C16941F00801C1612068C16994
:1011100021F00401C1612068C1692A691143C161DC
:101120003CE02946206801F0CBFA2068C16941F40F
:101130000061C1612068C16921F48061C1612068DA
:10114000C1692A6941EA0221C16127E02946206874
:1011500001F004FB2068016D41F008010165206881
:10116000016D21F0040101652068016D2A691143B8
:10117000016513E02946206801F02AFB2068016D13
:1011800041F4006101652068016D21F48061016511
:101190002068016D2A6941EA02210165002084F876
:1011A0003C0070BD10B50446002C03D094F83D00FF
:1011B00010B107E0012010BD002084F83C0020465B
:1011C00000F022F8022084F83D00211D206801F083
:1011D0001FF9012084F8480084F83E0084F83F009D
:1011E00084F8400084F8410084F8420084F8430009
:1011F00084F8440084F8450084F8460084F84700E9
:1012000084F83D00002010BD08B5006806498842FA
:1012100008D10648816D41F002018165806D00F0C2
:101220000200009008BD00000004004000100240D1
:1012300010B5044600290DD004290ED008290FD07E
:101240000C2910D0102911D094F84300012810D097
:10125000012010BD94F83E00F8E794F83F00F5E750
:1012600094F84000F2E794F84100EFE794F8420068
:10127000ECE70220D1B304293CD008293DD00C2949
:101280003ED010293FD084F843000122206801F0AD
:1012900017F92068A0F18041B1F5963113D0A0F183
:1012A0008041B1F59A310ED0A0F18041B1F5A03165
:1012B00009D0A0F18041B1F5A23104D0A0F1804164
:1012C000B1F5A43103D1416C41F40041416420687F
:1012D00081680E4A1140062906D0B1F5803F03D03F
:1012E000016841F001010160002010BDFFE784F8B2
:1012F0003E00CAE784F83F00C7E784F84000C4E72F
:1013000084F84100C1E784F84200BEE7070001000D
:10131000FEE7000000B585B014216846FEF77FFFA8
:10132000C0200090012001900290022003906946A5
:101330000248FFF705F805B000BD000000040048B2
:1013400070B50824002500F0EDFF13E06806050ED7
:10135000002000F0CFFF142001F040FC142001F029
:101360003DFC012000F0C6FF142001F037FC00F026
:10137000CDFF0543641EE4B2E8D2002000F0BAFFBE
:10138000142001F02BFC00F0EFFF284670BD70B573
:101390000446082516E000F0ADFF142001F01EFC05
:1013A00004F0800000F0D4FF142001F017FC600668
:1013B000040E142001F012FC012000F09BFF142009
:1013C00001F00CFC6D1EEDB24FF00000E3D200F016
:1013D00091FFBDE87040142001F000BC10B5012061
:1013E00000F0B6FF142001F0F9FB142001F0F6FB29
:1013F000012000F07FFF142001F0F0FB002000F03E
:1014000079FFBDE81040142001F0E8BB10B50120C1
:1014100000F09EFF142001F0E1FB012000F06AFFC4
:10142000142001F0DBFB002000F092FF142001F0FB
:10143000D5FB002000F05EFFBDE81040142001F055
:10144000CDBB10B5002000F055FF142001F0C6FB05
:10145000002000F07DFF142001F0C0FB012000F00F
:1014600049FF142001F0BAFB012000F071FFBDE834
:101470001040142001F0B2BB10B5052400F052FF5B
:10148000142001F0ABFB012000F034FF142001F028
:10149000A5FB05E0641EA4B2142001F09FFB6CB113
:1014A00000F034FF0028F5D100F05EFF002000F0CE
:1014B00021FF142001F092FB002010BD00F054FF2A
:1014C000FFF7BFFF012010BD10B5104C01212046D1
:1014D000FFF756F8002817D10A20FEF71DFF01215B
:1014E0002046FFF74DF80028F9D00A20FEF714FF38
:1014F000074800234178491CCAB20121427001709B
:101500008370062A00D1417010BD0000000400481D
:101510000800002070B5224D02212846FFF730F860
:10152000204C50B920480168E268891A642928D300
:101530000068E060607A401C607202212846FFF774
:101540001FF801281DD1607A00250226082819D924
:101550006078617900EB4000801EC0B2FEF7C0FEEB
:101560006078A17900EB4000401EC0B2FEF7B8FEE3
:101570006078E17900EB4000C0B2FEF7B1FE267062
:10158000657270BD0028FCD0A0780121401CC0B25B
:10159000A0706572E17025720528F2D1A67070BD49
:1015A00000040048080000202C00002010B5042191
:1015B0000648FEF7E5FF002806D19620FEF7ACFEB0
:1015C0000348017A491C017210BD00000004004864
:1015D0000800002070B54FF0904501212846FEF725
:1015E000CFFF144C50B914480168E268891A642985
:1015F00013D30068E060A07A401CA0720121284645
:10160000FEF7BEFF012808D1A27A01210020082A96
:1016100004D9A07220712170A07070BD002AFCD086
:10162000A0720222227022790AB1207170BD21714C
:1016300070BD0000080000202C00002000B585B01F
:1016400014216846FEF7EBFD4FF6FF700090002076
:101650000321CDE90201019069460248FEF770FEC0
:1016600005B000BD0008004800B585B014216846EB
:10167000FEF7D5FD4FF6FF7000900120019003208A
:1016800003900020029069460248FEF759FE05B01B
:1016900000BD00000008004870B500240646214641
:1016A000204600F09BF900F0FBFA4FF496353046E7
:1016B00000F0CAFA641CAC42F9D370BD30B587B0F3
:1016C00014216846FEF7ABFD1E48C16C41F00401D1
:1016D000C164C16C01F004010591C16C41F00101CC
:1016E000C164C16C01F001010591C16C41F00201BE
:1016F000C164C06C012500F0020005904FF44870F1
:10170000CDE9000500240394694602940E48FEF7D3
:1017100017FE280203940090CDE901544FF0904445
:1017200069462046FEF70CFEFFF79EFFA06940F4D5
:101730008070A06104481830016841F408710160AC
:1017400007B030BD0010024000040048203AD2B279
:10175000034B02EB420203EB021200F019B8000047
:10176000A42C0008F0B50E460746002540F23F14B1
:1017700007E021463846FFF7E9FF103C6D1CA4B294
:10178000761C3278002A01D0142DF2D3F0BD00006F
:101790002DE9F04791468A460026044600F01EF9DE
:1017A000DFF84080012700BF00F07AFA5FF0000503
:1017B00039F8160007FA05F10842404601D1408881
:1017C00000E0008800F040FA6D1C102DF0D3641C7E
:1017D000E4B25146204600F001F9761C182EE3D3FE
:1017E000BDE8F0870000002010B5FFF767FF00207C
:1017F00000F014F8084CA080A088A0F50241303910
:1018000006D000F076FC002000F008F8A08010BDA3
:1018100000F0E6FBF7E700000000002070B51D496E
:101820000A6842F400720A600A6842F480720A6030
:10183000184C103C226842F020022260164A1060C8
:10184000086840F02000086000BF00BF00BF2068AB
:1018500040F020002060206840F480702060FFF796
:10186000EDFE4FF09041886A40F48070886200BFBE
:1018700000BF00BF0848001F006885B2886940F4B7
:1018800080708861FFF7F0FE206840F400702060EF
:10189000284670BD280400481408004838B5334C69
:1018A000207900283ED1627831A1344800F0CCFF85
:1018B00032493020FFF756FFE0790090A379627932
:1018C0002FA12E4800F0C0FF2C497820FFF74AFFD7
:1018D00031A12A4800F0B8FF2849C020FFF742FF95
:1018E00000F042FA324801682269891AB1F57A7F1C
:1018F0003AD300682061E079401EC0B2E071FF2851
:1019000010D13B20E071A179491EC9B2A171FF2914
:1019100008D1A0716079401EC0B26071FF2801D16A
:1019200017206071207901281ED1627810A1134818
:1019300000F08AFF11493020FFF714FFE079009092
:10194000A37962790EA10D4800F07EFF0B49782043
:10195000FFF708FF17A1094800F076FFBDE83840FF
:101960000649C020FFF7FEBE38BD00000800002079
:1019700020204E6F20256420200000003000002031
:10198000202020202020253032643A253032643A4D
:1019900025303264000000002020202020205275D5
:1019A0006E6E696E6720202020202020000000003D
:1019B0002C000020202020202020205061757365FD
:1019C00020202020202020200000000001B5BDF8AC
:1019D00000000149488008BD0000002010B50C46F9
:1019E0000146202000F08AF92146BDE81040212060
:1019F00000F084B901B5BDF800000149088008BDB8
:101A0000000000202DE9F843FFF784FD774CA07813
:101A1000002847D1607800EB4000801EC0B2FEF77E
:101A200041FC607800EB4000401EC0B2FEF73AFC7B
:101A3000607800EB4000C0B2FEF734FC607800EB49
:101A40004000801EC0B2FEF72DFC6071607800EB94
:101A50004000401EC0B2FEF725FCA071607800EB8C
:101A60004000C0B2FEF71EFCE071627860A16348DE
:101A700000F0EAFE61493020FFF774FEE079009043
:101A8000A37962795EA15D4800F0DEFE5B497820B3
:101A9000FFF768FE60A1594800F0D6FE5749C02004
:101AA000FFF760FEA0780025012802D0E078012829
:101AB0001DD1E57062784EA1504800F0C5FE4F4937
:101AC0003020FFF74FFEE0790090A37962794CA1B6
:101AD0004A4800F0B9FE49497820FFF743FE54A177
:101AE000464800F0B1FE4549C020FFF73BFEA07814
:101AF0000A264FF478474FF6FF78022823D1607901
:101B000000B12072FFF752FD207A6071182801D9C8
:101B1000657125723846FFF76DFF6079E021B0FBF3
:101B2000F6F03030C2B27820FFF710FE6079B0FBDB
:101B3000F6F106FB1102D02178203032FFF706FEC5
:101B40004046FFF757FFA078032823D1A07900B1C2
:101B50002072FFF72BFD207AA0713C2801D9A571D6
:101B600025723846FFF746FFA079B021B0FBF6F0AA
:101B70003030C2B27820FFF7E9FDA079B0FBF6F172
:101B800006FB1102A02178203032FFF7DFFD40462E
:101B9000FFF730FFA078042825D1E07900B120724A
:101BA000FFF704FD207AE0713C2801D9E571257228
:101BB0003846FFF71FFFE0798021B0FBF6F03030A8
:101BC000C2B27820FFF7C2FDE079B0FBF6F106FB68
:101BD0001102702178203032FFF7B8FD4046BDE891
:101BE000F843FFF707BFBDE8F883000008000020B6
:101BF00020204E6F202564202000000030000020AF
:101C0000202020202020253032643A253032643ACA
:101C10002530326400000000202020202020537452
:101C2000616E6462792020202020202000000000C6
:101C300020202020202053657474696E67202020A6
:101C40002020202000000000134A116841F4007198
:101C50001160114910390B6843F480730B600B68F5
:101C600043F020030B600D4B1860106840F020001B
:101C7000106000BF00BF00BF086840F0200008608F
:101C8000086840F48070086000BF00BF00BF0868AB
:101C900040F40070086070472804004814080048A9
:101CA0001449086840F400700860086840F48070C7
:101CB000086010481038026842F0200202600E4BA3
:101CC00022221A600A6842F020020A6000BF00BFA8
:101CD00000BF016841F020010160016841F480719A
:101CE000016000BF00BF00BF016841F400710160E6
:101CF000704700002804004814080048184B10B52D
:101D00001A6842F400721A601A6842F480721A600B
:101D1000134A103A146844F020041460114C2060F7
:101D2000186840F02000186000BF00BF00BF1068B6
:101D300040F020001060106840F480701060216056
:101D4000186840F02000186000BF00BF00BF106896
:101D500040F020001060106840F48070106010BDEA
:101D6000280400481408004810B500F013F807488C
:101D7000026807490B68D21AB2F5FA7F05D30068EA
:101D80000860BDE8104000F01DB810BD2C00002018
:101D90001C00002010B501224FF6FF710748FEF726
:101DA000F6FB074C012204212046FEF7F0FB2046FB
:101DB0000022BDE810400421FEF7E9BB00080048FE
:101DC000000C004810B500224FF480710748FEF760
:101DD000DEFB074C012204212046FEF7D8FB2046FB
:101DE0000022BDE810400421FEF7D1BB00080048E6
:101DF000000C00482DE9F04F87B014216846FEF72B
:101E00000EFA3F48C16C41F00401C164C16C01F09D
:101E100004010591C16C41F02001C164C16C01F065
:101E200020010591C16C41F00101C164C16C01F058
:101E300001010591C16C41F00201C164C16C01F066
:101E400002010591C16C41F00801C164C06CDFF86A
:101E5000B48000F008004FF6FF7405900022214680
:101E60004046FEF794FB4FF480764FF090490022F5
:101E700031464846FEF78BFBDFF88CA00022042198
:101E80005046FEF784FBDFF884B04FF44877002219
:101E900039465846FEF77BFB0125CDE90045002475
:101EA0000294694640460394FEF74AFACDE900548D
:101EB000694648460295FEF743FA07208DE831004F
:101EC00069465846FEF73CFA0096CDE9015469464A
:101ED00048460394FEF734FA04200090CDE90154FB
:101EE000694650460394FEF72BFA0097CDE901545A
:101EF000694658460394FEF723FA07B0BDE8F08F11
:101F00000010024000080048000C0048000400488F
:101F100010B58AB00024079408941C2168460994DF
:101F2000FEF77DF91748164901604F21C0E90114F9
:101F300040F2E731C0E9031480218161FFF732F9F3
:101F400008B1FEF7E8F9079407A90E480994FFF7CE
:101F50001DF808B1FEF7DFF9602000904FF44870DB
:101F6000CDE901040022694606480494FFF782F88F
:101F700008B1FEF7D0F90348FFF754F80AB010BDD6
:101F80000004004050000020FEE77047704700004A
:101F90001049C86800F00302C868C0F30310401C71
:101FA000032A0ED00C4AB2FBF0F0CA68C2F3062234
:101FB0005043C968C1F34161491C4900B0FBF1F0CD
:101FC0007047064AB2FBF0F0CA68C2F306225043DB
:101FD000EFE70000001002400024F40000366E011C
:101FE00030B501210020FFF789FE4FF47A70FEF72B
:101FF0004BF900210120FFF781FE41F29071102082
:10200000FFF77CFE4FF41C516020FFF777FE0121A3
:102010006120FFF773FE02214620FFF76FFE48F2B2
:1020200010011320FFF76AFE48F2FE011220FFF7AD
:1020300065FE4FF4A0610220FFF760FE41F230011F
:102040000320FFF75BFE40F2033421463020FFF708
:1020500055FE21463120FFF751FE21463220FFF781
:102060004DFEE51E29463320FFF748FE03213420AC
:10207000FFF744FE21463520FFF740FE14213620AD
:10208000FFF73CFE21463720FFF738FE2146382077
:10209000FFF734FE21463920FFF730FE29463A206B
:1020A000FFF72CFE03213B20FFF728FE21463C20B2
:1020B000FFF724FE4FF4A0513D20FFF71FFE4FF421
:1020C00000719220FFF71AFE21469320FFF716FEBB
:1020D00040F60D019020FFF711FE41F21801032098
:1020E000FFF70CFEBDE8304040F273110720FFF708
:1020F00005BE10B543F20801E320FFF7FFFD1221F2
:10210000E720FFF7FBFD41F23121EF20FFF7F6FD5D
:1021100000210120FFF7F2FD4FF4E0610220FFF7FC
:10212000EDFD41F230010320FFF7E8FD002104201E
:10213000FFF7E4FD40F207210820FFF7DFFD002153
:102140000920FFF7DBFD00210A20FFF7D7FD002162
:102150000C20FFF7D3FD00210D20FFF7CFFD00215C
:102160000F20FFF7CBFD00211020FFF7C7FD07214F
:102170001120FFF7C3FD00211220FFF7BFFD002152
:102180001320FFF7BBFDC820FEF7C6F841F29061AF
:102190001020FFF7B3FD40F227211120FFF7AEFD1D
:1021A0003220FEF7B9F81D211220FFF7A7FD3220DB
:1021B000FEF7B2F84FF400611320FFF79FFD1421E2
:1021C0002920FFF79BFD0B212B20FFF797FD3220E5
:1021D000FEF7A2F800212020FFF790FD002121202A
:1021E000FFF78CFD07213020FFF788FD40F20771D3
:1021F0003120FFF783FD06213220FFF77FFD40F2FB
:1022000004713520FFF77AFD41F604713620FFF79F
:1022100075FD04213720FFF771FD00213820FFF7FD
:102220006DFD40F206713920FFF768FD40F2017143
:102230003C20FFF763FD0F213D20FFF75FFD0021EC
:102240005020FFF75BFDEF215120FFF757FD0021E4
:102250005220FFF753FD40F23F115320FFF74EFD90
:102260004FF41C516020FFF749FD01216120FFF769
:1022700045FD00216A20FFF741FD00218020FFF786
:102280003DFD00218120FFF739FD00218220FFF76D
:1022900035FD00218320FFF731FD00218420FFF769
:1022A0002DFD00218520FFF729FD10219020FFF74B
:1022B00025FD00219220FFF721FD03219320FFF748
:1022C0001DFD4FF488719520FFF718FD0021972020
:1022D000FFF714FD00219820FFF710FD41F21801CF
:1022E0000320FFF70BFDBDE8104040F273110720FB
:1022F000FFF704BD08B1044801E00348103001684D
:1023000041F04001016070471804004810B5802179
:102310000348FEF735F9012800D0002010BD000069
:102320000004004800B585B014216846FDF777FF2A
:102330008020009000200190012002900220039054
:1023400069460248FDF7FCFF05B000BD00040048E7
:1023500008B1044801E003481030016841F08001F1
:10236000016070471804004800B585B01421684624
:10237000FDF755FF80200090112001900020029071
:102380000220039069460248FDF7DAFF05B000BD60
:10239000000400487047FEF707B910B594B0382123
:1023A0006846FDF73CFF14210EA8FDF738FF4FF4F7
:1023B0000070FEF799F901200090000401900220BE
:1023C0000324CDE907041421CDE90A100C900D90E7
:1023D00009946846FEF734FB0F20CDE90E04002077
:1023E00010901190129003210EA8FEF7EBF914B093
:1023F00010BD00000548016841F470010160034907
:102400004FF00060803908607047000088ED00E000
:102410002DE9F0010268234C234BDFF89080DFF8B0
:1024200090C0A04208D0B0F1804F05D0984203D0B0
:10243000404501D0604503D122F070024D682A4327
:102440001C4D1D4E1D4FA0420ED0B0F1804F0BD041
:10245000984209D0404507D0604505D0A84203D036
:10246000B04201D0B84203D122F44072CB681A4383
:102470004B6922F080021A4302608A68C2620A68CD
:102480008262A04207D0604505D0A84203D0B04286
:1024900001D0B84201D10969016301214161BDE860
:1024A000F0017047002C014000040040000800408B
:1024B0000034014000400140004401400048014018
:1024C00001F01F0101238B40D0F820C02CEA030348
:1024D0000362036A02FA01F11943016270470000C6
:1024E0002DE9F003026A22F001020262026A4368E7
:1024F000D0F818C02CF0700C2CF4803C2CF0030C9D
:102500000C6844EA0C0C22F002028C682243194C3D
:10251000194D1A4E1A4FDFF86C80A04207D0A8421E
:1025200005D0B04203D0B84201D0404507D122F0D7
:102530000802D1F80C9049EA020222F00402A042FB
:1025400007D0A84205D0B04203D0B84201D04045E0
:1025500007D123F4807323F400734C6923438C69FF
:1025600023434360C0F818C0496841630262BDE874
:10257000F0037047002C014000340140004001404E
:10258000004401400048014070B4026A22F0100289
:102590000262036A4268D0F818C02CF4E04C2CF0B8
:1025A000807C2CF4407C0C684CEA042C23F0200343
:1025B0008C6843EA0413194C194DA04201D0A8427B
:1025C00006D123F08003CE6843EA061323F04003CC
:1025D000A04210D0A8420ED0A0F18044B4F5A0349F
:1025E00009D0A0F18044B4F5A23404D0A0F1804415
:1025F000B4F5A43409D122F4806222F400624C695B
:1026000042EA84028C6942EA84024260C0F818C03F
:1026100049688163036270BC70470000002C014070
:102620000034014070B4026A22F480720262036ACC
:102630004268D0F81CC02CF0700C2CF4803C2CF0BC
:10264000030C0C6844EA0C0C23F400738C6843EA16
:102650000423194C194DA04201D0A84206D123F4FD
:102660000063CE6843EA062323F48063A04210D0BF
:10267000A8420ED0A0F18044B4F5A03409D0A0F156
:102680008044B4F5A23404D0A0F18044B4F5A4345D
:1026900009D122F4805222F400524C6942EA041219
:1026A0008C6942EA04124260C0F81CC04968C163E8
:1026B000036270BC70470000002C014000340140F0
:1026C00070B4026A22F480520262036A4268D0F84F
:1026D0001CC02CF4E04C2CF0807C2CF4407C0C686A
:1026E0004CEA042C23F400538C6843EA0433194C5D
:1026F000194DA04201D0A84206D123F40043CE6870
:1027000043EA063323F48043A04210D0A8420ED0FF
:10271000A0F18044B4F5A03409D0A0F18044B4F510
:10272000A23404D0A0F18044B4F5A43409D122F439
:10273000804222F400424C6942EA84128C6942EAE7
:1027400084124260C0F81CC049680164036270BC16
:1027500070470000002C01400034014010B4026AB0
:1027600022F480320262D0F820C04268036D23F068
:10277000700323F480330C6823432CF4003C0C8951
:102780004CEA044CA0F18044B4F5963413D0A0F187
:102790008044B4F59A340ED0A0F18044B4F5A0344E
:1027A00009D0A0F18044B4F5A23404D0A0F1804453
:1027B000B4F5A43404D122F480324C6942EA0422F4
:1027C0004260036549688164C0F820C010BC70474E
:1027D00010B4026A22F480120262D0F820C042686B
:1027E000036D23F4E04323F080730C6843EA042371
:1027F0002CF4001C0C894CEA045CA0F18044B4F574
:10280000963413D0A0F18044B4F59A340ED0A0F1E0
:102810008044B4F5A03409D0A0F18044B4F5A234CA
:1028200004D0A0F18044B4F5A43404D122F4802271
:102830004C6942EA8422426003654968C164C0F879
:1028400020C010BC7047FEE70FB4084B10B504A9B8
:1028500002AA039800F01CF8044602A9002000F028
:10286000B8F9204610BC5DF814FB0000D32B00081B
:1028700002E008C8121F08C1002AFAD17047704749
:10288000002001E001C1121F002AFBD170470000A7
:102890002DE9FF4F8BB088460546002606E0252827
:1028A0000BD0DDE90D1290476D1C761C28780028AE
:1028B000F5D10FB03046BDE8F08F0024A146A24606
:1028C0000122AE4900E0044315F8013F203B02FA23
:1028D00003F00842F7D128782A2810D06FF02F0291
:1028E0002878A0F13001092915D809EB890102EBFC
:1028F000410144F0020400EB01096D1CF0E758F8B7
:10290000041B5FEA010903D544F40054C9F100092E
:1029100044F002046D1C28782E2817D115F8010FF9
:1029200044F004042A280ED06FF02F022878A0F17A
:10293000300109290AD80AEB8A0102EB410100EBB8
:10294000010A6D1CF2E758F804AB6D1C28786C285E
:102950000FD006DC4C2817D068280DD06A2814D177
:1029600004E0742810D07A280FD10DE044F400144C
:102970000AE044F4801401E044F440146978814290
:1029800002D104F580146D1C6D1C2878692865D06F
:1029900006DC00288DD0632827D0642806D15DE0AE
:1029A0006E2808D073282AD0752877D0DDE90D125B
:1029B0009047761CE0E0C4F30250022809D00328B7
:1029C0000DD0D8F8001004280DD00E6008F10408CE
:1029D000D2E0D8F80010F217C1E90062F6E7D8F8A3
:1029E00000100E80F2E70E70F0E718F8041B8DF867
:1029F000001000208DF80100EB46012003E058F89C
:102A000004BB4FF0FF3061074FF0000701D40AE02C
:102A10007F1C57450DDA8742FADB1BF807100029A7
:102A2000F6D106E07F1C8742FCDB1BF8071000296B
:102A3000F8D1DDE90D23A9EB07008146214600F01E
:102A4000B1F83044C61904E0DDE90D121BF8010BA2
:102A500090477F1EF8D22146484688E058F8040B7C
:102A6000C4F302514FF00A0B032900D100B204292C
:102A700000D140B2002802DA40422D2102E02105B7
:102A800005D52B218DF82410012104E006E0E10793
:102A900010D02021F6E708AF089113E058F8040B96
:102AA000C4F302514FF00A0B032900D180B204296C
:102AB00000D1C0B20021EEE75946FDF7BBFB303133
:102AC00007F8011D0028F7D1ADEB070000F1200B3E
:102AD000600702D524F4803401E04FF0010ADA45A2
:102AE00002DDAAEB0B0000E00020824600EB0B01A8
:102AF00008980144A9EB01000A90E00306D4DDE93F
:102B00000D2321460A9800F04DF806444FF00009C5
:102B100008E009A911F80900DDE90D12904709F153
:102B20000109761C08998945F3DBE0030CD5DDE942
:102B30000D2321460A9800F035F8064404E0DDE94B
:102B40000D1230209047761CBAF10001AAF1010A5B
:102B5000F5DC05E0DDE90D1217F8010B9047761C56
:102B6000BBF10001ABF1010BF4DC0A982146DDE971
:102B70000D2300F005F806446D1C97E609280100B6
:102B80002DE9F041044600251E461746880404D46A
:102B900005E039462020B0476D1C641EF9D5284653
:102BA000BDE8F0812DE9F041044600251E4690461F
:102BB000C80301D5302700E02027880404D505E0AC
:102BC00041463846B0476D1C641EF9D52846BDE81D
:102BD000F0810A68531C0B6010707047002100E000
:102BE000491C8142FCD3704708B5FDF7E5FCFFF7AF
:102BF000D4FBFFF7FFF8FFF78BF9FFF7CBF8FEF7F1
:102C0000F3FDFEF787FB00211E48FEF711FB0020B5
:102C1000FEF742FD0020FEF7D9FE4FF6FF70FEF7EB
:102C2000E9FE194CFEF750FCFEF7D4FC2078012891
:102C300001D1FEF7E7FE2078022801D1FEF72EFE33
:102C4000607800EB4000C0B2FDF72CFB06466078D0
:102C500000EB4000401EC0B2FDF724FB0546607843
:102C600000EB4000801EC0B2FDF71CFB02462B4665
:102C700006A10B480096FFF7E7FD09494820FEF73B
:102C800071FDCFE750000020080000202020202008
:102C900025642025642025642020202020000000B9
:102CA00030000020000000000000000000000000D4
:102CB0000000000000000000000000000000000014
:102CC0000000000000000000000000000000000004
:102CD000000000000000800180018001800180016F
:102CE00080018001800180018001800180018001DC
:102CF00000000000800180010000000000000000D2
:102D00000000000000000000CC00CC00CC00CC0093
:102D1000CC00CC000000000000000000000000001B
:102D200000000000000000000000000000000000A3
:102D30000000000000000000000000000000000093
:102D4000600C600C600C30063006FE1FFE1F300663
:102D500038071803FE1FFE1F180318038C018C018F
:102D60008C01000000008000E003F80F9C0E8C1C1A
:102D70008C188C009800F801E007800E801C8C18DD
:102D80008C189C18B80CF00FE00380008000000045
:102D9000000000000000000000000E181B0C110CC9
:102DA00011061106110311039B018E01C038C06C7E
:102DB00060446044304430441844186C0C380000BF
:102DC000000000000000E001F003380718061806B4
:102DD0003003F001F000F8009C310E33061E061C93
:102DE000061C063FFC73F0210000000000000000FC
:102DF00000000000000000000C000C000C000C00A3
:102E00000C000C00000000000000000000000000AA
:102E100000000000000000000000000000000000B2
:102E2000000000000000000200038001C000C0009C
:102E300060006000300030003000300030003000B2
:102E40003000300060006000C000C000800100035E
:102E500000020000000020006000C000800180012E
:102E60000003000300060006000600060006000638
:102E7000000600060003000380018001C00060001E
:102E80002000000000000000000000000000000022
:102E9000C000C000D806F807E00130033807000082
:102EA0000000000000000000000000000000000022
:102EB0000000000000000000000000000000000012
:102EC00080018001800180018001FC3FFC3F800186
:102ED00080018001800180010000000000000000EE
:102EE00000000000000000000000000000000000E2
:102EF00000000000000000000000000000000000D2
:102F0000000000000000800180010001000180003D
:102F100000000000000000000000000000000000B1
:102F2000000000000000000000000000E007E007D3
:102F30000000000000000000000000000000000091
:102F40000000000000000000000000000000000081
:102F50000000000000000000000000000000000071
:102F6000000000000000C000C000000000000000E1
:102F7000000000000000000C000C00060006000627
:102F80000003000300038003800180018001C00072
:102F9000C000C000600060000000000000000000F1
:102FA000000000000000E003F007380E180C0C18B9
:102FB0000C180C180C180C180C180C180C180C18F1
:102FC000180C380EF007E0030000000000000000BD
:102FD00000000000000000018001C001F001980124
:102FE00088018001800180018001800180018001D1
:102FF00080018001800180010000000000000000CD
:10300000000000000000E003F80F180C0C180C186A
:1030100000180018000C000600038001C0006000CA
:1030200030001800FC1FFC1F000000000000000022
:10303000000000000000E001F807180E0C0C0C0C5A
:10304000000C0006C003C007000C001800180C1884
:103050000C18180CF807E003000000000000000046
:10306000000000000000000C000E000F000F800D9B
:10307000C00C600C600C300C180C0C0CFC3FFC3FBE
:10308000000C000C000C000C000000000000000010
:10309000000000000000F80FF80F180018000C00E6
:1030A000EC03FC071C0E001C0018001800180C187C
:1030B0001C0C180EF807E0030000000000000000E0
:1030C000000000000000C007F00F381C181818009E
:1030D0000C00CC03EC0F3C0E1C1C0C180C180C182C
:1030E000181C380EF007E00300000000000000008C
:1030F000000000000000FC1FFC1F000C0006000682
:10310000000380038001C001C000E0006000600097
:1031100070003000300030000000000000000000AF
:10312000000000000000E003F007380E180C180C37
:10313000180C3806F007F007180C0C180C180C18AF
:103140000C18380CF80FE00300000000000000002D
:10315000000000000000E003F007380E1C0C0C1803
:103160000C180C181C1C381EF81BE0190018000C59
:10317000000C1C0EF807F001000000000000000029
:10318000000000000000000000000000000000003F
:10319000800180010000000000000000000000002D
:1031A000000000008001800100000000000000001D
:1031B000000000000000000000000000000000000F
:1031C00080018001000000000000000000000000FD
:1031D000000000008001800100010001800000006B
:1031E00000000000000000000000000000000000DF
:1031F000000000000010001C800FE003F800180021
:10320000F800E003800F001C001000000000000028
:1032100000000000000000000000000000000000AE
:1032200000000000F81F000000000000F81F000070
:10323000000000000000000000000000000000008E
:10324000000000000000000000000000000000007E
:103250000000000008003800F001C007001F00183F
:10326000001FC007F0013800080000000000000047
:10327000000000000000E003F80F180C0C180C18F8
:103280000018000C000600038001C000C000C00050
:1032900000000000C000C0000000000000000000AE
:1032A0000000000000000000E00718180420C229F8
:1032B000224A114409440944094409221113E20C29
:1032C000024004201818E007000000000000000081
:1032D00000000000000080038003C006C006C00696
:1032E000600C600C301830183018F83FF83F1C7034
:1032F0000C600C6006C006C000000000000000006A
:10330000000000000000FC03FC0F0C0C0C180C1853
:103310000C180C0CFC07FC0F0C180C300C300C308B
:103320000C300C18FC1FFC0700000000000000001F
:10333000000000000000C007F01F38381C300C707F
:10334000066006000600060006000600060006608D
:103350000C701C30F01FE0070000000000000000AF
:10336000000000000000FE03FE0F060E06180618FF
:1033700006300630063006300630063006300618B5
:103380000618060EFE0FFE030000000000000000FD
:10339000000000000000FC3FFC3F0C000C000C0093
:1033A0000C000C00FC1FFC1F0C000C000C000C009F
:1033B0000C000C00FC3FFC3F00000000000000007F
:1033C000000000000000F83FF83F18001800180047
:1033D00018001800F81FF81F18001800180018002F
:1033E000180018001800180000000000000000007D
:1033F000000000000000E00FF83F3C780E6006E09F
:1034000007C00300030003FE03FE03C007C006C09D
:103410000EC03CF0F83FE00F00000000000000008C
:103420000000000000000C300C300C300C300C3070
:103430000C300C30FC3FFC3F0C300C300C300C30AE
:103440000C300C300C300C3000000000000000008C
:1034500000000000000080018001800180018001E7
:103460008001800180018001800180018001800154
:103470008001800180018001000000000000000048
:10348000000000000000000600060006000600061E
:1034900000060006000600060006000600061806E4
:1034A00018063807F003E0010000000000000000EB
:1034B00000000000000006300618060C0606060391
:1034C0008601C60066007600DE008E010603060651
:1034D000060C061806300660000000000000000020
:1034E0000000000000001800180018001800180064
:1034F000180018001800180018001800180018000C
:1035000018001800F81FF81F00000000000000005D
:103510000000000000000EE01EF01EF01EF036D885
:1035200036D836D836D866CC66CC66CCC6C6C6C6C3
:10353000C6C6C6C686C386C30000000000000000E1
:103540000000000000000C301C303C303C306C307F
:103550006C30CC30CC308C310C330C330C360C3618
:103560000C3C0C3C0C380C3000000000000000004B
:10357000000000000000E007F81F1C380E70066015
:1035800003C003C003C003C003C003C003C0066080
:103590000E701C38F81FE00700000000000000005B
:1035A000000000000000FC0FFC1F0C380C300C3039
:1035B0000C300C300C18FC1FFC070C000C000C002D
:1035C0000C000C000C000C000000000000000000CB
:1035D000000000000000E007F81F1C380E700660B5
:1035E00003E003C003C003C003C003C007E00663D9
:1035F0000E3F1C3CF83FE0F700C000000000000058
:10360000000000000000FE0FFE1F063806300630E6
:1036100006300638FE1FFE0706030606060C0618CF
:1036200006180630063006600000000000000000AA
:10363000000000000000E003F80F1C0C0C180C1830
:103640000C001C00F803E00F001E003806300630A6
:103650000E301C1CF80FE007000000000000000006
:10366000000000000000FE7FFE7F800180018001DD
:103670008001800180018001800180018001800142
:103680008001800180018001000000000000000036
:103690000000000000000C300C300C300C300C30FE
:1036A0000C300C300C300C300C300C300C300C303A
:1036B0000C301818F81FE0070000000000000000A0
:1036C00000000000000003600630063006300C18D1
:1036D0000C180C18180C180C380E30063006700731
:1036E00060036003C001C001000000000000000092
:1036F0000000000000000360C361C361C361663362
:10370000663366336633663366336C1B6C1B6C1B27
:103710002C1A3C1E380E380E00000000000000007D
:103720000000000000000FE00C7018303018700C22
:10373000600EC00780038003C003E006700C301CDD
:1037400018180C300E6007E00000000000000000B8
:1037500000000000000003C006600C301C38381860
:10376000300C6006E007C003800180018001800109
:103770008001800180018001000000000000000045
:10378000000000000000FC7FFC7F0060003000189B
:10379000000C000600038001C0006000300018002B
:1037A0000C000600FE7FFE7F00000000000000000D
:1037B000000000000000E003E00360006000600023
:1037C00060006000600060006000600060006000F9
:1037D0006000600060006000600060006000E00366
:1037E000E003000000003000300060006000600076
:1037F000C000C000C000C001800180018001000342
:1038000000030003000600060000000000000000A6
:10381000000000000000E003E003000300030003D9
:103820000003000300030003000300030003000380
:103830000003000300030003000300030003E00390
:10384000E003000000000000C001C001600360034D
:10385000600330063006180C180C00000000000051
:103860000000000000000000000000000000000058
:103870000000000000000000000000000000000048
:103880000000000000000000000000000000000038
:10389000000000000000FFFFFFFF0000000000002C
:1038A0000000000000000C000C000C000C000C00DC
:1038B0000C000000000000000000000000000000FC
:1038C00000000000000000000000000000000000F8
:1038D00000000000000000000000000000000000E8
:1038E000F003F8071C0C0C0C000FF00FF80C0C0C7C
:1038F0000C0C1C0FF80FF018000000000000000076
:10390000000000000000180018001800180018003F
:10391000D803F80F380C1818181818181818181891
:103920001818380CF80FD803000000000000000041
:103930000000000000000000000000000000000087
:10394000C003F007300E180C1800180018001800FB
:10395000180C300EF007C00300000000000000004B
:1039600000000000000000180018001800180018DF
:10397000C01BF01F301C1818181818181818181821
:103980001818301CF01FC01B0000000000000000D1
:103990000000000000000000000000000000000027
:1039A000C003F00F300C1818F81FF81F180018008B
:1039B0003818301CF00FC0070000000000000000A5
:1039C000000000000000800FC00FC000C000C00059
:1039D000F007F007C000C000C000C000C000C00079
:1039E000C000C000C000C0000000000000000000D7
:1039F00000000000000000000000000000000000C7
:103A0000E00DF80F180E0C0C0C0C0C0C0C0C0C0C24
:103A10000C0C180EF80FE00D000C0C0C1C06F8072F
:103A2000F00100000000180018001800180018002D
:103A3000D807F80F381C181818181818181818185C
:103A400018181818181818180000000000000000B6
:103A5000000000000000C000C000000000000000E6
:103A6000C000C000C000C000C000C000C000C00056
:103A7000C000C000C000C000000000000000000046
:103A8000000000000000C000C000000000000000B6
:103A9000C000C000C000C000C000C000C000C00026
:103AA000C000C000C000C000C000C000C000F800DE
:103AB0007800000000000C000C000C000C000C0052
:103AC0000C0C0C060C038C01CC006C00FC009C015F
:103AD0008C030C030C060C0C00000000000000001E
:103AE000000000000000C000C000C000C000C00016
:103AF000C000C000C000C000C000C000C000C000C6
:103B0000C000C000C000C0000000000000000000B5
:103B100000000000000000000000000000000000A5
:103B20007C3CFF7EC7E383C183C183C183C183C162
:103B300083C183C183C183C1000000000000000075
:103B40000000000000000000000000000000000075
:103B50009807F80F381C181818181818181818187B
:103B60001818181818181818000000000000000095
:103B70000000000000000000000000000000000045
:103B8000C003F00F300C1818181818181818181847
:103B90001818300CF00FC0030000000000000000F7
:103BA0000000000000000000000000000000000015
:103BB000D803F80F380C18181818181818181818EF
:103BC0001818380CF80FD80318001800180018003F
:103BD00018000000000000000000000000000000CD
:103BE000C01BF01F301C18181818181818181818AF
:103BF0001818301CF01FC01B0018001800180018FF
:103C0000001800000000000000000000000000009C
:103C1000B007F0037000300030003000300030009A
:103C200030003000300030000000000000000000D4
:103C30000000000000000000000000000000000084
:103C4000E003F003380E180C3800F003C007000C36
:103C5000180C380EF007E003000000000000000020
:103C600000000000000000008000C000C000C00094
:103C7000F007F007C000C000C000C000C000C000D6
:103C8000C000C000C0078007000000000000000066
:103C90000000000000000000000000000000000024
:103CA0001818181818181818181818181818181894
:103CB0001818381CF01FE019000000000000000078
:103CC00000000000000000000000000000000000F4
:103CD0000C18180C180C180C30063006300660034F
:103CE00060036003C001C00100000000000000008C
:103CF00000000000000000000000000000000000C4
:103D0000C141C141C3616363636363633636363661
:103D100036361C1C1C1C1C1C00000000000000008F
:103D20000000000000000000000000000000000093
:103D30001C38381C300C60066003600360036003AD
:103D40006006300C381C1C38000000000000000029
:103D50000000000000000000000000000000000063
:103D60001830301830187018600C600CE00CC00669
:103D7000C00680038003800380018001C001F00041
:103D800070000000000000000000000000000000C3
:103D9000FC1FFC1F000C000600038001C000600037
:103DA00030001800FC1FFC1F000000000000000095
:103DB00000000000000000038001C000C000C0003F
:103DC000C000C000C0006000600030006000400023
:103DD000C000C000C000C000C000C00080010003DF
:103DE000000000000000800180018001800180014E
:103DF00080018001800180018001800180018001BB
:103E000080018001800180018001800180018001AA
:103E10008001000000006000C000C001800180013E
:103E200080018001800100030003000600030001FF
:103E3000800180018001800180018001C00060005C
:103E40000000000000000000000000000000000072
:103E500000000000F010F81F080F00000000000034
:103E60000000000000000000000000000000000052
:103E70000000000000000000000000000102030438
:103E800006070809A43E00080000002030000000DA
:103E900070280008D43E00083000002070040000A4
:103EA000802800080000FFFF000000000101000062
:103EB0000000000000000000000000000000000002
:103EC000000000000024F4001000000001000000C9
:043ED00000000000EE
:04000005080001D915
:00000001FF
