:020000040800F2
:10000000A80E0020ED010008574A0008C939000871
:10001000554A0008590900085D6600080000000004
:10002000000000000000000000000000A54E0008D5
:100030002B0A0008000000009D4A0008A74E000897
:10004000070200080702000807020008070200086C
:10005000070200080702000807020008070200085C
:10006000070200080702000807020008070200084C
:10007000070200080702000807020008070200083C
:100080000702000800000000B90700080702000886
:10009000070200080702000807020008070200081C
:1000A000070200080702000807020008070200080C
:1000B000394F00080702000807020008070200087D
:1000C00007020008070200080702000807020008EC
:1000D000070200085166000807020008070200082E
:1000E00007020008070200080702000807020008CC
:1000F00007020008070200080702000800000000CD
:1001000000000000070200080000000007020008CD
:1001100007020008000000000702000807020008AC
:10012000070200080702000807020008070200088B
:10013000070200080000000000000000070200089D
:10014000070200080702000800000000000000008D
:10015000000000000000000000000000000000009F
:10016000000000000000000000000000070200087E
:10017000070200080000000000000000000000006E
:10018000000000000702000800000000000000005E
:10019000000000000000000000000000000000005F
:1001A000000000000000000007020008070200082D
:1001B000070200080702000807020008000000000C
:1001C000000000000702000800000000000000001E
:1001D0000702000807020008DFF80CD000F06AFAF6
:1001E00000480047A96F0008A80E00200648804775
:1001F00006480047FEE7FEE7FEE7FEE7FEE7FEE70C
:10020000FEE7FEE7FEE7FEE71D4F0008D901000804
:100210002DE9F05F0546002092469B46884606463B
:10022000814640241BE0284641464746224600F0CE
:1002300078F853465A46C01A914110D311461846D1
:10024000224600F05FF82D1A67EB01084F46224660
:100250000120002100F056F817EB00094E41201E46
:10026000A4F10104DFDC484631462A464346BDE896
:10027000F09FD2B201E000F8012B491EFBD270477B
:100280000022F6E710B513460A4604461946FFF762
:10029000F0FF204610BD10B5002200E0521C835C28
:1002A0008C5CA34201D1002BF8D1D8B2E1B2401A44
:1002B00010BD00F0004230F000400AD0C10D01F541
:1002C0006071C0F3160042EA0151C20840071143B1
:1002D000704700200146704730B50B4601460020AC
:1002E0002022012409E021FA02F59D4205D303FAF8
:1002F00002F5491B04FA02F52844151EA2F1010279
:10030000F1DC30BD202A04DB203A00FA02F10020A3
:1003100070479140C2F1200320FA03F31943904043
:100320007047202A04DB203A21FA02F000217047AE
:1003300021FA02F3D040C2F120029140084319464D
:1003400070472DE9FE4F804681EA0300C00F0C463E
:10035000009021F0004123F00045B8EB0200A941D4
:1003600005D24046214690461C460B46024623F0E5
:100370000040104347D0270DC7F30A00C3F30A51CA
:100380000290401A019040286BDAC3F3130040F446
:10039000801B0098924620B10023D2EB030A63EB46
:1003A0000B0B01985946C0F140025046FFF7AAFFD7
:1003B00006460D4650465946019A00F08DF910EB5D
:1003C00008006141002487EA115284EAE7731A4366
:1003D00040D0009A62B3019A012A4FEA075215DC15
:1003E000001B61EB02014FF0004202EA0752CDE927
:1003F0000042001C41F5801132462B4600F08DF979
:1004000003B0BDE8F08F40462146F9E7001B61EBE1
:100410000201001C41F5801300185B412018A2F571
:10042000001747EB030140EAD570B6196D4111E0A2
:100430006D084FEA360645EAC0754FEA0752001BC1
:1004400061EB0201001C41F5801149084FEA3000C0
:100450000019514132462B4603B0BDE8F04F00F081
:100460004DB90098012240000023D0EB020263EB5B
:10047000E073009821464FEAE074B8EB000061EBAE
:100480000401E9E783F000435BE781F0004158E7AE
:100490002DE9FE4F81EA030404F0004421F00041FD
:1004A00000944FF0000B23F0004350EA01045ED0AB
:1004B00052EA03045BD0C3F30A54C1F30A552C4437
:1004C000A4F2F3340194A0FB0254C1F3130141F4EC
:1004D0008011C3F3130343F4801301FB024400FBB8
:1004E000034E840A970A44EA815447EA8357A4FBDF
:1004F000076802958D0A05FB07854FEA932C04FBDC
:100500000C542705029D4FEA065847EA1637B5EB0B
:1005100008056EEB070C870E920E47EA811742EA38
:100520008312A7FB0201B6EB0B0164EB00042B0D59
:1005300043EA0C335E1844EB1C50DA465146E7FBA5
:100540000201C5F313044FEA0B3343EA14534FEA95
:100550000432019C43EA0603A4F10C040294009CBB
:10056000CDE900B400F0D9F803B0BDE8F08F002069
:100570000146F9E72DE9F04D81EA030404F0004B50
:1005800021F0004514464FF0000A23F0004150EAE4
:10059000050220D054EA01021DD0C5F30A570246D5
:1005A000C5F31303C1F31300C1F30A5640F48015D9
:1005B00043F48013A7EB0608101BD64608F2FD385B
:1005C00073EB050002D308F1010801E092185B41CA
:1005D000B8F1000F03DA00200146BDE8F08D0020DD
:1005E0004FF48011064684460EE0171B73EB050797
:1005F00005D3121B63EB050306434CEA010C4908C3
:100600004FEA300092185B4150EA0107EDD152EAFF
:10061000030012D082EA040083EA0501084305D0F2
:10062000101BAB4106D20122002306E000224FF04E
:10063000004302E06FF0010253101AEB06004CEB8E
:10064000085110EB0A0041EB0B01BDE8F04D00F042
:1006500055B8C1F30A52C1F3130140F2FF3341F41C
:1006600080119A4202DA00200146704740F233437B
:100670009A42A2F2334202DC5242FFF752BEFFF727
:1006800041BE000030B5041E71F1000404DB4FF0E0
:100690000044404264EB0101141E73F1000405DBC9
:1006A0001C464FF00043524263EB0403994208BFDB
:1006B000904230BD064C074D06E0E06840F0010373
:1006C00094E8070098471034AC42F6D3FFF788FD52
:1006D0005082000870820008202A06DBCB17203ADF
:1006E00041FA02F043EAE07306E041FA02F3D04037
:1006F000C2F12002914008431946704710B5141EFC
:1007000073F1000408DA401C41F1000192185B41CA
:100710001A4301D120F0010010BD2DE9F04D9246A1
:100720009B4611B1B1FA81F202E0B0FA80F22032B8
:100730009046FFF7E7FD04460F4640EA0A0041EA0B
:100740000B0153465A46084313D0114653EA0100A1
:1007500019D0C8F140025046FFF7E3FD05460E46AA
:10076000504659464246FFF7CDFD084305D00120CB
:1007700004E020463946BDE8F08D0020054346EAF6
:10078000E0762C4337430A986305E40AA0EB08009F
:100790000022FD0A44EA47540A3002D500200146EF
:1007A000E9E7010510196941DDE9084500196941CA
:1007B000BDE8F04DA2E70000014800F011BC0000C8
:1007C000B808002010B50246906AC16D11F0500FB4
:1007D00006D0C16D11F0100F38D000F0FFFB10BD36
:1007E000C16D41F40071C16501680A6812F0080F1B
:1007F00019D0CA6812F4406F06D000221AB3C96833
:1008000011F4005F02D01EE00122F7E7C16D21F470
:100810008071C165C16D11F4805F14D1C16D41F06B
:100820000101C1650FE0C96811F0020F0BD1C16D64
:1008300021F48071C165C16D11F4805F03D1C16D78
:1008400041F00101C16500F0C7FB10BD406D416B77
:10085000BDE810401046084710B5806AC16D41F0F0
:100860004001C165016E41F00401016600F0B6FB74
:1008700010BD10B5806A00F0B0FB10BD70B5044625
:100880002068816801F0010100293ED181686FF381
:100890009E1149B1E06D40F01000E065206E40F01F
:1008A00001002066012070BD816821F03F0121F028
:1008B000004141F00101816001F0A2F90546206884
:1008C000006810F0010F20D12068816801F001015B
:1008D00039B9816821F03F0121F0004141F0010167
:1008E000816001F08DF9401B022809D9E06D40F0CC
:1008F0001000E065206E40F001002066012070BD10
:100900002068006810F0010FDED0002070BD0000EC
:100910000E48018800EE101AA0F13801F8EE400AE6
:100920009FED0B0A20EE801ADFED0A0AC1EE201AB5
:10093000C1ED0F1A408801EE100AB8EE411A21EEFF
:10094000000A80EE201A81ED101A70474000002046
:100950003333534000F07F45FEE700000D49026845
:100960008A4201D20C4900E00C49D2B20C4B083A41
:10097000A3FB02321209436C23F003031944816480
:100980000849C16402F01F01012202FA01F1016568
:10099000704700000804024000080240200802409E
:1009A000CDCCCCCC800802400179074A491E02EB2D
:1009B00081024265054A826501F01F01012202FAA7
:1009C00001F1C16570470000000902404009024082
:1009D00010B4C46CD0F850C0C4F804C0D0F854C0EF
:1009E000BCF1000F04D0846DD0F85CC0C4F804C022
:1009F00090F844C001240CF01F0C04FA0CFC046CA9
:100A0000C4F804C0D0F800C0CCF804308368102BC0
:100A100005D0036899600068C26010BC7047036825
:100A20009A600068C16010BC70477047002240F6B1
:100A3000B83306E00021491C89B29942FBD3521C0D
:100A400092B28242F6D3704710B5044603F03AF8EA
:100A5000A02002F0F8FF03F06BF8204602F0F3FF4D
:100A600003F066F803F049F803F02CF8A12002F037
:100A7000EAFF03F05DF802F0BFFF044603F00AF856
:100A8000204610BD70B50D46044603F01BF8A020AB
:100A900002F0D9FF03F04CF8204602F0D4FF03F037
:100AA00047F8284602F0CFFF03F042F803F025F89C
:100AB000BDE87040052000F061BF70477047704787
:100AC00070477047704700002DE9F80700239C46E7
:100AD000CDF800C0FE4E90F85820012A12D0012413
:100AE00080F8584002689568C5F3800575B1C16DFE
:100AF00041F02001C165012380F858C01846BDE8C7
:100B0000F8077047BDE8F807022070478D880F6826
:100B100005F4407802EB9812D2F8308005F01F05FA
:100B20004FF01F0909FA05F9C7F3846728EA090895
:100B300007FA05F548EA0505156302689568C5F3E7
:100B400080059768C7F3C0072F434FF0070540F0B3
:100B5000FF80D1F80880B8F1004F53D00F6807F03C
:100B6000007902EBD952D2F81490C7F3045705FA72
:100B700007FA29EA0A0908FA07F749EA0707576155
:100B80000268576927F00047576102684F69D2F839
:100B90000C80C8F3C1084FEA480807FA08F80F6943
:100BA000042F4CD0D1F8009002EB8702176EDFF8CB
:100BB00024A309F0F84907EA0A0749EA080847EABE
:100BC000080747F0004717660268D1F810808F6960
:100BD00002EB8802D2F8608028F0807848EA0707A4
:100BE00017660F7F0268D1F81080012F24D00027EC
:100BF00002EB8802D2F8608028F0007848EA070704
:100C00001766A5E00F684FF0000807F0007902EBC7
:100C1000D952D2F81490C7F3045705FA07FA29EA13
:100C20000A0908FA07F749EA07075761026857698E
:100C300047F000475761A8E74FF00077D8E702F187
:100C400060073F6800277F037F0B7CD002F16007BD
:100C50003F6807F0F84797FAA7F7B7FA87F80F68E1
:100C6000C7F31209B9F1000F6ED097FAA7F7B7FAD8
:100C700087F7B84503D1176E27F00047176602685B
:100C8000121D02F160073F6800277F037F0B71D0C0
:100C900002F160073F6807F0F84797FAA7F7B7FA3D
:100CA00087F80F68C7F31209B9F1000F6AD097FAF5
:100CB000A7F7B7FA87F7B84503D1176E27F00047B3
:100CC00017660268083202F160073F6800277F0359
:100CD0007F0B5AD002F160073F6807F0F84797FA98
:100CE000A7F7B7FA87F80F68C7F31209B9F1000F31
:100CF00053D097FAA7F7B7FA87F7B84503D1176E1D
:100D000027F00047176602680C3202F160073F685F
:100D100000277F037F0B43D002F160073F6807F095
:100D2000F84797FAA7F7B7FA87F80F68C7F31209D9
:100D3000B9F1000F3CD097FAA7F7B7FA87F7B84593
:100D400006D1176E01E009E010E027F000471766B2
:100D50000268976807F001076FB3D1E002F16007FE
:100D60003F6807F0F8474FEA976878E7C7F384676A
:100D70007FE7FFE702F160073F6807F0F8474FEAB7
:100D800097688EE7C7F3846795E702F160073F68CD
:100D900007F0F8474FEA9768A5E7C7F38467ACE721
:100DA00002F160073F6807F0F8474FEA9768BCE731
:100DB000C7F38467C3E791F80C800F68D2F8B0904E
:100DC000C7F3120A29EA0A09DFF80CA108F018088B
:100DD0002AFA08F808EA070749EA0707C2F8B070D4
:100DE000CA68B2427AD10A68076812EA0A061AD0BB
:100DF00092FAA2F6B6FA86F6761C06F01F06092EBF
:100E000032D8C2F31206002E10D092FAA2F6B6FA29
:100E100086F606F1010606F01F0604FA06F608D16A
:100E2000C2F3846409E0C2F38466E5E7C2F3846632
:100E3000EFE792FAA2F4B4FA84F404F1010404F0A6
:100E40001F0446EA846402D1C2F3846203E092FA8A
:100E5000A2F2B2FA82F202F1010202F01F0202EBE8
:100E6000420244EA025432E0C2F31206002E0DD0D0
:100E700092FAA2F6B6FA86F606F1010606F01F0609
:100E800004FA06F605D1C2F3846406E0C2F3846670
:100E9000F2E792FAA2F4B4FA84F404F1010404F043
:100EA0001F0446EA846402D1C2F3846203E092FA2A
:100EB000A2F2B2FA82F202F1010202F01F02A2F1E2
:100EC0000A0202EB420244EA025242F0007406E0D7
:100ED00000007F4000F0FF03FFFF070010E08E6876
:100EE00004F0007207EBD2525769C4F3045405FAB8
:100EF00004F527EA050506FA04F445EA04045461FA
:100F00000A682F490A423FF4F7AD2E4CA16801F060
:100F1000E07102F1705515F55F0502D02A4DAA4225
:100F200002D111F4000F1ED0284D02F1605616F5C3
:100F30002E0602D111F0807F35D002F1505616F501
:100F4000F8067FF4D9AD11F4800F7FF4D5AD0268B7
:100F5000AA423FF4D1AD41F48001A26822F0E072D0
:100F60001143A160C8E50268B2F1A04F7FF4C4AD9F
:100F700041F40001A26822F0E0721143A16014491B
:100F8000144A0968B1FBF2F101EB410189000091BB
:100F9000009900293FF4B0AD0099491E00910099D5
:100FA0000029F9D1A8E50268AA423FF4A5AD41F0B5
:100FB0008071A26822F0E0721143A1609CE50000FC
:100FC00000000880000300501000C0900001005095
:100FD00068000020400D0300704770477047000014
:100FE0002DE9F04704464FF0000820680568466880
:100FF000DFF8B8A2DAF8080000F01F0715F0020FBA
:1010000010D016F0020F0DD0E06D10F0100F03D1CC
:10101000E06D40F40060E0652046FFF74FFD216879
:1010200002200860DFF8889215F0040F02D016F055
:10103000040F05D115F0080F42D016F0080F3FD06D
:10104000E06D10F0100F03D1E06D40F40070E0652A
:101050002068C16811F4406F06D0002151B34845A3
:1010600004D14FF0A04102E00121F7E7014681429F
:1010700009D047B1052F06D0092F04D0484504D127
:101080004FF0A04102E0C16801E00146C96811F4D7
:10109000005F0FD1016811F0080F0BD08168C1F318
:1010A0008001A1B1E06D40F01000E065206E40F0DD
:1010B000010020662046FFF78FFF21680C200860A2
:1010C00015F0200F14D016F0200F17D110E0416852
:1010D00021F00C014160E06D20F48070E065E06D6E
:1010E00010F4805FE6D1E06D40F00100E065E1E7DB
:1010F00015F0400F50D016F0400F4DD0E06D10F0BD
:10110000100F03D1E06D40F40050E0652068C16C21
:1011100011F4C07F0AD00022C16811F4406F07D0DB
:101120000023484506D14FF0A04104E00122F3E737
:101130000123F6E70146814209D047B1062F06D0C8
:10114000072F04D0484504D14FF0A04102E0C16808
:1011500001E00146C96832B911F0007F16D1ABB188
:1011600011F4005F12D1026812F0400F0ED011F49A
:10117000001F0BD18168C1F3C001E1B3E06D40F005
:101180001000E065206E40F0010020662046FFF769
:1011900096FC21686020086015F0800F0CD016F0D6
:1011A000800F09D0E06D40F48030E065204600F00B
:1011B00087F921688020086015F4807F0DD016F42F
:1011C000807F0AD0E06D40F40030E0652046FFF7F4
:1011D00078FC21684FF48070086015F4007F0FD010
:1011E00016F4007F0CD0E06D40F48020E0652046CE
:1011F000FFF768FC00E014E021684FF4007008601D
:1012000015F0100F39D016F0100F36D0E06BC8B1C2
:10121000DFB1DAF8080000F46040E8B14FF00108EF
:101220001AE0416821F060014160E06D20F48050D7
:10123000E065E06D10F4807FA8D1E06D40F0010022
:10124000E065A3E74FF0010806E02068C06810F0F1
:10125000010F01D04FF00108B8F1010F0AD1E06D84
:1012600040F48060E065206E40F002002066204679
:10127000FFF7B4FE21681020086015F4806F13D0CA
:1012800016F4806F10D0E06D40F48040E065206E71
:1012900040F00800206621684FF480600860204616
:1012A000BDE8F047FFF70CBCBDE8F0870003005035
:1012B00000010050F8B50446002500260096002CD9
:1012C00002D0E06D10B107E00120F8BD204600F02B
:1012D000F9F8266684F8586020688168C1F3407187
:1012E00029B1816821F03F0121F02041816020680F
:1012F0008168C1F30071A9B9816821F03F0121F033
:10130000004141F080518160684869490068B0FB44
:10131000F1F00090009828B10098401E00900098CD
:101320000028F9D120688168C1F3007141B9E16DED
:1013300041F01001E165216E41F0010121660125B6
:101340008168C1F38001E26D12F0100F00D131B15C
:10135000E06D40F01000E06501252846F8BDE16D24
:1013600021F4807141F00201E165806800F0010024
:1013700088B94FF0A040806800F001004D498968AD
:1013800001F00101084306D160684B498A6822F4E4
:101390007C1210438860E168E06B627F0843A168BB
:1013A00041EA4231084394F8241040EA01400129FF
:1013B00003D1218D491E40EA4140E16A21B101F487
:1013C0007871226B084310432168CA683B4B1A406E
:1013D0001043C86020680169626B21F040611143CD
:1013E000016120688168C1F380018268C2F3C00294
:1013F000114332D1217F94F83820890341EA420118
:10140000C26822F0020222F480421143C1602069C6
:1014100070B12068016941F4803101612068D0F821
:10142000C01022696FF30D011143C0F8C0100BE02A
:101430002068016921F4803101612068D0F8C01072
:101440006FF30D01C0F8C01094F84000012813D0CC
:101450002068016921F001010161606901281CD047
:101460002068016B21F00F010163E06D20F00200A4
:1014700040F00100E06570E7A16C606C226D0843EC
:10148000E16C114340EA0102206801696FF38A01AF
:10149000114341F001010161DFE72068016B226A1D
:1014A00021F00F01521E11430163DEE768000020A6
:1014B000400D030000010050000300500740F0FF02
:1014C0007047000070B586B0054614216846FEF7E7
:1014D000D7FE2149286888423BD12049C86C40F496
:1014E0000050C864C86C00F400500590C86C40F00F
:1014F0000100C864C86C002600F00100059030208F
:1015000000900320CDE9010669464FF0904000F0BD
:1015100049FA144C124820602420C4E901068020B6
:10152000C4E90360400060618000A0612020C4E93C
:101530000706204600F06CF908B1FFF7BEFA6C65AB
:10154000002211461220A56200F0C8FB122000F014
:10155000B7FB06B070BD0000000100500010024053
:10156000080002402409002070B504463D48806808
:1015700000F01F0520688068C0F38000002802D0BA
:101580000222104670BD94F8580001280DD00120A9
:1015900084F858002046FFF771F9024610004FF01A
:1015A000000C04D084F858C0EBE7022070BDE06D59
:1015B00020F0010020F4606040F48070E0652A4B68
:1015C0002068984202D14FF0A04100E001468142DC
:1015D00000D01DB9E16D21F48011E165E16D11F4D8
:1015E000805F04D0216E21F00601216601E0C4F87D
:1015F00060C01C21016084F858C02068984202D164
:101600004FF0A04100E00146814217D0B5B1052D51
:1016100014D0092D12D0E16D41F48011E16598429A
:1016200001D14FF0A040C06810F0007FA9D0E06D5C
:1016300020F4005040F48050E065A2E7C16811F04A
:10164000007F05D0E16D21F4005141F48051E16546
:10165000816821F03F0121F0004141F004018160E7
:101660008FE7000000030050000100502DE9F04119
:1016700004460E4617463D48806800F01F05206866
:101680008068C0F38000002802D00220BDE8F0810D
:1016900094F8580001280DD0012084F858004FF02C
:1016A000000855B1052D08D0092D06D084F85880C2
:1016B000BDE8F0810220BDE8F0812046FFF7DEF8AA
:1016C00018B184F85880BDE8F081E06D20F0010089
:1016D00020F4606040F48070E0652068A0F1A041D3
:1016E000B1F5807104D00246824204D01DB106E0FB
:1016F0004FF0A042F8E7E06D20F48010E065E06D67
:1017000010F4805F04D0206E20F00600206601E017
:10171000C4F86080616D1648C862616D1548086341
:10172000616D1548486321681C20086084F8588062
:101730002068416841F0100141602068C16841F0B3
:101740000101C16020683B4600F140013246606DF6
:1017500000F0C6F821688A6822F03F0222F00042B9
:1017600042F004028A60BDE8F081000000030050EE
:10177000C5070008730800085908000810B50024C0
:1017800090F8251000230122022907D00421C1630B
:1017900080F8252080F82430012437E00168D1F852
:1017A00000C02CF00E0CC1F800C00168D1F800C0D8
:1017B0002CF0010CC1F800C0816CD1F800C02CF4F1
:1017C000807CC1F800C090F84410D0F840C001F00F
:1017D0001F0102FA01F1CCF80410D0F84CC0016DE1
:1017E000CCF80410416D51B1D1F800C02CF4807CCC
:1017F000C1F800C0D0F858C0C16DCCF8041080F812
:10180000252080F82430816B01B18847204610BD27
:1018100070B50446002C0ED02B4A20682B4990420C
:101820000BD22B4A0244A1FB022109098900616401
:10183000284921640AE0012070BD274A0244A1FB27
:10184000022109098900616424492164022184F884
:10185000251001686FF30E11E368A268D4F814C074
:101860001A43236943EA0C031A43A3691A43E36941
:101870001A43236A1A43114301602046FFF76EF8AA
:10188000A0680025B0F5804F00D16560A16C20797B
:101890000860E16C206D48606068401E032808D82D
:1018A0002046FFF781F8606D0560A16DE06D48602E
:1018B00002E06565A565E565E563012084F825001E
:1018C00084F82450002070BD08040240CDCCCCCC5C
:1018D000F8FFFDBF00000240F8FBFDBF000402401E
:1018E00070B50446002594F8240001280DD001208D
:1018F00084F8240094F825C00020BCF1010F06D024
:1019000084F824000225284670BD022070BD4FF0E7
:10191000020C84F825C0E0632068D0F800C02CF0E9
:10192000010CC0F800C02046FFF752F8206B28B128
:101930002068016841F00E01016009E0206801683B
:1019400021F0040101602068016841F00A01016092
:10195000A06C016811F4803F03D0016841F48071EC
:101960000160606D18B1016841F480710160206808
:10197000016841F001010160C5E7000070B504464F
:1019800000F03EF90546B4F1FF3F02D0044840683C
:10199000044400F035F9401BA042FAD370BD0000AA
:1019A0006C0000202DE9F84F00220B68002B7CD042
:1019B0000324874E874F0F250123D1F800C003FA77
:1019C00002F80CEA0803002B70D0D1F804C0BCF177
:1019D000010F08D0BCF1020F05D0BCF1110F02D0ED
:1019E000BCF1120F1DD1D0F808904FEA420C04FA56
:1019F0000CFA29EA0A09D1F80CA00AFA0CFC4CEA04
:101A0000090CC0F808C0D0F804C02CEA080C91F802
:101A10000480C8F3001808FA02F848EA0C0CC0F871
:101A200004C0D0F80C804FEA420C04FA0CFA28EA01
:101A30000A08D1F8089009FA0CF949EA0808C0F830
:101A40000C80D1F80480B8F1020F02D0B8F1120F67
:101A500015D14FEAD20800EB8808D8F820B04FEA39
:101A600042794FEAD96905FA09FE2BEA0E0BD1F843
:101A700010E00EFA09F949EA0B09C8F82090D0F8ED
:101A8000008028EA0A0891F8049009F0030909FA8D
:101A90000CFC4CEA080CC0F800C0D1F804C01CF0E3
:101AA000805F7CD0D6F860C001E07DE077E04CF04C
:101AB000010CC6F860C0D6F860C00CF0010CCDF87F
:101AC00000C022F0030C0CF1804909F58039D9F8E7
:101AD00008C04FEA82784FEA187805FA08FA2CEA2B
:101AE0000A0AB0F1904F64D0A0F1904CBCF5806C24
:101AF0005CD0A0F1904CBCF5006C5DD0A0F1904C96
:101B0000BCF5406C5BD0A0F1904CBCF5805C59D02A
:101B1000A0F1904CBCF5A05C57D04FF0060C0CFA2D
:101B200008FC4CEA0A0CC9F808C0D7F800C02CEA37
:101B3000030CD1F8048018F4803F01D04CEA030C68
:101B4000C7F800C0DFF89080D8F800C02CEA030C7A
:101B5000D1F8049019F4003F01D04CEA030CC8F806
:101B600000C0DFF87880D8F800C02CEA030CD1F868
:101B7000049019F4801F01D04CEA030CC8F800C08F
:101B8000DFF85C80D8F800C02CEA030CD1F8049090
:101B900019F4001F01D04CEA030CC8F800C0521C15
:101BA0000B68D3407FF408AFBDE8F88F4FF0010C0D
:101BB000B5E74FF0000CB2E74FF0020CAFE74FF083
:101BC000030CACE74FF0040CA9E74FF0050CA6E7B7
:101BD00000100240000401400404014008040140D8
:101BE0000C0401400069084201D001207047002028
:101BF0007047002A01D08161704781627047000000
:101C000001488068704700006C000020024881682D
:101C100042681144816070476C00002010B50024B8
:101C2000032000F08FF8002000F008F808B101242C
:101C300001E000F029F8204610BD000070B505460F
:101C400000240F4E7068002817D04FF47A71B1FB52
:101C5000F0F00C490968B1FBF0F000F059FE08B152
:101C600001240BE0102D06D200222946501E00F060
:101C700035F8356002E0012400E00124204670BD03
:101C80006C000020680000200B4808B5016E41F090
:101C900001010166016E01F001010091816D41F0C9
:101CA00080518165806D00F080500090034881680C
:101CB00041F48041816008BD001002400070004086
:101CC00000280ADB00F01F01012202FA01F140099D
:101CD000800000F1E020C0F80011704710B4184BEC
:101CE0001B68C3F30223C3F1070CBCF1040F01D935
:101CF0004FF0040C1C1D072C01D2002300E0DB1E5A
:101D0000012404FA0CFCACF1010C0CEA010199402D
:101D100004FA03F35B1E1A401143002806DB00F1AE
:101D2000E020090180F8001410BC704700F00F009B
:101D300000F1E020090180F8141D10BC704700007C
:101D40000CED00E000F00700064A11684FF6FF03B3
:101D5000194041EA002040F0FD7040F080601060C2
:101D6000704700000CED00E033493222334B096824
:101D70004A43334900280AD0B0F5007F31D00868C3
:101D800020F4C06040F4806008600020704708685C
:101D900000F4C060B0F5806F06D0D1F8800020F468
:101DA0008070C1F88000F0E7D1F8800020F48070E6
:101DB000C1F88000086820F4C06040F4007008603A
:101DC000B2FBF3F0401C00E0401E4A6912F4806F41
:101DD00001D00028F8D1486910F4806FD5D00320D5
:101DE0007047086800F4C060B0F5806F06D0D1F885
:101DF000800040F48070C1F88000C6E7D1F8800010
:101E000040F48070C1F88000086820F4C06040F49D
:101E100000700860B2FBF3F0401C00E0401E4A690D
:101E200012F4806F01D00028F8D1486910F4806F57
:101E3000ABD00320704700006800002040420F0034
:101E4000007000402DE9F84F044600250027206867
:101E5000B04E10F4002F76D0A846B06D10F0805F21
:101E600009D1B06D40F08050B065B06D00F0805089
:101E700000904FF00108DFF8A0A2DAF8000040F46B
:101E80008070CAF80000FFF7BBFE8146DAF8000058
:101E900010F4807F0CD1FFF7B3FEA0EB09000228FD
:101EA00001D9032504E0DAF8000010F4807FF2D0B5
:101EB00025B12F46B8F1010F41D044E0D6F890008B
:101EC00000F44070A0B1216C814211D0D6F890008E
:101ED00020F44070D6F8901041F48031C6F890108C
:101EE000D6F8901021F48031C6F89010C6F8900012
:101EF00010F0010F16D0FFF783FE8146D6F8900050
:101F000010F0020F0ED141F2883AFFF779FEA0EBF4
:101F10000900504501D9032504E0D6F8900010F0DF
:101F2000020FF2D00DB12F46C4E7D6F89000216C15
:101F300020F440700843C6F89000BBE703E0B06DA2
:101F400020F08050B065207810F0010F07D0D6F84F
:101F50008800616820F003000843C6F888002078F4
:101F600010F0020F07D0D6F88800A16820F00C000E
:101F70000843C6F88800207810F0040F07D0D6F880
:101F80008800E16820F030000843C6F88800207817
:101F900010F0080F07D0D6F88800216920F0C000A3
:101FA0000843C6F88800207810F0200F07D0D6F834
:101FB0008800616920F440600843C6F888002078F2
:101FC00010F0400F07D0D6F88800A16920F44050E7
:101FD0000843C6F88800207810F0800F07D0D6F8A4
:101FE0008800E16920F440400843C6F88800208852
:101FF00010F4807F07D0D6F88800216A20F44030A2
:102000000843C6F88800208810F4007F07D0D6F86F
:102010008800616A20F440200843C6F888002088C0
:1020200010F4806F0FD0D6F88800A16A20F4401019
:102030000843C6F88800A06AB0F5801F03D1F06895
:1020400040F48010F060208810F4006F0FD0D6F8B4
:102050008800E16A20F440000843C6F88800E06A7E
:10206000B0F5800F03D1F06840F48010F060208854
:1020700010F4805F0FD0D6F88800216B20F04070FC
:102080000843C6F88800206BB0F1807F03D1F06868
:1020900040F48010F060208810F4005F0FD0D6F874
:1020A0008800616B20F040600843C6F88800606BD0
:1020B000B0F1006F03D1F06840F48010F060208828
:1020C00010F4804F0FD0D6F88800A16B20F040604C
:1020D0000843C6F88800A06BB0F1006F03D1F06828
:1020E00040F48010F060208810F4004F0FD0D6F834
:1020F0008800E16B20F040500843C6F88800E06B90
:10210000B0F1805F03D1F06840F48030F060384671
:10211000BDE8F88F00100240007000402DE9F04744
:1021200004460D460027002C17D0DFF8DC91D9F8C3
:10213000000000F00F00A84212D2D9F8000020F0F1
:102140000F002843C9F80000D9F8000000F00F0084
:10215000A84205D00120BDE8F0870120BDE8F08746
:1021600020786A4E10F0010F41F2883A5ED0606824
:10217000DFF89C81032806D0022822D0306810F4B2
:10218000806F49D021E0306810F0007F0ED002F05F
:1021900087FC404524D9B06810F0F00F09D02078B2
:1021A00010F0020F1CD0A06818B119E00120BDE8A2
:1021B000F087B06820F0F00040F08000B060802729
:1021C0000EE0306810F4003F23D000F0D3F8404513
:1021D00006D9B06820F0F00040F08000B0608027A1
:1021E000B068616820F003000843B060FFF708FDA5
:1021F0008046B068616800F00C00B0EB810F15D02C
:10220000FFF7FEFCA0EB0800504508D90320BDE80D
:10221000F0870120BDE8F0870120BDE8F087B068B5
:10222000616800F00C00B0EB810FE9D1206810F07C
:10223000020F17D010F0040F03D0B06840F4E06034
:10224000B060207810F0080F05D0B06820F460501E
:1022500040F4E060B060B068A16820F0F00008438E
:10226000B06005E0802F03D1B06820F0F000B060CE
:10227000D9F8000000F00F00A8421DD9D9F80000DD
:1022800020F00F002843C9F80000FFF7B9FC07460B
:10229000D9F8000000F00F00A8420DD0FFF7B0FC05
:1022A000C01B504502D90320BDE8F087D9F80000D3
:1022B00000F00F00A842F1D1207810F0040F05D0F3
:1022C000B068E16820F4E0600843B060207810F066
:1022D000080F06D0B068216920F4605040EAC100C0
:1022E000B06000F047F8B1680A4AC1F30311515CCD
:1022F00001F01F01C8400849086008480068BDE8AF
:10230000F047FFF79BBC0000002002400010024095
:1023100000B4C40438820008680000206C0000206B
:1023200001480068704700006800002000B5FFF712
:10233000F7FF05498968054AC1F30221515C01F0A4
:102340001F01C84000BD0000001002404882000884
:1023500000B5FFF7E5FF05498968054AC1F3C221C9
:10236000515C01F01F01C84000BD00000010024098
:10237000488200081A4A9068DFF868C000F00C0034
:1023800004280CD0906800F00C011748082905D0EB
:1023900091680C2333EA010103D0002070476046A6
:1023A0007047D16801F00303D168C1F30311491CE0
:1023B000032B0DD0BCFBF1F0D168C1F306214843DB
:1023C000D168C1F34161491C4900B0FBF1F070478D
:1023D000B0FBF1F0D168C1F306214843F0E70000FB
:1023E000001002400024F40000366E012DE9F8438D
:1023F0000446002C0ED02078FD4F10F0010F60D065
:10240000B8683D4600F00C00E96801F003010C28B3
:1024100003D004E00120BDE8F88303291AD008287E
:1024200018D06068B0F5803F1DD0B0F5A02F1FD048
:10243000286820F480302860286820F480202860F4
:10244000606858B3FFF7DCFB0646286810F4003FCD
:1024500017D036E0286810F4003F32D0606880BBA7
:102460000120BDE8F883286840F480302860E7E761
:10247000286840F480202860286840F48030286074
:10248000DEE7FFF7BDFB801B642802D90320BDE80F
:10249000F883286810F4003FF3D012E0FFF7B0FB98
:1024A0000646286810F4003F0BD0FFF7A9FB801BFD
:1024B000642802D90320BDE8F883286810F4003F9F
:1024C000F3D1207810F0020F5ED0B8683D4600F0DE
:1024D0000C00E96801F003010C2801D102290FD09A
:1024E00004280DD0E068B8B3286840F480702860F4
:1024F000FFF786FB0646286810F4806F18D023E0AB
:10250000286810F4806F01D0E06870B16868217CA1
:1025100020F0FE4040EA01606860B6480068FFF7BE
:102520008DFB88B30120BDE8F8830120BDE8F88366
:10253000FFF766FB801B022802D90320BDE8F88361
:10254000286810F4806FF3D06868217C20F0FE408A
:1025500040EA0160686017E0FFE7286820F48070B7
:102560002860FFF74DFB0646286810F4806F0BD0FB
:10257000FFF746FB801B022802D90320BDE8F88341
:10258000286810F4806FF3D1207810F0080F3AD04B
:102590006069E0B1D7F894003D4640F00100C7F80B
:1025A0009400FFF72DFB0646D5F8940010F0020FBB
:1025B00029D1FFF725FB801B022802D90320BDE8A3
:1025C000F883D5F8940010F0020FF2D01BE0D7F892
:1025D00094003D4620F00100C7F89400FFF710FB7F
:1025E0000646D5F8940010F0020F0CD0FFF708FB58
:1025F000801B022802D90320BDE8F883D5F8940097
:1026000010F0020FF2D1207810F0040F7BD04FF0C1
:102610000008B86D10F0805F09D1B86D40F08050AF
:10262000B865B86D00F0805000904FF00108724D11
:10263000286810F4807F16D1286840F480702860E4
:10264000FFF7DEFA0646286810F4807F0BD1FFF70B
:10265000D7FA801B022802D90320BDE8F883286836
:1026600010F4807FF3D0A06801281AD005281FD06D
:10267000D7F8900020F00100C7F89000D7F890003C
:1026800020F00400C7F89000A06841F2883650B3EB
:10269000FFF7B6FA0546D7F8900010F0020F14D0F5
:1026A00037E0D7F8900040F00100C7F89000EBE762
:1026B000D7F8900040F00400C7F89000D7F89000D9
:1026C00040F00100C7F89000DEE7FFF799FA401BE1
:1026D000B04202D90320BDE8F883D7F8900010F08B
:1026E000020FF2D015E0FFF78BFA0546D7F89000FD
:1026F00010F0020F0DD0FFF783FA401BB04203D950
:102700000320BDE8F8830BE0D7F8900010F0020F2B
:10271000F1D1B8F1010F03D1B86D20F08050B86548
:10272000207810F0200F3AD0A069E0B1D7F89800D7
:102730003D4640F00100C7F89800FFF761FA0646F1
:10274000D5F8980010F0020F29D1FFF759FA801B35
:10275000022802D90320BDE8F883D5F8980010F0CC
:10276000020FF2D01BE0D7F898003D4620F00100A0
:10277000C7F89800FFF744FA0646D5F8980010F01D
:10278000020F0CD0FFF73CFA801B022802D903206D
:10279000BDE8F883D5F8980010F0020FF2D1E06997
:1027A00060B3B9683D460C2232EA01014FF0FF38B0
:1027B00078D0022823D0286820F080702860E8684C
:1027C00020F00300E860E86820F4881020F08070B2
:1027D000E860FFF715FA0446286810F0007F0DD076
:1027E000FFF70EFA001B022857D90320BDE8F88333
:1027F000001002406C0000200070004083E0286858
:1028000020F080702860FFF7FBF90646286810F07A
:10281000007F0AD0FFF7F4F9801B022801D90320BA
:10282000E4E7286810F0007FF4D1616A206A491E4D
:1028300040EA0110A16A228E090208EB520241EA25
:102840004251084394F8341008EB510140EA4160CA
:1028500094F82C1040EAC160E9682C4A1140084302
:10286000E860286840F080702860E86840F0807078
:10287000E860FFF7C5F90446286810F0007F42D1F0
:10288000FFF7BEF9001B022801D90320AEE7286834
:1028900010F0007FF4D036E004E0286810F0007FEC
:1028A0009ED130E001282CD0E868226A00F00301B4
:1028B000914224D1626A00F0F001521EB1EB021F76
:1028C0001DD1A26A00F4FE41B1EB022F17D194F89A
:1028D0002C1000F07842B2EBC16F10D1228E00F4C0
:1028E000C00108EB5202B1EB425F08D194F83410FA
:1028F00000F0C06008EB5101B0EB416F03D0012044
:1029000074E7012072E7002070E700000C809F014F
:10291000401EB0F1807F01D3012070474FF0E021CD
:102920004861044AF0201070002088610720086187
:102930000020704723ED00E07047704770470000AB
:1029400070B490F83C20012A4CD0012280F83C2041
:10295000CA684FF0000C8B6822F440721A434B682F
:1029600022F480621A430B6822F400621A430B6956
:1029700022F480521A434B6922F400521A430B6B23
:1029800022F480421A430B8B22F4702242EA034263
:10299000164C0368164DA34201D0AB4203D1CE6959
:1029A00022F080523243A34201D0AB4214D10E8DAB
:1029B00022F4700242EA06520E6A22F0807232431A
:1029C0004E6A22F000723243A34201D0AB4203D1DF
:1029D000C96A22F000520A435A6480F83CC070BCB5
:1029E0000020704770BC022070470000002C01409E
:1029F000003401407047704770470000F0B490F811
:102A00003C20012A3ED0012480F83C40022280F87C
:102A10003D2003685A68D3F808C01C4D1C4EAB42D9
:102A200001D0B34203D122F470024F683A4322F03E
:102A3000700222F000720F683A435A600268AA429C
:102A400013D0B2F1804F10D0A2F18043B3F5806370
:102A50000BD0A2F18043B3F5006306D0B24204D09C
:102A6000A2F18043B3F5A03304D12CF08003896830
:102A70001943916080F83D40002180F83C10F0BC83
:102A800000207047F0BC022070470000002C01407D
:102A900000340140704710B50446002C03D094F870
:102AA0003D0010B107E0012010BD002084F83C007B
:102AB000204600F023F8022084F83D00211D206804
:102AC00002F040FA012084F8480084F83E0084F8BF
:102AD0003F0084F8400084F8410084F8420084F804
:102AE000430084F8440084F8450084F8460084F8E4
:102AF000470084F83D00002010BD000010B586B0EE
:102B0000044614216846FDF7BBFB21681B48B1F160
:102B1000804F0CD01A4A914207D1016E41F48021B6
:102B20000166006E00F48020059006B010BD816D36
:102B300041F001018165816D01F001010591C16CD8
:102B400041F00101C164C06C694600F001000590CC
:102B50000220009001900020029003900120049038
:102B60004FF09040FEF71EFF002211461C20FFF799
:102B7000B5F81C20FFF7A4F8D7E7000000100240CA
:102B80000048014070B5044694F83C00012817D075
:102B9000012584F83C50022084F83D0020688268BA
:102BA00022F0770222F4441222F47F428260086805
:102BB000B0F5805F63D010DC10F00F0F03D05EE043
:102BC0004FF0020070BD4FEA2012082A57D2DFE80A
:102BD00002F05151515147333D1B2C4BC21A9842C0
:102BE00048D00ADCB0F5005F1AD0B0F1101F41D018
:102BF000A0F58011203942D13CE0102A3AD0302A89
:102C000038D0402A3BD135E0CB684A6889682068D3
:102C100002F0FFF92068816841F0770181602EE0C1
:102C2000CB684A688968206802F0F3F920688168F7
:102C300041F48041816022E0CA684968206802F05E
:102C4000B0FB5021206802F0EFF918E0CA6849682B
:102C5000206802F0F6FB6021206802F0E5F90EE042
:102C6000CA684968206802F09CFB4021206802F095
:102C7000DBF904E022680146104602F0D5F984F839
:102C80003D50002084F83C0070BD00003000100072
:102C900002684FF080418A4218D1007F022815D186
:102CA0000D48027B9AB1012A10D1896B002289B2AA
:102CB00081820273428A9142A1EB020100D8FF3166
:102CC000C182064A89B2B2FBF1F141647047896B57
:102CD00041820121017370470800002040420F002B
:102CE00070B505460C4695F83C0001281CD0012023
:102CF00085F83C00D2B1042A29D0082A39D0E368EB
:102D000062682168286802F0ECFB2868C16921F438
:102D10004061C1612868C169A26841EA0221C161BC
:102D2000002085F83C0070BD022070BDE368626839
:102D30002168286802F048FB2868816921F00C01AD
:102D4000816128688169A26811438161E8E7E368CD
:102D500062682168286802F086FB2868816921F48E
:102D60004061816128688169A26841EA022181612C
:102D7000D6E7E36862682168286802F094FB286857
:102D8000C16921F00C01C1612868C169A2681143C1
:102D9000C161C5E710B50446002C03D094F83D008E
:102DA00010B107E0012010BD002084F83C0020464F
:102DB00000F022F8022084F83D00211D206802F076
:102DC000C1F8012084F8480084F83E0084F83F00F0
:102DD00084F8400084F8410084F8420084F84300FD
:102DE00084F8440084F8450084F8460084F84700DD
:102DF00084F83D00002010BD7047000010B5044667
:102E0000002913D0042914D0082915D00C2916D074
:102E1000102917D094F84300B9B1042918D0082913
:102E200019D094F8472001281AD117E094F83E00F1
:102E3000F2E794F83F00EFE794F84000ECE794F8ED
:102E40004100E9E794F84200E6E794F84420EAE715
:102E500094F84520E7E794F84620E4E7012A01D0FA
:102E6000012010BD0220C1B1042919D008291AD0AF
:102E70000C291BD010291CD084F84300E1B104298F
:102E80001DD008291ED084F84700F1B1042922D0B2
:102E9000082926D00C292FD129E084F83E00EDE73F
:102EA00084F83F00EAE784F84000E7E784F841004F
:102EB000E4E784F84200E1E784F84400E5E784F8B9
:102EC0004500E2E784F84600DFE72068C26842F088
:102ED0000202C26010E02068C26842F00402C260D0
:102EE0000AE02068C26842F00802C26004E020687C
:102EF000C26842F01002C2600122206802F07AF833
:102F000021688868064A1040062806D0B0F5803F40
:102F100003D0086840F001000860002010BD0000E8
:102F20000700010070B50446206801694FF00005F4
:102F300011F0020F17D0C16811F0020F13D0E91E73
:102F40000161012020772068806910F0030F03D011
:102F50002046FFF79DFE05E0204600F011F92046CF
:102F600000F0DAF925772068016911F0040F18D014
:102F7000C16811F0040F14D06FF004010161022048
:102F800020772068806910F4407F03D02046FFF747
:102F90007FFE05E0204600F0F3F8204600F0BCF983
:102FA00025772068016911F0080F18D0C16811F069
:102FB000080F14D06FF00801016104202077206809
:102FC000C06910F0030F03D02046FFF761FE05E053
:102FD000204600F0D5F8204600F09EF925772068BD
:102FE000016911F0100F18D0C16811F0100F14D042
:102FF0006FF010010161082020772068C06910F48B
:10300000407F03D02046FFF743FE05E0204600F056
:10301000B7F8204600F080F925772068016911F0A3
:10302000010F09D0C16811F0010F05D06FF0010147
:103030000161204600F0E2F92068016911F0800F7B
:1030400009D0C16811F0800F05D06FF080010161D7
:103050002046FFF772FC2068016911F4807F09D0D7
:10306000C16811F0800F05D06FF4807101612046B6
:10307000FFF762FC2068016911F0400F09D0C168B8
:1030800011F0400F05D06FF040010161204600F0C3
:10309000B6F92068016911F0200F09D0C16811F05C
:1030A000200F05D06FF0200101612046FFF746FC9C
:1030B0002068016911F4801F09D0C16811F4801FD4
:1030C00005D06FF4801101612046FFF794FC206861
:1030D000016911F4001F09D0C16811F4001F05D067
:1030E0006FF4001101612046FFF784FC206801693C
:1030F00011F4800F09D0C16811F4800F05D06FF46E
:10310000800101612046FFF777FC2068016911F416
:10311000000F0BD0C16811F4000F07D06FF400014D
:1031200001612046BDE87040FFF7B4BC70BD0000EF
:1031300010B586B0044614216846FDF7A1F80E4983
:103140002068884216D10D48C16C41F00101C1646C
:10315000C06C694600F001000590802000900220BC
:103160000190002002900390012004904FF09040C5
:10317000FEF718FC06B010BD0048014000100240E8
:10318000704770B504460D4694F83C0001280BD0FA
:10319000012084F83C000C2A4AD007DC5AB1042AEA
:1031A0001DD0082A43D12FE0022070BD102A54D030
:1031B000142A7AD165E02946206801F03FFF206893
:1031C000816941F0080181612068816921F0040171
:1031D0008161206881692A691143816165E029461E
:1031E000206801F07FFF2068816941F400618161FE
:1031F0002068816921F480618161206881692A6980
:1032000041EA0221816150E02946206801F0B8FFBF
:103210002068C16941F00801C1612068C16921F0DD
:103220000401C1612068C1692A691143C1613CE0A0
:103230002946206801F0F2FF2068C16941F400616D
:10324000C1612068C16921F48061C1612068C169E0
:103250002A6941EA0221C16127E02946206802F07B
:103260002BF82068016D41F0080101652068016DAF
:1032700021F0040101652068016D2A69114301658F
:1032800013E02946206802F051F82068016D41F4EE
:10329000006101652068016D21F48061016520688D
:1032A000016D2A6941EA02210165002084F83C0091
:1032B00070BD10B50446002C03D094F83D0010B149
:1032C00007E0012010BD002084F83C00204600F0FB
:1032D00022F8022084F83D00211D206801F032FE12
:1032E000012084F8480084F83E0084F83F0084F808
:1032F000400084F8410084F8420084F8430084F8D8
:10330000440084F8450084F8460084F8470084F8B7
:103310003D00002010BD70477047000010B5044606
:1033200000290DD004290ED008290FD00C2910D067
:10333000102911D094F84300012810D0012010BDAD
:1033400094F83E00F8E794F83F00F5E794F8400061
:10335000F2E794F84100EFE794F84200ECE702202E
:10336000D1B304293CD008293DD00C293ED01029E6
:103370003FD084F843000122206801F03BFE206822
:10338000A0F18041B1F5963113D0A0F18041B1F5A3
:103390009A310ED0A0F18041B1F5A03109D0A0F151
:1033A0008041B1F5A23104D0A0F18041B1F5A43142
:1033B00003D1416C41F400414164206881680E4AA8
:1033C0001140062906D0B1F5803F03D0016841F0D5
:1033D00001010160002010BDFFE784F83E00CAE74C
:1033E00084F83F00C7E784F84000C4E784F8410050
:1033F000C1E784F84200BEE707000100704770474C
:1034000090F87C10012918D0012180F87C1024212B
:10341000C0F8801001680A680B6823F001030B6094
:1034200022F0005100224266036819602021C0F892
:10343000801080F87C200020704702207047704781
:1034400070B5044694F87C0001281DD0012084F852
:103450007C002420C4F8800020680568026822F0FF
:10346000010202602068826822F06062114381607C
:10347000204602F0F5F8206805602020C4F880009E
:10348000002084F87C0070BD022070BD70B5044639
:1034900094F87C0001281DD0012084F87C002420B1
:1034A000C4F8800020680568026822F0010202600A
:1034B0002068826822F0604211438160204602F059
:1034C000CFF8206805602020C4F88000002084F830
:1034D0007C0070BD022070BD7047704770470000CF
:1034E00070B504462368D86919689A6800F00F0C13
:1034F000BCF1000F0FD110F0200F0CD001F020050F
:1035000002F08056354306D0E16E00297ED0204679
:10351000BDE870400847BCF1000F78D0DFF898C1D3
:1035200001F4907502EA0C0C5CEA05056FD010F00E
:10353000010F0AD011F4807F07D001251D62D4F855
:10354000883043F00103C4F8883010F0020F0BD02C
:1035500012F0010F08D0256802232B62D4F88830BE
:1035600043F00403C4F8883010F0040F0BD012F0BD
:10357000010F08D0256804232B62D4F8883043F06B
:103580000203C4F8883010F0080F0FD001F02003B8
:1035900053EA0C030AD0D4F800C00823CCF820303A
:1035A000D4F8883043F00803C4F88830D4F8883061
:1035B000002B36D010F0200F09D001F0200002F0CF
:1035C0008051084303D0E16E09B120468847D4F802
:1035D00088002168896811F0400F02D110F0080FAF
:1035E00024D0204602F021F92068816811F0400FB4
:1035F00018D0816821F040018160A06F70B12F491F
:103600008163A06FFEF7BAF8002801E009E014E03A
:1036100007D0A06F816BBDE8704008472046FFF7D8
:103620005DFF70BD2046FFF759FF70BD2046FFF7D4
:1036300055FF0020C4F8880070BD10F4801F0AD028
:1036400012F4800F07D04FF4801018622046BDE8B6
:103650007040FFF742BF10F0800F0CD001F08003E4
:1036600002F400021A4306D0216F0029E4D020465C
:10367000BDE87040084710F0400F07D011F0400F30
:1036800004D02046BDE8704002F0E1B810F4000F0D
:1036900007D011F0804F04D02046BDE87040FFF7FE
:1036A0001BBF10F0807FC7D011F0004FC4D0204660
:1036B000BDE87040FFF7C3BE0100001017580008B6
:1036C00010B50446002C03D0D4F8800010B107E0F8
:1036D000012010BD002084F87C00204600F028F86E
:1036E0002420C4F880002068016821F001010160F5
:1036F000204602F0C1F9012818D0A06A10B1204676
:1037000001F0EAFF2068416821F49041416020689F
:10371000816821F02A0181602068016841F001017F
:1037200001602046BDE8104002F042B8012010BD03
:1037300010B586B0044614216846FCF7A1FD174970
:103740002068884227D11648016E41F48041016605
:10375000016E01F480410591C16C41F00101C16429
:10376000C06C694600F0010005904FF4C060009005
:1037700002200190002002900390072004904FF057
:103780009040FEF70FF9002211462520FEF7A6FA19
:103790002520FEF795FA06B010BD00000038014064
:1037A0000010024010B4D0F88430202B02D010BC9E
:1037B0000220704761B35AB390F87C30012B2AD0B5
:1037C000012380F87C308165A0F85C20A0F85E20A1
:1037D0000023C36681684FF0FF0CB1F5805F1DD0F8
:1037E0007F2429B3B1F1805F2AD0A0F86030C0F8FF
:1037F00088302221C0F884100168D1F808C04CF04C
:10380000010CC1F808C0416EB1F1005F21D03CE06D
:1038100010BC0120704710BC02207047016911B133
:10382000A0F860C0E3E740F2FF11A0F86010DEE707
:10383000016911B1A0F86040D9E7A0F860C0D6E7EF
:10384000016919B13F21A0F86010D0E7A0F86040ED
:10385000CDE7B0F86810914217D88168B1F5805F64
:1038600001D1016971B11349C16680F87C300168EA
:103870000A6842F480720A600068816841F08051F1
:10388000816011E00C49C166EFE78168B1F5805FA6
:1038900001D1016959B10949C16680F87C300068DD
:1038A000016841F49071016010BC00207047044928
:1038B000C166F2E7D1590008C958000871590008DB
:1038C0006B58000810B5012206490748FFF76AFF48
:1038D0000448064BA0F10D010278487A1A54401CA6
:1038E000487210BD150000201C0A00209A0000201C
:1038F0002DE9F84304460E4615461F46D4F88000CD
:10390000202802D00220BDE8F883D6B1CDB194F8CA
:103910007C00012818D0012084F87C004FF00008BA
:10392000C4F888802120C4F88000FEF769F9814638
:10393000A4F85450A4F85650A068B0F5805F06D0A3
:1039400007E00120BDE8F8830220BDE8F883206984
:1039500078B135460026B4F85600D0B14B46002267
:1039600080212046009702F037FE20B10320BDE8F9
:10397000F8830025EFE7BDB12168287888626D1CC7
:10398000B4F85600401EA4F85600B4F856000028BB
:10399000E4D14B46002240212046009702F01CFE55
:1039A00048B10320BDE8F88330882168C0F30800DF
:1039B0008862B61CE4E72020C4F8800084F87C808C
:1039C0000020BDE8F8837047FEE7000000B585B031
:1039D00014216846FCF754FCC0200090012001909F
:1039E00002900220039069460248FDF7DBFF05B014
:1039F00000BD00000004004870B50824002501F057
:103A000019FA13E06806050E002001F0FBF91420F6
:103A100003F0B8FA142003F0B5FA012001F0F2F92E
:103A2000142003F0AFFA01F0F9F90543641EE4B283
:103A3000E8D2002001F0E6F9142003F0A3FA01F027
:103A40001BFA284670BD70B50446082516E001F043
:103A5000D9F9142003F096FA04F0800001F000FA7E
:103A6000142003F08FFA6006040E142003F08AFA83
:103A7000012001F0C7F9142003F084FA6D1EEDB2A5
:103A80004FF00000E3D201F0BDF9BDE87040142012
:103A900003F078BA10B5012001F0E2F9142003F028
:103AA00071FA142003F06EFA012001F0ABF9142032
:103AB00003F068FA002001F0A5F9BDE810401420D9
:103AC00003F060BA10B5012001F0CAF9142003F028
:103AD00059FA012001F096F9142003F053FA00205E
:103AE00001F0BEF9142003F04DFA002001F08AF92C
:103AF000BDE81040142003F045BA10B5002001F0D5
:103B000081F9142003F03EFA002001F0A9F91420F5
:103B100003F038FA012001F075F9142003F032FAAD
:103B2000012001F09DF9BDE81040142003F02ABAED
:103B300010B5052401F07EF9142003F023FA0120CA
:103B400001F060F9142003F01DFA05E0641EA4B230
:103B5000142003F017FA6CB101F060F90028F5D1D8
:103B600001F08AF9002001F04DF9142003F00AFA5F
:103B7000002010BD01F080F9FFF7BFFF012010BD4C
:103B800070B5134D01212846FEF72CF8114C50B9A1
:103B900011480168226A891A642918D300682062D2
:103BA0006078401C607001212846FEF71BF8012850
:103BB0000DD1607800280AD0002060706079401C28
:103BC000C0B20321B0FBF1F201FB1200607170BDC5
:103BD00000040048080000207400002070B5164D55
:103BE00002212846FDF7FEFF144C50B91448016825
:103BF000626A891A64291DD300686062A078401C3B
:103C0000A07002212846FDF7EDFF012812D1A0780F
:103C100000280FD00020A070A07A401CC0B2A07273
:103C2000042801D90120A072BDE87040C1B2002073
:103C3000FCF728BF70BD0000000400480800002009
:103C40007400002070B5164D04212846FDF7CAFF08
:103C5000144C50B914480168A26A891A64291DD30A
:103C60000068A062E078401CE07004212846FDF75F
:103C7000B9FF012812D1E07800280FD00020E070B1
:103C8000E07A401CC0B2E072042801D90120E07241
:103C9000BDE87040C1B20120FCF7F4BE70BD000069
:103CA0000004004808000020740000202DE9F05FA7
:103CB00001214FF09040FDF795FF784C58B101215C
:103CC0004FF09040FDF78EFF012800D000202179B1
:103CD00071B101220DE072480168E26A891A642913
:103CE00004D30068E0622079401C2071BDE8F09F99
:103CF00000221040A0460A2901D2012100E0002143
:103D0000664CDFF8A09104F10F0408424FF0000A5E
:103D100004F1390504F1410604F1490709F5806B06
:103D20007AD088F804A098F80500424650B10128DE
:103D30006BD00228DAD1D079401C00F0010088F85D
:103D40000700D3E72078B1EE000A08B985ED000A34
:103D5000607808B985ED010AFCF7DAFD207892ED6C
:103D60000F0A401CC1B209EB8100217080ED000AEE
:103D70006078D2ED100A401CC0B20BEB800360707B
:103D8000C3ED000A96ED001AB4EEC01AF1EE10FA77
:103D900001D286ED000A95ED001AB4EEC01AF1EEDC
:103DA00010FA01DD85ED000A92ED0C1A30EE010AE1
:103DB00001EE101A82ED0C0AB8EE411AC0EE011A9B
:103DC000C7ED001A96ED010AB4EEE00AF1EE10FA22
:103DD00001D2C6ED010A95ED010AB4EEE00AF1EE5A
:103DE00010FA01DDC5ED010A92ED0D0A30EE800AF0
:103DF00000EE900A82ED0D0AF8EE600A80EE201ABD
:103E000087ED011A72E707E0FFE7107A401C00F027
:103E1000010088F8080069E701214FF09040FDF7A4
:103E2000E1FE01288DD198F8040041460A2888D97E
:103E300081F804A0487952460228E3D1CB799FED5E
:103E40001A0A9BB9227086ED000A85ED000A87EDFB
:103E5000000A81ED0C0A00204FEA090C0CEB8008E7
:103E6000401CC0B288ED000A6528F7D3012BC9D1E8
:103E7000627086ED010A85ED010A87ED010A81ED88
:103E80000D0A00204FEA0B0101EB8002401CC0B27A
:103E900082ED000A6528F7D328E70000080000201B
:103EA00074000020B80000200000000010B5FFF7EB
:103EB00067FE06484079012803D1FFF78FFEFFF720
:103EC000C1FEBDE81040FFF7F1BE00000800002071
:103ED00000B585B014216846FCF7D2F94FF6FF70A3
:103EE000009000200321CDE90201019069460248BB
:103EF000FDF758FD05B000BD0008004800B585B0CD
:103F000014216846FCF7BCF94FF6FF7000900120C1
:103F10000190032003900020029069460248FDF7BB
:103F200041FD05B000BD00000008004870B5002448
:103F300006462146204600F0A7FA00F0E9FA4FF4C1
:103F40009635304600F0B4FA641CAC42F9D370BD2B
:103F500030B587B014216846FCF792F91E48C16C51
:103F600041F00401C164C16C01F004010591C16C10
:103F700041F00101C164C16C01F001010591C16C06
:103F800041F00201C164C06C012500F002000590FF
:103F90004FF44870CDE9000500240394694602946B
:103FA0000E48FDF7FFFC280203940090CDE9015470
:103FB0004FF0904469462046FDF7F4FCFFF79EFF62
:103FC000A06940F48070A06104481830016841F491
:103FD0000871016007B030BD0010024000040048C5
:103FE000203AD2B2034B02EB420203EB021200F082
:103FF00019B8000068700008F0B50E4607460025A5
:1040000040F23F1407E021463846FFF7E9FF103C35
:104010006D1CA4B2761C3278002A01D0142DF2D384
:10402000F0BD00002DE9F04791468A46002604467F
:1040300000F02AFADFF84080012700BF00F068FA9C
:104040005FF0000539F8160007FA05F1084240460E
:1040500001D1408800E0008800F02AFA6D1C102D84
:10406000F0D3641CE4B25146204600F00DFA761CF1
:10407000182EE3D3BDE8F0870000002010B5FFF74D
:1040800067FF002000F0B8F9084CA080A088A0F5D8
:104090000241303906D000F0B4FD002000F0ACF948
:1040A000A08010BD00F024FDF7E700000000002014
:1040B0002DE9F041804C04F10F05607900283AD1D8
:1040C0007EA11820FFF798FF2878834951F8200037
:1040D000FCF7EFF841EC100B7F4853EC102B7FA15D
:1040E0003C3802F0CDFA7C4948203C39FFF784FF88
:1040F00068787F4951F82000FCF7DBF841EC100BA1
:10410000754853EC102B7BA13C3802F0B9FA724988
:1041100060203C39FFF770FF6F487BA13C38626C30
:1041200002F0AEFA6C4978203C39FFF765FF7BA1BD
:104130009020FFF761FF6079012821D17EA118202E
:10414000FFF75AFF6448A27A82A13C3802F098FA3D
:10415000614948203C39FFF74FFF5F48E27A81A16F
:104160003C3802F08DFA5C4960203C39FFF744FF8F
:104170006AA17820FFF740FF68A19020FFF73CFF7D
:10418000607902287ED14C4EE0795036A6F10807BE
:1041900006F10808002842D176A11820FFF72CFF6D
:1041A0004D482A787AA13C3802F06AFA4A494820F8
:1041B0003C39FFF721FF3068FCF77BF841EC100B2E
:1041C000454853EC102B76A13C3802F059FA42498D
:1041D00060203C39FFF710FF3868FCF76AF841ECC3
:1041E000100B3D4853EC102B72A13C3802F048FAFA
:1041F000394978203C39FFF7FFFED8F80000FCF77A
:1042000058F841EC100B344853EC102B6EA13C389D
:1042100002F036FA304990203C39FFF7EDFEE079A4
:10422000012846D16DA11820FFF7E6FE2A486A78DA
:1042300057A13C3802F024FA274948203C39FFF7BF
:10424000DBFE7068FCF735F841EC100B224853ECAC
:10425000102B53A13C3802F013FA1F4960203C395F
:10426000FFF7CAFE7868FCF724F841EC100B1A48F7
:1042700053EC102B4FA13C3802F002FA16493C399E
:10428000782000E015E0FFF7B7FED8F80400FCF74F
:1042900010F841EC100B104853EC102B4AA13C389D
:1042A00002F0EEF9BDE8F0410B493C399020FFF7F0
:1042B000A3BEBDE8F08100000800002020202020DF
:1042C0002020202044415441202020202020202054
:1042D0002020202000000000B80000202020202006
:1042E000205041343D252E32662020202020000021
:1042F000B804002020202020205041353D252E32BA
:104300006620202020200000202020202050413145
:104310003D256420202020200000000020202020B7
:10432000202020202020202020202020202020208D
:1043300020202020000000002020202020202020FD
:1043400050415241202020202020202020202020C9
:10435000000000002020202020583D25642020203F
:10436000202000002020202020593D2564202020EE
:104370002020000020202020202020205245432DF6
:1043800050413420202020202020202020202000E8
:1043900020202020204E3D256420202020200000C9
:1043A0002020202020413D252E3266202020202064
:1043B000000000002020202020543D252E326620C1
:1043C00020202020000000002020202020483D2523
:1043D0002E326620202020200000000020202020F7
:1043E000202020205245432D5041352020202020E0
:1043F000202020202020200070B51D490A6842F4AA
:1044000000720A600A6842F480720A60184C103C1C
:10441000226842F020022260164A1060086840F0CC
:104420002000086000BF00BF00BF206840F02000EF
:104430002060206840F480702060FFF749FD4FF055
:104440009041886A40F48070886200BF00BF00BF5E
:104450000848001F006885B2886940F48070886150
:10446000FFF74CFD206840F400702060284670BDC6
:10447000280400481408004801B5BDF800000149AF
:10448000488008BD0000002010B50C4601462020E1
:1044900000F070F82146BDE81040212000F06AB815
:1044A00001B5BDF800000149088008BD00000020EA
:1044B00030B5154B1968154A8CB2116841F400717A
:1044C0001160124910390D6845F480750D600D6852
:1044D00045F020050D601860106840F02000106065
:1044E00000BF00BF00BF086840F0200008600868F7
:1044F00040F48070086000BF00BF00BF086840F44F
:10450000007008601C6030BD140800482804004892
:10451000164A10B51068164983B2086840F4007056
:104520000860086840F4807008601148103804681A
:1045300044F020040460222414600C6844F0200439
:104540000C6000BF00BF00BF016841F020010160A6
:10455000016841F48071016000BF00BF00BF0168C5
:1045600041F400710160136010BD000014080048A0
:104570002804004870B51A4C22681A4B95B21A6884
:1045800042F400721A601A6842F480721A60154A86
:10459000103A166846F0200616602060186840F051
:1045A0002000186000BF00BF00BF106840F020006E
:1045B0001060106840F4807010602160186840F04E
:1045C0002000186000BF00BF00BF106840F020004E
:1045D0001060106840F480701060256070BD0000AD
:1045E000140800482804004810B50A000B4B0C4C76
:1045F0004FEA002101D0002200E001221846FDF719
:10460000F8FA012204212046FDF7F3FA20460022A1
:10461000BDE810400421FDF7ECBA00000008004896
:10462000000C004810B501224FF6FF710748FDF756
:10463000E0FA074C012204212046FDF7DAFA204671
:104640000022BDE810400421FDF7D3BA000800485D
:10465000000C004810B5224C207A10B1012807D078
:104660000EE000210220FFF7BFFF0121084605E010
:1046700000210120FFF7B8FF01210220FFF7B4FF5E
:10468000A07938B300210820FFF7AEFF1548016874
:10469000A269891A642921D30068A0612078401C8E
:1046A00000F001002070E17AD4ED0F0A00EE101A3C
:1046B000B8EE400A80EE801A94ED100AB4EEC01AEB
:1046C000F1EE10FA08DD38B10121BDE810400420F8
:1046D000FFF78ABF0121D6E70021F6E710BD0000F1
:1046E000080000207400002030B589B02021684601
:1046F000FBF7C6FD1E481D490024C0E90014846074
:10470000042585610121C460C0E904410477447730
:104710000222026280F82440C462046380F83810E8
:10472000C46380F84040FCF7C5FD08B1FCF7C5F94B
:10473000104800900620CDE901047F200594CDE9C2
:10474000030569460A48FCF7BFF908B1FCF7B5F95B
:10475000094800900C20019069460548FCF7B4F91F
:10476000002801D0FCF7A9F909B030BD00010050C4
:10477000B80800200000524700209036094808B5CC
:10478000816C41F004018164816C01F004010091AD
:10479000816C41F001018164806C00F001000090A7
:1047A00008BD0000001002402DE9F04F87B0142131
:1047B0006846FBF765FD3F48C16C41F00401C164E8
:1047C000C16C01F004010591C16C41F02001C1648C
:1047D000C16C01F020010591C16C41F00101C1647F
:1047E000C16C01F001010591C16C41F00201C1648D
:1047F000C16C01F002010591C16C41F00801C16476
:10480000C06CDFF8B48000F008004FF6FF7405902C
:10481000002221464046FDF7ECF94FF480764FF038
:104820009049002231464846FDF7E3F9DFF88CA0B5
:10483000002204215046FDF7DCF9DFF884B04FF484
:104840004877002239465846FDF7D3F90125CDE9CE
:10485000004500240294694640460394FDF7A2F8FF
:10486000CDE90054694648460295FDF79BF80720BC
:104870008DE8310069465846FDF794F80096CDE979
:104880000154694648460394FDF78CF804200090D3
:10489000CDE90154694650460394FDF783F800972B
:1048A000CDE90154694658460394FDF77BF807B0FB
:1048B000BDE8F08F0010024000080048000C0048DE
:1048C0000004004810B594B01C210DA8FBF7D8FCDB
:1048D00034216846FBF7D4FC1E481D4900240160C2
:1048E0004F21C0E90114C460046144618461FEF792
:1048F000D2F808B1FCF7E1F81648FEF7DAFC08B187
:10490000FCF7DBF86020CDE90D040F9410941194AE
:10491000129400220DA90F481394FEF732FC08B13F
:10492000FCF7CBF800944FF40050CDE9044001941B
:10493000029403940694694606480C94FEF700F826
:1049400008B1FCF7BAF80348FEF7F2FB14B010BD4B
:1049500000480140D009002010B58CB00024059417
:10496000214804940694079408940A9409940094A6
:10497000019402944FF08041039401604F21C0E9FB
:1049800001144FF6FF71C0E903148461FEF783F848
:1049900008B1FCF792F84FF48050049004A9124833
:1049A000FEF7F0F808B1FCF788F80F48FEF7F2F9C7
:1049B00008B1FCF782F8089408A90B480A94FEF79E
:1049C0001DF808B1FCF779F80120CDE90040029408
:1049D0000422694604480394FEF782F9002801D0B6
:1049E000FCF76BF80CB010BD84090020184810B516
:1049F000164901604FF416514160002181600C227C
:104A0000C160C0E904128161C161016241628162D9
:104A1000FEF756FE08B1FCF750F800210C48FEF7EF
:104A200035FD08B1FCF749F800210948FEF708FDFB
:104A300008B1FCF742F80648FEF7E2FC002803D074
:104A4000BDE81040FCF739B810BD00000038014047
:104A50001C0A0020FEE7704710B50D480D4C0146BA
:104A6000037A486C897A0C4A13B1012B02D007E013
:104A7000484301E0B0FBF1F0B4FBF0F0401E1060E1
:104A800010680549401C40080831086010BD00004E
:104A90000800002040420F002C48014070470000F1
:104AA0001049C86800F00302C868C0F30310401C36
:104AB000032A0ED00C4AB2FBF0F0CA68C2F30622F9
:104AC0005043C968C1F34161491C4900B0FBF1F092
:104AD0007047064AB2FBF0F0CA68C2F306225043A0
:104AE000EFE70000001002400024F40000366E01E1
:104AF00030B501210020FFF73DFD4FF47A70FBF740
:104B000095FF00210120FFF735FD41F29071102043
:104B1000FFF730FD4FF41C516020FFF72BFD012102
:104B20006120FFF727FD02214620FFF723FD48F211
:104B300010011320FFF71EFD48F2FE011220FFF7BF
:104B400019FD4FF4A0610220FFF714FD41F230017E
:104B50000320FFF70FFD40F2033421463020FFF71A
:104B600009FD21463120FFF705FD21463220FFF7E0
:104B700001FDE51E29463320FFF7FCFC032134200C
:104B8000FFF7F8FC21463520FFF7F4FC142136200E
:104B9000FFF7F0FC21463720FFF7ECFC21463820D8
:104BA000FFF7E8FC21463920FFF7E4FC29463A20CC
:104BB000FFF7E0FC03213B20FFF7DCFC21463C2013
:104BC000FFF7D8FC4FF4A0513D20FFF7D3FC4FF482
:104BD00000719220FFF7CEFC21469320FFF7CAFC1C
:104BE00040F60D019020FFF7C5FC41F218010320AB
:104BF000FFF7C0FCBDE8304040F273110720FFF71B
:104C0000B9BC10B543F20801E320FFF7B3FC122151
:104C1000E720FFF7AFFC41F23121EF20FFF7AAFCBC
:104C200000210120FFF7A6FC4FF4E0610220FFF70E
:104C3000A1FC41F230010320FFF79CFC002104207D
:104C4000FFF798FC40F207210820FFF793FC0021B2
:104C50000920FFF78FFC00210A20FFF78BFC0021C1
:104C60000C20FFF787FC00210D20FFF783FC0021BB
:104C70000F20FFF77FFC00211020FFF77BFC0721AE
:104C80001120FFF777FC00211220FFF773FC0021B1
:104C90001320FFF76FFCC820FCF770FE41F2906113
:104CA0001020FFF767FC40F227211120FFF762FC7C
:104CB0003220FCF763FE1D211220FFF75BFC32203F
:104CC000FCF75CFE4FF400611320FFF753FC142146
:104CD0002920FFF74FFC0B212B20FFF74BFC322044
:104CE000FCF74CFE00212020FFF744FC002121208E
:104CF000FFF740FC07213020FFF73CFC40F2077132
:104D00003120FFF737FC06213220FFF733FC40F259
:104D100004713520FFF72EFC41F604713620FFF7B1
:104D200029FC04213720FFF725FC00213820FFF75C
:104D300021FC40F206713920FFF71CFC40F20171A2
:104D40003C20FFF717FC0F213D20FFF713FC00214B
:104D50005020FFF70FFCEF215120FFF70BFC002143
:104D60005220FFF707FC40F23F115320FFF702FCEF
:104D70004FF41C516020FFF7FDFB01216120FFF77C
:104D8000F9FB00216A20FFF7F5FB00218020FFF7E7
:104D9000F1FB00218120FFF7EDFB00218220FFF7CE
:104DA000E9FB00218320FFF7E5FB00218420FFF7CA
:104DB000E1FB00218520FFF7DDFB10219020FFF7AC
:104DC000D9FB00219220FFF7D5FB03219320FFF7A9
:104DD000D1FB4FF488719520FFF7CCFB0021972081
:104DE000FFF7C8FB00219820FFF7C4FB41F2180130
:104DF0000320FFF7BFFBBDE8104040F2731107200E
:104E0000FFF7B8BB08B1044801E00348103001685F
:104E100041F04001016070471804004810B580213E
:104E20000348FCF7DFFE012800D0002010BD000081
:104E30000004004800B585B014216846FBF720FA4D
:104E40008020009000200190012002900220039019
:104E500069460248FCF7A6FD05B000BD0004004805
:104E600008B1044801E003481030016841F08001B6
:104E7000016070471804004800B585B014216846E9
:104E8000FBF7FEF980200090112001900020029095
:104E90000220039069460248FCF784FD05B000BD7E
:104EA000000400487047FCF7B1BE10B5A4B038212B
:104EB0006846FBF7E5F914211FA8FBF7E1F9442147
:104EC0000EA8FBF7DDF94FF40070FCF74DFF012051
:104ED00000900004019002200324CDE9070414216E
:104EE000CDE90A100C900D9009946846FDF77EFA02
:104EF0000F20CDE91F0400242194229403211FA830
:104F00002394FDF70BF948F20100CDE90E044007A8
:104F10001D900EA8FCF796FF24B010BD054801684F
:104F200041F47001016003494FF00060803908606E
:104F30007047000088ED00E00148FDF7F3BF000076
:104F4000840900202DE9F0010268234C234BDFF88F
:104F50009080DFF890C0A04208D0B0F1804F05D01B
:104F6000984203D0404501D0604503D122F0700241
:104F70004D682A431C4D1D4E1D4FA0420ED0B0F16E
:104F8000804F0BD0984209D0404507D0604505D0EE
:104F9000A84203D0B04201D0B84203D122F44072FB
:104FA000CB681A434B6922F080021A4302608A6878
:104FB000C2620A688262A04207D0604505D0A8425A
:104FC00003D0B04201D0B84201D109690163012187
:104FD0004161BDE8F0017047002C01400004004031
:104FE00000080040003401400040014000440140FE
:104FF0000048014001F01F0101238B40D0F820C080
:105000002CEA03030362036A02FA01F11943016205
:105010007047D0F808C02CF47F4C42EA03221143B9
:1050200041EA0C0181607047826822F0700222F42C
:105030004012114341F00701816070472DE9F003F0
:10504000026A22F001020262026A4368D0F818C0C4
:105050002CF0700C2CF4803C2CF0030C0C6844EA0F
:105060000C0C22F002028C682243194C194D1A4E86
:105070001A4FDFF86C80A04207D0A84205D0B0429A
:1050800003D0B84201D0404507D122F00802D1F840
:105090000C9049EA020222F00402A04207D0A84282
:1050A00005D0B04203D0B84201D0404507D123F427
:1050B000807323F400734C6923438C69234343605A
:1050C000C0F818C0496841630262BDE8F003704748
:1050D000002C0140003401400040014000440140E8
:1050E0000048014070B4026A22F010020262036AB2
:1050F0004268D0F818C02CF4E04C2CF0807C2CF4E2
:10510000407C0C684CEA042C23F020038C6843EAB2
:105110000413194C194DA04201D0A84206D123F026
:105120008003CE6843EA061323F04003A04210D068
:10513000A8420ED0A0F18044B4F5A03409D0A0F16B
:105140008044B4F5A23404D0A0F18044B4F5A43472
:1051500009D122F4806222F400624C6942EA84029E
:105160008C6942EA84024260C0F818C049688163D1
:10517000036270BC70470000002C01400034014005
:1051800070B4026A22F480720262036A4268D0F844
:105190001CC02CF0700C2CF4803C2CF0030C0C6820
:1051A00044EA0C0C23F400738C6843EA0423194C82
:1051B000194DA04201D0A84206D123F40063CE6865
:1051C00043EA062323F48063A04210D0A8420ED005
:1051D000A0F18044B4F5A03409D0A0F18044B4F526
:1051E000A23404D0A0F18044B4F5A43409D122F44F
:1051F000805222F400524C6942EA04128C6942EA5D
:1052000004124260C0F81CC04968C163036270BCEC
:1052100070470000002C01400034014070B4026A65
:1052200022F480520262036A4268D0F81CC02CF457
:10523000E04C2CF0807C2CF4407C0C684CEA042C74
:1052400023F400538C6843EA0433194C194DA042EF
:1052500001D0A84206D123F40043CE6843EA0633C6
:1052600023F48043A04210D0A8420ED0A0F1804485
:10527000B4F5A03409D0A0F18044B4F5A23404D030
:10528000A0F18044B4F5A43409D122F4804222F480
:1052900000424C6942EA84128C6942EA84124260FC
:1052A000C0F81CC049680164036270BC704700000C
:1052B000002C01400034014010B4026A22F4803214
:1052C0000262D0F820C04268036D23F0700323F41B
:1052D00080330C6823432CF4003C0C894CEA044CCA
:1052E000A0F18044B4F5963413D0A0F18044B4F515
:1052F0009A340ED0A0F18044B4F5A03409D0A0F1C6
:105300008044B4F5A23404D0A0F18044B4F5A434B0
:1053100004D122F480324C6942EA042242600365DF
:1053200049688164C0F820C010BC704710B4026A9C
:1053300022F480120262D0F820C04268036D23F488
:10534000E04323F080730C6843EA04232CF4001C30
:105350000C894CEA045CA0F18044B4F5963413D077
:10536000A0F18044B4F59A340ED0A0F18044B4F595
:10537000A03409D0A0F18044B4F5A23404D0A0F147
:105380008044B4F5A43404D122F480224C6942EA6A
:105390008422426003654968C164C0F820C010BC23
:1053A0007047036AD0F820C02CF0010CC0F820C070
:1053B000D0F818C02CF0F00C4CEA021223F00A03CB
:1053C000194382610162704730B4D0F820C02CF0DC
:1053D000010CC0F820C0D0F818C0046AA0F18045C4
:1053E000B5F5963528D0B0F1804F25D0A0F1804595
:1053F000B5F5806520D0A0F18045B5F500651BD0DE
:10540000A0F18045B5F59A3516D0A0F18045B5F5E7
:10541000A03511D04CF0010222F0F0024FF0F00C58
:105420000CEA03131A4324F00A0301F00A0119439A
:105430008261016230BC70472CF0030C4CEA02021E
:10544000EAE7036A23F010030362D0F818C0036A86
:105450002CF4704C4CEA023223F0A00343EA011111
:1054600082610162704710B4D0F820C02CF0100C9B
:10547000C0F820C08469D0F820C024F4407444EA05
:10548000022222F470424FF4704404EA03331A43B8
:105490002CF0A0034FF0A00C0CEA0111194382611B
:1054A000016210BC704710B4D0F820C02CF4807C8E
:1054B000C0F820C0C469D0F820C024F003042243FF
:1054C00022F0F002F02404EA03131A432CF42063C0
:1054D0004FF4206C0CEA01211943C261016210BC37
:1054E000704710B4D0F820C02CF4805CC0F820C005
:1054F000C469D0F820C024F4407444EA022222F4A3
:1055000070424FF4704404EA03331A432CF42043EE
:105510004FF4204C0CEA01311943C261016210BC06
:105520007047000010B538480168384CE269891AA4
:10553000322968D30068E061607A002863D034A122
:105540003448FAF7A8FE18B9A17A33A001F088F818
:1055500033A13048FAF79FFE18B9E17A31A001F083
:105560007FF832A12B48FAF796FE20B9A079401CAB
:1055700000F00100A0712EA12648FAF78CFE18B9A0
:105580002CA0616C01F06CF82DA12248FAF783FE83
:1055900048B9E06BFAF78DFE41EC100B29A053ECF3
:1055A000102B01F05DF82AA11A48FAF774FE48B9E9
:1055B000206CFAF77EFE41EC100B26A053EC102B6A
:1055C00001F04EF8A07988B14FF480710120FEF708
:1055D000D1FF4FF427416020FEF7CCFF0020FEF7FB
:1055E000A5FC0020627A01460A4B09E00021012057
:1055F000FEF7C0FF4FF41C51EDE71954401CC0B238
:105600009042FAD3617210BD74000020080000209F
:10561000580000009A000020583A25640D0A000046
:1056200059000000593A25640D0A000023000000CB
:10563000504131005041313A25640D0A000000000C
:10564000504134005041343A252E32660D0A000094
:10565000504135005041353A252E32660D0A000082
:1056600010B485B018A14A6809680392029118A184
:105670004A68096801920091416E00291CD00268B5
:105680009168C1F342619268520F02AB13F802C0F5
:105690001DF802204FEACC04B4FBF2F2EC46A0F86D
:1056A0006A205A5C1CF80110D200B2FBF1F1A0F89C
:1056B000681005B010BC70470121A0F86A10A0F86E
:1056C000681005B010BC704701010103070100001C
:1056D000080402040801010190F8281011F0010FDC
:1056E00006D001684A68C36A22F400321A434A604D
:1056F00090F8281011F0020F06D001684A68036B79
:1057000022F480321A434A6090F8281011F0040FF6
:1057100006D001684A68436B22F480221A434A602B
:1057200090F8281011F0080F06D001684A68836BC2
:1057300022F400421A434A6090F8281011F0100F2A
:1057400006D001688A68C36B22F480521A438A60CB
:1057500090F8281011F0200F06D001688A68036CB9
:1057600022F400521A438A6090F8281011F0400F7A
:1057700011D001684A68436C22F480121A434A60CF
:10578000416CB1F5801F06D101684A68836C22F430
:10579000C0021A434A6090F8281011F0800F06D01A
:1057A00001684A68C06C22F40022104348607047C8
:1057B000F8B504460026C4F88860FCF721FA0746CD
:1057C000206800686FF07E4510F0080F0AD03B4655
:1057D00000224FF400112046009500F0FDFE08B1B4
:1057E0000320F8BD2068006810F0040F0AD03B4683
:1057F00000224FF480012046009500F0EDFE08B134
:105800000320F8BD2020C4F88000C4F8840084F888
:105810007C600020F8BD10B5806A0021A0F85E1001
:10582000A0F85610FDF75AFE10BD01680A6822F470
:1058300090720A6001688A6822F0010222F08052A8
:105840008A602021C0F884100021C166704710B51D
:1058500001680A6822F040020A602021C0F8801026
:1058600000210167FEF7AFF810BD10B5B0F8602059
:10587000D0F884300168222B04D0886940F00800F9
:10588000886110BD496A836D11401980816D891C42
:105890008165B0F85E10491EA0F85E10B0F85E1089
:1058A0000029EED101680A6822F490720A6001684A
:1058B0008A6822F001028A602021C0F88410002149
:1058C000C166FDF7FFFF10BD2DE9F0410446B4F8B5
:1058D0006060D4F88400222806D02068816941F0F5
:1058E00008018161BDE8F081B4F8685045B3002734
:1058F0004FF020082068406AA16D30400880A06DFC
:10590000801CA065B4F85E00401EA4F85E00B4F8E8
:105910005E0088B92068016821F480710160206808
:10592000816821F0010121F080518160C4F88480F8
:10593000E7662046FDF7C6FF681E85B2002DD9D167
:10594000B4F85E000028CDD0B4F868108142C9D9FF
:105950002068816821F0805181600448E0662068F9
:10596000016841F020010160BDE8F0816B5800083A
:1059700010B5B0F86020D0F884300168222B04D034
:10598000886940F00800886110BD496A1140826D45
:105990001170816D491C8165B0F85E10491EA0F838
:1059A0005E10B0F85E100029EED101680A6822F49A
:1059B00090720A6001688A6822F001028A602021E0
:1059C000C0F884100021C166FDF77CFF10BD000007
:1059D0002DE9F0410446B4F86060D4F88400222830
:1059E00006D02068816941F008018161BDE8F0813D
:1059F000B4F8685045B300274FF020082068406A8B
:105A0000A16D30400870A06D401CA065B4F85E0028
:105A1000401EA4F85E00B4F85E0088B920680168F2
:105A200021F4807101602068816821F0010121F07A
:105A300080518160C4F88480E7662046FDF742FF0C
:105A4000681E85B2002DD9D1B4F85E000028CDD0F3
:105A5000B4F868108142C9D92068816821F080516A
:105A600081600448E0662068016841F0200101601F
:105A7000BDE8F081715900082DE9F0470446002681
:105A800000270020FE4B2168D4F810C0A268E56909
:105A900042EA0C02D4F814C04CEA050C42EA0C02AB
:105AA000D4F864C04CEA0202D1F800C0F54D0CEA0B
:105AB000050C4CEA02020A6021684A68D4F80CC05E
:105AC00022F4405242EA0C024A60A16922689A42DA
:105AD00003D0D4F820C04CEA0101D2F808C02CF45D
