:020000040800F2
:1000000070060020ED010008773E00080334000868
:10001000753E0008710A0008054500080000000050
:10002000000000000000000000000000E1410008A6
:10003000430B000800000000793E0008E34100087F
:10004000070200080702000807020008070200086C
:10005000070200080702000807020008070200085C
:10006000070200080702000807020008070200084C
:10007000070200080702000807020008070200083C
:1000800007020008000000005908000807020008E5
:10009000070200080702000807020008070200081C
:1000A000070200080702000807020008070200080C
:1000B0007542000881420008070200080702000894
:1000C00007020008070200080702000807020008EC
:1000D00007020008070200080702000807020008DC
:1000E00007020008070200080702000807020008CC
:1000F00007020008070200080702000800000000CD
:1001000000000000070200080000000007020008CD
:1001100007020008000000000702000807020008AC
:10012000070200080702000807020008070200088B
:10013000070200080000000000000000070200089D
:10014000070200080702000800000000000000008D
:10015000000000000000000000000000000000009F
:10016000000000000000000000000000070200087E
:10017000070200080000000000000000000000006E
:10018000000000000702000800000000000000005E
:10019000000000000000000000000000000000005F
:1001A000000000000000000007020008070200082D
:1001B000070200080702000807020008000000000C
:1001C000000000000702000800000000000000001E
:1001D0000702000807020008DFF80CD000F02AFB35
:1001E000004800470D4E0008700600200648804772
:1001F00006480047FEE7FEE7FEE7FEE7FEE7FEE70C
:10020000FEE7FEE7FEE7FEE759420008D9010008D5
:100210002DE9F05F0546002092469B46884606463B
:10022000814640241BE0284641464746224600F0CE
:100230001BFA53465A46C01A914110D3114618462C
:10024000224600F002FA2D1A67EB01084F462246BB
:100250000120002100F0F9F917EB00094E41201EA2
:10026000A4F10104DFDC484631462A464346BDE896
:10027000F09FD2B201E000F8012B491EFBD270477B
:100280000022F6E710B513460A4604461946FFF762
:10029000F0FF204610BD2DE9FE4F804681EA0300A5
:1002A000C00F0C46009021F0004123F00045B8EB50
:1002B0000200A94105D24046214690461C460B4605
:1002C000024623F00040104347D0270DC7F30A0031
:1002D000C3F30A510290401A019040286BDAC3F32D
:1002E000130040F4801B0098924620B10023D2EB0B
:1002F000030A63EB0B0B01985946C0F140025046CC
:1003000000F0A3F906460D4650465946019A00F002
:10031000BBF910EB08006141002487EA115284EA1E
:10032000E7731A4340D0009A62B3019A012A4FEA58
:10033000075215DC001B61EB02014FF0004202EA9C
:100340000752CDE90042001C41F5801132462B4690
:1003500000F0F2F903B0BDE8F08F40462146F9E71E
:10036000001B61EB0201001C41F5801300185B418A
:100370002018A2F5001747EB030140EAD570B61923
:100380006D4111E06D084FEA360645EAC0754FEA47
:100390000752001B61EB0201001C41F58011490866
:1003A0004FEA30000019514132462B4603B0BDE8F8
:1003B000F04F00F0B2B90098012240000023D0EBCA
:1003C000020263EBE073009821464FEAE074B8EB59
:1003D000000061EB0401E9E783F000435BE781F093
:1003E000004158E72DE9FE4F81EA030404F0004480
:1003F00021F0004100944FF0000B23F0004350EA3D
:1004000001045ED052EA03045BD0C3F30A54C1F383
:100410000A552C44A4F2F3340194A0FB0254C1F316
:10042000130141F48011C3F3130343F4801301FB60
:10043000024400FB034E840A970A44EA815447EAC7
:100440008357A4FB076802958D0A05FB07854FEAD1
:10045000932C04FB0C542705029D4FEA065847EAEB
:100460001637B5EB08056EEB070C870E920E47EAC0
:10047000811742EA8312A7FB0201B6EB0B0164EB82
:1004800000042B0D43EA0C335E1844EB1C50DA4693
:100490005146E7FB0201C5F313044FEA0B3343EA6D
:1004A00014534FEA0432019C43EA0603A4F10C04FE
:1004B0000294009CCDE900B400F03EF903B0BDE821
:1004C000F08F00200146F9E72DE9F04D81EA0304A1
:1004D00004F0004B21F0004514464FF0000A23F0D1
:1004E000004150EA050220D054EA01021DD0C5F3B4
:1004F0000A570246C5F31303C1F31300C1F30A56AA
:1005000040F4801543F48013A7EB0608101BD64671
:1005100008F2FD3873EB050002D308F1010801E091
:1005200092185B41B8F1000F03DA00200146BDE8E4
:10053000F08D00204FF48011064684460EE0171B14
:1005400073EB050705D3121B63EB050306434CEA67
:10055000010C49084FEA300092185B4150EA01074C
:10056000EDD152EA030012D082EA040083EA0501C9
:10057000084305D0101BAB4106D20122002306E040
:1005800000224FF0004302E06FF0010253101AEB1B
:1005900006004CEB085110EB0A0041EB0B01BDE8E3
:1005A000F04D00F0BAB80EB540F23341029100218F
:1005B000CDE900110A460B4600F0BEF803B000BDBD
:1005C00000F0004230F000400AD0C10D01F560712A
:1005D000C0F3160042EA0151C208400711437047B8
:1005E00000200146704701F0004330B421F0004183
:1005F00050EA010206D00A0DA2F56072C1F31301A0
:10060000002A02DC30BC00207047440F44EAC104D9
:10061000C100E01830BC00EBC25000F047B830B564
:100620000B46014600202022012409E021FA02F5B0
:100630009D4205D303FA02F5491B04FA02F528444A
:10064000151EA2F10102F1DC30BD202A04DB203AA4
:1006500000FA02F1002070479140C2F1200320FA15
:1006600003F3194390407047202A04DB203A21FA13
:1006700002F00021704721FA02F3D040C2F12002BB
:100680009140084319467047202A06DBCB17203AD1
:1006900041FA02F043EAE07306E041FA02F3D04087
:1006A000C2F1200291400843194670470029A8BFB3
:1006B0007047401C490008BF20F00100704710B48B
:1006C000B0FA80FC00FA0CF050EA010404BF10BC40
:1006D000704749B1CCF1200421FA04F411FA0CF16D
:1006E00018BF012121430843A3EB0C01CB1D4FEAA6
:1006F00000614FEA102042BF002010BC704700EBA1
:10070000C35010440029A4BF10BC7047401C4900CE
:1007100008BF20F0010010BC704710B5141E73F123
:10072000000408DA401C41F1000192185B411A43B1
:1007300001D120F0010010BD2DE9F04D92469B46FD
:1007400011B1B1FA81F202E0B0FA80F220329046A3
:10075000FFF77BFF04460F4640EA0A0041EA0B011F
:1007600053465A46084313D0114653EA010019D0A4
:10077000C8F140025046FFF777FF05460E46504647
:1007800059464246FFF761FF084305D0012004E0C7
:1007900020463946BDE8F08D0020054346EAE07664
:1007A0002C4337430A986305E40AA0EB08000022B3
:1007B000FD0A44EA47540A3002D500200146E9E721
:1007C000010510196941DDE9084500196941BDE8D5
:1007D000F04DA2E7C1F30A52C1F3130140F2FF3317
:1007E00041F480119A4202DA00200146704740F23B
:1007F00033439A42A2F2334202DC5242FFF734BF43
:10080000FFF723BF30B5041E71F1000404DB4FF085
:100810000044404264EB0101141E73F1000405DB47
:100820001C464FF00043524263EB0403994208BF59
:10083000904230BD064C074D06E0E06840F00103F1
:1008400094E8070098471034AC42F6D3FFF7C8FC91
:10085000706000089060000810B5044800F096FC35
:10086000BDE81040024800F091BC00009C00002050
:100870000801002010B50246906AC16D11F0500FBA
:1008800006D0C16D11F0100F38D000F07BFC10BD08
:10089000C16D41F40071C16501680A6812F0080F6A
:1008A00019D0CA6812F4406F06D000221AB3C96882
:1008B00011F4005F02D01EE00122F7E7C16D21F4C0
:1008C0008071C165C16D11F4805F14D1C16D41F0BB
:1008D0000101C1650FE0C96811F0020F0BD1C16DB4
:1008E00021F48071C165C16D11F4805F03D1C16DC8
:1008F00041F00101C16500F043FC10BD406D416B4A
:10090000BDE810401046084710B5806AC16D41F03F
:100910004001C165016E41F00401016600F032FC46
:1009200010BD10B5806A00F02CFC10BD70B50446F7
:100930002068816801F0010100293ED181686FF3D0
:100940009E1149B1E06D40F01000E065206E40F06E
:1009500001002066012070BD816821F03F0121F077
:10096000004141F00101816001F0FEF90546206877
:10097000006810F0010F20D12068816801F00101AA
:1009800039B9816821F03F0121F0004141F00101B6
:10099000816001F0E9F9401B022809D9E06D40F0BF
:1009A0001000E065206E40F001002066012070BD5F
:1009B0002068006810F0010FDED0002070BD00003C
:1009C00070B523482DED048B00F0CCFE214800F0DB
:1009D000C9FE21480168214C626B891A642933D30E
:1009E000006860631A4800F0CEFBFFF7DCFD9FED66
:1009F0001C8B53EC182BFFF7F5FC9FED1B9B53EC66
:100A0000192BFFF761FDFFF7EEFD04F13805E063F8
:100A10002888FFF7C8FD53EC182BFFF7E3FC53ECD5
:100A2000192BFFF751FDFFF7DEFD20646888FFF703
:100A3000BAFD53EC182BFFF7D5FC53EC192BFFF73D
:100A400043FDFFF7D0FD6064BDEC048B70BD00007A
:100A50009C000020080100207800002008000020F1
:100A60006666666666660A400000000000FEAF40EB
:100A7000FEE700000D4902688A4201D20C4900E0FD
:100A80000C49D2B20C4B083AA3FB02321209436C58
:100A900023F00303194481640849C16402F01F0173
:100AA000012202FA01F101657047000008040240CA
:100AB0000008024020080240CDCCCCCC8008024087
:100AC0000179074A491E02EB81024265054A8265A7
:100AD00001F01F01012202FA01F1C1657047000017
:100AE000000902404009024010B4C46CD0F850C064
:100AF000C4F804C0D0F854C0BCF1000F04D0846D19
:100B0000D0F85CC0C4F804C090F844C001240CF0D4
:100B10001F0C04FA0CFC046CC4F804C0D0F800C02C
:100B2000CCF804308368102B05D003689960006806
:100B3000C26010BC704703689A600068C16010BC56
:100B400070477047002240F6B83306E00021491C88
:100B500089B29942FBD3521C92B28242F6D37047BB
:100B6000704770477047704770477047F0B49BB04C
:100B7000002390F85820012A19D0012280F858202B
:100B80000268394C0025B2F1A04F14D00095DDF871
:100B900000C0BCF1000F10D0DDF800C0DCF808C0C8
:100BA000CCF3800C9268C2F3800282B112E01BB0D9
:100BB0000220F0BC70470094E9E7C16D41F02001CC
:100BC000C16580F858501BB00120F0BC7047BCF1E3
:100BD000000F0AD0C16D41F02001C165012380F8EA
:100BE00058501BB01846F0BC7047204A0E684FF0B2
:100BF000A04C16B3966890F8387026F4604646EA22
:100C000047364F683E439660DCF808C00CF0010C94
:100C1000A46804F001045CEA040CE0D1D1F800C03F
:100C200089684CEA0101D2F808C02CF01F0C2CF4A2
:100C3000706C41EA0C019160D1E7916821F4604148
:100C40009160DCF8081001F00101D4F808C00CF044
:100C5000010C51EA0C01C2D1916821F01F0121F46D
:100C600070619160BBE7000000010050000300507C
:100C70002DE9F80700239C46CDF800C0FE4E90F801
:100C80005820012A12D0012480F858400268956843
:100C9000C5F3800575B1C16D41F02001C165012327
:100CA00080F858C01846BDE8F8077047BDE8F80757
:100CB000022070478D880F6805F4407802EB981287
:100CC000D2F8308005F01F054FF01F0909FA05F929
:100CD000C7F3846728EA090807FA05F548EA050515
:100CE000156302689568C5F380059768C7F3C00768
:100CF0002F434FF0070540F0FF80D1F80880B8F18E
:100D0000004F53D00F6807F0007902EBD952D2F8A8
:100D10001490C7F3045705FA07FA29EA0A0908FAF2
:100D200007F749EA070757610268576927F0004744
:100D3000576102684F69D2F80C80C8F3C1084FEAC6
:100D4000480807FA08F80F69042F4CD0D1F8009032
:100D500002EB8702176EDFF824A309F0F84907EACF
:100D60000A0749EA080847EA080747F000471766F4
:100D70000268D1F810808F6902EB8802D2F8608097
:100D800028F0807848EA070717660F7F0268D1F8D5
:100D90001080012F24D0002702EB8802D2F8608057
:100DA00028F0007848EA07071766A5E00F684FF0BB
:100DB000000807F0007902EBD952D2F81490C7F37B
:100DC000045705FA07FA29EA0A0908FA07F749EA6F
:100DD000070757610268576947F000475761A8E75E
:100DE0004FF00077D8E702F160073F6800277F03E4
:100DF0007F0B7CD002F160073F6807F0F84797FA55
:100E0000A7F7B7FA87F80F68C7F31209B9F1000F0F
:100E10006ED097FAA7F7B7FA87F7B84503D1176EE0
:100E200027F0004717660268121D02F160073F684D
:100E300000277F037F0B71D002F160073F6807F046
:100E4000F84797FAA7F7B7FA87F80F68C7F31209B8
:100E5000B9F1000F6AD097FAA7F7B7FA87F7B84544
:100E600003D1176E27F0004717660268083202F1B7
:100E700060073F6800277F037F0B5AD002F16007AD
:100E80003F6807F0F84797FAA7F7B7FA87F80F68AF
:100E9000C7F31209B9F1000F53D097FAA7F7B7FAC1
:100EA00087F7B84503D1176E27F000471766026829
:100EB0000C3202F160073F6800277F037F0B43D0AD
:100EC00002F160073F6807F0F84797FAA7F7B7FA0B
:100ED00087F80F68C7F31209B9F1000F3CD097FAF1
:100EE000A7F7B7FA87F7B84506D1176E01E009E012
:100EF00010E027F0004717660268976807F00107BF
:100F00006FB3D1E002F160073F6807F0F8474FEA9E
:100F1000976878E7C7F384677FE7FFE702F1600728
:100F20003F6807F0F8474FEA97688EE7C7F3846792
:100F300095E702F160073F6807F0F8474FEA9768C6
:100F4000A5E7C7F38467ACE702F160073F6807F0E5
:100F5000F8474FEA9768BCE7C7F38467C3E791F89F
:100F60000C800F68D2F8B090C7F3120A29EA0A0978
:100F7000DFF80CA108F018082AFA08F808EA0707B1
:100F800049EA0707C2F8B070CA68B2427AD10A6863
:100F9000076812EA0A061AD092FAA2F6B6FA86F69C
:100FA000761C06F01F06092E32D8C2F31206002E58
:100FB00010D092FAA2F6B6FA86F606F1010606F00D
:100FC0001F0604FA06F608D1C2F3846409E0C2F3EE
:100FD0008466E5E7C2F38466EFE792FAA2F4B4FA16
:100FE00084F404F1010404F01F0446EA846402D18D
:100FF000C2F3846203E092FAA2F2B2FA82F202F140
:10100000010202F01F0202EB420244EA025432E003
:10101000C2F31206002E0DD092FAA2F6B6FA86F6A8
:1010200006F1010606F01F0604FA06F605D1C2F322
:10103000846406E0C2F38466F2E792FAA2F4B4FA9A
:1010400084F404F1010404F01F0446EA846402D12C
:10105000C2F3846203E092FAA2F2B2FA82F202F1DF
:10106000010202F01F02A2F10A0202EB420244EA6C
:10107000025242F0007406E000007F4000F0FF03DF
:10108000FFFF070010E08E6804F0007207EBD252F9
:101090005769C4F3045405FA04F527EA050506FA6E
:1010A00004F445EA040454610A682F490A423FF4F3
:1010B000F7AD2E4CA16801F0E07102F1705515F505
:1010C0005F0502D02A4DAA4202D111F4000F1ED0B2
:1010D000284D02F1605616F52E0602D111F0807FE0
:1010E00035D002F1505616F5F8067FF4D9AD11F45B
:1010F000800F7FF4D5AD0268AA423FF4D1AD41F430
:101100008001A26822F0E0721143A160C8E5026884
:10111000B2F1A04F7FF4C4AD41F40001A26822F007
:10112000E0721143A1601449144A0968B1FBF2F15D
:1011300001EB410189000091009900293FF4B0AD15
:101140000099491E009100990029F9D1A8E502688B
:10115000AA423FF4A5AD41F08071A26822F0E0728E
:101160001143A1609CE500000000088000030050CE
:101170001000C090000100506C000020400D0300E2
:101180007047704770470068006C70472DE9F04762
:1011900004464FF00008206805684668DFF8B8A2EA
:1011A000DAF8080000F01F0715F0020F10D016F053
:1011B000020F0DD0E06D10F0100F03D1E06D40F480
:1011C0000060E0652046FFF7CCFC21680220086043
:1011D000DFF8889215F0040F02D016F0040F05D145
:1011E00015F0080F42D016F0080F3FD0E06D10F058
:1011F000100F03D1E06D40F40070E0652068C16815
:1012000011F4406F06D0002151B3484504D14FF08E
:10121000A04102E00121F7E70146814209D047B130
:10122000052F06D0092F04D0484504D14FF0A04126
:1012300002E0C16801E00146C96811F4005F0FD106
:10124000016811F0080F0BD08168C1F38001A1B1D2
:10125000E06D40F01000E065206E40F00100206677
:101260002046FFF78DFF21680C20086015F0200F45
:1012700014D016F0200F17D110E0416821F00C01B6
:101280004160E06D20F48070E065E06D10F4805FF7
:10129000E6D1E06D40F00100E065E1E715F0400FB8
:1012A00050D016F0400F4DD0E06D10F0100F03D16C
:1012B000E06D40F40050E0652068C16C11F4C07F1F
:1012C0000AD00022C16811F4406F07D000234845BE
:1012D00006D14FF0A04104E00122F3E70123F6E735
:1012E0000146814209D047B1062F06D0072F04D00E
:1012F000484504D14FF0A04102E0C16801E0014639
:10130000C96832B911F0007F16D1ABB111F4005F9A
:1013100012D1026812F0400F0ED011F4001F0BD151
:101320008168C1F3C001E1B3E06D40F01000E065F9
:10133000206E40F0010020662046FFF713FC216874
:101340006020086015F0800F0CD016F0800F09D0D7
:10135000E06D40F48030E065204600F087F92168B8
:101360008020086015F4807F0DD016F4807F0AD0AD
:10137000E06D40F40030E0652046FFF7F5FB2168A2
:101380004FF48070086015F4007F0FD016F4007FD2
:101390000CD0E06D40F48020E0652046FFF7E5FBCF
:1013A00000E014E021684FF40070086015F0100FA1
:1013B00039D016F0100F36D0E06BC8B1DFB1DAF8D3
:1013C000080000F46040E8B14FF001081AE04168FD
:1013D00021F060014160E06D20F48050E065E06D37
:1013E00010F4807FA8D1E06D40F00100E065A3E734
:1013F0004FF0010806E02068C06810F0010F01D02E
:101400004FF00108B8F1010F0AD1E06D40F480609F
:10141000E065206E40F0020020662046FFF7B2FE35
:1014200021681020086015F4806F13D016F4806FC7
:1014300010D0E06D40F48040E065206E40F0080080
:10144000206621684FF4806008602046BDE8F047C0
:10145000FFF789BBBDE8F087000300500001005092
:10146000F8B50446002500260096002C02D0E06D59
:1014700010B107E00120F8BD204600F0F9F826661B
:1014800084F8586020688168C1F3407129B181688F
:1014900021F03F0121F02041816020688168C1F383
:1014A0000071A9B9816821F03F0121F0004141F0AC
:1014B00080518160684869490068B0FBF1F0009094
:1014C000009828B10098401E009000980028F9D19B
:1014D00020688168C1F3007141B9E16D41F01001EC
:1014E000E165216E41F00101216601258168C1F3AA
:1014F0008001E26D12F0100F00D131B1E06D40F0CB
:101500001000E06501252846F8BDE16D21F48071E9
:1015100041F00201E165806800F0010088B94FF0F8
:10152000A040806800F001004D49896801F0010188
:10153000084306D160684B498A6822F47C12104344
:101540008860E168E06B627F0843A16841EA42314C
:10155000084394F8241040EA0140012903D1218D69
:10156000491E40EA4140E16A21B101F47871226BE1
:10157000084310432168CA683B4B1A401043C860B7
:1015800020680169626B21F04061114301612068AC
:101590008168C1F380018268C2F3C002114332D175
:1015A000217F94F83820890341EA4201C26822F081
:1015B000020222F480421143C160206970B12068A8
:1015C000016941F4803101612068D0F8C0102269BE
:1015D0006FF30D011143C0F8C0100BE020680169E2
:1015E00021F4803101612068D0F8C0106FF30D0143
:1015F000C0F8C01094F84000012813D02068016999
:1016000021F001010161606901281CD02068016B93
:1016100021F00F010163E06D20F0020040F00100B5
:10162000E06570E7A16C606C226D0843E16C1143CA
:1016300040EA0102206801696FF38A01114341F019
:1016400001010161DFE72068016B226A21F00F01CF
:10165000521E11430163DEE76C000020400D0300C1
:1016600000010050000300500740F0FF70470000E9
:10167000F0B587B0064614216846FEF701FE344AED
:1016800037680025106803243249401C4FF090430E
:10169000B7F1A04F07D0DFF8C0C0674555D1106043
:1016A00001281BD022E01060012807D1C86C40F44B
:1016B0000050C864C86C00F400500590C86C40F03D
:1016C0000100C864C86C694600F00100059008205C
:1016D0008DE83100184600F019FA2EE0C86C40F48D
:1016E0000050C864C86C00F400500590C86C40F00D
:1016F0000100C864C86C694600F001000590302004
:101700008DE83100184600F001FA154C13482060AE
:101710002420C4E901058020C4E903504000606131
:101720008000A0612020C4E90705204600F024F9CC
:1017300008B1FFF715FA7465A6620022114612205F
:1017400000F080FB122000F06FFB07B0F0BD00003E
:101750006800002000100240000100500800024014
:101760007401002070B504463D48806800F01F05F4
:1017700020688068C0F38000002802D00222104652
:1017800070BD94F8580001280DD0012084F858004D
:101790002046FFF7CBF8024610004FF0000C04D0B3
:1017A00084F858C0EBE7022070BDE06D20F0010026
:1017B00020F4606040F48070E0652A4B2068984215
:1017C00002D14FF0A04100E00146814200D01DB996
:1017D000E16D21F48011E165E16D11F4805F04D0C9
:1017E000216E21F00601216601E0C4F860C01C21D1
:1017F000016084F858C02068984202D14FF0A0419F
:1018000000E00146814217D0B5B1052D14D0092D55
:1018100012D0E16D41F48011E165984201D14FF0A1
:10182000A040C06810F0007FA9D0E06D20F4005007
:1018300040F48050E065A2E7C16811F0007F05D058
:10184000E16D21F4005141F48051E165816821F09E
:101850003F0121F0004141F0040181608FE7000069
:1018600000030050000100502DE9F04104460E46EF
:1018700017463D48806800F01F0520688068C0F367
:101880008000002802D00220BDE8F08194F85800C2
:1018900001280DD0012084F858004FF0000855B100
:1018A000052D08D0092D06D084F85880BDE8F081B8
:1018B0000220BDE8F0812046FFF738F818B184F81F
:1018C0005880BDE8F081E06D20F0010020F46060F8
:1018D00040F48070E0652068A0F1A041B1F580710E
:1018E00004D00246824204D01DB106E04FF0A0426F
:1018F000F8E7E06D20F48010E065E06D10F4805FA3
:1019000004D0206E20F00600206601E0C4F860805C
:10191000616D1648C862616D15480863616D1548B0
:10192000486321681C20086084F85880206841685A
:1019300041F0100141602068C16841F00101C160BF
:1019400020683B4600F140013246606D00F07CF8B3
:1019500021688A6822F03F0222F0004242F004022D
:101960008A60BDE8F081000000030050750800089F
:10197000230900080909000870B50446002C0ED0A0
:101980002B4A20682B4990420BD22B4A0244A1FBE0
:101990000221090989006164284921640AE00120C3
:1019A00070BD274A0244A1FB022109098900616434
:1019B00024492164022184F8251001686FF30E1177
:1019C000E368A268D4F814C01A43236943EA0C03FD
:1019D0001A43A3691A43E3691A43236A1A4311435A
:1019E00001602046FFF746F8A0680025B0F5804F5B
:1019F00000D16560A16C20790860E16C206D4860C1
:101A00006068401E032808D82046FFF759F8606D2B
:101A10000560A16DE06D486002E06565A565E5655E
:101A2000E563012084F8250084F82450002070BD6F
:101A300008040240CDCCCCCCF8FFFDBF0000024032
:101A4000F8FBFDBF0004024070B50446002594F881
:101A5000240001280DD0012084F8240094F825C02A
:101A60000020BCF1010F06D084F82400022528468E
:101A700070BD022070BD4FF0020C84F825C0E063F9
:101A80002068D0F800C02CF0010CC0F800C020463F
:101A9000FFF72AF8206B28B12068016841F00E0199
:101AA000016009E02068016821F0040101602068FC
:101AB000016841F00A010160A06C016811F4803FE7
:101AC00003D0016841F480710160606D18B1016854
:101AD00041F4807101602068016841F001010160FA
:101AE000C5E7000070B5044600F03EF90546B4F1C4
:101AF000FF3F02D004484068044400F035F9401B21
:101B0000A042FAD370BD0000700000202DE9F84F0C
:101B100000220B68002B7CD00324874E874F0F25B3
:101B20000123D1F800C003FA02F80CEA0803002BE5
:101B300070D0D1F804C0BCF1010F08D0BCF1020F85
:101B400005D0BCF1110F02D0BCF1120F1DD1D0F89D
:101B500008904FEA420C04FA0CFA29EA0A09D1F873
:101B60000CA00AFA0CFC4CEA090CC0F808C0D0F82A
:101B700004C02CEA080C91F80480C8F3001808FA95
:101B800002F848EA0C0CC0F804C0D0F80C804FEA08
:101B9000420C04FA0CFA28EA0A08D1F8089009FA6B
:101BA0000CF949EA0808C0F80C80D1F80480B8F1B3
:101BB000020F02D0B8F1120F15D14FEAD20800EB94
:101BC0008808D8F820B04FEA42794FEAD96905FA77
:101BD00009FE2BEA0E0BD1F810E00EFA09F949EADA
:101BE0000B09C8F82090D0F8008028EA0A0891F87C
:101BF000049009F0030909FA0CFC4CEA080CC0F83F
:101C000000C0D1F804C01CF0805F7CD0D6F860C062
:101C100001E07DE077E04CF0010CC6F860C0D6F83A
:101C200060C00CF0010CCDF800C022F0030C0CF1E8
:101C3000804909F58039D9F808C04FEA82784FEA1F
:101C4000187805FA08FA2CEA0A0AB0F1904F64D025
:101C5000A0F1904CBCF5806C5CD0A0F1904CBCF530
:101C6000006C5DD0A0F1904CBCF5406C5BD0A0F155
:101C7000904CBCF5805C59D0A0F1904CBCF5A05CB8
:101C800057D04FF0060C0CFA08FC4CEA0A0CC9F8C5
:101C900008C0D7F800C02CEA030CD1F8048018F46F
:101CA000803F01D04CEA030CC7F800C0DFF89080F9
:101CB000D8F800C02CEA030CD1F8049019F4003FC6
:101CC00001D04CEA030CC8F800C0DFF87880D8F8DF
:101CD00000C02CEA030CD1F8049019F4801F01D045
:101CE0004CEA030CC8F800C0DFF85C80D8F800C0EC
:101CF0002CEA030CD1F8049019F4001F01D04CEA2F
:101D0000030CC8F800C0521C0B68D3407FF408AF26
:101D1000BDE8F88F4FF0010CB5E74FF0000CB2E7CB
:101D20004FF0020CAFE74FF0030CACE74FF0040CA0
:101D3000A9E74FF0050CA6E700100240000401409F
:101D400004040140080401400C04014000690842F9
:101D500001D00120704700207047002A01D0816126
:101D6000704781627047000001488068704700003A
:101D70007000002002488168426811448160704709
:101D80007000002010B50024032000F08FF8002020
:101D900000F008F808B1012401E000F029F820461D
:101DA00010BD000070B5054600240F4E7068002875
:101DB00017D04FF47A71B1FBF0F00C490968B1FB10
:101DC000F0F000F02FFE08B101240BE0102D06D238
:101DD00000222946501E00F035F8356002E001244B
:101DE00000E00124204670BD700000206C0000203F
:101DF0000B4808B5016E41F001010166016E01F06A
:101E000001010091816D41F080518165806D00F08C
:101E1000805000900348816841F48041816008BD92
:101E2000001002400070004000280ADB00F01F0193
:101E3000012202FA01F14009800000F1E020C0F81F
:101E40000011704710B4184B1B68C3F30223C3F191
:101E5000070CBCF1040F01D94FF0040C1C1D072C1A
:101E600001D2002300E0DB1E012404FA0CFCACF1DB
:101E7000010C0CEA0101994004FA03F35B1E1A40BD
:101E80001143002806DB00F1E020090180F800146E
:101E900010BC704700F00F0000F1E020090180F84D
:101EA000141D10BC704700000CED00E000F00700AE
:101EB000064A11684FF6FF03194041EA002040F03E
:101EC000FD7040F080601060704700000CED00E095
:101ED00033493222334B09684A43334900280AD038
:101EE000B0F5007F31D0086820F4C06040F4806015
:101EF000086000207047086800F4C060B0F5806F8B
:101F000006D0D1F8800020F48070C1F88000F0E79E
:101F1000D1F8800020F48070C1F88000086820F4B7
:101F2000C06040F400700860B2FBF3F0401C00E0B9
:101F3000401E4A6912F4806F01D00028F8D1486928
:101F400010F4806FD5D003207047086800F4C0609B
:101F5000B0F5806F06D0D1F8800040F48070C1F8F1
:101F60008000C6E7D1F8800040F48070C1F880009E
:101F7000086820F4C06040F400700860B2FBF3F021
:101F8000401C00E0401E4A6912F4806F01D0002816
:101F9000F8D1486910F4806FABD00320704700007F
:101FA0006C00002040420F00007000402DE9F84F07
:101FB0000446002500272068B04E10F4002F76D08C
:101FC000A846B06D10F0805F09D1B06D40F0805030
:101FD000B065B06D00F0805000904FF00108DFF860
:101FE000A0A2DAF8000040F48070CAF80000FFF701
:101FF000BBFE8146DAF8000010F4807F0CD1FFF7B9
:10200000B3FEA0EB0900022801D9032504E0DAF8A9
:10201000000010F4807FF2D025B12F46B8F1010FF7
:1020200041D044E0D6F8900000F44070A0B1216C9B
:10203000814211D0D6F8900020F44070D6F890106C
:1020400041F48031C6F89010D6F8901021F4803118
:10205000C6F89010C6F8900010F0010F16D0FFF7E8
:1020600083FE8146D6F8900010F0020F0ED141F2A7
:10207000883AFFF779FEA0EB0900504501D9032506
:1020800004E0D6F8900010F0020FF2D00DB12F4608
:10209000C4E7D6F89000216C20F440700843C6F8DD
:1020A0009000BBE703E0B06D20F08050B065207871
:1020B00010F0010F07D0D6F88800616820F0030007
:1020C0000843C6F88800207810F0020F07D0D6F831
:1020D0008800A16820F00C000843C6F8880020782A
:1020E00010F0040F07D0D6F88800E16820F0300027
:1020F0000843C6F88800207810F0080F07D0D6F8FB
:102100008800216920F0C0000843C6F888002078C4
:1021100010F0200F07D0D6F88800616920F44060E5
:102120000843C6F88800207810F0400F07D0D6F892
:102130008800A16920F440500843C6F88800207840
:1021400010F0800F07D0D6F88800E16920F44040F5
:102150000843C6F88800208810F4807F07D0D6F89E
:102160008800216A20F440300843C6F8880020889F
:1021700010F4007F07D0D6F88800616A20F4402070
:102180000843C6F88800208810F4806F0FD0D6F876
:102190008800A16A20F440100843C6F88800A06AAD
:1021A000B0F5801F03D1F06840F48010F060208803
:1021B00010F4006F0FD0D6F88800E16A20F44000D8
:1021C0000843C6F88800E06AB0F5800F03D1F068D4
:1021D00040F48010F060208810F4805F0FD0D6F8B3
:1021E0008800216B20F040700843C6F88800206BFF
:1021F000B0F1807F03D1F06840F48010F060208857
:1022000010F4005F0FD0D6F88800616B20F04060BA
:102210000843C6F88800606BB0F1006F03D1F06826
:1022200040F48010F060208810F4804F0FD0D6F872
:102230008800A16B20F040600843C6F88800A06BBE
:10224000B0F1006F03D1F06840F48010F060208896
:1022500010F4004F0FD0D6F88800E16B20F040500A
:102260000843C6F88800E06BB0F1805F03D1F068E6
:1022700040F48030F0603846BDE8F88F001002402E
:10228000007000402DE9F04704460D460027002C61
:1022900017D0DFF8DC91D9F8000000F00F00A84259
:1022A00012D2D9F8000020F00F002843C9F800002E
:1022B000D9F8000000F00F00A84205D00120BDE8C9
:1022C000F0870120BDE8F08720786A4E10F0010FFA
:1022D00041F2883A5ED06068DFF89C81032806D01E
:1022E000022822D0306810F4806F49D021E0306895
:1022F00010F0007F0ED001F0C1FD404524D9B06838
:1023000010F0F00F09D0207810F0020F1CD0A06858
:1023100018B119E00120BDE8F087B06820F0F000A6
:1023200040F08000B06080270EE0306810F4003F7D
:1023300023D000F0A9F8404506D9B06820F0F0009D
:1023400040F08000B0608027B068616820F0030032
:102350000843B060FFF708FD8046B068616800F090
:102360000C00B0EB810F15D0FFF7FEFCA0EB0800CE
:10237000504508D90320BDE8F0870120BDE8F0876B
:102380000120BDE8F087B068616800F00C00B0EB98
:10239000810FE9D1206810F0020F17D010F0040F60
:1023A00003D0B06840F4E060B060207810F0080F0F
:1023B00005D0B06820F4605040F4E060B060B068D0
:1023C000A16820F0F0000843B06005E0802F03D141
:1023D000B06820F0F000B060D9F8000000F00F0005
:1023E000A8421DD9D9F8000020F00F002843C9F8F1
:1023F0000000FFF7B9FC0746D9F8000000F00F0015
:10240000A8420DD0FFF7B0FCC01B504502D90320F5
:10241000BDE8F087D9F8000000F00F00A842F1D124
:10242000207810F0040F05D0B068E16820F4E06077
:102430000843B060207810F0080F06D0B06821691A
:1024400020F4605040EAC100B06000F01DF8B168AF
:102450000A4AC1F30311515C01F01F01C840084949
:10246000086008480068BDE8F047FFF79BBC000023
:10247000002002400010024000B4C4046060000864
:102480006C000020700000201A4A9068DFF868C0D5
:1024900000F00C0004280CD0906800F00C011748E4
:1024A000082905D091680C2333EA010103D00020EC
:1024B000704760467047D16801F00303D168C1F3EB
:1024C0000311491C032B0DD0BCFBF1F0D168C1F303
:1024D00006214843D168C1F34161491C4900B0FB62
:1024E000F1F07047B0FBF1F0D168C1F30621484329
:1024F000F0E70000001002400024F40000366E01F6
:102500002DE9F8430446002C0ED02078FD4F10F042
:10251000010F60D0B8683D4600F00C00E96801F09A
:1025200003010C2803D004E00120BDE8F88303294F
:102530001AD0082818D06068B0F5803F1DD0B0F5DB
:10254000A02F1FD0286820F480302860286820F44D
:1025500080202860606858B3FFF706FC06462868AC
:1025600010F4003F17D036E0286810F4003F32D056
:10257000606880BB0120BDE8F883286840F48030A3
:102580002860E7E7286840F480202860286840F445
:1025900080302860DEE7FFF7E7FB801B642802D964
:1025A0000320BDE8F883286810F4003FF3D012E060
:1025B000FFF7DAFB0646286810F4003F0BD0FFF760
:1025C000D3FB801B642802D90320BDE8F883286868
:1025D00010F4003FF3D1207810F0020F5ED0B868FD
:1025E0003D4600F00C00E96801F003010C2801D120
:1025F00002290FD004280DD0E068B8B3286840F451
:1026000080702860FFF7B0FB0646286810F4806FE2
:1026100018D023E0286810F4806F01D0E06870B112
:102620006868217C20F0FE4040EA01606860B6489E
:102630000068FFF7B7FB88B30120BDE8F8830120ED
:10264000BDE8F883FFF790FB801B022802D9032026
:10265000BDE8F883286810F4806FF3D06868217CA7
:1026600020F0FE4040EA0160686017E0FFE728685C
:1026700020F480702860FFF777FB0646286810F486
:10268000806F0BD0FFF770FB801B022802D903205C
:10269000BDE8F883286810F4806FF3D1207810F03B
:1026A000080F3AD06069E0B1D7F894003D4640F099
:1026B0000100C7F89400FFF757FB0646D5F89400D1
:1026C00010F0020F29D1FFF74FFB801B022802D91F
:1026D0000320BDE8F883D5F8940010F0020FF2D083
:1026E0001BE0D7F894003D4620F00100C7F89400A5
:1026F000FFF73AFB0646D5F8940010F0020F0CD015
:10270000FFF732FB801B022802D90320BDE8F883C3
:10271000D5F8940010F0020FF2D1207810F0040FD9
:102720007BD04FF00008B86D10F0805F09D1B86D14
:1027300040F08050B865B86D00F0805000904FF0C8
:102740000108724D286810F4807F16D1286840F483
:1027500080702860FFF708FB0646286810F4807F29
:102760000BD1FFF701FB801B022802D90320BDE833
:10277000F883286810F4807FF3D0A06801281AD06D
:1027800005281FD0D7F8900020F00100C7F890006E
:10279000D7F8900020F00400C7F89000A06841F23C
:1027A000883650B3FFF7E0FA0546D7F8900010F0EE
:1027B000020F14D037E0D7F8900040F00100C7F8BE
:1027C0009000EBE7D7F8900040F00400C7F89000C5
:1027D000D7F8900040F00100C7F89000DEE7FFF75F
:1027E000C3FA401BB04202D90320BDE8F883D7F8F2
:1027F000900010F0020FF2D015E0FFF7B5FA054691
:10280000D7F8900010F0020F0DD0FFF7ADFA401B83
:10281000B04203D90320BDE8F8830BE0D7F890005D
:1028200010F0020FF1D1B8F1010F03D1B86D20F013
:102830008050B865207810F0200F3AD0A069E0B140
:10284000D7F898003D4640F00100C7F89800FFF720
:102850008BFA0646D5F8980010F0020F29D1FFF741
:1028600083FA801B022802D90320BDE8F883D5F83B
:10287000980010F0020FF2D01BE0D7F898003D4608
:1028800020F00100C7F89800FFF76EFA0646D5F869
:10289000980010F0020F0CD0FFF766FA801B022898
:1028A00002D90320BDE8F883D5F8980010F0020F94
:1028B000F2D1E06960B3B9683D460C2232EA010109
:1028C0004FF0FF3878D0022823D0286820F080709D
:1028D0002860E86820F00300E860E86820F48810C9
:1028E00020F08070E860FFF73FFA0446286810F097
:1028F000007F0DD0FFF738FA001B022857D90320BC
:10290000BDE8F88300100240700000200070004015
:1029100083E0286820F080702860FFF725FA0646DB
:10292000286810F0007F0AD0FFF71EFA801B0228EB
:1029300001D90320E4E7286810F0007FF4D1616A30
:10294000206A491E40EA0110A16A228E090208EBA2
:10295000520241EA4251084394F8341008EB510105
:1029600040EA416094F82C1040EAC160E9682C4AC2
:1029700011400843E860286840F080702860E868EB
:1029800040F08070E860FFF7EFF90446286810F027
:10299000007F42D1FFF7E8F9001B022801D903208C
:1029A000AEE7286810F0007FF4D036E004E0286835
:1029B00010F0007F9ED130E001282CD0E868226A18
:1029C00000F00301914224D1626A00F0F001521E2E
:1029D000B1EB021F1DD1A26A00F4FE41B1EB022F40
:1029E00017D194F82C1000F07842B2EBC16F10D1DF
:1029F000228E00F4C00108EB5202B1EB425F08D115
:102A000094F8341000F0C06008EB5101B0EB416F56
:102A100003D0012074E7012072E7002070E7000076
:102A20000C809F01401EB0F1807F01D301207047D0
:102A30004FF0E0214861044AF020107000208861C6
:102A4000072008610020704723ED00E070477047C1
:102A50007047704770477047F0B490F83C20012AE7
:102A60003ED0012480F83C40022280F83D200368DB
:102A70005A68D3F808C01C4D1C4EAB4201D0B3427B
:102A800003D122F470024F683A4322F0700222F020
:102A900000720F683A435A600268AA4213D0B2F13A
:102AA000804F10D0A2F18043B3F580630BD0A2F128
:102AB0008043B3F5006306D0B24204D0A2F1804354
:102AC000B3F5A03304D12CF08003896819439160D9
:102AD00080F83D40002180F83C10F0BC0020704799
:102AE000F0BC022070470000002C0140003401407F
:102AF000704710B50446002C03D094F83D0010B187
:102B000007E0012010BD002084F83C00204600F0C2
:102B100023F8022084F83D00211D206801F0B6FB57
:102B2000012084F8480084F83E0084F83F0084F8CF
:102B3000400084F8410084F8420084F8430084F89F
:102B4000440084F8450084F8460084F8470084F87F
:102B50003D00002010BD000030B587B004461421B0
:102B60006846FDF78DFB24680022274902234FF0B9
:102B70009040B4F1804F25D0244DAC4220D18C6DD3
:102B800044F002048C658C6D04F002040594CC6C56
:102B900044F00104CC64C96C01F001010591C0212D
:102BA0000091CDE901326946CDE90323FEF7AEFF7E
:102BB000002211461D20FFF745F91D20FFF734F9CB
:102BC00007B030BD8C6D44F001048C658C6D04F051
:102BD00001040594CC6C44F00104CC64C96C01F090
:102BE0000101059106210091CDE901320121CDE9D4
:102BF00003216946FEF78AFF002211461C20FFF7D9
:102C000021F91C20DAE70000001002400004004017
:102C100070B5044694F83C00012817D0012584F8CB
:102C20003C50022084F83D002068826822F0770240
:102C300022F4441222F47F4282600868B0F5805F7B
:102C400063D010DC10F00F0F03D05EE04FF00200F5
:102C500070BD4FEA2012082A57D2DFE802F0515126
:102C6000515147333D1B2C4BC21A984248D00ADCC5
:102C7000B0F5005F1AD0B0F1101F41D0A0F580115F
:102C8000203942D13CE0102A3AD0302A38D0402AAC
:102C90003BD135E0CB684A688968206801F05DFB6C
:102CA0002068816841F0770181602EE0CB684A6836
:102CB0008968206801F051FB2068816841F48041F7
:102CC000816022E0CA684968206801F05BFB5021FE
:102CD000206801F04DFB18E0CA684968206801F0DF
:102CE000A1FB6021206801F043FB0EE0CA6849683F
:102CF000206801F047FB4021206801F039FB04E027
:102D000022680146104601F033FB84F83D50002054
:102D100084F83C0070BD0000300010002DE9F04741
:102D20004FF080412DED048B002301250268914C6A
:102D30008A4239D1067F904A022E02D0042E1BD03F
:102D400032E026788EB1012E12D1896B89B2E181F1
:102D50002370A689B142A1EB060100D8FF31218280
:102D600089B2B2FBF1F1A1641EE0886BA0812570ED
:102D7000BDEC048BBDE8F087667816B1012E04D057
:102D800012E0C96B618265700EE0C96B89B2A182E5
:102D90006370668AB142A1EB060100D8FF31E1827F
:102DA00089B2B2FBF1F1E164744902688A42DFD171
:102DB000017FDFF8CC919FED739ADFF8CCA14FF63D
:102DC000FF764FF00208012955D16C4F94F802C0EC
:102DD0003437BCF1000F2ED06649BCF1010F098BCE
:102DE00036D0BCF1020FC3D1386880B2608388420C
:102DF000A0EB010000D83044A083A370E58B80B223
:102E00002844FDF7D0FB41EC180B2846FDF7CBFB1F
:102E100053EC182BFDF758FBFDF7E5FB00EE100A0D
:102E2000544910EE100A503184ED0B0A484551DA2E
:102E300081ED009A9CE739682183116A21F00A012B
:102E4000116201680A6A42F002020A62A57012E089
:102E50003F68BFB28F426783A7EB010100D83144BE
:102E6000E183278384F80280116A21F00A0111624C
:102E700001680A6A0A62017F0229DBD13F4AE178D0
:102E8000383281B33B4D01292D8C44D00229D1D158
:102E9000106880B26084A842E370A0EB050000D8FF
:102EA0003044A084E58C80B22844FDF77CFB41ECE3
:102EB000180B2846FDF777FB53EC182BFDF704FBA6
:102EC000FDF791FB20632B4C5834484538DA84EDEC
:102ED000009A4DE710EE100A504505DD9FED2B0AD4
:102EE00081ED000A44E708E09FED291ADFED290A89
:102EF00050EE010AC1ED000A3AE711682184E5703D
:102F000001680A6A22F0A0020A620068016A41F0C0
:102F1000200101622CE7116889B2618484F8038082
:102F20000268136A23F0A00313620068026A026257
:102F3000A942A1EB050000D83044E084218417E7C2
:102F4000504504DD9FED140A84ED000A10E7FDF7FB
:102F500037FB9FED121B53EC112BFDF743FA9FED4E
:102F6000111B53EC112BFDF737FAFDF73CFB2060EA
:102F7000FEE600000800002040420F000004004070
:102F8000CDCCCC3D000000006666663F00003443B7
:102F9000000061430000B4410000B44200000000A2
:102FA00000205C40000000000080264070B505460F
:102FB0000C4695F83C0001281CD0012085F83C0007
:102FC000D2B1042A29D0082A39D0E368626821687E
:102FD000286801F077FA2868C16921F44061C1616D
:102FE0002868C169A26841EA0221C161002085F810
:102FF0003C0070BD022070BDE368626821682868EB
:1030000001F0D3F92868816921F00C0181612868F9
:103010008169A26811438161E8E7E3686268216819
:10302000286801F011FA2868816921F44061816102
:1030300028688169A26841EA02218161D6E7E368D4
:1030400062682168286801F01FFA2868C16921F0C8
:103050000C01C1612868C169A2681143C161C5E75B
:1030600010B50446002C03D094F83D0010B107E0E1
:10307000012010BD002084F83C00204600F022F81A
:10308000022084F83D00211D206801F0FFF8012096
:1030900084F8480084F83E0084F83F0084F840003B
:1030A00084F8410084F8420084F8430084F8440026
:1030B00084F8450084F8460084F8470084F83D0011
:1030C000002010BD7047000010B50446002913D041
:1030D000042914D0082915D00C2916D0102917D08E
:1030E00094F84300B9B1042918D0082919D094F8EC
:1030F000472001281AD117E094F83E00F2E794F82F
:103100003F00EFE794F84000ECE794F84100E9E76E
:1031100094F84200E6E794F84420EAE794F8452062
:10312000E7E794F84620E4E7012A01D0012010BD2A
:103130000220C1B1042919D008291AD00C291BD0AA
:1031400010291CD084F84300E1B104291DD00829BE
:103150001ED084F84700F1B1042922D0082926D0D6
:103160000C292FD129E084F83E00EDE784F83F00D8
:10317000EAE784F84000E7E784F84100E4E784F8F0
:103180004200E1E784F84400E5E784F84500E2E71F
:1031900084F84600DFE72068C26842F00202C2609D
:1031A00010E02068C26842F00402C2600AE02068B1
:1031B000C26842F00802C26004E02068C26842F0BF
:1031C0001002C2600122206801F0B8F82168886806
:1031D000064A1040062806D0B0F5803F03D00868A4
:1031E00040F001000860002010BD00000700010051
:1031F00070B50446206801694FF0000511F0020F18
:1032000017D0C16811F0020F13D0E91E016101202F
:1032100020772068806910F0030F03D02046FFF765
:103220007DFD05E0204600F0E8F8204600F0E6F8D5
:1032300025772068016911F0040F18D0C16811F0DA
:10324000040F14D06FF00401016102202077206880
:10325000806910F4407F03D02046FFF75FFD05E052
:10326000204600F0CAF8204600F0C8F8257720680C
:10327000016911F0080F18D0C16811F0080F14D0BF
:103280006FF008010161042020772068C06910F008
:10329000030F03D02046FFF741FD05E0204600F074
:1032A000ACF8204600F0AAF825772068016911F0F3
:1032B000100F18D0C16811F0100F14D06FF010016A
:1032C0000161082020772068C06910F4407F03D096
:1032D0002046FFF723FD05E0204600F08EF820464B
:1032E00000F08CF825772068016911F0010F09D0F2
:1032F000C16811F0010F05D06FF001010161204696
:1033000000F07DF82068016911F0800F09D0C168D4
:1033100011F0800F05D06FF0800101612046FFF7AA
:1033200096FB2068016911F4807F09D0C16811F013
:10333000800F05D06FF4807101612046FFF786FB96
:103340002068016911F0400F09D0C16811F0400FE9
:1033500005D06FF040010161204600F051F820686F
:10336000016911F0200F09D0C16811F0200F05D0BC
:103370006FF0200101612046FFF76AFB20680169B8
:1033800011F4801F09D0C16811F4801F05D06FF4BB
:10339000801101612046FFF75DFB2068016911F48F
:1033A000001F09D0C16811F4001F05D06FF400118F
:1033B00001612046FFF74DFB2068016911F4800F81
:1033C00009D0C16811F4800F05D06FF4800101614C
:1033D0002046FFF740FB2068016911F4000F0BD075
:1033E000C16811F4000F07D06FF40001016120469D
:1033F000BDE87040FFF77CBB70BD704770477047F9
:103400007047FEE710B501210D48FEF79FFC0D49FE
:1034100050B18879002806D0002088710879401CB6
:1034200000F00100087110BD074802684B6BD21A0A
:10343000642AF8D3006848638879401C887110BDFD
:1034400000040048080000207800002000B585B086
:1034500014216846FCF714FF4FF6FF70009000201F
:103460000321CDE90201019069460248FEF74EFBB7
:1034700005B000BD0008004800B585B014216846BD
:10348000FCF7FEFE4FF6FF70009001200190032034
:1034900003900020029069460248FEF737FB05B012
:1034A00000BD00000008004870B500240646214613
:1034B000204600F061FA00F09FFA4FF4963530464E
:1034C00000F06EFA641CAC42F9D370BD30B587B021
:1034D00014216846FCF7D4FE1E48C16C41F004017B
:1034E000C164C16C01F004010591C16C41F001019E
:1034F000C164C16C01F001010591C16C41F0020190
:10350000C164C06C012500F0020005904FF44870C2
:10351000CDE9000500240394694602940E48FEF7A5
:10352000F5FA280203940090CDE901544FF090443D
:1035300069462046FEF7EAFAFFF79EFFA06940F4CD
:103540008070A06104481830016841F4087101607E
:1035500007B030BD0010024000040048203AD2B24B
:10356000034B02EB420203EB021200F019B8000019
:10357000904E0008F0B50E460746002540F23F1475
:1035800007E021463846FFF7E9FF103C6D1CA4B266
:10359000761C3278002A01D0142DF2D3F0BD000041
:1035A0002DE9F04791468A460026044600F0E4F9EA
:1035B000DFF84080012700BF00F01EFA5FF0000531
:1035C00039F8160007FA05F10842404601D1408853
:1035D00000E0008800F0E4F96D1C102DF0D3641CAD
:1035E000E4B25146204600F0C7F9761C182EE3D30A
:1035F000BDE8F0870000002010B5FFF767FF00204E
:1036000000F072F9084CA080A088A0F50241303982
:1036100006D000F0E4FC002000F066F9A08010BDA8
:1036200000F054FCF7E70000000000207CB55C4C83
:10363000606CFCF7C5FF05460E46206CFCF7C0FF2A
:1036400041EC100BCDE9005653EC102B55A1584816
:1036500000F05AFF56490020FFF78CFF2079002820
:103660002ED0012879D153A11820FFF783FF627A69
:1036700058A14F4800F048FF4D493020FFF77AFF2E
:10368000A27A59A14A4800F03FFF49494820FFF774
:1036900071FF228D59A1464800F036FF4449602051
:1036A000FFF768FF5AA19020FFF764FF58A1A820F8
:1036B000FFF760FF56A1BDE87C40C020FFF75ABF6E
:1036C00059A11820FFF756FF354E50363068FCF7E9
:1036D00077FF41EC100B5CA153EC102B344800F049
:1036E00013FF33493020FFF745FF06F1080528682E
:1036F000FCF766FF41EC100B58A153EC102B2C4843
:1037000000F002FF2A494820FFF734FFD4E91223D2
:1037100057A1274800F0F8FE25496020FFF72AFF4F
:1037200096EC020AB4EEE00AF1EE10FA02DD70EE59
:10373000600A01E070EEC00AFCEEE00A10EE900AAA
:10374000E07186ED010A95EC020AB4EEE00AF1EEB2
:1037500010FA03DD70EE600A02E020E070EEC00AAD
:1037600049A1FCEEE00A10EE900A207285ED010AF4
:10377000E2790F4800F0C8FE0D499020FFF7FAFEED
:10378000227A46A10A4800F0BFFE0949A820FFF7A7
:10379000F1FE607908B146A18DE74CA18BE77CBDB5
:1037A00008000020252E316620252E3166000000FD
:1037B0007C00002020202020202020205041524149
:1037C00020202020202020202020202020202020F9
:1037D000200000002020205061783A25642020201D
:1037E00020202020202000002020205062783A2530
:1037F0006420202020202020202000002020205095
:10380000663A25642020202020202020202000004F
:1038100020202020202020202020202020202020A8
:103820002020202000000000202020202020202018
:1038300044415441202020202020202020202020EE
:103840002020202020000000202020613A252E3159
:103850006620202020202020200000002020206240
:103860003A252E3166202020202020202000000034
:10387000202020663A25642C66323A2564202020D8
:10388000202020202020200020202061783A25645C
:103890002020202020202020200000002020206246
:1038A000783A2564202020202020202020000000BD
:1038B0002020206D6F64653A4220202020202020A7
:1038C0002020202020202020202000002020206DEB
:1038D0006F64653A412020202020202020202020D5
:1038E000202020202020000070B51D490A6842F4E5
:1038F00000720A600A6842F480720A60184C103C38
:10390000226842F020022260164A1060086840F0E7
:103910002000086000BF00BF00BF206840F020000A
:103920002060206840F480702060FFF78FFD4FF02A
:103930009041886A40F48070886200BF00BF00BF79
:103940000848001F006885B2886940F4807088616B
:10395000FFF792FD206840F400702060284670BD9B
:10396000280400481408004801B5BDF800000149CA
:10397000488008BD0000002010B50C4601462020FC
:1039800000F068F82146BDE81040212000F062B840
:1039900001B5BDF800000149088008BD0000002005
:1039A000134A116841F400711160114910390B6814
:1039B00043F480730B600B6843F020030B600D4BE6
:1039C0001860106840F02000106000BF00BF00BF0A
:1039D000086840F020000860086840F480700860C3
:1039E00000BF00BF00BF086840F400700860704767
:1039F00028040048140800481449086840F400707E
:103A00000860086840F48070086010481038026848
:103A100042F0200202600E4B22221A600A6842F035
:103A200020020A6000BF00BF00BF016841F0200112
:103A30000160016841F48071016000BF00BF00BFF8
:103A4000016841F4007101607047000028040048DB
:103A500014080048184B10B51A6842F400721A6036
:103A60001A6842F480721A60134A103A146844F0DB
:103A700020041460114C2060186840F02000186089
:103A800000BF00BF00BF106840F020001060106849
:103A900040F4807010602160186840F020001860C9
:103AA00000BF00BF00BF106840F020001060106829
:103AB00040F48070106010BD2804004814080048CD
:103AC00030B58BB0002408940994202168460A94EC
:103AD000FCF7D6FB1B484FF0A0410425C0E90014B9
:103AE0008460C4600461C0E905450477447701211E
:103AF000016280F82440C462046380F83840C463E3
:103B000080F84040FDF7ACFC08B1FDF729F808A9A2
:103B10000C480894FDF72AF808B1FDF721F80A4887
:103B200000900620CDE901047F200594CDE903052E
:103B300069460448FDF79CF8002801D0FDF710F80D
:103B40000BB030BD9C0000201000C01030B589B013
:103B500020216846FCF794FB1E481D490024C0E95B
:103B600000148460042585610121C460C0E904411A
:103B7000047744770222026280F82440C46204631E
:103B800080F83810C46380F84040FDF769FC08B144
:103B9000FCF7E6FF104800900620CDE901047F20E5
:103BA0000594CDE9030569460A48FDF761F808B1B7
:103BB000FCF7D6FF094800900C20019069460548A3
:103BC000FDF756F8002801D0FCF7CAFF09B030BD58
:103BD00000010050080100200000524700209036EC
:103BE000094808B5816C41F004018164816C01F0E1
:103BF00004010091816C41F001018164806C00F04E
:103C00000100009008BD0000001002402DE9F04FB7
:103C100087B014216846FCF733FB3F48C16C41F084
:103C20000401C164C16C01F004010591C16C41F053
:103C30002001C164C16C01F020010591C16C41F00B
:103C40000101C164C16C01F001010591C16C41F039
:103C50000201C164C16C01F002010591C16C41F027
:103C60000801C164C06CDFF8B48000F008004FF6B2
:103C7000FF740590002221464046FEF76EF84FF48F
:103C800080764FF09049002231464846FEF765F8AD
:103C9000DFF88CA0002204215046FEF75EF8DFF822
:103CA00084B04FF44877002239465846FEF755F85D
:103CB0000125CDE90045002402946946404603945D
:103CC000FDF724FFCDE90054694648460295FDF70B
:103CD0001DFF07208DE8310069465846FDF716FFA5
:103CE0000096CDE90154694648460394FDF70EFF5E
:103CF00004200090CDE90154694650460394FDF735
:103D000005FF0097CDE90154694658460394FDF735
:103D1000FDFE07B0BDE8F08F00100240000800482B
:103D2000000C00480004004810B58CB00024059435
:103D3000254804940694079408940A9409940094DE
:103D4000019402944FF08041039401604F21C0E937
:103D500001144FF6FF71C0E903148461FEF7C9FE38
:103D600008B1FCF7FDFE4FF48050049004A91648FA
:103D7000FEF74EFF08B1FCF7F3FE1348FFF770F9AA
:103D800008B1FCF7EDFE089408A90F480A94FEF765
:103D900063FE08B1FCF7E4FE0120CDE90040029487
:103DA0000422694608480394FFF700F908B1FCF7BC
:103DB000D7FE082269460448FFF7F8F8002801D02A
:103DC000FCF7CEFE0CB010BDD401002010B58CB0B5
:103DD00000240594264804940694079408940A94B1
:103DE00009940094019402942049039401604F21A6
:103DF000C0E901144FF6FF71C0E903148461FEF7B6
:103E000078FE08B1FCF7ACFE4FF48050049004A992
:103E10001748FEF7FDFE08B1FCF7A2FE1448FFF7B5
:103E20001FF908B1FCF79CFE089408A910480A94F1
:103E3000FEF712FE08B1FCF793FE0120CDE9004029
:103E40000294002269460A480394FFF7AFF808B1CC
:103E5000FCF786FE042269460548FFF7A7F800280C
:103E600001D0FCF77DFE0CB010BD00000004004046
:103E700020020020FEE77047704700001049C86824
:103E800000F00302C868C0F30310401C032A0ED0E0
:103E90000C4AB2FBF0F0CA68C2F306225043C9686C
:103EA000C1F34161491C4900B0FBF1F07047064A7B
:103EB000B2FBF0F0CA68C2F306225043EFE70000FD
:103EC000001002400024F40000366E0130B50121DC
:103ED0000020FFF7BFFD4FF47A70FCF733FE00219E
:103EE0000120FFF7B7FD41F290711020FFF7B2FDFE
:103EF0004FF41C516020FFF7ADFD01216120FFF759
:103F0000A9FD02214620FFF7A5FD48F2100113206C
:103F1000FFF7A0FD48F2FE011220FFF79BFD4FF4D2
:103F2000A0610220FFF796FD41F230010320FFF768
:103F300091FD40F2033421463020FFF78BFD2146EE
:103F40003120FFF787FD21463220FFF783FDE51E74
:103F500029463320FFF77EFD03213420FFF77AFD49
:103F600021463520FFF776FD14213620FFF772FD3C
:103F700021463720FFF76EFD21463820FFF76AFD06
:103F800021463920FFF766FD29463A20FFF762FDFA
:103F900003213B20FFF75EFD21463C20FFF75AFD41
:103FA0004FF4A0513D20FFF755FD4FF400719220D2
:103FB000FFF750FD21469320FFF74CFD40F60D0121
:103FC0009020FFF747FD41F218010320FFF742FD63
:103FD000BDE8304040F273110720FFF73BBD10B53C
:103FE00043F20801E320FFF735FD1221E720FFF738
:103FF00031FD41F23121EF20FFF72CFD002101209E
:10400000FFF728FD4FF4E0610220FFF723FD41F2A6
:1040100030010320FFF71EFD00210420FFF71AFDE9
:1040200040F207210820FFF715FD00210920FFF7C6
:1040300011FD00210A20FFF70DFD00210C20FFF7E4
:1040400009FD00210D20FFF705FD00210F20FFF7DE
:1040500001FD00211020FFF7FDFC07211120FFF7D3
:10406000F9FC00211220FFF7F5FC00211320FFF7D7
:10407000F1FCC820FDF736FD41F290611020FFF7FA
:10408000E9FC40F227211120FFF7E4FC3220FDF784
:1040900029FD1D211220FFF7DDFC3220FDF722FD56
:1040A0004FF400611320FFF7D5FC14212920FFF7FE
:1040B000D1FC0B212B20FFF7CDFC3220FDF712FDA8
:1040C00000212020FFF7C6FC00212120FFF7C2FCC1
:1040D00007213020FFF7BEFC40F207713120FFF7C7
:1040E000B9FC06213220FFF7B5FC40F204713520FF
:1040F000FFF7B0FC41F604713620FFF7ABFC04215A
:104100003720FFF7A7FC00213820FFF7A3FC40F27F
:1041100006713920FFF79EFC40F201713C20FFF749
:1041200099FC0F213D20FFF795FC00215020FFF75F
:1041300091FCEF215120FFF78DFC00215220FFF769
:1041400089FC40F23F115320FFF784FC4FF41C51CF
:104150006020FFF77FFC01216120FFF77BFC00213D
:104160006A20FFF777FC00218020FFF773FC002115
:104170008120FFF76FFC00218220FFF76BFC0021FC
:104180008320FFF767FC00218420FFF763FC0021F8
:104190008520FFF75FFC10219020FFF75BFC0021DA
:1041A0009220FFF757FC03219320FFF753FC4FF4B5
:1041B00088719520FFF74EFC00219720FFF74AFCFD
:1041C00000219820FFF746FC41F218010320FFF779
:1041D00041FCBDE8104040F273110720FFF73ABCE4
:1041E0007047FDF7C7BD10B5A4B038216846FCF78D
:1041F00047F814211FA8FCF743F844210EA8FCF748
:104200003FF84FF40070FDF763FE012000900004BA
:10421000019002200324CDE907041421CDE90A10FE
:104220000C900D9009946846FEF76AF90F20CDE9CD
:104230001F04002021902290239003211FA8FEF745
:1042400021F84FF400400E9080031D900EA8FDF75A
:10425000ADFE24B010BD00000548016841F47001B6
:10426000016003494FF0006080390860704700002A
:1042700088ED00E00148FEF7BBBF0000D40100203C
:104280000148FEF7B5BF0000200200202DE9F00133
:104290000268234C234BDFF89080DFF890C0A042E7
:1042A00008D0B0F1804F05D0984203D0404501D0EE
:1042B000604503D122F070024D682A431C4D1D4E0B
:1042C0001D4FA0420ED0B0F1804F0BD0984209D0C4
:1042D000404507D0604505D0A84203D0B04201D088
:1042E000B84203D122F44072CB681A434B6922F0E2
:1042F00080021A4302608A68C2620A688262A0422F
:1043000007D0604505D0A84203D0B04201D0B842E2
:1043100001D10969016301214161BDE8F0017047E4
:10432000002C01400004004000080040003401401F
:1043300000400140004401400048014001F01F01DD
:1043400001238B40D0F820C02CEA03030362036AE8
:1043500002FA01F1194301627047D0F808C02CF449
:104360007F4C42EA0322114341EA0C01816070470D
:10437000826822F0700222F44012114341F00701DA
:1043800081607047036AD0F820C02CF0010CC0F89F
:1043900020C0D0F818C02CF0F00C4CEA021223F028
:1043A0000A03194382610162704730B4D0F820C01B
:1043B0002CF0010CC0F820C0D0F818C0046AA0F19D
:1043C0008045B5F5963528D0B0F1804F25D0A0F1C5
:1043D0008045B5F5806520D0A0F18045B5F5006534
:1043E0001BD0A0F18045B5F59A3516D0A0F18045D7
:1043F000B5F5A03511D04CF0010222F0F0024FF0DB
:10440000F00C0CEA03131A4324F00A0301F00A012A
:1044100019438261016230BC70472CF0030C4CEAF6
:104420000202EAE7036A23F010030362D0F818C01F
:10443000036A2CF4704C4CEA023223F0A00343EAE6
:10444000011182610162704710B4D0F820C02CF0D5
:10445000100CC0F820C08469D0F820C024F4407447
:1044600044EA022222F470424FF4704404EA033317
:104470001A432CF0A0034FF0A00C0CEA01111943D1
:104480008261016210BC704710B4D0F820C02CF4D7
:10449000807CC0F820C0C469D0F820C024F0030498
:1044A000224322F0F002F02404EA03131A432CF40E
:1044B00020634FF4206C0CEA01211943C2610162B0
:1044C00010BC704710B4D0F820C02CF4805CC0F849
:1044D00020C0C469D0F820C024F4407444EA022209
:1044E00022F470424FF4704404EA03331A432CF46C
:1044F00020434FF4204C0CEA01311943C2610162A0
:1045000010BC7047FEE700000FB4084B10B504A9BB
:1045100002AA039800F0DEF8044602A9002000F089
:1045200070FC204610BC5DF814FB0000034E000830
:1045300002E008C8121F08C1002AFAD1704770476C
:10454000002001E001C1121F002AFBD170470000CA
:104550002DE9FF5F82B00021DDE90430020DDDF8B6
:1045600040B0034318D044F61050A2F2FF32424349
:104570001514119801281FD0A5EB0B00401C5FEA11
:10458000000A4FF000064E4FDFF83891B046504613
:1045900015D5CAF1000413E0119801244AA301289B
:1045A00001D16FEA0B010298119AC0E90031C0E90C
:1045B000024206B0BDE8F09FCBF10000DFE7044601
:1045C0000021404A491842EB0450CDE9001012E0A6
:1045D000E00707D032463B4640464946FBF702FF1C
:1045E0008046894632463B4610461946FBF7FAFE9E
:1045F00006460F466410002CEAD1DDE90401DDE92E
:104600000023BAF1000F06DAFBF7ECFE42464B46F8
:10461000FBF7E8FE05E0FBF757FF42464B46FBF78A
:1046200053FF04460E460022284BFCF7EBF803D854
:104630004FF0FF30014607E00022254B204631466F
:10464000FBF729FEFCF7C6F8102409E0002C0ADB72
:104650000A220023FBF7DCFD039B30321A55641E4F
:1046600050EA0102F2D1641C039AC4F1110314440C
:10467000119A012A03D0012208430DD10AE0084310
:1046800004D000204FF0110B119072E7A3EB0B0543
:104690006D1E0DE05B4504DD4FF0000205F10105E4
:1046A00004E003DA4FF00002A5F10105002AECD086
:1046B00002981199C0E90231C0E9004579E700008C
:1046C000000014400000F03F300000000000F04304
:1046D0000000E03F2DE9FF4F95B09B468946064616
:1046E00000250FE2252877D100242746F84A01212A
:1046F000059400E0044316F8013F203B01FA03F063
:104700001042F7D130782A2811D06FF02F0330787B
:10471000A0F13002092A16D8059A44F0020402EBEF
:10472000820203EB42021044761C0590EFE759F831
:10473000042B0592002A03DA504244F400540590F9
:1047400044F00204761C30782E2816D116F8010F9A
:1047500044F004042A280DD06FF02F023078A0F125
:104760003003092B09D807EB870302EB4303C71873
:10477000761CF3E759F8047B761C30786C280FD050
:1047800006DC4C2817D068280DD06A2814D104E024
:10479000742810D07A280FD10DE044F400140AE0F8
:1047A00044F4801401E044F440147278824202D14F
:1047B00004F58014761C761C307866280BD013DC48
:1047C000582877D009DC002875D04528F6D046282F
:1047D000F4D047281AD19DE118E0632835D0642829
:1047E00079D0652812D195E1702873D008DC67284C
:1047F000F1D069286FD06E280DD06F2806D1B5E0B2
:1048000073282CD0752875D0782874D05A461799FB
:1048100090476D1C75E1C4F30250022809D00328AB
:104820000DD0D9F8001004280DD00D6009F104094D
:1048300067E1D9F80010EA17C1E90052F6E7D9F8A4
:1048400000100D80F2E70D70F0E719F8041B8DF8E9
:10485000001000208DF80100EA46012003E059F81D
:1048600004AB4FF0FF3061074FF0000102D40DE0C0
:1048700008F101018846B9420FDA8045F8DB1AF8E1
:1048800008100029F4D108E008F1010188468142AE
:10489000FADB1AF808100029F6D105985B46A0EB60
:1048A000080721463846179A00F094FA284400EB8E
:1048B000080507E04DE029E10DE01AF8010B5A4622
:1048C00017999047B8F10108F7D25B462146384660
:1048D000179A13E142E00A220092C4F302524FF009
:1048E000000A022A08D059F804CB032A4FEAEC71D7
:1048F0000AD00DE029E02AE009F1070121F00702C2
:10490000F2E802C1914609E00FFA8CFC4FEAEC7123
:10491000042A03D14FFA8CFC4FEAEC71002907DA24
:104920000A460021DCF1000C61EB02012D2202E0BD
:10493000220504D52B228DF80420012203E0E20792
:1049400001D02022F7E7904659E00A2102E0102228
:104950000DE010214FF0000A00910BE010224FF003
:10496000000A44F004040827009203E008224FF0F4
:10497000000A0092C4F30252022A05D059F804CB6F
:104980000021032A08D009E009F1070121F00702FC
:10499000F2E802C1914605E01FFA8CFC042A01D11D
:1049A0000CF0FF0C4FF00008220728D5702806D025
:1049B000009B83F0100353EA0A0305D00EE0402267
:1049C0008DF80420012208E05CEA010206D03022C2
:1049D0008DF804208DF8050002229046009B83F09C
:1049E000080353EA0A030AD15CEA010201D1620713
:1049F00005D530228DF804204FF001087F1E58287D
:104A000004D034A003900EA802900DE036A0F9E780
:104A100053466046009AFBF7FBFB84460398825C92
:104A20000298401E029002705CEA0100F0D10298E8
:104A300006A9081A00F1200A600702D524F4803480
:104A400000E00127574502DDA7EB0A0000E0002047
:104A500000EB0A01009005984144401A0590E003DC
:104A600006D45B462146179A059800F0B3F9054431
:104A7000002706E001A85A46C05D179990476D1CB3
:104A80007F1C4745F6DBE0030CD55B462146179AB1
:104A9000059800F09FF9054404E030205A46179924
:104AA00090476D1C0099481E00900029F5DC08E035
:104AB000029802995A460078491C0291179990472A
:104AC0006D1CBAF10001AAF1010AF1DC65E10000F8
:104AD00009280100303132333435363738396162D4
:104AE0006364656600000000303132333435363798
:104AF00038394142434445460000000000F058F96F
:104B00000544761C307800287FF4ECAD19B02846B7
:104B1000BDE8F08F620700D4062709F1070222F0F2
:104B2000070CFCE80223E14603F000485FEA080CAA
:104B300002D00FF2702C0DE05FEA045C02D50FF298
:104B4000682C07E05FEAC47C02D00FF2602C01E021
:104B5000AFF2700C4FF0FF3823F00043CDF850C097
:104B600065280CD006DC452809D046281DD04728EA
:104B70003DD13DE0662818D067287ED138E000217D
:104B8000112F01DB112000E0781CCDE9000106A9FE
:104B90000EA8FFF7DDFCDDE90F010E9A039100215D
:104BA000009207F1010A04914DE04FF00040009798
:104BB000CDE9011006A90EA8FFF7CAFCDDE90F0236
:104BC00003920E9B11990022DDF80CA00093049231
:104BD00011B9791C00EB010AB7EB0A0004D4C0F14B
:104BE000FF3007F1010A0490AAEB0700019044E0AE
:104BF000012F00DA01270021112F01DD112000E033
:104C00003846CDE9000106A90EA8FFF7A1FCDDE9B1
:104C10000F010E9A0391002104910092BA462107D8
:104C20000CD40399514500DA8A46BAF1010F05DD2B
:104C3000009AAAF10101515C302908D0B84202DA89
:104C400010F1040F06DA0121CDE9011015E0AAF1F7
:104C50000101E9E7002805DC049901440491AAEB6D
:104C6000000102E0411C514500DD8A460499401ACA
:104C7000401C01904FF000400290200704D401989E
:104C8000504501DBCDF8048000208DF84F000298DC
:104C90000DF14F07B0F1004F25D02B200E90029858
:104CA0004FF0020800280CDA404202902D200E90AE
:104CB00007E00A210298FBF7B2FC3031029007F8B6
:104CC000011DB8F10001A8F10108F2DC02980028EA
:104CD000EFD1791E0E980870307800F0200040F077
:104CE000450007F8020D12A8C01B00F10708149830
:104CF000007800B1012000EB0A01019801EBE0719E
:104D000005984144401A401E0590E00306D45B46D6
:104D10002146179A059800F05DF80544149800782C
:104D200018B15A46179990476D1CE00324D55B468D
:104D30002146179A059800F04DF805441CE00498A8
:104D4000002807DBDDE90301884203DD0098405CB1
:104D5000179901E0179930205A469047049805F1B9
:104D60000105401C04900198401E019004D12E20A2
:104D70005A46179990476D1CBAF10001AAF1010A31
:104D8000DDDC05E017F8010B5A46179990476D1CBA
:104D9000B8F10001A8F10108F4DC5B462146179A3E
:104DA0000598ABE62D0000002B000000200000005D
:104DB0002DE9F041044600251E461746880404D418
:104DC00005E039462020B0476D1C641EF9D5284601
:104DD000BDE8F0812DE9F041044600251E469046CD
:104DE000C80301D5302700E02027880404D505E05A
:104DF00041463846B0476D1C641EF9D52846BDE8CB
:104E0000F0810A68531C0B6010707047FCF7BAFF02
:104E1000FFF7E9F9FEF7FAFEFEF7E2FEFEF784FF80
:104E2000FEF7D4FFFEF74CFEFEF790FEFEF7E4FB24
:104E30000020FEF739FB0020FEF796FD4FF6FF70CD
:104E4000FEF7A6FD02220E490E48FCF70DFD0421D7
:104E50000D48FEF739F908210B48FEF735F9002116
:104E60000A48FEF731F904210848FEF72DF900BF82
:104E7000FBF7A6FDFEF7DAFBFEF7C4FAF8E7000041
:104E80004000002008010020D40100202002002062
:104E90000000000000000000000000000000000012
:104EA0000000000000000000000000000000000002
:104EB00000000000000000000000000000000000F2
:104EC000000080018001800180018001800180015B
:104ED00080018001800180018001800100000000CC
:104EE00080018001000000000000000000000000C0
:104EF00000000000CC00CC00CC00CC00CC00CC00EA
:104F000000000000000000000000000000000000A1
:104F10000000000000000000000000000000000091
:104F2000000000000000000000000000600C600CA9
:104F3000600C30063006FE1FFE1F300638071803CF
:104F4000FE1FFE1F180318038C018C018C0100004A
:104F500000008000E003F80F9C0E8C1C8C188C0065
:104F60009800F801E007800E801C8C188C189C18A3
:104F7000B80CF00FE003800080000000000000008B
:104F80000000000000000E181B0C110C1106110689
:104F9000110311039B018E01C038C06C6044604452
:104FA000304430441844186C0C38000000000000F5
:104FB0000000E001F0033807180618063003F0017E
:104FC000F000F8009C310E33061E061C061C063F3E
:104FD000FC73F02100000000000000000000000051
:104FE000000000000C000C000C000C000C000C0079
:104FF00000000000000000000000000000000000B1
:1050000000000000000000000000000000000000A0
:105010000000000200038001C000C00060006000CA
:105020003000300030003000300030003000300000
:1050300060006000C000C0008001000300020000AA
:10504000000020006000C000800180010003000318
:105050000006000600060006000600060006000620
:105060000003000380018001C000600020000000F8
:10507000000000000000000000000000C000C000B0
:10508000D806F807E00130033807000000000000F0
:105090000000000000000000000000000000000010
:1050A00000000000000000000000000080018001FE
:1050B000800180018001FC3FFC3F80018001800174
:1050C00080018001000000000000000000000000DE
:1050D00000000000000000000000000000000000D0
:1050E00000000000000000000000000000000000C0
:1050F000000080018001000100018000000000002C
:10510000000000000000000000000000000000009F
:105110000000000000000000E007E00700000000C1
:10512000000000000000000000000000000000007F
:10513000000000000000000000000000000000006F
:10514000000000000000000000000000000000005F
:105150000000C000C00000000000000000000000CF
:105160000000000C000C000600060006000300030F
:1051700000038003800180018001C000C000C000E6
:10518000600060000000000000000000000000005F
:105190000000E003F007380E180C0C180C180C185F
:1051A0000C180C180C180C180C180C18180C380EBD
:1051B000F007E00300000000000000000000000015
:1051C000000000018001C001F00198018801800108
:1051D00080018001800180018001800180018001C7
:1051E00080018001000000000000000000000000BD
:1051F0000000E003F80F180C0C180C180018001829
:10520000000C000600038001C000600030001800A0
:10521000FC1FFC1F00000000000000000000000058
:105220000000E001F807180E0C0C0C0C000C000636
:10523000C003C007000C001800180C180C18180C3C
:10524000F807E0030000000000000000000000007C
:105250000000000C000E000F000F800DC00C600C51
:10526000600C300C180C0C0CFC3FFC3F000C000CCC
:10527000000C000C00000000000000000000000016
:105280000000F80FF80F180018000C00EC03FC07E2
:105290001C0E001C0018001800180C181C0C180E0E
:1052A000F807E0030000000000000000000000001C
:1052B0000000C007F00F381C181818000C00CC03B1
:1052C000EC0F3C0E1C1C0C180C180C18181C380E7B
:1052D000F007E003000000000000000000000000F4
:1052E0000000FC1FFC1F000C0006000600038003EA
:1052F0008001C001C000E00060006000700030006C
:10530000300030000000000000000000000000003D
:105310000000E003F007380E180C180C180C3806C3
:10532000F007F007180C0C180C180C180C18380C97
:10533000F80FE00300000000000000000000000083
:105340000000E003F007380E1C0C0C180C180C18A9
:105350001C1C381EF81BE0190018000C000C1C0E59
:10536000F807F0010000000000000000000000004D
:10537000000000000000000000000000800180012B
:10538000000000000000000000000000000000001D
:10539000800180010000000000000000000000000B
:1053A00000000000000000000000000080018001FB
:1053B00000000000000000000000000000000000ED
:1053C0008001800100010001800000000000000059
:1053D00000000000000000000000000000000000CD
:1053E0000010001C800FE003F8001800F800E00334
:1053F000800F001C001000000000000000000000F2
:10540000000000000000000000000000000000009C
:10541000F81F000000000000F81F0000000000005E
:10542000000000000000000000000000000000007C
:10543000000000000000000000000000000000006C
:1054400008003800F001C007001F0018001FC00747
:10545000F00138000800000000000000000000001B
:105460000000E003F80F180C0C180C180018000CC2
:10547000000600038001C000C000C0000000000062
:10548000C000C0000000000000000000000000009C
:1054900000000000E00718180420C229224A114425
:1054A00009440944094409221113E20C0240042072
:1054B0001818E007000000000000000000000000D5
:1054C000000080038003C006C006C006600C600CAC
:1054D000301830183018F83FF83F1C700C600C6022
:1054E00006C006C000000000000000000000000030
:1054F0000000FC03FC0F0C0C0C180C180C180C0C06
:10550000FC07FC0F0C180C300C300C300C300C1855
:10551000FC1FFC070000000000000000000000006D
:105520000000C007F01F38381C300C700660060001
:105530000600060006000600060006600C701C301F
:10554000F01FE00700000000000000000000000065
:105550000000FE03FE0F060E061806180630063081
:105560000630063006300630063006180618060EDD
:10557000FE0FFE030000000000000000000000001D
:105580000000FC3FFC3F0C000C000C000C000C0069
:10559000FC1FFC1F0C000C000C000C000C000C008D
:1055A000FC3FFC3F00000000000000000000000085
:1055B0000000F83FF83F1800180018001800180005
:1055C000F81FF81F1800180018001800180018001D
:1055D000180018000000000000000000000000009B
:1055E0000000E00FF83F3C780E6006E007C00300C3
:1055F000030003FE03FE03C007C006C00EC03CF05C
:10560000F83FE00F00000000000000000000000074
:1056100000000C300C300C300C300C300C300C30E6
:10562000FC3FFC3F0C300C300C300C300C300C309C
:105630000C300C30000000000000000000000000F2
:1056400000008001800180018001800180018001D3
:105650008001800180018001800180018001800142
:105660008001800100000000000000000000000038
:105670000000000600060006000600060006000600
:105680000006000600060006000618061806380781
:10569000F003E00100000000000000000000000036
:1056A000000006300618060C060606038601C60032
:1056B00066007600DE008E0106030606060C06185C
:1056C000063006600000000000000000000000003E
:1056D0000000180018001800180018001800180022
:1056E00018001800180018001800180018001800FA
:1056F000F81FF81F0000000000000000000000007C
:1057000000000EE01EF01EF01EF036D836D836D857
:1057100036D866CC66CC66CCC6C6C6C6C6C6C6C6B5
:1057200086C386C3000000000000000000000000E7
:1057300000000C301C303C303C306C306C30CC30D5
:10574000CC308C310C330C330C360C360C3C0C3C0E
:105750000C380C30000000000000000000000000C9
:105760000000E007F81F1C380E70066003C003C07D
:1057700003C003C003C003C003C006600E701C3822
:10578000F81FE0070000000000000000000000001B
:105790000000FC0FFC1F0C380C300C300C300C30AF
:1057A0000C18FC1FFC070C000C000C000C000C007B
:1057B0000C000C00000000000000000000000000D1
:1057C0000000E007F81F1C380E70066003E003C0FD
:1057D00003C003C003C003C007E006630E3F1C3CC8
:1057E000F83FE0F700C000000000000000000000EB
:1057F0000000FE0FFE1F0638063006300630063861
:10580000FE1FFE0706030606060C061806180630DD
:1058100006300660000000000000000000000000EC
:105820000000E003F80F1C0C0C180C180C001C00F6
:10583000F803E00F001E0038063006300E301C1C46
:10584000F80FE0070000000000000000000000006A
:105850000000FE7FFE7F80018001800180018001C9
:105860008001800180018001800180018001800130
:105870008001800100000000000000000000000026
:1058800000000C300C300C300C300C300C300C3074
:105890000C300C300C300C300C300C300C30181834
:1058A000F81FE007000000000000000000000000FA
:1058B000000003600630063006300C180C180C1877
:1058C000180C180C380E30063006700760036003A1
:1058D000C001C00100000000000000000000000046
:1058E00000000360C361C361C3616633663366331E
:1058F0006633663366336C1B6C1B6C1B2C1A3C1EA8
:10590000380E380E0000000000000000000000000B
:1059100000000FE00C7018303018700C600EC007DB
:1059200080038003C003E006700C301C18180C3094
:105930000E6007E000000000000000000000000012
:10594000000003C006600C301C383818300C6006AC
:10595000E007C00380018001800180018001800197
:105960008001800100000000000000000000000035
:105970000000FC7FFC7F006000300018000C000677
:1059800000038001C0006000300018000C00060019
:10599000FE7FFE7F0000000000000000000000000D
:1059A0000000E003E0036000600060006000600051
:1059B00060006000600060006000600060006000E7
:1059C00060006000600060006000E003E003000031
:1059D000000030003000600060006000C000C000C7
:1059E000C000C001800180018001000300030003AA
:1059F000000600060000000000000000000000009B
:105A00000000E003E00300030003000300030003C1
:105A1000000300030003000300030003000300036E
:105A200000030003000300030003E003E0030000A1
:105A300000000000C001C001600360036003300685
:105A40003006180C180C00000000000000000000D8
:105A50000000000000000000000000000000000046
:105A60000000000000000000000000000000000036
:105A70000000000000000000000000000000000026
:105A80000000FFFFFFFF000000000000000000001A
:105A900000000C000C000C000C000C000C000000BE
:105AA00000000000000000000000000000000000F6
:105AB00000000000000000000000000000000000E6
:105AC000000000000000000000000000F003F807E4
:105AD0001C0C0C0C000FF00FF80C0C0C0C0C1C0F19
