:020000040800F2
:1000000030050020ED010008EF2200087F180008ED
:10001000ED22000885020008132C000800000000F3
:10002000000000000000000000000000652700083C
:100030008702000800000000F1220008672700087E
:10004000070200080702000807020008070200086C
:10005000070200080702000807020008070200085C
:10006000070200080702000807020008070200084C
:10007000070200080702000807020008070200083C
:10008000070200080000000007020008070200083D
:10009000070200080702000807020008070200081C
:1000A000070200080702000807020008070200080C
:1000B00007020008070200080702000807020008FC
:1000C00007020008070200080702000807020008EC
:1000D00007020008070200080702000807020008DC
:1000E00007020008070200080702000807020008CC
:1000F00007020008070200080702000800000000CD
:1001000000000000070200080000000007020008CD
:1001100007020008000000000702000807020008AC
:10012000070200080702000807020008070200088B
:10013000070200080000000000000000070200089D
:10014000070200080702000800000000000000008D
:10015000000000000000000000000000000000009F
:10016000000000000000000000000000070200087E
:10017000070200080000000000000000000000006E
:10018000000000000702000800000000000000005E
:10019000000000000000000000000000000000005F
:1001A000000000000000000007020008070200082D
:1001B000070200080702000807020008000000000C
:1001C000000000000702000800000000000000001E
:1001D0000702000807020008DFF80CD000F040F822
:1001E00000480047F12F00083005002006488047EE
:1001F00006480047FEE7FEE7FEE7FEE7FEE7FEE70C
:10020000FEE7FEE7FEE7FEE7E1270008D901000868
:10021000D2B201E000F8012B491EFBD27047002248
:10022000F6E710B513460A4604461946FFF7F0FFF5
:10023000204610BD30B50B46014600202022012487
:1002400009E021FA02F59D4205D303FA02F5491BA4
:1002500004FA02F52844151EA2F10102F1DC30BDBA
:10026000064C074D06E0E06840F0010394E8070003
:1002700098471034AC42F6D3FFF7B2FFF0430008C2
:1002800010440008FEE77047002240F6B83306E04D
:100290000021491C89B29942FBD3521C92B282427E
:1002A000F6D370477047000070B5044600F03EF981
:1002B0000546B4F1FF3F02D004484068044400F012
:1002C00035F9401BA042FAD370BD00003C0000206D
:1002D0002DE9F84F00220B68002B7CD00324874EB9
:1002E000874F0F250123D1F800C003FA02F80CEA6A
:1002F0000803002B70D0D1F804C0BCF1010F08D066
:10030000BCF1020F05D0BCF1110F02D0BCF1120FED
:100310001DD1D0F808904FEA420C04FA0CFA29EAF1
:100320000A09D1F80CA00AFA0CFC4CEA090CC0F836
:1003300008C0D0F804C02CEA080C91F80480C8F377
:10034000001808FA02F848EA0C0CC0F804C0D0F80B
:100350000C804FEA420C04FA0CFA28EA0A08D1F899
:10036000089009FA0CF949EA0808C0F80C80D1F89D
:100370000480B8F1020F02D0B8F1120F15D14FEA84
:10038000D20800EB8808D8F820B04FEA42794FEA4B
:10039000D96905FA09FE2BEA0E0BD1F810E00EFA26
:1003A00009F949EA0B09C8F82090D0F8008028EA3A
:1003B0000A0891F8049009F0030909FA0CFC4CEAC8
:1003C000080CC0F800C0D1F804C01CF0805F7CD0DD
:1003D000D6F860C001E07DE077E04CF0010CC6F893
:1003E00060C0D6F860C00CF0010CCDF800C022F05F
:1003F000030C0CF1804909F58039D9F808C04FEA9F
:1004000082784FEA187805FA08FA2CEA0A0AB0F15D
:10041000904F64D0A0F1904CBCF5806C5CD0A0F102
:10042000904CBCF5006C5DD0A0F1904CBCF5406CDC
:100430005BD0A0F1904CBCF5805C59D0A0F1904C01
:10044000BCF5A05C57D04FF0060C0CFA08FC4CEA47
:100450000A0CC9F808C0D7F800C02CEA030CD1F880
:10046000048018F4803F01D04CEA030CC7F800C0A8
:10047000DFF89080D8F800C02CEA030CD1F8049083
:1004800019F4003F01D04CEA030CC8F800C0DFF8B3
:100490007880D8F800C02CEA030CD1F8049019F445
:1004A000801F01D04CEA030CC8F800C0DFF85C8064
:1004B000D8F800C02CEA030CD1F8049019F4001FFE
:1004C00001D04CEA030CC8F800C0521C0B68D340A2
:1004D0007FF408AFBDE8F88F4FF0010CB5E74FF09F
:1004E000000CB2E74FF0020CAFE74FF0030CACE7A3
:1004F0004FF0040CA9E74FF0050CA6E700100240EE
:100500000004014004040140080401400C040140BF
:100510000069084201D00120704700207047002A7E
:1005200001D0816170478162704700000148806896
:10053000704700003C000020024881684268114476
:10054000816070473C00002010B50024032000F0BB
:1005500081F8002000F008F808B1012401E000F063
:1005600029F8204610BD000070B5054600240F4E46
:100570007068002817D04FF47A71B1FBF0F00C4985
:100580000968B1FBF0F000F0B7FF08B101240BE0FF
:10059000102D06D200222946501E00F027F83560A3
:1005A00002E0012400E00124204670BD3C00002050
:1005B000380000200B4808B5016E41F001010166CA
:1005C000016E01F001010091816D41F08051816562
:1005D000806D00F0805000900348816841F48041B4
:1005E000816008BD001002400070004010B4184B3C
:1005F0001B68C3F30223C3F1070CBCF1040F01D93C
:100600004FF0040C1C1D072C01D2002300E0DB1E60
:10061000012404FA0CFCACF1010C0CEA0101994034
:1006200004FA03F35B1E1A401143002806DB00F1B5
:10063000E020090180F8001410BC704700F00F00A2
:1006400000F1E020090180F8141D10BC7047000083
:100650000CED00E000F00700064A11684FF6FF03BA
:10066000194041EA002040F0FD7040F080601060C9
:10067000704700000CED00E033493222334B09682B
:100680004A43334900280AD0B0F5007F31D00868CA
:1006900020F4C06040F48060086000207047086863
:1006A00000F4C060B0F5806F06D0D1F8800020F46F
:1006B0008070C1F88000F0E7D1F8800020F48070ED
:1006C000C1F88000086820F4C06040F40070086041
:1006D000B2FBF3F0401C00E0401E4A6912F4806F48
:1006E00001D00028F8D1486910F4806FD5D00320DC
:1006F0007047086800F4C060B0F5806F06D0D1F88C
:10070000800040F48070C1F88000C6E7D1F8800016
:1007100040F48070C1F88000086820F4C06040F4A4
:1007200000700860B2FBF3F0401C00E0401E4A6914
:1007300012F4806F01D00028F8D1486910F4806F5E
:10074000ABD00320704700003800002040420F006B
:10075000007000402DE9F84F04460025002720686E
:10076000B04E10F4002F76D0A846B06D10F0805F28
:1007700009D1B06D40F08050B065B06D00F0805090
:1007800000904FF00108DFF8A0A2DAF8000040F472
:100790008070CAF80000FFF7C9FE8146DAF8000051
:1007A00010F4807F0CD1FFF7C1FEA0EB09000228F6
:1007B00001D9032504E0DAF8000010F4807FF2D0BC
:1007C00025B12F46B8F1010F41D044E0D6F8900092
:1007D00000F44070A0B1216C814211D0D6F8900095
:1007E00020F44070D6F8901041F48031C6F8901093
:1007F000D6F8901021F48031C6F89010C6F8900019
:1008000010F0010F16D0FFF791FE8146D6F8900048
:1008100010F0020F0ED141F2883AFFF787FEA0EBED
:100820000900504501D9032504E0D6F8900010F0E6
:10083000020FF2D00DB12F46C4E7D6F89000216C1C
:1008400020F440700843C6F89000BBE703E0B06DA9
:1008500020F08050B065207810F0010F07D0D6F856
:100860008800616820F003000843C6F888002078FB
:1008700010F0020F07D0D6F88800A16820F00C0015
:100880000843C6F88800207810F0040F07D0D6F887
:100890008800E16820F030000843C6F8880020781E
:1008A00010F0080F07D0D6F88800216920F0C000AA
:1008B0000843C6F88800207810F0200F07D0D6F83B
:1008C0008800616920F440600843C6F888002078F9
:1008D00010F0400F07D0D6F88800A16920F44050EE
:1008E0000843C6F88800207810F0800F07D0D6F8AB
:1008F0008800E16920F440400843C6F88800208859
:1009000010F4807F07D0D6F88800216A20F44030A8
:100910000843C6F88800208810F4007F07D0D6F876
:100920008800616A20F440200843C6F888002088C7
:1009300010F4806F0FD0D6F88800A16A20F4401020
:100940000843C6F88800A06AB0F5801F03D1F0689C
:1009500040F48010F060208810F4006F0FD0D6F8BB
:100960008800E16A20F440000843C6F88800E06A85
:10097000B0F5800F03D1F06840F48010F06020885B
:1009800010F4805F0FD0D6F88800216B20F0407003
:100990000843C6F88800206BB0F1807F03D1F0686F
:1009A00040F48010F060208810F4005F0FD0D6F87B
:1009B0008800616B20F040600843C6F88800606BD7
:1009C000B0F1006F03D1F06840F48010F06020882F
:1009D00010F4804F0FD0D6F88800A16B20F0406053
:1009E0000843C6F88800A06BB0F1006F03D1F0682F
:1009F00040F48010F060208810F4004F0FD0D6F83B
:100A00008800E16B20F040500843C6F88800E06B96
:100A1000B0F1805F03D1F06840F48030F060384678
:100A2000BDE8F88F00100240007000402DE9F0474B
:100A300004460D460027002C17D0DFF8DC91D9F8CA
:100A4000000000F00F00A84212D2D9F8000020F0F8
:100A50000F002843C9F80000D9F8000000F00F008B
:100A6000A84205D00120BDE8F0870120BDE8F0874D
:100A700020786A4E10F0010F41F2883A5ED060682B
:100A8000DFF89C81032806D0022822D0306810F4B9
:100A9000806F49D021E0306810F0007F0ED001F067
:100AA00029FC404524D9B06810F0F00F09D0207817
:100AB00010F0020F1CD0A06818B119E00120BDE8A9
:100AC000F087B06820F0F00040F08000B060802730
:100AD0000EE0306810F4003F23D000F0A9F8404544
:100AE00006D9B06820F0F00040F08000B0608027A8
:100AF000B068616820F003000843B060FFF716FD9E
:100B00008046B068616800F00C00B0EB810F15D032
:100B1000FFF70CFDA0EB0800504508D90320BDE805
:100B2000F0870120BDE8F0870120BDE8F087B068BC
:100B3000616800F00C00B0EB810FE9D1206810F083
:100B4000020F17D010F0040F03D0B06840F4E0603B
:100B5000B060207810F0080F05D0B06820F4605025
:100B600040F4E060B060B068A16820F0F000084395
:100B7000B06005E0802F03D1B06820F0F000B060D5
:100B8000D9F8000000F00F00A8421DD9D9F80000E4
:100B900020F00F002843C9F80000FFF7C7FC074604
:100BA000D9F8000000F00F00A8420DD0FFF7BEFCFE
:100BB000C01B504502D90320BDE8F087D9F80000DA
:100BC00000F00F00A842F1D1207810F0040F05D0FA
:100BD000B068E16820F4E0600843B060207810F06D
:100BE000080F06D0B068216920F4605040EAC100C7
:100BF000B06000F01DF8B1680A4AC1F30311515CFE
:100C000001F01F01C8400849086008480068BDE8B5
:100C1000F047FFF7A9BC000000200240001002408E
:100C200000B4C404E0430008380000203C00002069
:100C30001A4A9068DFF868C000F00C0004280CD055
:100C4000906800F00C011748082905D091680C2322
:100C500033EA010103D00020704760467047D16835
:100C600001F00303D168C1F30311491C032B0DD01C
:100C7000BCFBF1F0D168C1F306214843D168C1F350
:100C80004161491C4900B0FBF1F07047B0FBF1F045
:100C9000D168C1F306214843F0E70000001002408C
:100CA0000024F40000366E012DE9F8430446002CC0
:100CB0000ED02078FD4F10F0010F60D0B8683D468F
:100CC00000F00C00E96801F003010C2803D004E0F7
:100CD0000120BDE8F88303291AD0082818D06068DD
:100CE000B0F5803F1DD0B0F5A02F1FD0286820F4AC
:100CF00080302860286820F480202860606858B31D
:100D0000FFF714FC0646286810F4003F17D036E0C1
:100D1000286810F4003F32D0606880BB0120BDE835
:100D2000F883286840F480302860E7E7286840F4BA
:100D300080202860286840F480302860DEE7FFF7D4
:100D4000F5FB801B642802D90320BDE8F8832868DE
:100D500010F4003FF3D012E0FFF7E8FB06462868E6
:100D600010F4003F0BD0FFF7E1FB801B642802D991
:100D70000320BDE8F883286810F4003FF3D1207801
:100D800010F0020F5ED0B8683D4600F00C00E96834
:100D900001F003010C2801D102290FD004280DD045
:100DA000E068B8B3286840F480702860FFF7BEFBA5
:100DB0000646286810F4806F18D023E0286810F4E5
:100DC000806F01D0E06870B16868217C20F0FE403F
:100DD00040EA01606860B6480068FFF7C5FB88B369
:100DE0000120BDE8F8830120BDE8F883FFF79EFBF2
:100DF000801B022802D90320BDE8F883286810F47C
:100E0000806FF3D06868217C20F0FE4040EA0160EA
:100E1000686017E0FFE7286820F480702860FFF71B
:100E200085FB0646286810F4806F0BD0FFF77EFB29
:100E3000801B022802D90320BDE8F883286810F43B
:100E4000806FF3D1207810F0080F3AD06069E0B1DC
:100E5000D7F894003D4640F00100C7F89400FFF732
:100E600065FB0646D5F8940010F0020F29D1FFF774
:100E70005DFB801B022802D90320BDE8F883D5F86A
:100E8000940010F0020FF2D01BE0D7F894003D461A
:100E900020F00100C7F89400FFF748FB0646D5F89C
:100EA000940010F0020F0CD0FFF740FB801B0228CB
:100EB00002D90320BDE8F883D5F8940010F0020FA2
:100EC000F2D1207810F0040F7BD04FF00008B86DFD
:100ED00010F0805F09D1B86D40F08050B865B86DF2
:100EE00000F0805000904FF00108724D286810F417
:100EF000807F16D1286840F480702860FFF716FBC9
:100F00000646286810F4807F0BD1FFF70FFB801B8B
:100F1000022802D90320BDE8F883286810F4807FF6
:100F2000F3D0A06801281AD005281FD0D7F8900068
:100F300020F00100C7F89000D7F8900020F00400DE
:100F4000C7F89000A06841F2883650B3FFF7EEFA78
:100F50000546D7F8900010F0020F14D037E0D7F80C
:100F6000900040F00100C7F89000EBE7D7F8900040
:100F700040F00400C7F89000D7F8900040F001005E
:100F8000C7F89000DEE7FFF7D1FA401BB04202D964
:100F90000320BDE8F883D7F8900010F0020FF2D0DC
:100FA00015E0FFF7C3FA0546D7F8900010F0020FDE
:100FB0000DD0FFF7BBFA401BB04203D90320BDE8B8
:100FC000F8830BE0D7F8900010F0020FF1D1B8F1E0
:100FD000010F03D1B86D20F08050B865207810F073
:100FE000200F3AD0A069E0B1D7F898003D4640F014
:100FF0000100C7F89800FFF799FA0646D5F898005F
:1010000010F0020F29D1FFF791FA801B022802D9B4
:101010000320BDE8F883D5F8980010F0020FF2D055
:101020001BE0D7F898003D4620F00100C7F8980073
:10103000FFF77CFA0646D5F8980010F0020F0CD0A6
:10104000FFF774FA801B022802D90320BDE8F88359
:10105000D5F8980010F0020FF2D1E06960B3B968DA
:101060003D460C2232EA01014FF0FF3878D00228C9
:1010700023D0286820F080702860E86820F0030002
:10108000E860E86820F4881020F08070E860FFF7DE
:101090004DFA0446286810F0007F0DD0FFF746FA9D
:1010A000001B022857D90320BDE8F8830010024036
:1010B0003C0000200070004083E0286820F0807031
:1010C0002860FFF733FA0646286810F0007F0AD040
:1010D000FFF72CFA801B022801D90320E4E72868D7
:1010E00010F0007FF4D1616A206A491E40EA0110C5
:1010F000A16A228E090208EB520241EA42510843DA
:1011000094F8341008EB510140EA416094F82C1037
:1011100040EAC160E9682C4A11400843E860286849
:1011200040F080702860E86840F08070E860FFF769
:10113000FDF90446286810F0007F42D1FFF7F6F968
:10114000001B022801D90320AEE7286810F0007FB9
:10115000F4D036E004E0286810F0007F9ED130E043
:1011600001282CD0E868226A00F00301914224D1C2
:10117000626A00F0F001521EB1EB021F1DD1A26A9B
:1011800000F4FE41B1EB022F17D194F82C1000F0BF
:101190007842B2EBC16F10D1228E00F4C00108EB8F
:1011A0005202B1EB425F08D194F8341000F0C060F5
:1011B00008EB5101B0EB416F03D0012074E701202F
:1011C00072E7002070E700000C809F0100B50B461D
:1011D0001048006820F0C00121F07F41080CD87051
:1011E000C1F3042C83F801C001F03F0C83F802C066
:1011F000C1F342311970002A0AD101F02DFAD870DA
:10120000587801F029FA5870987801F025FA98700A
:10121000002000BD0428004000B50B4613480068BC
:10122000586013480068C0F30E00986011480068C9
:1012300011490140C1F305401870C1F3062C83F831
:1012400001C001F07F0C83F802C0890DD970002A1B
:101250000AD101F001FA1870587801F0FDF95870C0
:10126000987801F0F9F99870002000BD0828004036
:1012700010280040002800407F7F7F0070B50446A2
:101280000120002C3ED094F8250028B9002084F8D5
:101290002400204600F03EF8022084F825001A4E73
:1012A000CA20306053203060204601F0EBF910BBBB
:1012B000164D286820F0400020F08E6028602868D5
:1012C0006168A269084321691143084328602189A4
:1012D000E06840EA01400E490860204601F0FEF94E
:1012E00048B9E269216A2B681143626923F06043BF
:1012F0001A4311432960FF213160002802D10121E6
:1013000084F8251070BD00002428004018280040F3
:101310001028004000680549884205D1044850F86B
:10132000901F41F400410160704700000028004018
:10133000001002402DE9F04104460B4694F82400C9
:10134000012807D0012684F82460022084F82500B3
:101350001AB10AE00220BDE8F081587810F0100FB1
:1013600003D000F0EF000A305870A2B19878D97815
:101370001A7840EA01405978090241EA423140EACC
:101380000105174FCA20386053203860204601F00D
:1013900079F988B119E0D87801F067F90204587832
:1013A00001F063F942EA0022987801F05EF91978B9
:1013B000104340EA4135E4E70A4925F0C00020F037
:1013C0007F400860204601F089F9FF21396008B9A3
:1013D00084F82560002184F82410BDE8F081000025
:1013E00024280040042800402DE9F04705460C461B
:1013F000914695F82400012811D04FF0010885F896
:101400002480022085F82500284FCA203860532008
:101410003860284601F036F9002618B13DE0022078
:10142000BDE8F087224BB9F1000F04D0186810F026
:10143000400F17D115E0186810F0400F00D1E6708A
:10144000207801F012F90204607801F00EF942EA06
:101450000022A07801F009F9E178104340EA8150B8
:101460000AE0E670A0782178E27840EA01406178ED
:10147000090241EA825108430E4908400E490860BA
:10148000186820F4802018602169E0680843196812
:1014900008431860284601F021F9FF21396008B996
:1014A00085F8258085F82460BDE8F0872428004071
:1014B000182800407F7F7F000028004070B50D4C49
:1014C000206860F0A0002060FFF730F80546206833
:1014D00010F0200F0BD1FFF729F8401BB0F57A7FF1
:1014E00001D9032070BD206810F0200FF3D0002038
:1014F00070BD00000C280040401EB0F1807F01D379
:10150000012070474FF0E0214861044AF02010703C
:1015100000208861072008610020704723ED00E06B
:1015200070B490F83C20012A4CD0012280F83C2075
:10153000CA684FF0000C8B6822F440721A434B6863
:1015400022F480621A430B6822F400621A430B698A
:1015500022F480521A434B6922F400521A430B6B57
:1015600022F480421A430B8B22F4702242EA034297
:10157000164C0368164DA34201D0AB4203D1CE698D
:1015800022F080523243A34201D0AB4214D10E8DDF
:1015900022F4700242EA06520E6A22F0807232434E
:1015A0004E6A22F000723243A34201D0AB4203D113
:1015B000C96A22F000520A435A6480F83CC070BCE9
:1015C0000020704770BC022070470000002C0140D2
:1015D0000034014010B50446002C03D094F83D00BF
:1015E00010B107E0012010BD002084F83C00204627
:1015F00000F022F8022084F83D00211D206801F04F
:10160000FDF8012084F8480084F83E0084F83F008B
:1016100084F8400084F8410084F8420084F84300D4
:1016200084F8440084F8450084F8460084F84700B4
:1016300084F83D00002010BD08B50C4A01680C4834
:10164000914207D1016E41F400310166006E00F451
:10165000003009E0074A914207D1016E41F4802130
:101660000166006E00F48020009008BD0044014037
:10167000001002400048014070B586B004461421B5
:101680006846FEF7CCFD154E256800221449022459
:1016900001234FF09040B54209D1CD6C45F00105D2
:1016A000CD64C96C01F00101059140210BE00D4EA4
:1016B000B54210D1CD6C45F00105CD64C96C01F087
:1016C0000101059180210091CDE901426946CDE9F2
:1016D0000323FEF7FDFD06B070BD0000004401408D
:1016E000001002400048014070B504460D4694F8D1
:1016F0003C0001280BD0012084F83C000C2A4AD081
:1017000007DC5AB1042A1DD0082A43D12FE0022059
:1017100070BD102A54D0142A7AD165E02946206879
:1017200001F0C4F82068816941F0080181612068F6
:10173000816921F004018161206881692A6911436E
:10174000816165E02946206801F004F9206881691B
:1017500041F4006181612068816921F480618161C7
:10176000206881692A6941EA0221816150E02946A5
:10177000206801F03DF92068C16941F00801C161AC
:101780002068C16921F00401C1612068C1692A692A
:101790001143C1613CE02946206801F077F92068D7
:1017A000C16941F40061C1612068C16921F48061AF
:1017B000C1612068C1692A6941EA0221C16127E04B
:1017C0002946206801F0B0F92068016D41F0080158
:1017D00001652068016D21F0040101652068016D3B
:1017E0002A691143016513E02946206801F0D6F902
:1017F0002068016D41F4006101652068016D21F4EC
:10180000806101652068016D2A6941EA0221016554
:10181000002084F83C0070BD10B50446002C03D0B5
:1018200094F83D0010B107E0012010BD002084F8BD
:101830003C00204600F022F8022084F83D00211DE3
:10184000206800F0DBFF012084F8480084F83E00A7
:1018500084F83F0084F8400084F8410084F8420096
:1018600084F8430084F8440084F8450084F8460076
:1018700084F8470084F83D00002010BD7047FEE763
:1018800070B500F059F82A4D01212846FEF740FEB8
:10189000012823D0002402212846FEF739FE012822
:1018A00000D00020044004212846FEF731FE012824
:1018B00000D00020044001214FF09040FEF728FEA8
:1018C000012800D00020044230D01A48002200F144
:1018D0000C01837853B10B7813B107E00124DAE7E8
:1018E00001230B7043785B1C43708270C3783BB15B
:1018F0004B782BB902234B7043785B1C4370C2704A
:1019000003793BB18B782BB903238B7043785B1C35
:10191000437002714379002B08D0CB78002B05D19E
:101920000423CB704178491C4170427170BD0000A6
:10193000000400480800002070B5274E0121304601
:10194000FEF7E6FD254C264D60B92078012809D028
:1019500028682169401A50283CD328682061A07863
:10196000401CA07002213046FEF7D2FD60B92078FD
:10197000022809D028686169401A50282AD32868AB
:101980006061E078401CE07004213046FEF7C0FD45
:1019900060B92078032809D02868A169401A502826
:1019A00018D32868A0612079401C207101214FF0D4
:1019B0009040FEF7ADFD00280CD12078042809D016
:1019C0002868E169401A502804D32868E0616079EA
:1019D000401C607170BD0000000400480800002039
:1019E0004400002008B511A1164801F013F915496B
:1019F000302000F0D9F8144814A10278114801F001
:101A000009F91049782000F0CFF80E481438817891
:101A100000914378027813A1143001F0FBF8BDE87F
:101A200008400849C02000F0BFB800002020202056
:101A3000204E6F7720506C6163652020202020208D
:101A4000200000005C000020080000202020202052
:101A5000202020202025642020202020202020203D
:101A600020200000202020202020253032643A252C
:101A70003032643A253032642020202000000000FB
:101A800000B585B014216846FEF7C9FB4FF6FF701C
:101A9000009000200321CDE902010190694602482F
:101AA000FEF716FC05B000BD0008004800B585B083
:101AB00014216846FEF7B3FB4FF6FF70009001203B
:101AC0000190032003900020029069460248FEF72F
:101AD000FFFB05B000BD00000008004870B5002401
:101AE00006462146204600F003F900F045F94FF480
:101AF0009635304600F010F9641CAC42F9D370BD45
:101B000030B587B014216846FEF789FB1E48C16CCA
:101B100041F00401C164C16C01F004010591C16C84
:101B200041F00101C164C16C01F001010591C16C7A
:101B300041F00201C164C06C012500F00200059073
:101B40004FF44870CDE900050024039469460294DF
:101B50000E48FEF7BDFB280203940090CDE9015426
:101B60004FF0904469462046FEF7B2FBFFF79EFF18
:101B7000A06940F48070A06104481830016841F405
:101B80000871016007B030BD001002400004004839
:101B9000203AD2B2034B02EB420203EB021200F0F6
:101BA00019B8000010320008F0B50E4607460025AF
:101BB00040F23F1407E021463846FFF7E9FF103CAA
:101BC0006D1CA4B2761C3278002A01D0142DF2D3F9
:101BD000F0BD00002DE9F04791468A4600260446F4
:101BE00000F086F8DFF84080012700BF00F0C4F85D
:101BF0005FF0000539F8160007FA05F10842404683
:101C000001D1408800E0008800F086F86D1C102D9E
:101C1000F0D3641CE4B25146204600F069F8761C0B
:101C2000182EE3D3BDE8F0870000002010B5FFF7C1
:101C300067FF002000F014F8084CA080A088A0F5F1
:101C40000241303906D000F006FC002000F008F810
:101C5000A08010BD00F076FBF7E700000000002038
:101C600070B51D490A6842F400720A600A6842F4BD
:101C700080720A60184C103C226842F020022260F8
:101C8000164A1060086840F02000086000BF00BFDE
:101C900000BF206840F020002060206840F4807081
:101CA0002060FFF7EDFE4FF09041886A40F48070AD
:101CB000886200BF00BF00BF0848001F006885B2EF
:101CC000886940F480708861FFF7F0FE206840F476
:101CD00000702060284670BD2804004814080048A1
:101CE00001B5BDF800000149488008BD0000002092
:101CF00010B50C460146202000F070F82146BDE8E2
:101D00001040212000F06AB801B5BDF8000001497B
:101D1000088008BD0000002030B5154B1968154A31
:101D20008CB2116841F400711160124910390D68CC
:101D300045F480750D600D6845F020050D60186054
:101D4000106840F02000106000BF00BF00BF0868AE
:101D500040F020000860086840F48070086000BF10
:101D600000BF00BF086840F4007008601C6030BD10
:101D70001408004828040048164A10B5106816498F
:101D800083B2086840F400700860086840F480700E
:101D9000086011481038046844F0200404602224CC
:101DA00014600C6844F020040C6000BF00BF00BF4A
:101DB000016841F020010160016841F48071016017
:101DC00000BF00BF00BF016841F4007101601360F3
:101DD00010BD0000140800482804004870B51A4CD3
:101DE00022681A4B95B21A6842F400721A601A6897
:101DF00042F480721A60154A103A166846F02006BE
:101E000016602060186840F02000186000BF00BF16
:101E100000BF106840F020001060106840F480702F
:101E200010602160186840F02000186000BF00BFFB
:101E300000BF106840F020001060106840F480700F
:101E40001060256070BD0000140800482804004898
:101E500010B501224FF6FF710748FEF760FB074CF3
:101E6000012204212046FEF75AFB20460022BDE84D
:101E700010400421FEF753BB00080048000C004846
:101E800010B5010201220848FEF749FB074C012268
:101E900004212046FEF743FB20460022BDE8104007
:101EA0000421FEF73CBB000000080048000C00487D
:101EB00010B5010200220848FEF731FB074C012251
:101EC00004212046FEF72BFB20460022BDE81040EF
:101ED0000421FEF724BB000000080048000C004865
:101EE00010B50F20FFF7E4FF0D4C01212078401EB4
:101EF0008140C8B2FFF7C4FFA079012801D100F0EA
:101F000011F8A079022801D100F00CF8A07900287E
:101F100004D1BDE81040F020FFF7B2BF10BD0000B3
:101F20000800002010B52A4C012807D002284DD106
:101F300000F050F82078012825D02AE000F04AF877
:101F40002078012805D1F020FFF79AFF1020FFF735
:101F5000AFFF2078022805D11020FFF791FF202045
:101F6000FFF7A6FF2078032805D12020FFF788FF80
:101F70004020FFF79DFF2078042827D14020FFF75D
:101F80007FFF80201EE0F020FFF77AFF8020FFF720
:101F90008FFF2078022805D18020FFF771FF4020B5
:101FA000FFF786FF2078032805D14020FFF768FF60
:101FB0002020FFF77DFF2078042807D12020FFF79D
:101FC0005FFF1020BDE81040FFF772BF10BD00009A
:101FD0003000002008490A6808484368D21A642A79
:101FE00009D3096841600178491CC9B2017004290C
:101FF00001D9012101707047440000203000002009
:102000002DE9F04F87B014216846FEF708F93F48E4
:10201000C16C41F00401C164C16C01F0040105917F
:10202000C16C41F02001C164C16C01F02001059137
:10203000C16C41F00101C164C16C01F00101059165
:10204000C16C41F00201C164C16C01F00201059153
:10205000C16C41F00801C164C06CDFF8B48000F0CD
:1020600008004FF6FF740590002221464046FEF717
:1020700056FA4FF498764FF0904900223146484680
:10208000FEF74DFADFF88CA0002204215046FEF73F
:1020900046FADFF884B04FF44877002239465846B4
:1020A000FEF73DFA0125CDE900450024029469467A
:1020B00040460394FEF70CF9CDE9005469464846C2
:1020C0000295FEF705F90096CDE9015469464846A8
:1020D0000394FEF7FDF807208DE831006946584665
:1020E000FEF7F6F804200090CDE901546946504609
:1020F0000394FEF7EDF80097CDE901546946584680
:102100000394FEF7E5F807B0BDE8F08F0010024039
:1021100000080048000C00480004004810B586B0D4
:1021200014216846FEF77BF81F4800241D490594DA
:10213000C0E900141F21816040F2E731C0E90314B7
:1021400044610462FFF79AF808B1FEF7ABF8122079
:102150008DF8000050208DF8010055208DF8020008
:1021600001940394012269460F480494FFF73CF957
:1021700008B1FEF797F801208DF8140003208DF8C0
:10218000150031208DF8160023208DF8170001224C
:1021900005A90548FFF7CEF8002801D0FEF782F820
:1021A00006B010BD002800407000002010B594B0AB
:1021B0001C210DA8FEF733F834216846FEF72FF8EE
:1021C00021482049002401604F21C0E9011440F258
:1021D000E731C0E903148021C0E90541FFF7FAF9AE
:1021E00008B1FEF75FF81848FFF716FB08B1FEF7D5
:1021F00059F860200D904FF44870CDE90E0410940A
:102200001194129400220DA90F481394FFF76CFA51
:1022100008B1FEF747F800944FF40050CDE90440B0
:102220000194029403940694694607480C94FFF7BE
:1022300077F908B1FEF736F80348FFF71DFA14B036
:1022400010BD0000004401409800002010B594B07B
:102250001C210DA8FDF7E3FF34216846FDF7DFFFE1
:1022600021482049002401604F21C0E9011440F2B7
:10227000F311C0E903148021C0E90541FFF7AAF971
:1022800008B1FEF70FF81848FFF7C6FA08B1FEF7D5
:1022900009F860200D904FF49670CDE90E0410946B
:1022A0001194129400220DA90F481394FFF71CFA01
:1022B00008B1FDF7F7FF00944FF40050CDE904405A
:1022C0000194029403940694694607480C94FFF71E
:1022D00027F908B1FDF7E6FF0348FFF7CDF914B081
:1022E00010BD000000480140E4000020FEE77047F8
:1022F000704700001049C86800F00302C868C0F3C6
:102300000310401C032A0ED00C4AB2FBF0F0CA683E
:10231000C2F306225043C968C1F34161491C490018
:10232000B0FBF1F07047064AB2FBF0F0CA68C2F3A6
:1023300006225043EFE70000001002400024F400A2
:1023400000366E0130B501210020FFF747FD4FF444
:102350007A70FDF799FF00210120FFF73FFD41F260
:1023600090711020FFF73AFD4FF41C516020FFF7E9
:1023700035FD01216120FFF731FD02214620FFF7E5
:102380002DFD48F210011320FFF728FD48F2FE0151
:102390001220FFF723FD4FF4A0610220FFF71EFD7E
:1023A00041F230010320FFF719FD40F203342146CA
:1023B0003020FFF713FD21463120FFF70FFD2146A6
:1023C0003220FFF70BFDE51E29463320FFF706FDFF
:1023D00003213420FFF702FD21463520FFF7FEFCE4
:1023E00014213620FFF7FAFC21463720FFF7F6FCD0
:1023F00021463820FFF7F2FC21463920FFF7EEFC9A
:1024000029463A20FFF7EAFC03213B20FFF7E6FCD0
:1024100021463C20FFF7E2FC4FF4A0513D20FFF79E
:10242000DDFC4FF400719220FFF7D8FC2146932089
:10243000FFF7D4FC40F60D019020FFF7CFFC41F2EE
:1024400018010320FFF7CAFCBDE8304040F27311C9
:102450000720FFF7C3BC10B543F20801E320FFF7E4
:10246000BDFC1221E720FFF7B9FC41F23121EF203A
:10247000FFF7B4FC00210120FFF7B0FC4FF4E0614E
:102480000220FFF7ABFC41F230010320FFF7A6FC6E
:1024900000210420FFF7A2FC40F207210820FFF7EB
:1024A0009DFC00210920FFF799FC00210A20FFF77D
:1024B00095FC00210C20FFF791FC00210D20FFF777
:1024C0008DFC00210F20FFF789FC00211020FFF771
:1024D00085FC07211120FFF781FC00211220FFF766
:1024E0007DFC00211320FFF779FCC820FDF7DCFEFE
:1024F00041F290611020FFF771FC40F2272111207A
:10250000FFF76CFC3220FDF7CFFE1D211220FFF7F4
:1025100065FC3220FDF7C8FE4FF400611320FFF781
:102520005DFC14212920FFF759FC0B212B20FFF71C
:1025300055FC3220FDF7B8FE00212020FFF74EFCAD
:1025400000212120FFF74AFC07213020FFF746FC3D
:1025500040F207713120FFF741FC06213220FFF7DE
:102560003DFC40F204713520FFF738FC41F6047160
:102570003620FFF733FC04213720FFF72FFC002122
:102580003820FFF72BFC40F206713920FFF726FCBC
:1025900040F201713C20FFF721FC0F213D20FFF7A5
:1025A0001DFC00215020FFF719FCEF215120FFF7FF
:1025B00015FC00215220FFF711FC40F23F1153207F
:1025C000FFF70CFC4FF41C516020FFF707FC0121C2
:1025D0006120FFF703FC00216A20FFF7FFFB0021C9
:1025E0008020FFF7FBFB00218120FFF7F7FB002194
:1025F0008220FFF7F3FB00218320FFF7EFFB002190
:102600008420FFF7EBFB00218520FFF7E7FB10217B
:102610009020FFF7E3FB00219220FFF7DFFB03216F
:102620009320FFF7DBFB4FF488719520FFF7D6FB73
:1026300000219720FFF7D2FB00219820FFF7CEFB67
:1026400041F218010320FFF7C9FBBDE8104040F23A
:1026500073110720FFF7C2BB010901EB810149009B
:1026600000F00F000844C0B2704700210A2804D3CC
:10267000491C0A38C0B20A28FAD2090740EA116098
:10268000704700002DE9F04107460024DFF848803C
:10269000D8F8000010F0400F1AD1D8F8000040F030
:1026A0008000C8F80000FDF741FF0546032608E05A
:1026B000FDF73CFF401BB0F57A7F02D9032487F871
:1026C0002560D8F8000010F0400F01D1032CEFD1A5
:1026D0002046BDE8F08100000C2800402DE9F041C3
:1026E000054600241348016821F080010160124E64
:1026F00030684FF0030710F0200F11D0306820F041
:10270000200030602846FEF7D9FE10B185F825700C
:102710000324306840F0200030602046BDE8F0819E
:102720002846FEF7CBFE0028F7D085F82570032455
:10273000F3E700000C2800401828004010B50022E4
:1027400005490648FEF742FDBDE810400022044955
:102750000248FEF761BD000010000020700000205C
:10276000480000207047FDF7E7BE10B5A4B038213F
:102770006846FDF754FD14211FA8FDF750FD4421C4
:102780000EA8FDF74CFD4FF400742046FDF774FFD2
:102790000A20009060100390402004900120022144
:1027A0000590079108911420CDE909100B910C9127
:1027B00068460D91FEF778FA0F2000211F90032044
:1027C000CDE920012291239101461FA8FEF72EF9A1
:1027D000A0020E901E940EA8FDF7BCFF24B010BD01
:1027E0000548016841F47001016003494FF0006041
:1027F000803908607047000088ED00E02DE9F001A5
:102800000268234C234BDFF89080DFF890C0A04291
:1028100008D0B0F1804F05D0984203D0404501D098
:10282000604503D122F070024D682A431C4D1D4EB5
:102830001D4FA0420ED0B0F1804F0BD0984209D06E
:10284000404507D0604505D0A84203D0B04201D032
:10285000B84203D122F44072CB681A434B6922F08C
:1028600080021A4302608A68C2620A688262A042D9
:1028700007D0604505D0A84203D0B04201D0B8428D
:1028800001D10969016301214161BDE8F00170478F
:10289000002C0140000400400008004000340140CA
:1028A0000040014000440140004801402DE9F00390
:1028B000026A22F001020262026A4368D0F818C07C
:1028C0002CF0700C2CF4803C2CF0030C0C6844EAC7
:1028D0000C0C22F002028C682243194C194D1A4E3E
:1028E0001A4FDFF86C80A04207D0A84205D0B04252
:1028F00003D0B84201D0404507D122F00802D1F8F8
:102900000C9049EA020222F00402A04207D0A84239
:1029100005D0B04203D0B84201D0404507D123F4DE
:10292000807323F400734C6923438C692343436011
:10293000C0F818C0496841630262BDE8F0037047FF
:10294000002C01400034014000400140004401409F
:102950000048014070B4026A22F010020262036A69
:102960004268D0F818C02CF4E04C2CF0807C2CF499
:10297000407C0C684CEA042C23F020038C6843EA6A
:102980000413194C194DA04201D0A84206D123F0DE
:102990008003CE6843EA061323F04003A04210D020
:1029A000A8420ED0A0F18044B4F5A03409D0A0F123
:1029B0008044B4F5A23404D0A0F18044B4F5A4342A
:1029C00009D122F4806222F400624C6942EA840256
:1029D0008C6942EA84024260C0F818C04968816389
:1029E000036270BC70470000002C014000340140BD
:1029F00070B4026A22F480720262036A4268D0F8FC
:102A00001CC02CF0700C2CF4803C2CF0030C0C68D7
:102A100044EA0C0C23F400738C6843EA0423194C39
:102A2000194DA04201D0A84206D123F40063CE681C
:102A300043EA062323F48063A04210D0A8420ED0BC
:102A4000A0F18044B4F5A03409D0A0F18044B4F5DD
:102A5000A23404D0A0F18044B4F5A43409D122F406
:102A6000805222F400524C6942EA04128C6942EA14
:102A700004124260C0F81CC04968C163036270BCA4
:102A800070470000002C01400034014070B4026A1D
:102A900022F480520262036A4268D0F81CC02CF40F
:102AA000E04C2CF0807C2CF4407C0C684CEA042C2C
:102AB00023F400538C6843EA0433194C194DA042A7
:102AC00001D0A84206D123F40043CE6843EA06337E
:102AD00023F48043A04210D0A8420ED0A0F180443D
:102AE000B4F5A03409D0A0F18044B4F5A23404D0E8
:102AF000A0F18044B4F5A43409D122F4804222F438
:102B000000424C6942EA84128C6942EA84124260B3
:102B1000C0F81CC049680164036270BC70470000C3
:102B2000002C01400034014010B4026A22F48032CB
:102B30000262D0F820C04268036D23F0700323F4D2
:102B400080330C6823432CF4003C0C894CEA044C81
:102B5000A0F18044B4F5963413D0A0F18044B4F5CC
:102B60009A340ED0A0F18044B4F5A03409D0A0F17D
:102B70008044B4F5A23404D0A0F18044B4F5A43468
:102B800004D122F480324C6942EA04224260036597
:102B900049688164C0F820C010BC704710B4026A54
:102BA00022F480120262D0F820C04268036D23F440
:102BB000E04323F080730C6843EA04232CF4001CE8
:102BC0000C894CEA045CA0F18044B4F5963413D02F
:102BD000A0F18044B4F59A340ED0A0F18044B4F54D
:102BE000A03409D0A0F18044B4F5A23404D0A0F1FF
:102BF0008044B4F5A43404D122F480224C6942EA22
:102C00008422426003654968C164C0F820C010BCDA
:102C10007047FEE70FB4084B10B504A902AA039849
:102C200000F01CF8044602A9002000F0B8F9204684
:102C300010BC5DF814FB00009F2F000802E008C8DC
:102C4000121F08C1002AFAD170477047002001E026
:102C500001C1121F002AFBD1704700002DE9FF4F70
:102C60008BB088460546002606E025280BD0DDE916
:102C70000D1290476D1C761C28780028F5D10FB0F6
:102C80003046BDE8F08F0024A146A2460122AE499D
:102C900000E0044315F8013F203B02FA03F008422C
:102CA000F7D128782A2810D06FF02F022878A0F1C9
:102CB0003001092915D809EB890102EB410144F0E3
:102CC000020400EB01096D1CF0E758F8041B5FEAF1
:102CD000010903D544F40054C9F1000944F0020489
:102CE0006D1C28782E2817D115F8010F44F0040424
:102CF0002A280ED06FF02F022878A0F13001092980
:102D00000AD80AEB8A0102EB410100EB010A6D1CB3
:102D1000F2E758F804AB6D1C28786C280FD006DC5D
:102D20004C2817D068280DD06A2814D104E07428E4
:102D300010D07A280FD10DE044F400140AE044F4D6
:102D4000801401E044F440146978814202D104F512
:102D500080146D1C6D1C2878692865D006DC00285D
:102D60008DD0632827D0642806D15DE06E2808D076
:102D700073282AD0752877D0DDE90D129047761C8C
:102D8000E0E0C4F30250022809D003280DD0D8F89F
:102D9000001004280DD00E6008F10408D2E0D8F825
:102DA0000010F217C1E90062F6E7D8F800100E80B3
:102DB000F2E70E70F0E718F8041B8DF80010002001
:102DC0008DF80100EB46012003E058F804BB4FF0FA
:102DD000FF3061074FF0000701D40AE07F1C574520
:102DE0000DDA8742FADB1BF807100029F6D106E05E
:102DF0007F1C8742FCDB1BF807100029F8D1DDE9B6
:102E00000D23A9EB07008146214600F0B1F83044BC
:102E1000C61904E0DDE90D121BF8010B90477F1E77
:102E2000F8D22146484688E058F8040BC4F3025112
:102E30004FF00A0B032900D100B2042900D140B29F
:102E4000002802DA40422D2102E0210505D52B2180
:102E50008DF82410012104E006E0E10710D02021C4
:102E6000F6E708AF089113E058F8040BC4F30251D9
:102E70004FF00A0B032900D180B2042900D1C0B25F
:102E80000021EEE75946FDF7D5F9303107F8011D6D
:102E90000028F7D1ADEB070000F1200B600702D549
:102EA00024F4803401E04FF0010ADA4502DDAAEB98
:102EB0000B0000E00020824600EB0B010898014463
:102EC000A9EB01000A90E00306D4DDE90D232146B9
:102ED0000A9800F04DF806444FF0000908E009A9EF
:102EE00011F80900DDE90D12904709F10109761C7E
:102EF00008998945F3DBE0030CD5DDE90D23214674
:102F00000A9800F035F8064404E0DDE90D1230209F
:102F10009047761CBAF10001AAF1010AF5DC05E040
:102F2000DDE90D1217F8010B9047761CBBF100018B
:102F3000ABF1010BF4DC0A982146DDE90D2300F02A
:102F400005F806446D1C97E6092801002DE9F041BB
:102F5000044600251E461746880404D405E0394679
:102F60002020B0476D1C641EF9D52846BDE8F081CD
:102F70002DE9F041044600251E469046C80301D5C0
:102F8000302700E02027880404D505E04146384674
:102F9000B0476D1C641EF9D52846BDE8F0810A686B
:102FA000531C0B6010707047074B10B5596A002016
:102FB00003F10C04225C8A4200DD1146401C042807
:102FC000F8DB596210BD00000800002006490A68BD
:102FD0000648036AD21AB2F57A7F04D309680162FF
:102FE000C179491CC17170474400002008000020CD
:102FF0001CB5FDF7A9FAFFF7B8FBFFF701F8FFF7DB
:103000008DF8FFF7D3F8FFF721F9FEF70FFEFEF773
:103010001FFF0020FEF762FD0020FEF761FE4FF665
:10302000FF763046FEF770FE012220214FF09040DF
:10303000FDF775FA264C4FF4784704F10C0500BFF4
:10304000FFF77CFBFEF71CFC00F0CEF8FFF7ACFFAF
:1030500000F05AF8FEF744FFFEF7C4FC3846FEF7CE
:1030600053FEE2791BA11D48FFF7D4FD1B499020B8
:10307000FEF79AFD62781AA11848FFF7CBFD1749B1
:10308000A820FEF791FDA27918A11448FFF7C2FD10
:1030900012490020FEF788FD16A11048626AFFF76A
:1030A000B9FD0E491820FEF77FFDE978A878CDE933
:1030B00000016B782A7811A10848FFF7ABFD07499A
:1030C0004820FEF771FD3046FEF71EFEB8E700000F
:1030D000080000207365633A256400005C0000204E
:1030E000436F756E7465723A25640000736A3A2501
:1030F00064000000626A3A256420200025642025CF
:10310000642025642025640070B5364C0026606A72
:1031100060B1217804F10C05884202DD4FF0010016
:10312000A07105DA4FF00200A07130E0A67170BD09
:10313000A079012828D1FFF749FFE079062823D19B
:103140002078401CC0B220702978814201D1012131
:1031500000E000216A78824201D1012200E00022D1
:103160001143AA78824201D1012200E000221143DA
:10317000EA78824201D1012000E00020014302D020
:103180006078401E6070E671A0790228CFD1FFF709
:103190001DFFE0790628CAD12078401EC0B22070F9
:1031A0002978814201D1012100E000216A78824220
:1031B00001D1012200E000221143AA78824201D10C
:1031C000012200E000221143EA78824201D101206D
:1031D00000E00020014302D06078401E6070E6717C
:1031E00070BD00000800002070B5084900200546A9
:1031F0000C784A6A01F10C031E5CA64201D11D54F1
:103200000022401C0428F7DB4A6270BD0800002041
:1032100000000000000000000000000000000000AE
:10322000000000000000000000000000000000009E
:10323000000000000000000000000000000000008E
:1032400000008001800180018001800180018001F7
:103250008001800180018001800180010000000068
:10326000800180010000000000000000000000005C
:1032700000000000CC00CC00CC00CC00CC00CC0086
:10328000000000000000000000000000000000003E
:10329000000000000000000000000000000000002E
:1032A000000000000000000000000000600C600C46
:1032B000600C30063006FE1FFE1F3006380718036C
:1032C000FE1FFE1F180318038C018C018C010000E7
:1032D00000008000E003F80F9C0E8C1C8C188C0002
:1032E0009800F801E007800E801C8C188C189C1840
:1032F000B80CF00FE0038000800000000000000028
:103300000000000000000E181B0C110C1106110625
:10331000110311039B018E01C038C06C60446044EE
:10332000304430441844186C0C3800000000000091
:103330000000E001F0033807180618063003F0011A
:10334000F000F8009C310E33061E061C061C063FDA
:10335000FC73F021000000000000000000000000ED
:10336000000000000C000C000C000C000C000C0015
:10337000000000000000000000000000000000004D
:10338000000000000000000000000000000000003D
:103390000000000200038001C000C0006000600067
:1033A000300030003000300030003000300030009D
:1033B00060006000C000C000800100030002000047
:1033C000000020006000C0008001800100030003B5
:1033D00000060006000600060006000600060006BD
:1033E0000003000380018001C00060002000000095
:1033F000000000000000000000000000C000C0004D
:10340000D806F807E001300338070000000000008C
:1034100000000000000000000000000000000000AC
:10342000000000000000000000000000800180019A
:10343000800180018001FC3FFC3F80018001800110
:10344000800180010000000000000000000000007A
:10345000000000000000000000000000000000006C
:10346000000000000000000000000000000000005C
:1034700000008001800100010001800000000000C8
:10348000000000000000000000000000000000003C
:103490000000000000000000E007E007000000005E
:1034A000000000000000000000000000000000001C
:1034B000000000000000000000000000000000000C
:1034C00000000000000000000000000000000000FC
:1034D0000000C000C000000000000000000000006C
:1034E0000000000C000C00060006000600030003AC
:1034F00000038003800180018001C000C000C00083
:1035000060006000000000000000000000000000FB
:103510000000E003F007380E180C0C180C180C18FB
:103520000C180C180C180C180C180C18180C380E59
:10353000F007E003000000000000000000000000B1
:10354000000000018001C001F001980188018001A4
:103550008001800180018001800180018001800163
:103560008001800100000000000000000000000059
:103570000000E003F80F180C0C180C1800180018C5
:10358000000C000600038001C0006000300018003D
:10359000FC1FFC1F000000000000000000000000F5
:1035A0000000E001F807180E0C0C0C0C000C0006D3
:1035B000C003C007000C001800180C180C18180CD9
:1035C000F807E00300000000000000000000000019
:1035D0000000000C000E000F000F800DC00C600CEE
:1035E000600C300C180C0C0CFC3FFC3F000C000C69
:1035F000000C000C000000000000000000000000B3
:103600000000F80FF80F180018000C00EC03FC077E
:103610001C0E001C0018001800180C181C0C180EAA
:10362000F807E003000000000000000000000000B8
:103630000000C007F00F381C181818000C00CC034D
:10364000EC0F3C0E1C1C0C180C180C18181C380E17
:10365000F007E00300000000000000000000000090
:103660000000FC1FFC1F000C000600060003800386
:103670008001C001C000E000600060007000300008
:1036800030003000000000000000000000000000DA
:103690000000E003F007380E180C180C180C380660
:1036A000F007F007180C0C180C180C180C18380C34
:1036B000F80FE00300000000000000000000000020
:1036C0000000E003F007380E1C0C0C180C180C1846
:1036D0001C1C381EF81BE0190018000C000C1C0EF6
:1036E000F807F001000000000000000000000000EA
:1036F00000000000000000000000000080018001C8
:1037000000000000000000000000000000000000B9
:1037100080018001000000000000000000000000A7
:103720000000000000000000000000008001800197
:103730000000000000000000000000000000000089
:1037400080018001000100018000000000000000F5
:103750000000000000000000000000000000000069
:103760000010001C800FE003F8001800F800E003D0
:10377000800F001C0010000000000000000000008E
:103780000000000000000000000000000000000039
:10379000F81F000000000000F81F000000000000FB
:1037A0000000000000000000000000000000000019
:1037B0000000000000000000000000000000000009
:1037C00008003800F001C007001F0018001FC007E4
:1037D000F0013800080000000000000000000000B8
:1037E0000000E003F80F180C0C180C180018000C5F
:1037F000000600038001C000C000C00000000000FF
:10380000C000C00000000000000000000000000038
:1038100000000000E00718180420C229224A1144C1
:1038200009440944094409221113E20C024004200E
:103830001818E00700000000000000000000000071
:10384000000080038003C006C006C006600C600C48
:10385000301830183018F83FF83F1C700C600C60BE
:1038600006C006C0000000000000000000000000CC
:103870000000FC03FC0F0C0C0C180C180C180C0CA2
:10388000FC07FC0F0C180C300C300C300C300C18F2
:10389000FC1FFC070000000000000000000000000A
:1038A0000000C007F01F38381C300C70066006009E
:1038B0000600060006000600060006600C701C30BC
:1038C000F01FE00700000000000000000000000002
:1038D0000000FE03FE0F060E06180618063006301E
:1038E0000630063006300630063006180618060E7A
:1038F000FE0FFE03000000000000000000000000BA
:103900000000FC3FFC3F0C000C000C000C000C0005
:10391000FC1FFC1F0C000C000C000C000C000C0029
:10392000FC3FFC3F00000000000000000000000021
:103930000000F83FF83F18001800180018001800A1
:10394000F81FF81F180018001800180018001800B9
:103950001800180000000000000000000000000037
:103960000000E00FF83F3C780E6006E007C003005F
:10397000030003FE03FE03C007C006C00EC03CF0F8
:10398000F83FE00F00000000000000000000000011
:1039900000000C300C300C300C300C300C300C3083
:1039A000FC3FFC3F0C300C300C300C300C300C3039
:1039B0000C300C300000000000000000000000008F
:1039C0000000800180018001800180018001800170
:1039D00080018001800180018001800180018001DF
:1039E00080018001000000000000000000000000D5
:1039F000000000060006000600060006000600069D
:103A0000000600060006000600061806180638071D
:103A1000F003E001000000000000000000000000D2
:103A2000000006300618060C060606038601C600CE
:103A300066007600DE008E0106030606060C0618F8
:103A400006300660000000000000000000000000DA
:103A500000001800180018001800180018001800BE
:103A60001800180018001800180018001800180096
:103A7000F81FF81F00000000000000000000000018
:103A800000000EE01EF01EF01EF036D836D836D8F4
:103A900036D866CC66CC66CCC6C6C6C6C6C6C6C652
:103AA00086C386C300000000000000000000000084
:103AB00000000C301C303C303C306C306C30CC3072
:103AC000CC308C310C330C330C360C360C3C0C3CAB
:103AD0000C380C3000000000000000000000000066
:103AE0000000E007F81F1C380E70066003C003C01A
:103AF00003C003C003C003C003C006600E701C38BF
:103B0000F81FE007000000000000000000000000B7
:103B10000000FC0FFC1F0C380C300C300C300C304B
:103B20000C18FC1FFC070C000C000C000C000C0017
:103B30000C000C000000000000000000000000006D
:103B40000000E007F81F1C380E70066003E003C099
:103B500003C003C003C003C007E006630E3F1C3C64
:103B6000F83FE0F700C00000000000000000000087
:103B70000000FE0FFE1F06380630063006300638FD
:103B8000FE1FFE0706030606060C0618061806307A
:103B90000630066000000000000000000000000089
:103BA0000000E003F80F1C0C0C180C180C001C0093
:103BB000F803E00F001E0038063006300E301C1CE3
:103BC000F80FE00700000000000000000000000007
:103BD0000000FE7FFE7F8001800180018001800166
:103BE00080018001800180018001800180018001CD
:103BF00080018001000000000000000000000000C3
:103C000000000C300C300C300C300C300C300C3010
:103C10000C300C300C300C300C300C300C301818D0
:103C2000F81FE00700000000000000000000000096
:103C3000000003600630063006300C180C180C1813
:103C4000180C180C380E300630067007600360033D
:103C5000C001C001000000000000000000000000E2
:103C600000000360C361C361C361663366336633BA
:103C70006633663366336C1B6C1B6C1B2C1A3C1E44
:103C8000380E380E000000000000000000000000A8
:103C900000000FE00C7018303018700C600EC00778
:103CA00080038003C003E006700C301C18180C3031
:103CB0000E6007E0000000000000000000000000AF
:103CC000000003C006600C301C383818300C600649
:103CD000E007C00380018001800180018001800134
:103CE00080018001000000000000000000000000D2
:103CF0000000FC7FFC7F006000300018000C000614
:103D000000038001C0006000300018000C000600B5
:103D1000FE7FFE7F000000000000000000000000A9
:103D20000000E003E00360006000600060006000ED
:103D30006000600060006000600060006000600083
:103D400060006000600060006000E003E0030000CD
:103D5000000030003000600060006000C000C00063
:103D6000C000C00180018001800100030003000346
:103D70000006000600000000000000000000000037
:103D80000000E003E003000300030003000300035E
:103D9000000300030003000300030003000300030B
:103DA00000030003000300030003E003E00300003E
:103DB00000000000C001C001600360036003300622
:103DC0003006180C180C0000000000000000000075
:103DD00000000000000000000000000000000000E3
:103DE00000000000000000000000000000000000D3
:103DF00000000000000000000000000000000000C3
:103E00000000FFFFFFFF00000000000000000000B6
:103E100000000C000C000C000C000C000C0000005A
:103E20000000000000000000000000000000000092
:103E30000000000000000000000000000000000082
:103E4000000000000000000000000000F003F80780
:103E50001C0C0C0C000FF00FF80C0C0C0C0C1C0FB5
:103E6000F80FF01800000000000000000000000043
:103E7000000018001800180018001800D803F80FE8
:103E8000380C181818181818181818181818380C8A
:103E9000F80FD80300000000000000000000000040
:103EA000000000000000000000000000C003F00758
:103EB000300E180C1800180018001800180C300EDE
:103EC000F007C00300000000000000000000000038
:103ED000000000180018001800180018C01BF01F80
:103EE000301C181818181818181818181818301C1A
:103EF000F01FC01B000000000000000000000000D8
:103F0000000000000000000000000000C003F00FEF
:103F1000300C1818F81FF81F180018003818301C3B
:103F2000F00FC007000000000000000000000000CB
:103F30000000800FC00FC000C000C000F007F007F5
:103F4000C000C000C000C000C000C000C000C00071
:103F5000C000C000000000000000000000000000E1
:103F6000000000000000000000000000E00DF80F5D
:103F7000180E0C0C0C0C0C0C0C0C0C0C0C0C180E65
:103F8000F80FE00D000C0C0C1C06F807F001000007
:103F9000000018001800180018001800D807F80FC3
:103FA000381C18181818181818181818181818186D
:103FB00018181818000000000000000000000000A1
:103FC0000000C000C000000000000000C000C000F1
:103FD000C000C000C000C000C000C000C000C000E1
:103FE000C000C00000000000000000000000000051
:103FF0000000C000C000000000000000C000C000C1
:10400000C000C000C000C000C000C000C000C000B0
:10401000C000C000C000C000C000F8007800000070
:1040200000000C000C000C000C000C000C0C0C062A
:104030000C038C01CC006C00FC009C018C030C0375
:104040000C060C0C00000000000000000000000046
:104050000000C000C000C000C000C000C000C00020
:10406000C000C000C000C000C000C000C000C00050
:10407000C000C000000000000000000000000000C0
:104080000000000000000000000000007C3CFF7EFB
:10409000C7E383C183C183C183C183C183C183C19A
:1040A00083C183C100000000000000000000000088
:1040B0000000000000000000000000009807F80F5A
:1040C000381C18181818181818181818181818184C
:1040D0001818181800000000000000000000000080
:1040E000000000000000000000000000C003F00F0E
:1040F000300C181818181818181818181818300C28
:10410000F00FC003000000000000000000000000ED
:10411000000000000000000000000000D803F80FBD
:10412000380C181818181818181818181818380CE7
:10413000F80FD80318001800180018001800000025
:10414000000000000000000000000000C01BF01F85
:10415000301C181818181818181818181818301CA7
:10416000F01FC01B001800180018001800180000ED
:10417000000000000000000000000000B007F00395
:10418000700030003000300030003000300030006F
:1041900030003000000000000000000000000000BF
:1041A000000000000000000000000000E003F00339
:1041B000380E180C3800F003C007000C180C380E2D
:1041C000F007E00300000000000000000000000015
:1041D000000000008000C000C000C000F007F00731
:1041E000C000C000C000C000C000C000C000C000CF
:1041F000C007800700000000000000000000000071
:10420000000000000000000000000000181818184E
:104210001818181818181818181818181818381CFA
:10422000F01FE01900000000000000000000000086
:104230000000000000000000000000000C18180C36
:10424000180C180C3006300630066003600360035B
:10425000C001C001000000000000000000000000DC
:10426000000000000000000000000000C141C1414A
:10427000C3616363636363633636363636361C1C4C
:104280001C1C1C1C000000000000000000000000BE
:104290000000000000000000000000001C38381C76
:1042A000300C600660036003600360036006300C3E
:1042B000381C1C3800000000000000000000000056
:1042C000000000000000000000000000183030185E
:1042D00030187018600C600CE00CC006C00680033B
:1042E0008003800380018001C001F00070000000A5
:1042F000000000000000000000000000FC1FFC1F88
:10430000000C000600038001C000600030001800AF
:10431000FC1FFC1F00000000000000000000000067
:10432000000000038001C000C000C000C000C00049
:10433000C00060006000300060004000C000C000AD
:10434000C000C000C000C0008001000300000000E9
:1043500000008001800180018001800180018001D6
:104360008001800180018001800180018001800145
:1043700080018001800180018001800180010000B6
:1043800000006000C000C001800180018001800148
:10439000800100030003000600030001800180018A
:1043A0008001800180018001C000600000000000E9
:1043B00000000000000000000000000000000000FD
:1043C000F010F81F080F00000000000000000000BF
:1043D00000000000000000000000000000000000DD
:1043E00000000000000000000102030406070809A5
:1043F0001044000800000020480000003C2C000889
:104400005844000848000020E80400004C2C000834
:104410000000FFFF0000000001000000000000009D
:10442000000000000000000000000000000000008C
:10443000000000000000000000000000000000007C
:1044400000000000000000000024F4001000000044
:08445000010000000000000063
:04000005080001D915
:00000001FF
